{"contracts/FToken.sol":{"FToken":{"abi":[{"inputs":[],"stateMutability":"nonpayable","type":"constructor"},{"anonymous":false,"inputs":[{"indexed":false,"internalType":"uint256","name":"id","type":"uint256"},{"indexed":false,"internalType":"string","name":"s_rarity","type":"string"},{"indexed":false,"internalType":"uint8","name":"speed","type":"uint8"},{"indexed":false,"internalType":"uint8","name":"acceleration","type":"uint8"},{"indexed":false,"internalType":"uint8","name":"maniability","type":"uint8"},{"indexed":false,"internalType":"uint32","name":"readyTime","type":"uint32"}],"name":"NewCar","type":"event"},{"anonymous":false,"inputs":[{"indexed":true,"internalType":"address","name":"_user","type":"address"},{"indexed":true,"internalType":"uint256","name":"_car","type":"uint256"}],"name":"ResetCooldown","type":"event"},{"anonymous":false,"inputs":[{"indexed":true,"internalType":"address","name":"_from","type":"address"},{"indexed":true,"internalType":"address","name":"_to","type":"address"},{"indexed":false,"internalType":"uint256","name":"_value","type":"uint256"}],"name":"Transfer","type":"event"},{"inputs":[{"internalType":"address","name":"account","type":"address"}],"name":"balanceOf","outputs":[{"internalType":"uint256","name":"","type":"uint256"}],"stateMutability":"view","type":"function"},{"inputs":[{"internalType":"uint256","name":"","type":"uint256"}],"name":"carToOwner","outputs":[{"internalType":"address","name":"","type":"address"}],"stateMutability":"view","type":"function"},{"inputs":[{"internalType":"uint8","name":"rarity","type":"uint8"}],"name":"generateBooster","outputs":[],"stateMutability":"payable","type":"function"},{"inputs":[{"internalType":"uint256","name":"id","type":"uint256"}],"name":"getCar","outputs":[{"components":[{"internalType":"uint256","name":"id","type":"uint256"},{"internalType":"string","name":"rarity","type":"string"},{"internalType":"uint8","name":"speed","type":"uint8"},{"internalType":"uint8","name":"acceleration","type":"uint8"},{"internalType":"uint8","name":"maniability","type":"uint8"},{"internalType":"uint32","name":"readyTime","type":"uint32"}],"internalType":"struct FCar.Car","name":"","type":"tuple"}],"stateMutability":"view","type":"function"},{"inputs":[],"name":"getUserCars","outputs":[{"internalType":"uint256[]","name":"","type":"uint256[]"}],"stateMutability":"view","type":"function"},{"inputs":[],"name":"name","outputs":[{"internalType":"string","name":"","type":"string"}],"stateMutability":"view","type":"function"},{"inputs":[],"name":"owner","outputs":[{"internalType":"address","name":"","type":"address"}],"stateMutability":"view","type":"function"},{"inputs":[{"internalType":"uint256","name":"id","type":"uint256"}],"name":"resetCooldown","outputs":[],"stateMutability":"payable","type":"function"},{"inputs":[],"name":"symbol","outputs":[{"internalType":"string","name":"","type":"string"}],"stateMutability":"view","type":"function"},{"inputs":[],"name":"totalSupply","outputs":[{"internalType":"uint256","name":"","type":"uint256"}],"stateMutability":"view","type":"function"},{"inputs":[{"internalType":"address","name":"to","type":"address"},{"internalType":"uint256","name":"amount","type":"uint256"}],"name":"transfer","outputs":[],"stateMutability":"nonpayable","type":"function"}],"evm":{"bytecode":{"linkReferences":{},"object":"6080604052600060055562015180600660006101000a81548163ffffffff021916908363ffffffff1602179055506040518060600160405280609660ff168152602001604b60ff168152602001600a60ff16815250600790600362000066929190620001d6565b506040518060400160405280600c81526020017f462d5261636520546f6b656e000000000000000000000000000000000000000081525060089081620000ad91906200051f565b506040518060400160405280600381526020017f465254000000000000000000000000000000000000000000000000000000000081525060099081620000f491906200051f565b50620f4240600a553480156200010957600080fd5b50336000806101000a81548173ffffffffffffffffffffffffffffffffffffffff021916908373ffffffffffffffffffffffffffffffffffffffff160217905550600a54600b60003373ffffffffffffffffffffffffffffffffffffffff1673ffffffffffffffffffffffffffffffffffffffff16815260200190815260200160002081905550336000806101000a81548173ffffffffffffffffffffffffffffffffffffffff021916908373ffffffffffffffffffffffffffffffffffffffff16021790555062000606565b82805482825590600052602060002090600f01601090048101928215620002735791602002820160005b838211156200024157835183826101000a81548161ffff021916908360ff160217905550926020019260020160208160010104928301926001030262000200565b8015620002715782816101000a81549061ffff021916905560020160208160010104928301926001030262000241565b505b50905062000282919062000286565b5090565b5b80821115620002a157600081600090555060010162000287565b5090565b600081519050919050565b7f4e487b7100000000000000000000000000000000000000000000000000000000600052604160045260246000fd5b7f4e487b7100000000000000000000000000000000000000000000000000000000600052602260045260246000fd5b600060028204905060018216806200032757607f821691505b6020821081036200033d576200033c620002df565b5b50919050565b60008190508160005260206000209050919050565b60006020601f8301049050919050565b600082821b905092915050565b600060088302620003a77fffffffffffffffffffffffffffffffffffffffffffffffffffffffffffffffff8262000368565b620003b3868362000368565b95508019841693508086168417925050509392505050565b6000819050919050565b6000819050919050565b600062000400620003fa620003f484620003cb565b620003d5565b620003cb565b9050919050565b6000819050919050565b6200041c83620003df565b620004346200042b8262000407565b84845462000375565b825550505050565b600090565b6200044b6200043c565b6200045881848462000411565b505050565b5b8181101562000480576200047460008262000441565b6001810190506200045e565b5050565b601f821115620004cf57620004998162000343565b620004a48462000358565b81016020851015620004b4578190505b620004cc620004c38562000358565b8301826200045d565b50505b505050565b600082821c905092915050565b6000620004f460001984600802620004d4565b1980831691505092915050565b60006200050f8383620004e1565b9150826002028217905092915050565b6200052a82620002a5565b67ffffffffffffffff811115620005465762000545620002b0565b5b6200055282546200030e565b6200055f82828562000484565b600060209050601f83116001811462000597576000841562000582578287015190505b6200058e858262000501565b865550620005fe565b601f198416620005a78662000343565b60005b82811015620005d157848901518255600182019150602085019450602081019050620005aa565b86831015620005f15784890151620005ed601f891682620004e1565b8355505b6001600288020188555050505b505050505050565b612e5880620006166000396000f3fe60806040526004361061009c5760003560e01c80636b3830c6116100645780636b3830c61461018d57806370a08231146101a95780638da5cb5b146101e657806395d89b4114610211578063a9059cbb1461023c578063c27a399d146102655761009c565b806306fdde03146100a157806318160ddd146100cc5780631d609098146100f757806333ca504b146101135780635e8be19014610150575b600080fd5b3480156100ad57600080fd5b506100b6610290565b6040516100c3919061207e565b60405180910390f35b3480156100d857600080fd5b506100e161031e565b6040516100ee91906120b9565b60405180910390f35b610111600480360381019061010c9190612112565b610324565b005b34801561011f57600080fd5b5061013a6004803603810190610135919061216b565b6104c8565b60405161014791906121d9565b60405180910390f35b34801561015c57600080fd5b506101776004803603810190610172919061216b565b6104fb565b6040516101849190612304565b60405180910390f35b6101a760048036038101906101a2919061216b565b610650565b005b3480156101b557600080fd5b506101d060048036038101906101cb9190612352565b61087a565b6040516101dd91906120b9565b60405180910390f35b3480156101f257600080fd5b506101fb6108c3565b60405161020891906121d9565b60405180910390f35b34801561021d57600080fd5b506102266108e7565b604051610233919061207e565b60405180910390f35b34801561024857600080fd5b50610263600480360381019061025e919061237f565b610975565b005b34801561027157600080fd5b5061027a610b30565b604051610287919061246e565b60405180910390f35b6008805461029d906124bf565b80601f01602080910402602001604051908101604052809291908181526020018280546102c9906124bf565b80156103165780601f106102eb57610100808354040283529160200191610316565b820191906000526020600020905b8154815290600101906020018083116102f957829003601f168201915b505050505081565b600a5481565b600060078260ff168154811061033d5761033c6124f0565b5b90600052602060002090601091828204019190066002029054906101000a900461ffff1690508061ffff16600b60003373ffffffffffffffffffffffffffffffffffffffff1673ffffffffffffffffffffffffffffffffffffffff1681526020019081526020016000205410156103b357600080fd5b6103e6604051806060016040528060228152602001612db860229139336103dc8560ff16610bc5565b8461ffff16610c8f565b8061ffff16600b60003373ffffffffffffffffffffffffffffffffffffffff1673ffffffffffffffffffffffffffffffffffffffff1681526020019081526020016000206000828254610439919061254e565b925050819055508061ffff16600b60008060009054906101000a900473ffffffffffffffffffffffffffffffffffffffff1673ffffffffffffffffffffffffffffffffffffffff1673ffffffffffffffffffffffffffffffffffffffff16815260200190815260200160002060008282546104b49190612582565b925050819055506104c482610d31565b5050565b60026020528060005260406000206000915054906101000a900473ffffffffffffffffffffffffffffffffffffffff1681565b610503611f7f565b60018281548110610517576105166124f0565b5b90600052602060002090600302016040518060c00160405290816000820154815260200160018201805461054a906124bf565b80601f0160208091040260200160405190810160405280929190818152602001828054610576906124bf565b80156105c35780601f10610598576101008083540402835291602001916105c3565b820191906000526020600020905b8154815290600101906020018083116105a657829003601f168201915b505050505081526020016002820160009054906101000a900460ff1660ff1660ff1681526020016002820160019054906101000a900460ff1660ff1660ff1681526020016002820160029054906101000a900460ff1660ff1660ff1681526020016002820160039054906101000a900463ffffffff1663ffffffff1663ffffffff16815250509050919050565b600a600b60003373ffffffffffffffffffffffffffffffffffffffff1673ffffffffffffffffffffffffffffffffffffffff1681526020019081526020016000205410156106d3576040517f08c379a00000000000000000000000000000000000000000000000000000000081526004016106ca90612602565b60405180910390fd5b610718604051806060016040528060258152602001612dda6025913933600a60008054906101000a900473ffffffffffffffffffffffffffffffffffffffff16610dcd565b600a600b60003373ffffffffffffffffffffffffffffffffffffffff1673ffffffffffffffffffffffffffffffffffffffff1681526020019081526020016000206000828254610768919061254e565b92505081905550600a600b60008060009054906101000a900473ffffffffffffffffffffffffffffffffffffffff1673ffffffffffffffffffffffffffffffffffffffff1673ffffffffffffffffffffffffffffffffffffffff16815260200190815260200160002060008282546107e09190612582565b925050819055506107f18133610e6f565b60008054906101000a900473ffffffffffffffffffffffffffffffffffffffff1673ffffffffffffffffffffffffffffffffffffffff163373ffffffffffffffffffffffffffffffffffffffff167fddf252ad1be2c89b69c2b068fc378daa952ba7f163c4a11628f55a4df523b3ef600a60405161086f9190612667565b60405180910390a350565b6000600b60008373ffffffffffffffffffffffffffffffffffffffff1673ffffffffffffffffffffffffffffffffffffffff168152602001908152602001600020549050919050565b60008054906101000a900473ffffffffffffffffffffffffffffffffffffffff1681565b600980546108f4906124bf565b80601f0160208091040260200160405190810160405280929190818152602001828054610920906124bf565b801561096d5780601f106109425761010080835404028352916020019161096d565b820191906000526020600020905b81548152906001019060200180831161095057829003601f168201915b505050505081565b80600b60003373ffffffffffffffffffffffffffffffffffffffff1673ffffffffffffffffffffffffffffffffffffffff1681526020019081526020016000205410156109f7576040517f08c379a00000000000000000000000000000000000000000000000000000000081526004016109ee90612602565b60405180910390fd5b610a1b604051806060016040528060248152602001612dff60249139338484610fa8565b80600b60003373ffffffffffffffffffffffffffffffffffffffff1673ffffffffffffffffffffffffffffffffffffffff1681526020019081526020016000206000828254610a6a919061254e565b9250508190555080600b60008473ffffffffffffffffffffffffffffffffffffffff1673ffffffffffffffffffffffffffffffffffffffff1681526020019081526020016000206000828254610ac09190612582565b925050819055508173ffffffffffffffffffffffffffffffffffffffff163373ffffffffffffffffffffffffffffffffffffffff167fddf252ad1be2c89b69c2b068fc378daa952ba7f163c4a11628f55a4df523b3ef83604051610b2491906120b9565b60405180910390a35050565b6060600460003373ffffffffffffffffffffffffffffffffffffffff1673ffffffffffffffffffffffffffffffffffffffff168152602001908152602001600020805480602002602001604051908101604052809291908181526020018280548015610bbb57602002820191906000526020600020905b815481526020019060010190808311610ba7575b5050505050905090565b606060008203610c0c576040518060400160405280600481526020017f476f6c64000000000000000000000000000000000000000000000000000000008152509050610c8a565b60018203610c51576040518060400160405280600681526020017f53696c76657200000000000000000000000000000000000000000000000000008152509050610c8a565b6040518060400160405280600681526020017f42726f6e7a65000000000000000000000000000000000000000000000000000081525090505b919050565b610d2b84848484604051602401610ca99493929190612682565b6040516020818303038152906040527f91d1112e000000000000000000000000000000000000000000000000000000007bffffffffffffffffffffffffffffffffffffffffffffffffffffffff19166020820180517bffffffffffffffffffffffffffffffffffffffffffffffffffffffff838183161783525050505061104a565b50505050565b60008160ff1610158015610d49575060038160ff1611155b610d88576040517f08c379a0000000000000000000000000000000000000000000000000000000008152600401610d7f90612721565b60405180910390fd5b610d9d600382610d989190612741565b611073565b60005b60048160ff161015610dc957610db66000611073565b8080610dc190612776565b915050610da0565b5050565b610e6984848484604051602401610de7949392919061279f565b6040516020818303038152906040527f63fb8bc5000000000000000000000000000000000000000000000000000000007bffffffffffffffffffffffffffffffffffffffffffffffffffffffff19166020820180517bffffffffffffffffffffffffffffffffffffffffffffffffffffffff838183161783525050505061104a565b50505050565b8073ffffffffffffffffffffffffffffffffffffffff166002600084815260200190815260200160002060009054906101000a900473ffffffffffffffffffffffffffffffffffffffff1673ffffffffffffffffffffffffffffffffffffffff1614610f10576040517f08c379a0000000000000000000000000000000000000000000000000000000008152600401610f0790612837565b60405180910390fd5b600142610f1d9190612582565b60018381548110610f3157610f306124f0565b5b906000526020600020906003020160020160036101000a81548163ffffffff021916908363ffffffff160217905550818173ffffffffffffffffffffffffffffffffffffffff167f1e20cfa0dd7c11d3ad3d1737fe9ae16a0cacf7da2ac0388b19636e1db3c0eeff60405160405180910390a35050565b61104484848484604051602401610fc29493929190612857565b6040516020818303038152906040527f8ef3f399000000000000000000000000000000000000000000000000000000007bffffffffffffffffffffffffffffffffffffffffffffffffffffffff19166020820180517bffffffffffffffffffffffffffffffffffffffffffffffffffffffff838183161783525050505061104a565b50505050565b60008151905060006a636f6e736f6c652e6c6f679050602083016000808483855afa5050505050565b60008160ff161015801561108b575060068160ff1611155b6110ca576040517f08c379a00000000000000000000000000000000000000000000000000000000081526004016110c1906128ef565b60405180910390fd5b60006110d4611508565b90506000600660009054906101000a900463ffffffff1663ffffffff16426110fc9190612582565b9050600061110a600361151d565b905060008167ffffffffffffffff8111156111285761112761290f565b5b6040519080825280602002602001820160405280156111565781602001602082028036833780820191505090505b50905060005b828110156111b55760005b611171600361151d565b905061117d8382611579565b6111675780838381518110611195576111946124f0565b5b6020026020010181815250505080806111ad9061293e565b91505061115c565b5060606111c0611fc4565b6000808860ff16036111e257620f4240876111db91906129b5565b9050611262565b60018860ff16036111f65760019050611261565b60028860ff160361120b576101f49050611260565b60038860ff160361122057611388905061125f565b60048860ff160361123557614e20905061125e565b60058860ff160361124a57617530905061125d565b60068860ff160361125c57620186a090505b5b5b5b5b5b5b61126b816115d4565b9250611278878286611771565b91506000600180549050905060016040518060c00160405280838152602001868152602001856000015160ff168152602001856020015160ff168152602001856040015160ff1681526020018963ffffffff1681525090806001815401808255809150506001900390600052602060002090600302016000909190919091506000820151816000015560208201518160010190816113169190612b88565b5060408201518160020160006101000a81548160ff021916908360ff16021790555060608201518160020160016101000a81548160ff021916908360ff16021790555060808201518160020160026101000a81548160ff021916908360ff16021790555060a08201518160020160036101000a81548163ffffffff021916908363ffffffff1602179055505050336002600083815260200190815260200160002060006101000a81548173ffffffffffffffffffffffffffffffffffffffff021916908373ffffffffffffffffffffffffffffffffffffffff160217905550600360003373ffffffffffffffffffffffffffffffffffffffff1673ffffffffffffffffffffffffffffffffffffffff16815260200190815260200160002060008154809291906114459061293e565b9190505550600460003373ffffffffffffffffffffffffffffffffffffffff1673ffffffffffffffffffffffffffffffffffffffff1681526020019081526020016000208190806001815401808255809150506001900390600052602060002001600090919091909150557f68f1b0c6421768ff2feaa94447c09d83abf4adc2aaa08dc350d7a87ce0a7e87a81858560000151866020015187604001518c6040516114f596959493929190612c78565b60405180910390a1505050505050505050565b600061151864174876e80061151d565b905090565b6000600560008154809291906115329061293e565b919050555081423360055460405160200161154f93929190612d49565b6040516020818303038152906040528051906020012060001c6115729190612d86565b9050919050565b600080600090505b83518110156115c8578284828151811061159e5761159d6124f0565b5b6020026020010151036115b55760019150506115ce565b80806115c09061293e565b915050611581565b50600090505b92915050565b60606001821161161b576040518060400160405280600581526020017f52656c6963000000000000000000000000000000000000000000000000000000815250905061176c565b6101f48211611661576040518060400160405280600981526020017f4c6567656e646172790000000000000000000000000000000000000000000000815250905061176c565b61138882116116a7576040518060400160405280600681526020017f4d79746869630000000000000000000000000000000000000000000000000000815250905061176c565b614e2082116116ed576040518060400160405280600481526020017f5261726500000000000000000000000000000000000000000000000000000000815250905061176c565b6175308211611733576040518060400160405280600881526020017f556e636f6d6d6f6e000000000000000000000000000000000000000000000000815250905061176c565b6040518060400160405280600681526020017f436f6d6d6f6e000000000000000000000000000000000000000000000000000081525090505b919050565b611779611fc4565b611781611fc4565b600184116117b7576040518060600160405280606460ff168152602001606460ff168152602001606460ff168152509050611f74565b6101f48411611945576117cb836000611579565b6118065760146064612710876117e191906129b5565b6117eb9190612d86565b6117f59190612d86565b60506118019190612582565b611839565b600a60646127108761181891906129b5565b6118229190612d86565b61182c9190612d86565b605a6118389190612582565b5b816000019060ff16908160ff1681525050611855836001611579565b61188e5760146064808761186991906129b5565b6118739190612d86565b61187d9190612d86565b60506118899190612582565b6118bf565b600a6064808761189e91906129b5565b6118a89190612d86565b6118b29190612d86565b605a6118be9190612582565b5b816020019060ff16908160ff16815250506118db836002611579565b6119095760146064866118ee9190612d86565b6118f89190612d86565b60506119049190612582565b61192f565b600a6064866119189190612d86565b6119229190612d86565b605a61192e9190612582565b5b816040019060ff16908160ff1681525050611f73565b6113888411611ad357611959836000611579565b61199457601960646127108761196f91906129b5565b6119799190612d86565b6119839190612d86565b604161198f9190612582565b6119c7565b600a6064612710876119a691906129b5565b6119b09190612d86565b6119ba9190612d86565b60506119c69190612582565b5b816000019060ff16908160ff16815250506119e3836001611579565b611a1c576019606480876119f791906129b5565b611a019190612d86565b611a0b9190612d86565b6041611a179190612582565b611a4d565b600a60648087611a2c91906129b5565b611a369190612d86565b611a409190612d86565b6050611a4c9190612582565b5b816020019060ff16908160ff1681525050611a69836002611579565b611a97576019606486611a7c9190612d86565b611a869190612d86565b6041611a929190612582565b611abd565b600a606486611aa69190612d86565b611ab09190612d86565b6050611abc9190612582565b5b816040019060ff16908160ff1681525050611f72565b614e208411611c6157611ae7836000611579565b611b2257601e606461271087611afd91906129b5565b611b079190612d86565b611b119190612d86565b6032611b1d9190612582565b611b55565b600f606461271087611b3491906129b5565b611b3e9190612d86565b611b489190612d86565b6041611b549190612582565b5b816000019060ff16908160ff1681525050611b71836001611579565b611baa57601e60648087611b8591906129b5565b611b8f9190612d86565b611b999190612d86565b6032611ba59190612582565b611bdb565b600f60648087611bba91906129b5565b611bc49190612d86565b611bce9190612d86565b6041611bda9190612582565b5b816020019060ff16908160ff1681525050611bf7836002611579565b611c2557601e606486611c0a9190612d86565b611c149190612d86565b6032611c209190612582565b611c4b565b600f606486611c349190612d86565b611c3e9190612d86565b6041611c4a9190612582565b5b816040019060ff16908160ff1681525050611f71565b6175308411611def57611c75836000611579565b611cb0576014606461271087611c8b91906129b5565b611c959190612d86565b611c9f9190612d86565b601e611cab9190612582565b611ce3565b600f606461271087611cc291906129b5565b611ccc9190612d86565b611cd69190612d86565b6032611ce29190612582565b5b816000019060ff16908160ff1681525050611cff836001611579565b611d3857601460648087611d1391906129b5565b611d1d9190612d86565b611d279190612d86565b601e611d339190612582565b611d69565b600f60648087611d4891906129b5565b611d529190612d86565b611d5c9190612d86565b6032611d689190612582565b5b816020019060ff16908160ff1681525050611d85836002611579565b611db3576014606486611d989190612d86565b611da29190612d86565b601e611dae9190612582565b611dd9565b600f606486611dc29190612d86565b611dcc9190612d86565b6032611dd89190612582565b5b816040019060ff16908160ff1681525050611f70565b611dfa836000611579565b611e3557600a606461271087611e1091906129b5565b611e1a9190612d86565b611e249190612d86565b6014611e309190612582565b611e68565b6005606461271087611e4791906129b5565b611e519190612d86565b611e5b9190612d86565b601e611e679190612582565b5b816000019060ff16908160ff1681525050611e84836001611579565b611ebd57600a60648087611e9891906129b5565b611ea29190612d86565b611eac9190612d86565b6014611eb89190612582565b611eee565b600560648087611ecd91906129b5565b611ed79190612d86565b611ee19190612d86565b601e611eed9190612582565b5b816020019060ff16908160ff1681525050611f0a836002611579565b611f3857600a606486611f1d9190612d86565b611f279190612d86565b6014611f339190612582565b611f5e565b6005606486611f479190612d86565b611f519190612d86565b601e611f5d9190612582565b5b816040019060ff16908160ff16815250505b5b5b5b5b809150509392505050565b6040518060c001604052806000815260200160608152602001600060ff168152602001600060ff168152602001600060ff168152602001600063ffffffff1681525090565b6040518060600160405280600060ff168152602001600060ff168152602001600060ff1681525090565b600081519050919050565b600082825260208201905092915050565b60005b8381101561202857808201518184015260208101905061200d565b60008484015250505050565b6000601f19601f8301169050919050565b600061205082611fee565b61205a8185611ff9565b935061206a81856020860161200a565b61207381612034565b840191505092915050565b600060208201905081810360008301526120988184612045565b905092915050565b6000819050919050565b6120b3816120a0565b82525050565b60006020820190506120ce60008301846120aa565b92915050565b600080fd5b600060ff82169050919050565b6120ef816120d9565b81146120fa57600080fd5b50565b60008135905061210c816120e6565b92915050565b600060208284031215612128576121276120d4565b5b6000612136848285016120fd565b91505092915050565b612148816120a0565b811461215357600080fd5b50565b6000813590506121658161213f565b92915050565b600060208284031215612181576121806120d4565b5b600061218f84828501612156565b91505092915050565b600073ffffffffffffffffffffffffffffffffffffffff82169050919050565b60006121c382612198565b9050919050565b6121d3816121b8565b82525050565b60006020820190506121ee60008301846121ca565b92915050565b6121fd816120a0565b82525050565b600082825260208201905092915050565b600061221f82611fee565b6122298185612203565b935061223981856020860161200a565b61224281612034565b840191505092915050565b612256816120d9565b82525050565b600063ffffffff82169050919050565b6122758161225c565b82525050565b600060c08301600083015161229360008601826121f4565b50602083015184820360208601526122ab8282612214565b91505060408301516122c0604086018261224d565b5060608301516122d3606086018261224d565b5060808301516122e6608086018261224d565b5060a08301516122f960a086018261226c565b508091505092915050565b6000602082019050818103600083015261231e818461227b565b905092915050565b61232f816121b8565b811461233a57600080fd5b50565b60008135905061234c81612326565b92915050565b600060208284031215612368576123676120d4565b5b60006123768482850161233d565b91505092915050565b60008060408385031215612396576123956120d4565b5b60006123a48582860161233d565b92505060206123b585828601612156565b9150509250929050565b600081519050919050565b600082825260208201905092915050565b6000819050602082019050919050565b60006123f783836121f4565b60208301905092915050565b6000602082019050919050565b600061241b826123bf565b61242581856123ca565b9350612430836123db565b8060005b8381101561246157815161244888826123eb565b975061245383612403565b925050600181019050612434565b5085935050505092915050565b600060208201905081810360008301526124888184612410565b905092915050565b7f4e487b7100000000000000000000000000000000000000000000000000000000600052602260045260246000fd5b600060028204905060018216806124d757607f821691505b6020821081036124ea576124e9612490565b5b50919050565b7f4e487b7100000000000000000000000000000000000000000000000000000000600052603260045260246000fd5b7f4e487b7100000000000000000000000000000000000000000000000000000000600052601160045260246000fd5b6000612559826120a0565b9150612564836120a0565b925082820390508181111561257c5761257b61251f565b5b92915050565b600061258d826120a0565b9150612598836120a0565b92508282019050808211156125b0576125af61251f565b5b92915050565b7f4e6f7420656e6f75676820746f6b656e73000000000000000000000000000000600082015250565b60006125ec601183611ff9565b91506125f7826125b6565b602082019050919050565b6000602082019050818103600083015261261b816125df565b9050919050565b6000819050919050565b6000819050919050565b600061265161264c61264784612622565b61262c565b6120a0565b9050919050565b61266181612636565b82525050565b600060208201905061267c6000830184612658565b92915050565b6000608082019050818103600083015261269c8187612045565b90506126ab60208301866121ca565b81810360408301526126bd8185612045565b90506126cc60608301846120aa565b95945050505050565b7f496e76616c696420626f6f737465722074797065000000000000000000000000600082015250565b600061270b601483611ff9565b9150612716826126d5565b602082019050919050565b6000602082019050818103600083015261273a816126fe565b9050919050565b600061274c826120d9565b9150612757836120d9565b9250828201905060ff8111156127705761276f61251f565b5b92915050565b6000612781826120d9565b915060ff82036127945761279361251f565b5b600182019050919050565b600060808201905081810360008301526127b98187612045565b90506127c860208301866121ca565b6127d560408301856120aa565b6127e260608301846121ca565b95945050505050565b7f55736572206e6f74206f776e6572206f66207468697320636172000000000000600082015250565b6000612821601a83611ff9565b915061282c826127eb565b602082019050919050565b6000602082019050818103600083015261285081612814565b9050919050565b600060808201905081810360008301526128718187612045565b905061288060208301866121ca565b61288d60408301856121ca565b61289a60608301846120aa565b95945050505050565b7f496e76616c696420726172697479000000000000000000000000000000000000600082015250565b60006128d9600e83611ff9565b91506128e4826128a3565b602082019050919050565b60006020820190508181036000830152612908816128cc565b9050919050565b7f4e487b7100000000000000000000000000000000000000000000000000000000600052604160045260246000fd5b6000612949826120a0565b91507fffffffffffffffffffffffffffffffffffffffffffffffffffffffffffffffff820361297b5761297a61251f565b5b600182019050919050565b7f4e487b7100000000000000000000000000000000000000000000000000000000600052601260045260246000fd5b60006129c0826120a0565b91506129cb836120a0565b9250826129db576129da612986565b5b828204905092915050565b60008190508160005260206000209050919050565b60006020601f8301049050919050565b600082821b905092915050565b600060088302612a487fffffffffffffffffffffffffffffffffffffffffffffffffffffffffffffffff82612a0b565b612a528683612a0b565b95508019841693508086168417925050509392505050565b6000612a85612a80612a7b846120a0565b61262c565b6120a0565b9050919050565b6000819050919050565b612a9f83612a6a565b612ab3612aab82612a8c565b848454612a18565b825550505050565b600090565b612ac8612abb565b612ad3818484612a96565b505050565b5b81811015612af757612aec600082612ac0565b600181019050612ad9565b5050565b601f821115612b3c57612b0d816129e6565b612b16846129fb565b81016020851015612b25578190505b612b39612b31856129fb565b830182612ad8565b50505b505050565b600082821c905092915050565b6000612b5f60001984600802612b41565b1980831691505092915050565b6000612b788383612b4e565b9150826002028217905092915050565b612b9182611fee565b67ffffffffffffffff811115612baa57612ba961290f565b5b612bb482546124bf565b612bbf828285612afb565b600060209050601f831160018114612bf25760008415612be0578287015190505b612bea8582612b6c565b865550612c52565b601f198416612c00866129e6565b60005b82811015612c2857848901518255600182019150602085019450602081019050612c03565b86831015612c455784890151612c41601f891682612b4e565b8355505b6001600288020188555050505b505050505050565b612c63816120d9565b82525050565b612c728161225c565b82525050565b600060c082019050612c8d60008301896120aa565b8181036020830152612c9f8188612045565b9050612cae6040830187612c5a565b612cbb6060830186612c5a565b612cc86080830185612c5a565b612cd560a0830184612c69565b979650505050505050565b6000819050919050565b612cfb612cf6826120a0565b612ce0565b82525050565b60008160601b9050919050565b6000612d1982612d01565b9050919050565b6000612d2b82612d0e565b9050919050565b612d43612d3e826121b8565b612d20565b82525050565b6000612d558286612cea565b602082019150612d658285612d32565b601482019150612d758284612cea565b602082019150819050949350505050565b6000612d91826120a0565b9150612d9c836120a0565b925082612dac57612dab612986565b5b82820690509291505056fe257320627579696e6720257320626f6f7374657220666f7220257320746f6b656e73257320627579696e6720636f6f6c646f776e20666f7220257320746f6b656e7320282573295472616e7366657272696e672066726f6d20257320746f20257320257320746f6b656e73a2646970667358221220b2ca41b42af62ea72da8dbb620c0017a591b02b145a73809df55a12d5d56b53b64736f6c63430008120033","opcodes":"PUSH1 0x80 PUSH1 0x40 MSTORE PUSH1 0x0 PUSH1 0x5 SSTORE PUSH3 0x15180 PUSH1 0x6 PUSH1 0x0 PUSH2 0x100 EXP DUP2 SLOAD DUP2 PUSH4 0xFFFFFFFF MUL NOT AND SWAP1 DUP4 PUSH4 0xFFFFFFFF AND MUL OR SWAP1 SSTORE POP PUSH1 0x40 MLOAD DUP1 PUSH1 0x60 ADD PUSH1 0x40 MSTORE DUP1 PUSH1 0x96 PUSH1 0xFF AND DUP2 MSTORE PUSH1 0x20 ADD PUSH1 0x4B PUSH1 0xFF AND DUP2 MSTORE PUSH1 0x20 ADD PUSH1 0xA PUSH1 0xFF AND DUP2 MSTORE POP PUSH1 0x7 SWAP1 PUSH1 0x3 PUSH3 0x66 SWAP3 SWAP2 SWAP1 PUSH3 0x1D6 JUMP JUMPDEST POP PUSH1 0x40 MLOAD DUP1 PUSH1 0x40 ADD PUSH1 0x40 MSTORE DUP1 PUSH1 0xC DUP2 MSTORE PUSH1 0x20 ADD PUSH32 0x462D5261636520546F6B656E0000000000000000000000000000000000000000 DUP2 MSTORE POP PUSH1 0x8 SWAP1 DUP2 PUSH3 0xAD SWAP2 SWAP1 PUSH3 0x51F JUMP JUMPDEST POP PUSH1 0x40 MLOAD DUP1 PUSH1 0x40 ADD PUSH1 0x40 MSTORE DUP1 PUSH1 0x3 DUP2 MSTORE PUSH1 0x20 ADD PUSH32 0x4652540000000000000000000000000000000000000000000000000000000000 DUP2 MSTORE POP PUSH1 0x9 SWAP1 DUP2 PUSH3 0xF4 SWAP2 SWAP1 PUSH3 0x51F JUMP JUMPDEST POP PUSH3 0xF4240 PUSH1 0xA SSTORE CALLVALUE DUP1 ISZERO PUSH3 0x109 JUMPI PUSH1 0x0 DUP1 REVERT JUMPDEST POP CALLER PUSH1 0x0 DUP1 PUSH2 0x100 EXP DUP2 SLOAD DUP2 PUSH20 0xFFFFFFFFFFFFFFFFFFFFFFFFFFFFFFFFFFFFFFFF MUL NOT AND SWAP1 DUP4 PUSH20 0xFFFFFFFFFFFFFFFFFFFFFFFFFFFFFFFFFFFFFFFF AND MUL OR SWAP1 SSTORE POP PUSH1 0xA SLOAD PUSH1 0xB PUSH1 0x0 CALLER PUSH20 0xFFFFFFFFFFFFFFFFFFFFFFFFFFFFFFFFFFFFFFFF AND PUSH20 0xFFFFFFFFFFFFFFFFFFFFFFFFFFFFFFFFFFFFFFFF AND DUP2 MSTORE PUSH1 0x20 ADD SWAP1 DUP2 MSTORE PUSH1 0x20 ADD PUSH1 0x0 KECCAK256 DUP2 SWAP1 SSTORE POP CALLER PUSH1 0x0 DUP1 PUSH2 0x100 EXP DUP2 SLOAD DUP2 PUSH20 0xFFFFFFFFFFFFFFFFFFFFFFFFFFFFFFFFFFFFFFFF MUL NOT AND SWAP1 DUP4 PUSH20 0xFFFFFFFFFFFFFFFFFFFFFFFFFFFFFFFFFFFFFFFF AND MUL OR SWAP1 SSTORE POP PUSH3 0x606 JUMP JUMPDEST DUP3 DUP1 SLOAD DUP3 DUP3 SSTORE SWAP1 PUSH1 0x0 MSTORE PUSH1 0x20 PUSH1 0x0 KECCAK256 SWAP1 PUSH1 0xF ADD PUSH1 0x10 SWAP1 DIV DUP2 ADD SWAP3 DUP3 ISZERO PUSH3 0x273 JUMPI SWAP2 PUSH1 0x20 MUL DUP3 ADD PUSH1 0x0 JUMPDEST DUP4 DUP3 GT ISZERO PUSH3 0x241 JUMPI DUP4 MLOAD DUP4 DUP3 PUSH2 0x100 EXP DUP2 SLOAD DUP2 PUSH2 0xFFFF MUL NOT AND SWAP1 DUP4 PUSH1 0xFF AND MUL OR SWAP1 SSTORE POP SWAP3 PUSH1 0x20 ADD SWAP3 PUSH1 0x2 ADD PUSH1 0x20 DUP2 PUSH1 0x1 ADD DIV SWAP3 DUP4 ADD SWAP3 PUSH1 0x1 SUB MUL PUSH3 0x200 JUMP JUMPDEST DUP1 ISZERO PUSH3 0x271 JUMPI DUP3 DUP2 PUSH2 0x100 EXP DUP2 SLOAD SWAP1 PUSH2 0xFFFF MUL NOT AND SWAP1 SSTORE PUSH1 0x2 ADD PUSH1 0x20 DUP2 PUSH1 0x1 ADD DIV SWAP3 DUP4 ADD SWAP3 PUSH1 0x1 SUB MUL PUSH3 0x241 JUMP JUMPDEST POP JUMPDEST POP SWAP1 POP PUSH3 0x282 SWAP2 SWAP1 PUSH3 0x286 JUMP JUMPDEST POP SWAP1 JUMP JUMPDEST JUMPDEST DUP1 DUP3 GT ISZERO PUSH3 0x2A1 JUMPI PUSH1 0x0 DUP2 PUSH1 0x0 SWAP1 SSTORE POP PUSH1 0x1 ADD PUSH3 0x287 JUMP JUMPDEST POP SWAP1 JUMP JUMPDEST PUSH1 0x0 DUP2 MLOAD SWAP1 POP SWAP2 SWAP1 POP JUMP JUMPDEST PUSH32 0x4E487B7100000000000000000000000000000000000000000000000000000000 PUSH1 0x0 MSTORE PUSH1 0x41 PUSH1 0x4 MSTORE PUSH1 0x24 PUSH1 0x0 REVERT JUMPDEST PUSH32 0x4E487B7100000000000000000000000000000000000000000000000000000000 PUSH1 0x0 MSTORE PUSH1 0x22 PUSH1 0x4 MSTORE PUSH1 0x24 PUSH1 0x0 REVERT JUMPDEST PUSH1 0x0 PUSH1 0x2 DUP3 DIV SWAP1 POP PUSH1 0x1 DUP3 AND DUP1 PUSH3 0x327 JUMPI PUSH1 0x7F DUP3 AND SWAP2 POP JUMPDEST PUSH1 0x20 DUP3 LT DUP2 SUB PUSH3 0x33D JUMPI PUSH3 0x33C PUSH3 0x2DF JUMP JUMPDEST JUMPDEST POP SWAP2 SWAP1 POP JUMP JUMPDEST PUSH1 0x0 DUP2 SWAP1 POP DUP2 PUSH1 0x0 MSTORE PUSH1 0x20 PUSH1 0x0 KECCAK256 SWAP1 POP SWAP2 SWAP1 POP JUMP JUMPDEST PUSH1 0x0 PUSH1 0x20 PUSH1 0x1F DUP4 ADD DIV SWAP1 POP SWAP2 SWAP1 POP JUMP JUMPDEST PUSH1 0x0 DUP3 DUP3 SHL SWAP1 POP SWAP3 SWAP2 POP POP JUMP JUMPDEST PUSH1 0x0 PUSH1 0x8 DUP4 MUL PUSH3 0x3A7 PUSH32 0xFFFFFFFFFFFFFFFFFFFFFFFFFFFFFFFFFFFFFFFFFFFFFFFFFFFFFFFFFFFFFFFF DUP3 PUSH3 0x368 JUMP JUMPDEST PUSH3 0x3B3 DUP7 DUP4 PUSH3 0x368 JUMP JUMPDEST SWAP6 POP DUP1 NOT DUP5 AND SWAP4 POP DUP1 DUP7 AND DUP5 OR SWAP3 POP POP POP SWAP4 SWAP3 POP POP POP JUMP JUMPDEST PUSH1 0x0 DUP2 SWAP1 POP SWAP2 SWAP1 POP JUMP JUMPDEST PUSH1 0x0 DUP2 SWAP1 POP SWAP2 SWAP1 POP JUMP JUMPDEST PUSH1 0x0 PUSH3 0x400 PUSH3 0x3FA PUSH3 0x3F4 DUP5 PUSH3 0x3CB JUMP JUMPDEST PUSH3 0x3D5 JUMP JUMPDEST PUSH3 0x3CB JUMP JUMPDEST SWAP1 POP SWAP2 SWAP1 POP JUMP JUMPDEST PUSH1 0x0 DUP2 SWAP1 POP SWAP2 SWAP1 POP JUMP JUMPDEST PUSH3 0x41C DUP4 PUSH3 0x3DF JUMP JUMPDEST PUSH3 0x434 PUSH3 0x42B DUP3 PUSH3 0x407 JUMP JUMPDEST DUP5 DUP5 SLOAD PUSH3 0x375 JUMP JUMPDEST DUP3 SSTORE POP POP POP POP JUMP JUMPDEST PUSH1 0x0 SWAP1 JUMP JUMPDEST PUSH3 0x44B PUSH3 0x43C JUMP JUMPDEST PUSH3 0x458 DUP2 DUP5 DUP5 PUSH3 0x411 JUMP JUMPDEST POP POP POP JUMP JUMPDEST JUMPDEST DUP2 DUP2 LT ISZERO PUSH3 0x480 JUMPI PUSH3 0x474 PUSH1 0x0 DUP3 PUSH3 0x441 JUMP JUMPDEST PUSH1 0x1 DUP2 ADD SWAP1 POP PUSH3 0x45E JUMP JUMPDEST POP POP JUMP JUMPDEST PUSH1 0x1F DUP3 GT ISZERO PUSH3 0x4CF JUMPI PUSH3 0x499 DUP2 PUSH3 0x343 JUMP JUMPDEST PUSH3 0x4A4 DUP5 PUSH3 0x358 JUMP JUMPDEST DUP2 ADD PUSH1 0x20 DUP6 LT ISZERO PUSH3 0x4B4 JUMPI DUP2 SWAP1 POP JUMPDEST PUSH3 0x4CC PUSH3 0x4C3 DUP6 PUSH3 0x358 JUMP JUMPDEST DUP4 ADD DUP3 PUSH3 0x45D JUMP JUMPDEST POP POP JUMPDEST POP POP POP JUMP JUMPDEST PUSH1 0x0 DUP3 DUP3 SHR SWAP1 POP SWAP3 SWAP2 POP POP JUMP JUMPDEST PUSH1 0x0 PUSH3 0x4F4 PUSH1 0x0 NOT DUP5 PUSH1 0x8 MUL PUSH3 0x4D4 JUMP JUMPDEST NOT DUP1 DUP4 AND SWAP2 POP POP SWAP3 SWAP2 POP POP JUMP JUMPDEST PUSH1 0x0 PUSH3 0x50F DUP4 DUP4 PUSH3 0x4E1 JUMP JUMPDEST SWAP2 POP DUP3 PUSH1 0x2 MUL DUP3 OR SWAP1 POP SWAP3 SWAP2 POP POP JUMP JUMPDEST PUSH3 0x52A DUP3 PUSH3 0x2A5 JUMP JUMPDEST PUSH8 0xFFFFFFFFFFFFFFFF DUP2 GT ISZERO PUSH3 0x546 JUMPI PUSH3 0x545 PUSH3 0x2B0 JUMP JUMPDEST JUMPDEST PUSH3 0x552 DUP3 SLOAD PUSH3 0x30E JUMP JUMPDEST PUSH3 0x55F DUP3 DUP3 DUP6 PUSH3 0x484 JUMP JUMPDEST PUSH1 0x0 PUSH1 0x20 SWAP1 POP PUSH1 0x1F DUP4 GT PUSH1 0x1 DUP2 EQ PUSH3 0x597 JUMPI PUSH1 0x0 DUP5 ISZERO PUSH3 0x582 JUMPI DUP3 DUP8 ADD MLOAD SWAP1 POP JUMPDEST PUSH3 0x58E DUP6 DUP3 PUSH3 0x501 JUMP JUMPDEST DUP7 SSTORE POP PUSH3 0x5FE JUMP JUMPDEST PUSH1 0x1F NOT DUP5 AND PUSH3 0x5A7 DUP7 PUSH3 0x343 JUMP JUMPDEST PUSH1 0x0 JUMPDEST DUP3 DUP2 LT ISZERO PUSH3 0x5D1 JUMPI DUP5 DUP10 ADD MLOAD DUP3 SSTORE PUSH1 0x1 DUP3 ADD SWAP2 POP PUSH1 0x20 DUP6 ADD SWAP5 POP PUSH1 0x20 DUP2 ADD SWAP1 POP PUSH3 0x5AA JUMP JUMPDEST DUP7 DUP4 LT ISZERO PUSH3 0x5F1 JUMPI DUP5 DUP10 ADD MLOAD PUSH3 0x5ED PUSH1 0x1F DUP10 AND DUP3 PUSH3 0x4E1 JUMP JUMPDEST DUP4 SSTORE POP JUMPDEST PUSH1 0x1 PUSH1 0x2 DUP9 MUL ADD DUP9 SSTORE POP POP POP JUMPDEST POP POP POP POP POP POP JUMP JUMPDEST PUSH2 0x2E58 DUP1 PUSH3 0x616 PUSH1 0x0 CODECOPY PUSH1 0x0 RETURN INVALID PUSH1 0x80 PUSH1 0x40 MSTORE PUSH1 0x4 CALLDATASIZE LT PUSH2 0x9C JUMPI PUSH1 0x0 CALLDATALOAD PUSH1 0xE0 SHR DUP1 PUSH4 0x6B3830C6 GT PUSH2 0x64 JUMPI DUP1 PUSH4 0x6B3830C6 EQ PUSH2 0x18D JUMPI DUP1 PUSH4 0x70A08231 EQ PUSH2 0x1A9 JUMPI DUP1 PUSH4 0x8DA5CB5B EQ PUSH2 0x1E6 JUMPI DUP1 PUSH4 0x95D89B41 EQ PUSH2 0x211 JUMPI DUP1 PUSH4 0xA9059CBB EQ PUSH2 0x23C JUMPI DUP1 PUSH4 0xC27A399D EQ PUSH2 0x265 JUMPI PUSH2 0x9C JUMP JUMPDEST DUP1 PUSH4 0x6FDDE03 EQ PUSH2 0xA1 JUMPI DUP1 PUSH4 0x18160DDD EQ PUSH2 0xCC JUMPI DUP1 PUSH4 0x1D609098 EQ PUSH2 0xF7 JUMPI DUP1 PUSH4 0x33CA504B EQ PUSH2 0x113 JUMPI DUP1 PUSH4 0x5E8BE190 EQ PUSH2 0x150 JUMPI JUMPDEST PUSH1 0x0 DUP1 REVERT JUMPDEST CALLVALUE DUP1 ISZERO PUSH2 0xAD JUMPI PUSH1 0x0 DUP1 REVERT JUMPDEST POP PUSH2 0xB6 PUSH2 0x290 JUMP JUMPDEST PUSH1 0x40 MLOAD PUSH2 0xC3 SWAP2 SWAP1 PUSH2 0x207E JUMP JUMPDEST PUSH1 0x40 MLOAD DUP1 SWAP2 SUB SWAP1 RETURN JUMPDEST CALLVALUE DUP1 ISZERO PUSH2 0xD8 JUMPI PUSH1 0x0 DUP1 REVERT JUMPDEST POP PUSH2 0xE1 PUSH2 0x31E JUMP JUMPDEST PUSH1 0x40 MLOAD PUSH2 0xEE SWAP2 SWAP1 PUSH2 0x20B9 JUMP JUMPDEST PUSH1 0x40 MLOAD DUP1 SWAP2 SUB SWAP1 RETURN JUMPDEST PUSH2 0x111 PUSH1 0x4 DUP1 CALLDATASIZE SUB DUP2 ADD SWAP1 PUSH2 0x10C SWAP2 SWAP1 PUSH2 0x2112 JUMP JUMPDEST PUSH2 0x324 JUMP JUMPDEST STOP JUMPDEST CALLVALUE DUP1 ISZERO PUSH2 0x11F JUMPI PUSH1 0x0 DUP1 REVERT JUMPDEST POP PUSH2 0x13A PUSH1 0x4 DUP1 CALLDATASIZE SUB DUP2 ADD SWAP1 PUSH2 0x135 SWAP2 SWAP1 PUSH2 0x216B JUMP JUMPDEST PUSH2 0x4C8 JUMP JUMPDEST PUSH1 0x40 MLOAD PUSH2 0x147 SWAP2 SWAP1 PUSH2 0x21D9 JUMP JUMPDEST PUSH1 0x40 MLOAD DUP1 SWAP2 SUB SWAP1 RETURN JUMPDEST CALLVALUE DUP1 ISZERO PUSH2 0x15C JUMPI PUSH1 0x0 DUP1 REVERT JUMPDEST POP PUSH2 0x177 PUSH1 0x4 DUP1 CALLDATASIZE SUB DUP2 ADD SWAP1 PUSH2 0x172 SWAP2 SWAP1 PUSH2 0x216B JUMP JUMPDEST PUSH2 0x4FB JUMP JUMPDEST PUSH1 0x40 MLOAD PUSH2 0x184 SWAP2 SWAP1 PUSH2 0x2304 JUMP JUMPDEST PUSH1 0x40 MLOAD DUP1 SWAP2 SUB SWAP1 RETURN JUMPDEST PUSH2 0x1A7 PUSH1 0x4 DUP1 CALLDATASIZE SUB DUP2 ADD SWAP1 PUSH2 0x1A2 SWAP2 SWAP1 PUSH2 0x216B JUMP JUMPDEST PUSH2 0x650 JUMP JUMPDEST STOP JUMPDEST CALLVALUE DUP1 ISZERO PUSH2 0x1B5 JUMPI PUSH1 0x0 DUP1 REVERT JUMPDEST POP PUSH2 0x1D0 PUSH1 0x4 DUP1 CALLDATASIZE SUB DUP2 ADD SWAP1 PUSH2 0x1CB SWAP2 SWAP1 PUSH2 0x2352 JUMP JUMPDEST PUSH2 0x87A JUMP JUMPDEST PUSH1 0x40 MLOAD PUSH2 0x1DD SWAP2 SWAP1 PUSH2 0x20B9 JUMP JUMPDEST PUSH1 0x40 MLOAD DUP1 SWAP2 SUB SWAP1 RETURN JUMPDEST CALLVALUE DUP1 ISZERO PUSH2 0x1F2 JUMPI PUSH1 0x0 DUP1 REVERT JUMPDEST POP PUSH2 0x1FB PUSH2 0x8C3 JUMP JUMPDEST PUSH1 0x40 MLOAD PUSH2 0x208 SWAP2 SWAP1 PUSH2 0x21D9 JUMP JUMPDEST PUSH1 0x40 MLOAD DUP1 SWAP2 SUB SWAP1 RETURN JUMPDEST CALLVALUE DUP1 ISZERO PUSH2 0x21D JUMPI PUSH1 0x0 DUP1 REVERT JUMPDEST POP PUSH2 0x226 PUSH2 0x8E7 JUMP JUMPDEST PUSH1 0x40 MLOAD PUSH2 0x233 SWAP2 SWAP1 PUSH2 0x207E JUMP JUMPDEST PUSH1 0x40 MLOAD DUP1 SWAP2 SUB SWAP1 RETURN JUMPDEST CALLVALUE DUP1 ISZERO PUSH2 0x248 JUMPI PUSH1 0x0 DUP1 REVERT JUMPDEST POP PUSH2 0x263 PUSH1 0x4 DUP1 CALLDATASIZE SUB DUP2 ADD SWAP1 PUSH2 0x25E SWAP2 SWAP1 PUSH2 0x237F JUMP JUMPDEST PUSH2 0x975 JUMP JUMPDEST STOP JUMPDEST CALLVALUE DUP1 ISZERO PUSH2 0x271 JUMPI PUSH1 0x0 DUP1 REVERT JUMPDEST POP PUSH2 0x27A PUSH2 0xB30 JUMP JUMPDEST PUSH1 0x40 MLOAD PUSH2 0x287 SWAP2 SWAP1 PUSH2 0x246E JUMP JUMPDEST PUSH1 0x40 MLOAD DUP1 SWAP2 SUB SWAP1 RETURN JUMPDEST PUSH1 0x8 DUP1 SLOAD PUSH2 0x29D SWAP1 PUSH2 0x24BF JUMP JUMPDEST DUP1 PUSH1 0x1F ADD PUSH1 0x20 DUP1 SWAP2 DIV MUL PUSH1 0x20 ADD PUSH1 0x40 MLOAD SWAP1 DUP2 ADD PUSH1 0x40 MSTORE DUP1 SWAP3 SWAP2 SWAP1 DUP2 DUP2 MSTORE PUSH1 0x20 ADD DUP3 DUP1 SLOAD PUSH2 0x2C9 SWAP1 PUSH2 0x24BF JUMP JUMPDEST DUP1 ISZERO PUSH2 0x316 JUMPI DUP1 PUSH1 0x1F LT PUSH2 0x2EB JUMPI PUSH2 0x100 DUP1 DUP4 SLOAD DIV MUL DUP4 MSTORE SWAP2 PUSH1 0x20 ADD SWAP2 PUSH2 0x316 JUMP JUMPDEST DUP3 ADD SWAP2 SWAP1 PUSH1 0x0 MSTORE PUSH1 0x20 PUSH1 0x0 KECCAK256 SWAP1 JUMPDEST DUP2 SLOAD DUP2 MSTORE SWAP1 PUSH1 0x1 ADD SWAP1 PUSH1 0x20 ADD DUP1 DUP4 GT PUSH2 0x2F9 JUMPI DUP3 SWAP1 SUB PUSH1 0x1F AND DUP3 ADD SWAP2 JUMPDEST POP POP POP POP POP DUP2 JUMP JUMPDEST PUSH1 0xA SLOAD DUP2 JUMP JUMPDEST PUSH1 0x0 PUSH1 0x7 DUP3 PUSH1 0xFF AND DUP2 SLOAD DUP2 LT PUSH2 0x33D JUMPI PUSH2 0x33C PUSH2 0x24F0 JUMP JUMPDEST JUMPDEST SWAP1 PUSH1 0x0 MSTORE PUSH1 0x20 PUSH1 0x0 KECCAK256 SWAP1 PUSH1 0x10 SWAP2 DUP3 DUP3 DIV ADD SWAP2 SWAP1 MOD PUSH1 0x2 MUL SWAP1 SLOAD SWAP1 PUSH2 0x100 EXP SWAP1 DIV PUSH2 0xFFFF AND SWAP1 POP DUP1 PUSH2 0xFFFF AND PUSH1 0xB PUSH1 0x0 CALLER PUSH20 0xFFFFFFFFFFFFFFFFFFFFFFFFFFFFFFFFFFFFFFFF AND PUSH20 0xFFFFFFFFFFFFFFFFFFFFFFFFFFFFFFFFFFFFFFFF AND DUP2 MSTORE PUSH1 0x20 ADD SWAP1 DUP2 MSTORE PUSH1 0x20 ADD PUSH1 0x0 KECCAK256 SLOAD LT ISZERO PUSH2 0x3B3 JUMPI PUSH1 0x0 DUP1 REVERT JUMPDEST PUSH2 0x3E6 PUSH1 0x40 MLOAD DUP1 PUSH1 0x60 ADD PUSH1 0x40 MSTORE DUP1 PUSH1 0x22 DUP2 MSTORE PUSH1 0x20 ADD PUSH2 0x2DB8 PUSH1 0x22 SWAP2 CODECOPY CALLER PUSH2 0x3DC DUP6 PUSH1 0xFF AND PUSH2 0xBC5 JUMP JUMPDEST DUP5 PUSH2 0xFFFF AND PUSH2 0xC8F JUMP JUMPDEST DUP1 PUSH2 0xFFFF AND PUSH1 0xB PUSH1 0x0 CALLER PUSH20 0xFFFFFFFFFFFFFFFFFFFFFFFFFFFFFFFFFFFFFFFF AND PUSH20 0xFFFFFFFFFFFFFFFFFFFFFFFFFFFFFFFFFFFFFFFF AND DUP2 MSTORE PUSH1 0x20 ADD SWAP1 DUP2 MSTORE PUSH1 0x20 ADD PUSH1 0x0 KECCAK256 PUSH1 0x0 DUP3 DUP3 SLOAD PUSH2 0x439 SWAP2 SWAP1 PUSH2 0x254E JUMP JUMPDEST SWAP3 POP POP DUP2 SWAP1 SSTORE POP DUP1 PUSH2 0xFFFF AND PUSH1 0xB PUSH1 0x0 DUP1 PUSH1 0x0 SWAP1 SLOAD SWAP1 PUSH2 0x100 EXP SWAP1 DIV PUSH20 0xFFFFFFFFFFFFFFFFFFFFFFFFFFFFFFFFFFFFFFFF AND PUSH20 0xFFFFFFFFFFFFFFFFFFFFFFFFFFFFFFFFFFFFFFFF AND PUSH20 0xFFFFFFFFFFFFFFFFFFFFFFFFFFFFFFFFFFFFFFFF AND DUP2 MSTORE PUSH1 0x20 ADD SWAP1 DUP2 MSTORE PUSH1 0x20 ADD PUSH1 0x0 KECCAK256 PUSH1 0x0 DUP3 DUP3 SLOAD PUSH2 0x4B4 SWAP2 SWAP1 PUSH2 0x2582 JUMP JUMPDEST SWAP3 POP POP DUP2 SWAP1 SSTORE POP PUSH2 0x4C4 DUP3 PUSH2 0xD31 JUMP JUMPDEST POP POP JUMP JUMPDEST PUSH1 0x2 PUSH1 0x20 MSTORE DUP1 PUSH1 0x0 MSTORE PUSH1 0x40 PUSH1 0x0 KECCAK256 PUSH1 0x0 SWAP2 POP SLOAD SWAP1 PUSH2 0x100 EXP SWAP1 DIV PUSH20 0xFFFFFFFFFFFFFFFFFFFFFFFFFFFFFFFFFFFFFFFF AND DUP2 JUMP JUMPDEST PUSH2 0x503 PUSH2 0x1F7F JUMP JUMPDEST PUSH1 0x1 DUP3 DUP2 SLOAD DUP2 LT PUSH2 0x517 JUMPI PUSH2 0x516 PUSH2 0x24F0 JUMP JUMPDEST JUMPDEST SWAP1 PUSH1 0x0 MSTORE PUSH1 0x20 PUSH1 0x0 KECCAK256 SWAP1 PUSH1 0x3 MUL ADD PUSH1 0x40 MLOAD DUP1 PUSH1 0xC0 ADD PUSH1 0x40 MSTORE SWAP1 DUP2 PUSH1 0x0 DUP3 ADD SLOAD DUP2 MSTORE PUSH1 0x20 ADD PUSH1 0x1 DUP3 ADD DUP1 SLOAD PUSH2 0x54A SWAP1 PUSH2 0x24BF JUMP JUMPDEST DUP1 PUSH1 0x1F ADD PUSH1 0x20 DUP1 SWAP2 DIV MUL PUSH1 0x20 ADD PUSH1 0x40 MLOAD SWAP1 DUP2 ADD PUSH1 0x40 MSTORE DUP1 SWAP3 SWAP2 SWAP1 DUP2 DUP2 MSTORE PUSH1 0x20 ADD DUP3 DUP1 SLOAD PUSH2 0x576 SWAP1 PUSH2 0x24BF JUMP JUMPDEST DUP1 ISZERO PUSH2 0x5C3 JUMPI DUP1 PUSH1 0x1F LT PUSH2 0x598 JUMPI PUSH2 0x100 DUP1 DUP4 SLOAD DIV MUL DUP4 MSTORE SWAP2 PUSH1 0x20 ADD SWAP2 PUSH2 0x5C3 JUMP JUMPDEST DUP3 ADD SWAP2 SWAP1 PUSH1 0x0 MSTORE PUSH1 0x20 PUSH1 0x0 KECCAK256 SWAP1 JUMPDEST DUP2 SLOAD DUP2 MSTORE SWAP1 PUSH1 0x1 ADD SWAP1 PUSH1 0x20 ADD DUP1 DUP4 GT PUSH2 0x5A6 JUMPI DUP3 SWAP1 SUB PUSH1 0x1F AND DUP3 ADD SWAP2 JUMPDEST POP POP POP POP POP DUP2 MSTORE PUSH1 0x20 ADD PUSH1 0x2 DUP3 ADD PUSH1 0x0 SWAP1 SLOAD SWAP1 PUSH2 0x100 EXP SWAP1 DIV PUSH1 0xFF AND PUSH1 0xFF AND PUSH1 0xFF AND DUP2 MSTORE PUSH1 0x20 ADD PUSH1 0x2 DUP3 ADD PUSH1 0x1 SWAP1 SLOAD SWAP1 PUSH2 0x100 EXP SWAP1 DIV PUSH1 0xFF AND PUSH1 0xFF AND PUSH1 0xFF AND DUP2 MSTORE PUSH1 0x20 ADD PUSH1 0x2 DUP3 ADD PUSH1 0x2 SWAP1 SLOAD SWAP1 PUSH2 0x100 EXP SWAP1 DIV PUSH1 0xFF AND PUSH1 0xFF AND PUSH1 0xFF AND DUP2 MSTORE PUSH1 0x20 ADD PUSH1 0x2 DUP3 ADD PUSH1 0x3 SWAP1 SLOAD SWAP1 PUSH2 0x100 EXP SWAP1 DIV PUSH4 0xFFFFFFFF AND PUSH4 0xFFFFFFFF AND PUSH4 0xFFFFFFFF AND DUP2 MSTORE POP POP SWAP1 POP SWAP2 SWAP1 POP JUMP JUMPDEST PUSH1 0xA PUSH1 0xB PUSH1 0x0 CALLER PUSH20 0xFFFFFFFFFFFFFFFFFFFFFFFFFFFFFFFFFFFFFFFF AND PUSH20 0xFFFFFFFFFFFFFFFFFFFFFFFFFFFFFFFFFFFFFFFF AND DUP2 MSTORE PUSH1 0x20 ADD SWAP1 DUP2 MSTORE PUSH1 0x20 ADD PUSH1 0x0 KECCAK256 SLOAD LT ISZERO PUSH2 0x6D3 JUMPI PUSH1 0x40 MLOAD PUSH32 0x8C379A000000000000000000000000000000000000000000000000000000000 DUP2 MSTORE PUSH1 0x4 ADD PUSH2 0x6CA SWAP1 PUSH2 0x2602 JUMP JUMPDEST PUSH1 0x40 MLOAD DUP1 SWAP2 SUB SWAP1 REVERT JUMPDEST PUSH2 0x718 PUSH1 0x40 MLOAD DUP1 PUSH1 0x60 ADD PUSH1 0x40 MSTORE DUP1 PUSH1 0x25 DUP2 MSTORE PUSH1 0x20 ADD PUSH2 0x2DDA PUSH1 0x25 SWAP2 CODECOPY CALLER PUSH1 0xA PUSH1 0x0 DUP1 SLOAD SWAP1 PUSH2 0x100 EXP SWAP1 DIV PUSH20 0xFFFFFFFFFFFFFFFFFFFFFFFFFFFFFFFFFFFFFFFF AND PUSH2 0xDCD JUMP JUMPDEST PUSH1 0xA PUSH1 0xB PUSH1 0x0 CALLER PUSH20 0xFFFFFFFFFFFFFFFFFFFFFFFFFFFFFFFFFFFFFFFF AND PUSH20 0xFFFFFFFFFFFFFFFFFFFFFFFFFFFFFFFFFFFFFFFF AND DUP2 MSTORE PUSH1 0x20 ADD SWAP1 DUP2 MSTORE PUSH1 0x20 ADD PUSH1 0x0 KECCAK256 PUSH1 0x0 DUP3 DUP3 SLOAD PUSH2 0x768 SWAP2 SWAP1 PUSH2 0x254E JUMP JUMPDEST SWAP3 POP POP DUP2 SWAP1 SSTORE POP PUSH1 0xA PUSH1 0xB PUSH1 0x0 DUP1 PUSH1 0x0 SWAP1 SLOAD SWAP1 PUSH2 0x100 EXP SWAP1 DIV PUSH20 0xFFFFFFFFFFFFFFFFFFFFFFFFFFFFFFFFFFFFFFFF AND PUSH20 0xFFFFFFFFFFFFFFFFFFFFFFFFFFFFFFFFFFFFFFFF AND PUSH20 0xFFFFFFFFFFFFFFFFFFFFFFFFFFFFFFFFFFFFFFFF AND DUP2 MSTORE PUSH1 0x20 ADD SWAP1 DUP2 MSTORE PUSH1 0x20 ADD PUSH1 0x0 KECCAK256 PUSH1 0x0 DUP3 DUP3 SLOAD PUSH2 0x7E0 SWAP2 SWAP1 PUSH2 0x2582 JUMP JUMPDEST SWAP3 POP POP DUP2 SWAP1 SSTORE POP PUSH2 0x7F1 DUP2 CALLER PUSH2 0xE6F JUMP JUMPDEST PUSH1 0x0 DUP1 SLOAD SWAP1 PUSH2 0x100 EXP SWAP1 DIV PUSH20 0xFFFFFFFFFFFFFFFFFFFFFFFFFFFFFFFFFFFFFFFF AND PUSH20 0xFFFFFFFFFFFFFFFFFFFFFFFFFFFFFFFFFFFFFFFF AND CALLER PUSH20 0xFFFFFFFFFFFFFFFFFFFFFFFFFFFFFFFFFFFFFFFF AND PUSH32 0xDDF252AD1BE2C89B69C2B068FC378DAA952BA7F163C4A11628F55A4DF523B3EF PUSH1 0xA PUSH1 0x40 MLOAD PUSH2 0x86F SWAP2 SWAP1 PUSH2 0x2667 JUMP JUMPDEST PUSH1 0x40 MLOAD DUP1 SWAP2 SUB SWAP1 LOG3 POP JUMP JUMPDEST PUSH1 0x0 PUSH1 0xB PUSH1 0x0 DUP4 PUSH20 0xFFFFFFFFFFFFFFFFFFFFFFFFFFFFFFFFFFFFFFFF AND PUSH20 0xFFFFFFFFFFFFFFFFFFFFFFFFFFFFFFFFFFFFFFFF AND DUP2 MSTORE PUSH1 0x20 ADD SWAP1 DUP2 MSTORE PUSH1 0x20 ADD PUSH1 0x0 KECCAK256 SLOAD SWAP1 POP SWAP2 SWAP1 POP JUMP JUMPDEST PUSH1 0x0 DUP1 SLOAD SWAP1 PUSH2 0x100 EXP SWAP1 DIV PUSH20 0xFFFFFFFFFFFFFFFFFFFFFFFFFFFFFFFFFFFFFFFF AND DUP2 JUMP JUMPDEST PUSH1 0x9 DUP1 SLOAD PUSH2 0x8F4 SWAP1 PUSH2 0x24BF JUMP JUMPDEST DUP1 PUSH1 0x1F ADD PUSH1 0x20 DUP1 SWAP2 DIV MUL PUSH1 0x20 ADD PUSH1 0x40 MLOAD SWAP1 DUP2 ADD PUSH1 0x40 MSTORE DUP1 SWAP3 SWAP2 SWAP1 DUP2 DUP2 MSTORE PUSH1 0x20 ADD DUP3 DUP1 SLOAD PUSH2 0x920 SWAP1 PUSH2 0x24BF JUMP JUMPDEST DUP1 ISZERO PUSH2 0x96D JUMPI DUP1 PUSH1 0x1F LT PUSH2 0x942 JUMPI PUSH2 0x100 DUP1 DUP4 SLOAD DIV MUL DUP4 MSTORE SWAP2 PUSH1 0x20 ADD SWAP2 PUSH2 0x96D JUMP JUMPDEST DUP3 ADD SWAP2 SWAP1 PUSH1 0x0 MSTORE PUSH1 0x20 PUSH1 0x0 KECCAK256 SWAP1 JUMPDEST DUP2 SLOAD DUP2 MSTORE SWAP1 PUSH1 0x1 ADD SWAP1 PUSH1 0x20 ADD DUP1 DUP4 GT PUSH2 0x950 JUMPI DUP3 SWAP1 SUB PUSH1 0x1F AND DUP3 ADD SWAP2 JUMPDEST POP POP POP POP POP DUP2 JUMP JUMPDEST DUP1 PUSH1 0xB PUSH1 0x0 CALLER PUSH20 0xFFFFFFFFFFFFFFFFFFFFFFFFFFFFFFFFFFFFFFFF AND PUSH20 0xFFFFFFFFFFFFFFFFFFFFFFFFFFFFFFFFFFFFFFFF AND DUP2 MSTORE PUSH1 0x20 ADD SWAP1 DUP2 MSTORE PUSH1 0x20 ADD PUSH1 0x0 KECCAK256 SLOAD LT ISZERO PUSH2 0x9F7 JUMPI PUSH1 0x40 MLOAD PUSH32 0x8C379A000000000000000000000000000000000000000000000000000000000 DUP2 MSTORE PUSH1 0x4 ADD PUSH2 0x9EE SWAP1 PUSH2 0x2602 JUMP JUMPDEST PUSH1 0x40 MLOAD DUP1 SWAP2 SUB SWAP1 REVERT JUMPDEST PUSH2 0xA1B PUSH1 0x40 MLOAD DUP1 PUSH1 0x60 ADD PUSH1 0x40 MSTORE DUP1 PUSH1 0x24 DUP2 MSTORE PUSH1 0x20 ADD PUSH2 0x2DFF PUSH1 0x24 SWAP2 CODECOPY CALLER DUP5 DUP5 PUSH2 0xFA8 JUMP JUMPDEST DUP1 PUSH1 0xB PUSH1 0x0 CALLER PUSH20 0xFFFFFFFFFFFFFFFFFFFFFFFFFFFFFFFFFFFFFFFF AND PUSH20 0xFFFFFFFFFFFFFFFFFFFFFFFFFFFFFFFFFFFFFFFF AND DUP2 MSTORE PUSH1 0x20 ADD SWAP1 DUP2 MSTORE PUSH1 0x20 ADD PUSH1 0x0 KECCAK256 PUSH1 0x0 DUP3 DUP3 SLOAD PUSH2 0xA6A SWAP2 SWAP1 PUSH2 0x254E JUMP JUMPDEST SWAP3 POP POP DUP2 SWAP1 SSTORE POP DUP1 PUSH1 0xB PUSH1 0x0 DUP5 PUSH20 0xFFFFFFFFFFFFFFFFFFFFFFFFFFFFFFFFFFFFFFFF AND PUSH20 0xFFFFFFFFFFFFFFFFFFFFFFFFFFFFFFFFFFFFFFFF AND DUP2 MSTORE PUSH1 0x20 ADD SWAP1 DUP2 MSTORE PUSH1 0x20 ADD PUSH1 0x0 KECCAK256 PUSH1 0x0 DUP3 DUP3 SLOAD PUSH2 0xAC0 SWAP2 SWAP1 PUSH2 0x2582 JUMP JUMPDEST SWAP3 POP POP DUP2 SWAP1 SSTORE POP DUP2 PUSH20 0xFFFFFFFFFFFFFFFFFFFFFFFFFFFFFFFFFFFFFFFF AND CALLER PUSH20 0xFFFFFFFFFFFFFFFFFFFFFFFFFFFFFFFFFFFFFFFF AND PUSH32 0xDDF252AD1BE2C89B69C2B068FC378DAA952BA7F163C4A11628F55A4DF523B3EF DUP4 PUSH1 0x40 MLOAD PUSH2 0xB24 SWAP2 SWAP1 PUSH2 0x20B9 JUMP JUMPDEST PUSH1 0x40 MLOAD DUP1 SWAP2 SUB SWAP1 LOG3 POP POP JUMP JUMPDEST PUSH1 0x60 PUSH1 0x4 PUSH1 0x0 CALLER PUSH20 0xFFFFFFFFFFFFFFFFFFFFFFFFFFFFFFFFFFFFFFFF AND PUSH20 0xFFFFFFFFFFFFFFFFFFFFFFFFFFFFFFFFFFFFFFFF AND DUP2 MSTORE PUSH1 0x20 ADD SWAP1 DUP2 MSTORE PUSH1 0x20 ADD PUSH1 0x0 KECCAK256 DUP1 SLOAD DUP1 PUSH1 0x20 MUL PUSH1 0x20 ADD PUSH1 0x40 MLOAD SWAP1 DUP2 ADD PUSH1 0x40 MSTORE DUP1 SWAP3 SWAP2 SWAP1 DUP2 DUP2 MSTORE PUSH1 0x20 ADD DUP3 DUP1 SLOAD DUP1 ISZERO PUSH2 0xBBB JUMPI PUSH1 0x20 MUL DUP3 ADD SWAP2 SWAP1 PUSH1 0x0 MSTORE PUSH1 0x20 PUSH1 0x0 KECCAK256 SWAP1 JUMPDEST DUP2 SLOAD DUP2 MSTORE PUSH1 0x20 ADD SWAP1 PUSH1 0x1 ADD SWAP1 DUP1 DUP4 GT PUSH2 0xBA7 JUMPI JUMPDEST POP POP POP POP POP SWAP1 POP SWAP1 JUMP JUMPDEST PUSH1 0x60 PUSH1 0x0 DUP3 SUB PUSH2 0xC0C JUMPI PUSH1 0x40 MLOAD DUP1 PUSH1 0x40 ADD PUSH1 0x40 MSTORE DUP1 PUSH1 0x4 DUP2 MSTORE PUSH1 0x20 ADD PUSH32 0x476F6C6400000000000000000000000000000000000000000000000000000000 DUP2 MSTORE POP SWAP1 POP PUSH2 0xC8A JUMP JUMPDEST PUSH1 0x1 DUP3 SUB PUSH2 0xC51 JUMPI PUSH1 0x40 MLOAD DUP1 PUSH1 0x40 ADD PUSH1 0x40 MSTORE DUP1 PUSH1 0x6 DUP2 MSTORE PUSH1 0x20 ADD PUSH32 0x53696C7665720000000000000000000000000000000000000000000000000000 DUP2 MSTORE POP SWAP1 POP PUSH2 0xC8A JUMP JUMPDEST PUSH1 0x40 MLOAD DUP1 PUSH1 0x40 ADD PUSH1 0x40 MSTORE DUP1 PUSH1 0x6 DUP2 MSTORE PUSH1 0x20 ADD PUSH32 0x42726F6E7A650000000000000000000000000000000000000000000000000000 DUP2 MSTORE POP SWAP1 POP JUMPDEST SWAP2 SWAP1 POP JUMP JUMPDEST PUSH2 0xD2B DUP5 DUP5 DUP5 DUP5 PUSH1 0x40 MLOAD PUSH1 0x24 ADD PUSH2 0xCA9 SWAP5 SWAP4 SWAP3 SWAP2 SWAP1 PUSH2 0x2682 JUMP JUMPDEST PUSH1 0x40 MLOAD PUSH1 0x20 DUP2 DUP4 SUB SUB DUP2 MSTORE SWAP1 PUSH1 0x40 MSTORE PUSH32 0x91D1112E00000000000000000000000000000000000000000000000000000000 PUSH28 0xFFFFFFFFFFFFFFFFFFFFFFFFFFFFFFFFFFFFFFFFFFFFFFFFFFFFFFFF NOT AND PUSH1 0x20 DUP3 ADD DUP1 MLOAD PUSH28 0xFFFFFFFFFFFFFFFFFFFFFFFFFFFFFFFFFFFFFFFFFFFFFFFFFFFFFFFF DUP4 DUP2 DUP4 AND OR DUP4 MSTORE POP POP POP POP PUSH2 0x104A JUMP JUMPDEST POP POP POP POP JUMP JUMPDEST PUSH1 0x0 DUP2 PUSH1 0xFF AND LT ISZERO DUP1 ISZERO PUSH2 0xD49 JUMPI POP PUSH1 0x3 DUP2 PUSH1 0xFF AND GT ISZERO JUMPDEST PUSH2 0xD88 JUMPI PUSH1 0x40 MLOAD PUSH32 0x8C379A000000000000000000000000000000000000000000000000000000000 DUP2 MSTORE PUSH1 0x4 ADD PUSH2 0xD7F SWAP1 PUSH2 0x2721 JUMP JUMPDEST PUSH1 0x40 MLOAD DUP1 SWAP2 SUB SWAP1 REVERT JUMPDEST PUSH2 0xD9D PUSH1 0x3 DUP3 PUSH2 0xD98 SWAP2 SWAP1 PUSH2 0x2741 JUMP JUMPDEST PUSH2 0x1073 JUMP JUMPDEST PUSH1 0x0 JUMPDEST PUSH1 0x4 DUP2 PUSH1 0xFF AND LT ISZERO PUSH2 0xDC9 JUMPI PUSH2 0xDB6 PUSH1 0x0 PUSH2 0x1073 JUMP JUMPDEST DUP1 DUP1 PUSH2 0xDC1 SWAP1 PUSH2 0x2776 JUMP JUMPDEST SWAP2 POP POP PUSH2 0xDA0 JUMP JUMPDEST POP POP JUMP JUMPDEST PUSH2 0xE69 DUP5 DUP5 DUP5 DUP5 PUSH1 0x40 MLOAD PUSH1 0x24 ADD PUSH2 0xDE7 SWAP5 SWAP4 SWAP3 SWAP2 SWAP1 PUSH2 0x279F JUMP JUMPDEST PUSH1 0x40 MLOAD PUSH1 0x20 DUP2 DUP4 SUB SUB DUP2 MSTORE SWAP1 PUSH1 0x40 MSTORE PUSH32 0x63FB8BC500000000000000000000000000000000000000000000000000000000 PUSH28 0xFFFFFFFFFFFFFFFFFFFFFFFFFFFFFFFFFFFFFFFFFFFFFFFFFFFFFFFF NOT AND PUSH1 0x20 DUP3 ADD DUP1 MLOAD PUSH28 0xFFFFFFFFFFFFFFFFFFFFFFFFFFFFFFFFFFFFFFFFFFFFFFFFFFFFFFFF DUP4 DUP2 DUP4 AND OR DUP4 MSTORE POP POP POP POP PUSH2 0x104A JUMP JUMPDEST POP POP POP POP JUMP JUMPDEST DUP1 PUSH20 0xFFFFFFFFFFFFFFFFFFFFFFFFFFFFFFFFFFFFFFFF AND PUSH1 0x2 PUSH1 0x0 DUP5 DUP2 MSTORE PUSH1 0x20 ADD SWAP1 DUP2 MSTORE PUSH1 0x20 ADD PUSH1 0x0 KECCAK256 PUSH1 0x0 SWAP1 SLOAD SWAP1 PUSH2 0x100 EXP SWAP1 DIV PUSH20 0xFFFFFFFFFFFFFFFFFFFFFFFFFFFFFFFFFFFFFFFF AND PUSH20 0xFFFFFFFFFFFFFFFFFFFFFFFFFFFFFFFFFFFFFFFF AND EQ PUSH2 0xF10 JUMPI PUSH1 0x40 MLOAD PUSH32 0x8C379A000000000000000000000000000000000000000000000000000000000 DUP2 MSTORE PUSH1 0x4 ADD PUSH2 0xF07 SWAP1 PUSH2 0x2837 JUMP JUMPDEST PUSH1 0x40 MLOAD DUP1 SWAP2 SUB SWAP1 REVERT JUMPDEST PUSH1 0x1 TIMESTAMP PUSH2 0xF1D SWAP2 SWAP1 PUSH2 0x2582 JUMP JUMPDEST PUSH1 0x1 DUP4 DUP2 SLOAD DUP2 LT PUSH2 0xF31 JUMPI PUSH2 0xF30 PUSH2 0x24F0 JUMP JUMPDEST JUMPDEST SWAP1 PUSH1 0x0 MSTORE PUSH1 0x20 PUSH1 0x0 KECCAK256 SWAP1 PUSH1 0x3 MUL ADD PUSH1 0x2 ADD PUSH1 0x3 PUSH2 0x100 EXP DUP2 SLOAD DUP2 PUSH4 0xFFFFFFFF MUL NOT AND SWAP1 DUP4 PUSH4 0xFFFFFFFF AND MUL OR SWAP1 SSTORE POP DUP2 DUP2 PUSH20 0xFFFFFFFFFFFFFFFFFFFFFFFFFFFFFFFFFFFFFFFF AND PUSH32 0x1E20CFA0DD7C11D3AD3D1737FE9AE16A0CACF7DA2AC0388B19636E1DB3C0EEFF PUSH1 0x40 MLOAD PUSH1 0x40 MLOAD DUP1 SWAP2 SUB SWAP1 LOG3 POP POP JUMP JUMPDEST PUSH2 0x1044 DUP5 DUP5 DUP5 DUP5 PUSH1 0x40 MLOAD PUSH1 0x24 ADD PUSH2 0xFC2 SWAP5 SWAP4 SWAP3 SWAP2 SWAP1 PUSH2 0x2857 JUMP JUMPDEST PUSH1 0x40 MLOAD PUSH1 0x20 DUP2 DUP4 SUB SUB DUP2 MSTORE SWAP1 PUSH1 0x40 MSTORE PUSH32 0x8EF3F39900000000000000000000000000000000000000000000000000000000 PUSH28 0xFFFFFFFFFFFFFFFFFFFFFFFFFFFFFFFFFFFFFFFFFFFFFFFFFFFFFFFF NOT AND PUSH1 0x20 DUP3 ADD DUP1 MLOAD PUSH28 0xFFFFFFFFFFFFFFFFFFFFFFFFFFFFFFFFFFFFFFFFFFFFFFFFFFFFFFFF DUP4 DUP2 DUP4 AND OR DUP4 MSTORE POP POP POP POP PUSH2 0x104A JUMP JUMPDEST POP POP POP POP JUMP JUMPDEST PUSH1 0x0 DUP2 MLOAD SWAP1 POP PUSH1 0x0 PUSH11 0x636F6E736F6C652E6C6F67 SWAP1 POP PUSH1 0x20 DUP4 ADD PUSH1 0x0 DUP1 DUP5 DUP4 DUP6 GAS STATICCALL POP POP POP POP POP JUMP JUMPDEST PUSH1 0x0 DUP2 PUSH1 0xFF AND LT ISZERO DUP1 ISZERO PUSH2 0x108B JUMPI POP PUSH1 0x6 DUP2 PUSH1 0xFF AND GT ISZERO JUMPDEST PUSH2 0x10CA JUMPI PUSH1 0x40 MLOAD PUSH32 0x8C379A000000000000000000000000000000000000000000000000000000000 DUP2 MSTORE PUSH1 0x4 ADD PUSH2 0x10C1 SWAP1 PUSH2 0x28EF JUMP JUMPDEST PUSH1 0x40 MLOAD DUP1 SWAP2 SUB SWAP1 REVERT JUMPDEST PUSH1 0x0 PUSH2 0x10D4 PUSH2 0x1508 JUMP JUMPDEST SWAP1 POP PUSH1 0x0 PUSH1 0x6 PUSH1 0x0 SWAP1 SLOAD SWAP1 PUSH2 0x100 EXP SWAP1 DIV PUSH4 0xFFFFFFFF AND PUSH4 0xFFFFFFFF AND TIMESTAMP PUSH2 0x10FC SWAP2 SWAP1 PUSH2 0x2582 JUMP JUMPDEST SWAP1 POP PUSH1 0x0 PUSH2 0x110A PUSH1 0x3 PUSH2 0x151D JUMP JUMPDEST SWAP1 POP PUSH1 0x0 DUP2 PUSH8 0xFFFFFFFFFFFFFFFF DUP2 GT ISZERO PUSH2 0x1128 JUMPI PUSH2 0x1127 PUSH2 0x290F JUMP JUMPDEST JUMPDEST PUSH1 0x40 MLOAD SWAP1 DUP1 DUP3 MSTORE DUP1 PUSH1 0x20 MUL PUSH1 0x20 ADD DUP3 ADD PUSH1 0x40 MSTORE DUP1 ISZERO PUSH2 0x1156 JUMPI DUP2 PUSH1 0x20 ADD PUSH1 0x20 DUP3 MUL DUP1 CALLDATASIZE DUP4 CALLDATACOPY DUP1 DUP3 ADD SWAP2 POP POP SWAP1 POP JUMPDEST POP SWAP1 POP PUSH1 0x0 JUMPDEST DUP3 DUP2 LT ISZERO PUSH2 0x11B5 JUMPI PUSH1 0x0 JUMPDEST PUSH2 0x1171 PUSH1 0x3 PUSH2 0x151D JUMP JUMPDEST SWAP1 POP PUSH2 0x117D DUP4 DUP3 PUSH2 0x1579 JUMP JUMPDEST PUSH2 0x1167 JUMPI DUP1 DUP4 DUP4 DUP2 MLOAD DUP2 LT PUSH2 0x1195 JUMPI PUSH2 0x1194 PUSH2 0x24F0 JUMP JUMPDEST JUMPDEST PUSH1 0x20 MUL PUSH1 0x20 ADD ADD DUP2 DUP2 MSTORE POP POP POP DUP1 DUP1 PUSH2 0x11AD SWAP1 PUSH2 0x293E JUMP JUMPDEST SWAP2 POP POP PUSH2 0x115C JUMP JUMPDEST POP PUSH1 0x60 PUSH2 0x11C0 PUSH2 0x1FC4 JUMP JUMPDEST PUSH1 0x0 DUP1 DUP9 PUSH1 0xFF AND SUB PUSH2 0x11E2 JUMPI PUSH3 0xF4240 DUP8 PUSH2 0x11DB SWAP2 SWAP1 PUSH2 0x29B5 JUMP JUMPDEST SWAP1 POP PUSH2 0x1262 JUMP JUMPDEST PUSH1 0x1 DUP9 PUSH1 0xFF AND SUB PUSH2 0x11F6 JUMPI PUSH1 0x1 SWAP1 POP PUSH2 0x1261 JUMP JUMPDEST PUSH1 0x2 DUP9 PUSH1 0xFF AND SUB PUSH2 0x120B JUMPI PUSH2 0x1F4 SWAP1 POP PUSH2 0x1260 JUMP JUMPDEST PUSH1 0x3 DUP9 PUSH1 0xFF AND SUB PUSH2 0x1220 JUMPI PUSH2 0x1388 SWAP1 POP PUSH2 0x125F JUMP JUMPDEST PUSH1 0x4 DUP9 PUSH1 0xFF AND SUB PUSH2 0x1235 JUMPI PUSH2 0x4E20 SWAP1 POP PUSH2 0x125E JUMP JUMPDEST PUSH1 0x5 DUP9 PUSH1 0xFF AND SUB PUSH2 0x124A JUMPI PUSH2 0x7530 SWAP1 POP PUSH2 0x125D JUMP JUMPDEST PUSH1 0x6 DUP9 PUSH1 0xFF AND SUB PUSH2 0x125C JUMPI PUSH3 0x186A0 SWAP1 POP JUMPDEST JUMPDEST JUMPDEST JUMPDEST JUMPDEST JUMPDEST JUMPDEST PUSH2 0x126B DUP2 PUSH2 0x15D4 JUMP JUMPDEST SWAP3 POP PUSH2 0x1278 DUP8 DUP3 DUP7 PUSH2 0x1771 JUMP JUMPDEST SWAP2 POP PUSH1 0x0 PUSH1 0x1 DUP1 SLOAD SWAP1 POP SWAP1 POP PUSH1 0x1 PUSH1 0x40 MLOAD DUP1 PUSH1 0xC0 ADD PUSH1 0x40 MSTORE DUP1 DUP4 DUP2 MSTORE PUSH1 0x20 ADD DUP7 DUP2 MSTORE PUSH1 0x20 ADD DUP6 PUSH1 0x0 ADD MLOAD PUSH1 0xFF AND DUP2 MSTORE PUSH1 0x20 ADD DUP6 PUSH1 0x20 ADD MLOAD PUSH1 0xFF AND DUP2 MSTORE PUSH1 0x20 ADD DUP6 PUSH1 0x40 ADD MLOAD PUSH1 0xFF AND DUP2 MSTORE PUSH1 0x20 ADD DUP10 PUSH4 0xFFFFFFFF AND DUP2 MSTORE POP SWAP1 DUP1 PUSH1 0x1 DUP2 SLOAD ADD DUP1 DUP3 SSTORE DUP1 SWAP2 POP POP PUSH1 0x1 SWAP1 SUB SWAP1 PUSH1 0x0 MSTORE PUSH1 0x20 PUSH1 0x0 KECCAK256 SWAP1 PUSH1 0x3 MUL ADD PUSH1 0x0 SWAP1 SWAP2 SWAP1 SWAP2 SWAP1 SWAP2 POP PUSH1 0x0 DUP3 ADD MLOAD DUP2 PUSH1 0x0 ADD SSTORE PUSH1 0x20 DUP3 ADD MLOAD DUP2 PUSH1 0x1 ADD SWAP1 DUP2 PUSH2 0x1316 SWAP2 SWAP1 PUSH2 0x2B88 JUMP JUMPDEST POP PUSH1 0x40 DUP3 ADD MLOAD DUP2 PUSH1 0x2 ADD PUSH1 0x0 PUSH2 0x100 EXP DUP2 SLOAD DUP2 PUSH1 0xFF MUL NOT AND SWAP1 DUP4 PUSH1 0xFF AND MUL OR SWAP1 SSTORE POP PUSH1 0x60 DUP3 ADD MLOAD DUP2 PUSH1 0x2 ADD PUSH1 0x1 PUSH2 0x100 EXP DUP2 SLOAD DUP2 PUSH1 0xFF MUL NOT AND SWAP1 DUP4 PUSH1 0xFF AND MUL OR SWAP1 SSTORE POP PUSH1 0x80 DUP3 ADD MLOAD DUP2 PUSH1 0x2 ADD PUSH1 0x2 PUSH2 0x100 EXP DUP2 SLOAD DUP2 PUSH1 0xFF MUL NOT AND SWAP1 DUP4 PUSH1 0xFF AND MUL OR SWAP1 SSTORE POP PUSH1 0xA0 DUP3 ADD MLOAD DUP2 PUSH1 0x2 ADD PUSH1 0x3 PUSH2 0x100 EXP DUP2 SLOAD DUP2 PUSH4 0xFFFFFFFF MUL NOT AND SWAP1 DUP4 PUSH4 0xFFFFFFFF AND MUL OR SWAP1 SSTORE POP POP POP CALLER PUSH1 0x2 PUSH1 0x0 DUP4 DUP2 MSTORE PUSH1 0x20 ADD SWAP1 DUP2 MSTORE PUSH1 0x20 ADD PUSH1 0x0 KECCAK256 PUSH1 0x0 PUSH2 0x100 EXP DUP2 SLOAD DUP2 PUSH20 0xFFFFFFFFFFFFFFFFFFFFFFFFFFFFFFFFFFFFFFFF MUL NOT AND SWAP1 DUP4 PUSH20 0xFFFFFFFFFFFFFFFFFFFFFFFFFFFFFFFFFFFFFFFF AND MUL OR SWAP1 SSTORE POP PUSH1 0x3 PUSH1 0x0 CALLER PUSH20 0xFFFFFFFFFFFFFFFFFFFFFFFFFFFFFFFFFFFFFFFF AND PUSH20 0xFFFFFFFFFFFFFFFFFFFFFFFFFFFFFFFFFFFFFFFF AND DUP2 MSTORE PUSH1 0x20 ADD SWAP1 DUP2 MSTORE PUSH1 0x20 ADD PUSH1 0x0 KECCAK256 PUSH1 0x0 DUP2 SLOAD DUP1 SWAP3 SWAP2 SWAP1 PUSH2 0x1445 SWAP1 PUSH2 0x293E JUMP JUMPDEST SWAP2 SWAP1 POP SSTORE POP PUSH1 0x4 PUSH1 0x0 CALLER PUSH20 0xFFFFFFFFFFFFFFFFFFFFFFFFFFFFFFFFFFFFFFFF AND PUSH20 0xFFFFFFFFFFFFFFFFFFFFFFFFFFFFFFFFFFFFFFFF AND DUP2 MSTORE PUSH1 0x20 ADD SWAP1 DUP2 MSTORE PUSH1 0x20 ADD PUSH1 0x0 KECCAK256 DUP2 SWAP1 DUP1 PUSH1 0x1 DUP2 SLOAD ADD DUP1 DUP3 SSTORE DUP1 SWAP2 POP POP PUSH1 0x1 SWAP1 SUB SWAP1 PUSH1 0x0 MSTORE PUSH1 0x20 PUSH1 0x0 KECCAK256 ADD PUSH1 0x0 SWAP1 SWAP2 SWAP1 SWAP2 SWAP1 SWAP2 POP SSTORE PUSH32 0x68F1B0C6421768FF2FEAA94447C09D83ABF4ADC2AAA08DC350D7A87CE0A7E87A DUP2 DUP6 DUP6 PUSH1 0x0 ADD MLOAD DUP7 PUSH1 0x20 ADD MLOAD DUP8 PUSH1 0x40 ADD MLOAD DUP13 PUSH1 0x40 MLOAD PUSH2 0x14F5 SWAP7 SWAP6 SWAP5 SWAP4 SWAP3 SWAP2 SWAP1 PUSH2 0x2C78 JUMP JUMPDEST PUSH1 0x40 MLOAD DUP1 SWAP2 SUB SWAP1 LOG1 POP POP POP POP POP POP POP POP POP JUMP JUMPDEST PUSH1 0x0 PUSH2 0x1518 PUSH5 0x174876E800 PUSH2 0x151D JUMP JUMPDEST SWAP1 POP SWAP1 JUMP JUMPDEST PUSH1 0x0 PUSH1 0x5 PUSH1 0x0 DUP2 SLOAD DUP1 SWAP3 SWAP2 SWAP1 PUSH2 0x1532 SWAP1 PUSH2 0x293E JUMP JUMPDEST SWAP2 SWAP1 POP SSTORE POP DUP2 TIMESTAMP CALLER PUSH1 0x5 SLOAD PUSH1 0x40 MLOAD PUSH1 0x20 ADD PUSH2 0x154F SWAP4 SWAP3 SWAP2 SWAP1 PUSH2 0x2D49 JUMP JUMPDEST PUSH1 0x40 MLOAD PUSH1 0x20 DUP2 DUP4 SUB SUB DUP2 MSTORE SWAP1 PUSH1 0x40 MSTORE DUP1 MLOAD SWAP1 PUSH1 0x20 ADD KECCAK256 PUSH1 0x0 SHR PUSH2 0x1572 SWAP2 SWAP1 PUSH2 0x2D86 JUMP JUMPDEST SWAP1 POP SWAP2 SWAP1 POP JUMP JUMPDEST PUSH1 0x0 DUP1 PUSH1 0x0 SWAP1 POP JUMPDEST DUP4 MLOAD DUP2 LT ISZERO PUSH2 0x15C8 JUMPI DUP3 DUP5 DUP3 DUP2 MLOAD DUP2 LT PUSH2 0x159E JUMPI PUSH2 0x159D PUSH2 0x24F0 JUMP JUMPDEST JUMPDEST PUSH1 0x20 MUL PUSH1 0x20 ADD ADD MLOAD SUB PUSH2 0x15B5 JUMPI PUSH1 0x1 SWAP2 POP POP PUSH2 0x15CE JUMP JUMPDEST DUP1 DUP1 PUSH2 0x15C0 SWAP1 PUSH2 0x293E JUMP JUMPDEST SWAP2 POP POP PUSH2 0x1581 JUMP JUMPDEST POP PUSH1 0x0 SWAP1 POP JUMPDEST SWAP3 SWAP2 POP POP JUMP JUMPDEST PUSH1 0x60 PUSH1 0x1 DUP3 GT PUSH2 0x161B JUMPI PUSH1 0x40 MLOAD DUP1 PUSH1 0x40 ADD PUSH1 0x40 MSTORE DUP1 PUSH1 0x5 DUP2 MSTORE PUSH1 0x20 ADD PUSH32 0x52656C6963000000000000000000000000000000000000000000000000000000 DUP2 MSTORE POP SWAP1 POP PUSH2 0x176C JUMP JUMPDEST PUSH2 0x1F4 DUP3 GT PUSH2 0x1661 JUMPI PUSH1 0x40 MLOAD DUP1 PUSH1 0x40 ADD PUSH1 0x40 MSTORE DUP1 PUSH1 0x9 DUP2 MSTORE PUSH1 0x20 ADD PUSH32 0x4C6567656E646172790000000000000000000000000000000000000000000000 DUP2 MSTORE POP SWAP1 POP PUSH2 0x176C JUMP JUMPDEST PUSH2 0x1388 DUP3 GT PUSH2 0x16A7 JUMPI PUSH1 0x40 MLOAD DUP1 PUSH1 0x40 ADD PUSH1 0x40 MSTORE DUP1 PUSH1 0x6 DUP2 MSTORE PUSH1 0x20 ADD PUSH32 0x4D79746869630000000000000000000000000000000000000000000000000000 DUP2 MSTORE POP SWAP1 POP PUSH2 0x176C JUMP JUMPDEST PUSH2 0x4E20 DUP3 GT PUSH2 0x16ED JUMPI PUSH1 0x40 MLOAD DUP1 PUSH1 0x40 ADD PUSH1 0x40 MSTORE DUP1 PUSH1 0x4 DUP2 MSTORE PUSH1 0x20 ADD PUSH32 0x5261726500000000000000000000000000000000000000000000000000000000 DUP2 MSTORE POP SWAP1 POP PUSH2 0x176C JUMP JUMPDEST PUSH2 0x7530 DUP3 GT PUSH2 0x1733 JUMPI PUSH1 0x40 MLOAD DUP1 PUSH1 0x40 ADD PUSH1 0x40 MSTORE DUP1 PUSH1 0x8 DUP2 MSTORE PUSH1 0x20 ADD PUSH32 0x556E636F6D6D6F6E000000000000000000000000000000000000000000000000 DUP2 MSTORE POP SWAP1 POP PUSH2 0x176C JUMP JUMPDEST PUSH1 0x40 MLOAD DUP1 PUSH1 0x40 ADD PUSH1 0x40 MSTORE DUP1 PUSH1 0x6 DUP2 MSTORE PUSH1 0x20 ADD PUSH32 0x436F6D6D6F6E0000000000000000000000000000000000000000000000000000 DUP2 MSTORE POP SWAP1 POP JUMPDEST SWAP2 SWAP1 POP JUMP JUMPDEST PUSH2 0x1779 PUSH2 0x1FC4 JUMP JUMPDEST PUSH2 0x1781 PUSH2 0x1FC4 JUMP JUMPDEST PUSH1 0x1 DUP5 GT PUSH2 0x17B7 JUMPI PUSH1 0x40 MLOAD DUP1 PUSH1 0x60 ADD PUSH1 0x40 MSTORE DUP1 PUSH1 0x64 PUSH1 0xFF AND DUP2 MSTORE PUSH1 0x20 ADD PUSH1 0x64 PUSH1 0xFF AND DUP2 MSTORE PUSH1 0x20 ADD PUSH1 0x64 PUSH1 0xFF AND DUP2 MSTORE POP SWAP1 POP PUSH2 0x1F74 JUMP JUMPDEST PUSH2 0x1F4 DUP5 GT PUSH2 0x1945 JUMPI PUSH2 0x17CB DUP4 PUSH1 0x0 PUSH2 0x1579 JUMP JUMPDEST PUSH2 0x1806 JUMPI PUSH1 0x14 PUSH1 0x64 PUSH2 0x2710 DUP8 PUSH2 0x17E1 SWAP2 SWAP1 PUSH2 0x29B5 JUMP JUMPDEST PUSH2 0x17EB SWAP2 SWAP1 PUSH2 0x2D86 JUMP JUMPDEST PUSH2 0x17F5 SWAP2 SWAP1 PUSH2 0x2D86 JUMP JUMPDEST PUSH1 0x50 PUSH2 0x1801 SWAP2 SWAP1 PUSH2 0x2582 JUMP JUMPDEST PUSH2 0x1839 JUMP JUMPDEST PUSH1 0xA PUSH1 0x64 PUSH2 0x2710 DUP8 PUSH2 0x1818 SWAP2 SWAP1 PUSH2 0x29B5 JUMP JUMPDEST PUSH2 0x1822 SWAP2 SWAP1 PUSH2 0x2D86 JUMP JUMPDEST PUSH2 0x182C SWAP2 SWAP1 PUSH2 0x2D86 JUMP JUMPDEST PUSH1 0x5A PUSH2 0x1838 SWAP2 SWAP1 PUSH2 0x2582 JUMP JUMPDEST JUMPDEST DUP2 PUSH1 0x0 ADD SWAP1 PUSH1 0xFF AND SWAP1 DUP2 PUSH1 0xFF AND DUP2 MSTORE POP POP PUSH2 0x1855 DUP4 PUSH1 0x1 PUSH2 0x1579 JUMP JUMPDEST PUSH2 0x188E JUMPI PUSH1 0x14 PUSH1 0x64 DUP1 DUP8 PUSH2 0x1869 SWAP2 SWAP1 PUSH2 0x29B5 JUMP JUMPDEST PUSH2 0x1873 SWAP2 SWAP1 PUSH2 0x2D86 JUMP JUMPDEST PUSH2 0x187D SWAP2 SWAP1 PUSH2 0x2D86 JUMP JUMPDEST PUSH1 0x50 PUSH2 0x1889 SWAP2 SWAP1 PUSH2 0x2582 JUMP JUMPDEST PUSH2 0x18BF JUMP JUMPDEST PUSH1 0xA PUSH1 0x64 DUP1 DUP8 PUSH2 0x189E SWAP2 SWAP1 PUSH2 0x29B5 JUMP JUMPDEST PUSH2 0x18A8 SWAP2 SWAP1 PUSH2 0x2D86 JUMP JUMPDEST PUSH2 0x18B2 SWAP2 SWAP1 PUSH2 0x2D86 JUMP JUMPDEST PUSH1 0x5A PUSH2 0x18BE SWAP2 SWAP1 PUSH2 0x2582 JUMP JUMPDEST JUMPDEST DUP2 PUSH1 0x20 ADD SWAP1 PUSH1 0xFF AND SWAP1 DUP2 PUSH1 0xFF AND DUP2 MSTORE POP POP PUSH2 0x18DB DUP4 PUSH1 0x2 PUSH2 0x1579 JUMP JUMPDEST PUSH2 0x1909 JUMPI PUSH1 0x14 PUSH1 0x64 DUP7 PUSH2 0x18EE SWAP2 SWAP1 PUSH2 0x2D86 JUMP JUMPDEST PUSH2 0x18F8 SWAP2 SWAP1 PUSH2 0x2D86 JUMP JUMPDEST PUSH1 0x50 PUSH2 0x1904 SWAP2 SWAP1 PUSH2 0x2582 JUMP JUMPDEST PUSH2 0x192F JUMP JUMPDEST PUSH1 0xA PUSH1 0x64 DUP7 PUSH2 0x1918 SWAP2 SWAP1 PUSH2 0x2D86 JUMP JUMPDEST PUSH2 0x1922 SWAP2 SWAP1 PUSH2 0x2D86 JUMP JUMPDEST PUSH1 0x5A PUSH2 0x192E SWAP2 SWAP1 PUSH2 0x2582 JUMP JUMPDEST JUMPDEST DUP2 PUSH1 0x40 ADD SWAP1 PUSH1 0xFF AND SWAP1 DUP2 PUSH1 0xFF AND DUP2 MSTORE POP POP PUSH2 0x1F73 JUMP JUMPDEST PUSH2 0x1388 DUP5 GT PUSH2 0x1AD3 JUMPI PUSH2 0x1959 DUP4 PUSH1 0x0 PUSH2 0x1579 JUMP JUMPDEST PUSH2 0x1994 JUMPI PUSH1 0x19 PUSH1 0x64 PUSH2 0x2710 DUP8 PUSH2 0x196F SWAP2 SWAP1 PUSH2 0x29B5 JUMP JUMPDEST PUSH2 0x1979 SWAP2 SWAP1 PUSH2 0x2D86 JUMP JUMPDEST PUSH2 0x1983 SWAP2 SWAP1 PUSH2 0x2D86 JUMP JUMPDEST PUSH1 0x41 PUSH2 0x198F SWAP2 SWAP1 PUSH2 0x2582 JUMP JUMPDEST PUSH2 0x19C7 JUMP JUMPDEST PUSH1 0xA PUSH1 0x64 PUSH2 0x2710 DUP8 PUSH2 0x19A6 SWAP2 SWAP1 PUSH2 0x29B5 JUMP JUMPDEST PUSH2 0x19B0 SWAP2 SWAP1 PUSH2 0x2D86 JUMP JUMPDEST PUSH2 0x19BA SWAP2 SWAP1 PUSH2 0x2D86 JUMP JUMPDEST PUSH1 0x50 PUSH2 0x19C6 SWAP2 SWAP1 PUSH2 0x2582 JUMP JUMPDEST JUMPDEST DUP2 PUSH1 0x0 ADD SWAP1 PUSH1 0xFF AND SWAP1 DUP2 PUSH1 0xFF AND DUP2 MSTORE POP POP PUSH2 0x19E3 DUP4 PUSH1 0x1 PUSH2 0x1579 JUMP JUMPDEST PUSH2 0x1A1C JUMPI PUSH1 0x19 PUSH1 0x64 DUP1 DUP8 PUSH2 0x19F7 SWAP2 SWAP1 PUSH2 0x29B5 JUMP JUMPDEST PUSH2 0x1A01 SWAP2 SWAP1 PUSH2 0x2D86 JUMP JUMPDEST PUSH2 0x1A0B SWAP2 SWAP1 PUSH2 0x2D86 JUMP JUMPDEST PUSH1 0x41 PUSH2 0x1A17 SWAP2 SWAP1 PUSH2 0x2582 JUMP JUMPDEST PUSH2 0x1A4D JUMP JUMPDEST PUSH1 0xA PUSH1 0x64 DUP1 DUP8 PUSH2 0x1A2C SWAP2 SWAP1 PUSH2 0x29B5 JUMP JUMPDEST PUSH2 0x1A36 SWAP2 SWAP1 PUSH2 0x2D86 JUMP JUMPDEST PUSH2 0x1A40 SWAP2 SWAP1 PUSH2 0x2D86 JUMP JUMPDEST PUSH1 0x50 PUSH2 0x1A4C SWAP2 SWAP1 PUSH2 0x2582 JUMP JUMPDEST JUMPDEST DUP2 PUSH1 0x20 ADD SWAP1 PUSH1 0xFF AND SWAP1 DUP2 PUSH1 0xFF AND DUP2 MSTORE POP POP PUSH2 0x1A69 DUP4 PUSH1 0x2 PUSH2 0x1579 JUMP JUMPDEST PUSH2 0x1A97 JUMPI PUSH1 0x19 PUSH1 0x64 DUP7 PUSH2 0x1A7C SWAP2 SWAP1 PUSH2 0x2D86 JUMP JUMPDEST PUSH2 0x1A86 SWAP2 SWAP1 PUSH2 0x2D86 JUMP JUMPDEST PUSH1 0x41 PUSH2 0x1A92 SWAP2 SWAP1 PUSH2 0x2582 JUMP JUMPDEST PUSH2 0x1ABD JUMP JUMPDEST PUSH1 0xA PUSH1 0x64 DUP7 PUSH2 0x1AA6 SWAP2 SWAP1 PUSH2 0x2D86 JUMP JUMPDEST PUSH2 0x1AB0 SWAP2 SWAP1 PUSH2 0x2D86 JUMP JUMPDEST PUSH1 0x50 PUSH2 0x1ABC SWAP2 SWAP1 PUSH2 0x2582 JUMP JUMPDEST JUMPDEST DUP2 PUSH1 0x40 ADD SWAP1 PUSH1 0xFF AND SWAP1 DUP2 PUSH1 0xFF AND DUP2 MSTORE POP POP PUSH2 0x1F72 JUMP JUMPDEST PUSH2 0x4E20 DUP5 GT PUSH2 0x1C61 JUMPI PUSH2 0x1AE7 DUP4 PUSH1 0x0 PUSH2 0x1579 JUMP JUMPDEST PUSH2 0x1B22 JUMPI PUSH1 0x1E PUSH1 0x64 PUSH2 0x2710 DUP8 PUSH2 0x1AFD SWAP2 SWAP1 PUSH2 0x29B5 JUMP JUMPDEST PUSH2 0x1B07 SWAP2 SWAP1 PUSH2 0x2D86 JUMP JUMPDEST PUSH2 0x1B11 SWAP2 SWAP1 PUSH2 0x2D86 JUMP JUMPDEST PUSH1 0x32 PUSH2 0x1B1D SWAP2 SWAP1 PUSH2 0x2582 JUMP JUMPDEST PUSH2 0x1B55 JUMP JUMPDEST PUSH1 0xF PUSH1 0x64 PUSH2 0x2710 DUP8 PUSH2 0x1B34 SWAP2 SWAP1 PUSH2 0x29B5 JUMP JUMPDEST PUSH2 0x1B3E SWAP2 SWAP1 PUSH2 0x2D86 JUMP JUMPDEST PUSH2 0x1B48 SWAP2 SWAP1 PUSH2 0x2D86 JUMP JUMPDEST PUSH1 0x41 PUSH2 0x1B54 SWAP2 SWAP1 PUSH2 0x2582 JUMP JUMPDEST JUMPDEST DUP2 PUSH1 0x0 ADD SWAP1 PUSH1 0xFF AND SWAP1 DUP2 PUSH1 0xFF AND DUP2 MSTORE POP POP PUSH2 0x1B71 DUP4 PUSH1 0x1 PUSH2 0x1579 JUMP JUMPDEST PUSH2 0x1BAA JUMPI PUSH1 0x1E PUSH1 0x64 DUP1 DUP8 PUSH2 0x1B85 SWAP2 SWAP1 PUSH2 0x29B5 JUMP JUMPDEST PUSH2 0x1B8F SWAP2 SWAP1 PUSH2 0x2D86 JUMP JUMPDEST PUSH2 0x1B99 SWAP2 SWAP1 PUSH2 0x2D86 JUMP JUMPDEST PUSH1 0x32 PUSH2 0x1BA5 SWAP2 SWAP1 PUSH2 0x2582 JUMP JUMPDEST PUSH2 0x1BDB JUMP JUMPDEST PUSH1 0xF PUSH1 0x64 DUP1 DUP8 PUSH2 0x1BBA SWAP2 SWAP1 PUSH2 0x29B5 JUMP JUMPDEST PUSH2 0x1BC4 SWAP2 SWAP1 PUSH2 0x2D86 JUMP JUMPDEST PUSH2 0x1BCE SWAP2 SWAP1 PUSH2 0x2D86 JUMP JUMPDEST PUSH1 0x41 PUSH2 0x1BDA SWAP2 SWAP1 PUSH2 0x2582 JUMP JUMPDEST JUMPDEST DUP2 PUSH1 0x20 ADD SWAP1 PUSH1 0xFF AND SWAP1 DUP2 PUSH1 0xFF AND DUP2 MSTORE POP POP PUSH2 0x1BF7 DUP4 PUSH1 0x2 PUSH2 0x1579 JUMP JUMPDEST PUSH2 0x1C25 JUMPI PUSH1 0x1E PUSH1 0x64 DUP7 PUSH2 0x1C0A SWAP2 SWAP1 PUSH2 0x2D86 JUMP JUMPDEST PUSH2 0x1C14 SWAP2 SWAP1 PUSH2 0x2D86 JUMP JUMPDEST PUSH1 0x32 PUSH2 0x1C20 SWAP2 SWAP1 PUSH2 0x2582 JUMP JUMPDEST PUSH2 0x1C4B JUMP JUMPDEST PUSH1 0xF PUSH1 0x64 DUP7 PUSH2 0x1C34 SWAP2 SWAP1 PUSH2 0x2D86 JUMP JUMPDEST PUSH2 0x1C3E SWAP2 SWAP1 PUSH2 0x2D86 JUMP JUMPDEST PUSH1 0x41 PUSH2 0x1C4A SWAP2 SWAP1 PUSH2 0x2582 JUMP JUMPDEST JUMPDEST DUP2 PUSH1 0x40 ADD SWAP1 PUSH1 0xFF AND SWAP1 DUP2 PUSH1 0xFF AND DUP2 MSTORE POP POP PUSH2 0x1F71 JUMP JUMPDEST PUSH2 0x7530 DUP5 GT PUSH2 0x1DEF JUMPI PUSH2 0x1C75 DUP4 PUSH1 0x0 PUSH2 0x1579 JUMP JUMPDEST PUSH2 0x1CB0 JUMPI PUSH1 0x14 PUSH1 0x64 PUSH2 0x2710 DUP8 PUSH2 0x1C8B SWAP2 SWAP1 PUSH2 0x29B5 JUMP JUMPDEST PUSH2 0x1C95 SWAP2 SWAP1 PUSH2 0x2D86 JUMP JUMPDEST PUSH2 0x1C9F SWAP2 SWAP1 PUSH2 0x2D86 JUMP JUMPDEST PUSH1 0x1E PUSH2 0x1CAB SWAP2 SWAP1 PUSH2 0x2582 JUMP JUMPDEST PUSH2 0x1CE3 JUMP JUMPDEST PUSH1 0xF PUSH1 0x64 PUSH2 0x2710 DUP8 PUSH2 0x1CC2 SWAP2 SWAP1 PUSH2 0x29B5 JUMP JUMPDEST PUSH2 0x1CCC SWAP2 SWAP1 PUSH2 0x2D86 JUMP JUMPDEST PUSH2 0x1CD6 SWAP2 SWAP1 PUSH2 0x2D86 JUMP JUMPDEST PUSH1 0x32 PUSH2 0x1CE2 SWAP2 SWAP1 PUSH2 0x2582 JUMP JUMPDEST JUMPDEST DUP2 PUSH1 0x0 ADD SWAP1 PUSH1 0xFF AND SWAP1 DUP2 PUSH1 0xFF AND DUP2 MSTORE POP POP PUSH2 0x1CFF DUP4 PUSH1 0x1 PUSH2 0x1579 JUMP JUMPDEST PUSH2 0x1D38 JUMPI PUSH1 0x14 PUSH1 0x64 DUP1 DUP8 PUSH2 0x1D13 SWAP2 SWAP1 PUSH2 0x29B5 JUMP JUMPDEST PUSH2 0x1D1D SWAP2 SWAP1 PUSH2 0x2D86 JUMP JUMPDEST PUSH2 0x1D27 SWAP2 SWAP1 PUSH2 0x2D86 JUMP JUMPDEST PUSH1 0x1E PUSH2 0x1D33 SWAP2 SWAP1 PUSH2 0x2582 JUMP JUMPDEST PUSH2 0x1D69 JUMP JUMPDEST PUSH1 0xF PUSH1 0x64 DUP1 DUP8 PUSH2 0x1D48 SWAP2 SWAP1 PUSH2 0x29B5 JUMP JUMPDEST PUSH2 0x1D52 SWAP2 SWAP1 PUSH2 0x2D86 JUMP JUMPDEST PUSH2 0x1D5C SWAP2 SWAP1 PUSH2 0x2D86 JUMP JUMPDEST PUSH1 0x32 PUSH2 0x1D68 SWAP2 SWAP1 PUSH2 0x2582 JUMP JUMPDEST JUMPDEST DUP2 PUSH1 0x20 ADD SWAP1 PUSH1 0xFF AND SWAP1 DUP2 PUSH1 0xFF AND DUP2 MSTORE POP POP PUSH2 0x1D85 DUP4 PUSH1 0x2 PUSH2 0x1579 JUMP JUMPDEST PUSH2 0x1DB3 JUMPI PUSH1 0x14 PUSH1 0x64 DUP7 PUSH2 0x1D98 SWAP2 SWAP1 PUSH2 0x2D86 JUMP JUMPDEST PUSH2 0x1DA2 SWAP2 SWAP1 PUSH2 0x2D86 JUMP JUMPDEST PUSH1 0x1E PUSH2 0x1DAE SWAP2 SWAP1 PUSH2 0x2582 JUMP JUMPDEST PUSH2 0x1DD9 JUMP JUMPDEST PUSH1 0xF PUSH1 0x64 DUP7 PUSH2 0x1DC2 SWAP2 SWAP1 PUSH2 0x2D86 JUMP JUMPDEST PUSH2 0x1DCC SWAP2 SWAP1 PUSH2 0x2D86 JUMP JUMPDEST PUSH1 0x32 PUSH2 0x1DD8 SWAP2 SWAP1 PUSH2 0x2582 JUMP JUMPDEST JUMPDEST DUP2 PUSH1 0x40 ADD SWAP1 PUSH1 0xFF AND SWAP1 DUP2 PUSH1 0xFF AND DUP2 MSTORE POP POP PUSH2 0x1F70 JUMP JUMPDEST PUSH2 0x1DFA DUP4 PUSH1 0x0 PUSH2 0x1579 JUMP JUMPDEST PUSH2 0x1E35 JUMPI PUSH1 0xA PUSH1 0x64 PUSH2 0x2710 DUP8 PUSH2 0x1E10 SWAP2 SWAP1 PUSH2 0x29B5 JUMP JUMPDEST PUSH2 0x1E1A SWAP2 SWAP1 PUSH2 0x2D86 JUMP JUMPDEST PUSH2 0x1E24 SWAP2 SWAP1 PUSH2 0x2D86 JUMP JUMPDEST PUSH1 0x14 PUSH2 0x1E30 SWAP2 SWAP1 PUSH2 0x2582 JUMP JUMPDEST PUSH2 0x1E68 JUMP JUMPDEST PUSH1 0x5 PUSH1 0x64 PUSH2 0x2710 DUP8 PUSH2 0x1E47 SWAP2 SWAP1 PUSH2 0x29B5 JUMP JUMPDEST PUSH2 0x1E51 SWAP2 SWAP1 PUSH2 0x2D86 JUMP JUMPDEST PUSH2 0x1E5B SWAP2 SWAP1 PUSH2 0x2D86 JUMP JUMPDEST PUSH1 0x1E PUSH2 0x1E67 SWAP2 SWAP1 PUSH2 0x2582 JUMP JUMPDEST JUMPDEST DUP2 PUSH1 0x0 ADD SWAP1 PUSH1 0xFF AND SWAP1 DUP2 PUSH1 0xFF AND DUP2 MSTORE POP POP PUSH2 0x1E84 DUP4 PUSH1 0x1 PUSH2 0x1579 JUMP JUMPDEST PUSH2 0x1EBD JUMPI PUSH1 0xA PUSH1 0x64 DUP1 DUP8 PUSH2 0x1E98 SWAP2 SWAP1 PUSH2 0x29B5 JUMP JUMPDEST PUSH2 0x1EA2 SWAP2 SWAP1 PUSH2 0x2D86 JUMP JUMPDEST PUSH2 0x1EAC SWAP2 SWAP1 PUSH2 0x2D86 JUMP JUMPDEST PUSH1 0x14 PUSH2 0x1EB8 SWAP2 SWAP1 PUSH2 0x2582 JUMP JUMPDEST PUSH2 0x1EEE JUMP JUMPDEST PUSH1 0x5 PUSH1 0x64 DUP1 DUP8 PUSH2 0x1ECD SWAP2 SWAP1 PUSH2 0x29B5 JUMP JUMPDEST PUSH2 0x1ED7 SWAP2 SWAP1 PUSH2 0x2D86 JUMP JUMPDEST PUSH2 0x1EE1 SWAP2 SWAP1 PUSH2 0x2D86 JUMP JUMPDEST PUSH1 0x1E PUSH2 0x1EED SWAP2 SWAP1 PUSH2 0x2582 JUMP JUMPDEST JUMPDEST DUP2 PUSH1 0x20 ADD SWAP1 PUSH1 0xFF AND SWAP1 DUP2 PUSH1 0xFF AND DUP2 MSTORE POP POP PUSH2 0x1F0A DUP4 PUSH1 0x2 PUSH2 0x1579 JUMP JUMPDEST PUSH2 0x1F38 JUMPI PUSH1 0xA PUSH1 0x64 DUP7 PUSH2 0x1F1D SWAP2 SWAP1 PUSH2 0x2D86 JUMP JUMPDEST PUSH2 0x1F27 SWAP2 SWAP1 PUSH2 0x2D86 JUMP JUMPDEST PUSH1 0x14 PUSH2 0x1F33 SWAP2 SWAP1 PUSH2 0x2582 JUMP JUMPDEST PUSH2 0x1F5E JUMP JUMPDEST PUSH1 0x5 PUSH1 0x64 DUP7 PUSH2 0x1F47 SWAP2 SWAP1 PUSH2 0x2D86 JUMP JUMPDEST PUSH2 0x1F51 SWAP2 SWAP1 PUSH2 0x2D86 JUMP JUMPDEST PUSH1 0x1E PUSH2 0x1F5D SWAP2 SWAP1 PUSH2 0x2582 JUMP JUMPDEST JUMPDEST DUP2 PUSH1 0x40 ADD SWAP1 PUSH1 0xFF AND SWAP1 DUP2 PUSH1 0xFF AND DUP2 MSTORE POP POP JUMPDEST JUMPDEST JUMPDEST JUMPDEST JUMPDEST DUP1 SWAP2 POP POP SWAP4 SWAP3 POP POP POP JUMP JUMPDEST PUSH1 0x40 MLOAD DUP1 PUSH1 0xC0 ADD PUSH1 0x40 MSTORE DUP1 PUSH1 0x0 DUP2 MSTORE PUSH1 0x20 ADD PUSH1 0x60 DUP2 MSTORE PUSH1 0x20 ADD PUSH1 0x0 PUSH1 0xFF AND DUP2 MSTORE PUSH1 0x20 ADD PUSH1 0x0 PUSH1 0xFF AND DUP2 MSTORE PUSH1 0x20 ADD PUSH1 0x0 PUSH1 0xFF AND DUP2 MSTORE PUSH1 0x20 ADD PUSH1 0x0 PUSH4 0xFFFFFFFF AND DUP2 MSTORE POP SWAP1 JUMP JUMPDEST PUSH1 0x40 MLOAD DUP1 PUSH1 0x60 ADD PUSH1 0x40 MSTORE DUP1 PUSH1 0x0 PUSH1 0xFF AND DUP2 MSTORE PUSH1 0x20 ADD PUSH1 0x0 PUSH1 0xFF AND DUP2 MSTORE PUSH1 0x20 ADD PUSH1 0x0 PUSH1 0xFF AND DUP2 MSTORE POP SWAP1 JUMP JUMPDEST PUSH1 0x0 DUP2 MLOAD SWAP1 POP SWAP2 SWAP1 POP JUMP JUMPDEST PUSH1 0x0 DUP3 DUP3 MSTORE PUSH1 0x20 DUP3 ADD SWAP1 POP SWAP3 SWAP2 POP POP JUMP JUMPDEST PUSH1 0x0 JUMPDEST DUP4 DUP2 LT ISZERO PUSH2 0x2028 JUMPI DUP1 DUP3 ADD MLOAD DUP2 DUP5 ADD MSTORE PUSH1 0x20 DUP2 ADD SWAP1 POP PUSH2 0x200D JUMP JUMPDEST PUSH1 0x0 DUP5 DUP5 ADD MSTORE POP POP POP POP JUMP JUMPDEST PUSH1 0x0 PUSH1 0x1F NOT PUSH1 0x1F DUP4 ADD AND SWAP1 POP SWAP2 SWAP1 POP JUMP JUMPDEST PUSH1 0x0 PUSH2 0x2050 DUP3 PUSH2 0x1FEE JUMP JUMPDEST PUSH2 0x205A DUP2 DUP6 PUSH2 0x1FF9 JUMP JUMPDEST SWAP4 POP PUSH2 0x206A DUP2 DUP6 PUSH1 0x20 DUP7 ADD PUSH2 0x200A JUMP JUMPDEST PUSH2 0x2073 DUP2 PUSH2 0x2034 JUMP JUMPDEST DUP5 ADD SWAP2 POP POP SWAP3 SWAP2 POP POP JUMP JUMPDEST PUSH1 0x0 PUSH1 0x20 DUP3 ADD SWAP1 POP DUP2 DUP2 SUB PUSH1 0x0 DUP4 ADD MSTORE PUSH2 0x2098 DUP2 DUP5 PUSH2 0x2045 JUMP JUMPDEST SWAP1 POP SWAP3 SWAP2 POP POP JUMP JUMPDEST PUSH1 0x0 DUP2 SWAP1 POP SWAP2 SWAP1 POP JUMP JUMPDEST PUSH2 0x20B3 DUP2 PUSH2 0x20A0 JUMP JUMPDEST DUP3 MSTORE POP POP JUMP JUMPDEST PUSH1 0x0 PUSH1 0x20 DUP3 ADD SWAP1 POP PUSH2 0x20CE PUSH1 0x0 DUP4 ADD DUP5 PUSH2 0x20AA JUMP JUMPDEST SWAP3 SWAP2 POP POP JUMP JUMPDEST PUSH1 0x0 DUP1 REVERT JUMPDEST PUSH1 0x0 PUSH1 0xFF DUP3 AND SWAP1 POP SWAP2 SWAP1 POP JUMP JUMPDEST PUSH2 0x20EF DUP2 PUSH2 0x20D9 JUMP JUMPDEST DUP2 EQ PUSH2 0x20FA JUMPI PUSH1 0x0 DUP1 REVERT JUMPDEST POP JUMP JUMPDEST PUSH1 0x0 DUP2 CALLDATALOAD SWAP1 POP PUSH2 0x210C DUP2 PUSH2 0x20E6 JUMP JUMPDEST SWAP3 SWAP2 POP POP JUMP JUMPDEST PUSH1 0x0 PUSH1 0x20 DUP3 DUP5 SUB SLT ISZERO PUSH2 0x2128 JUMPI PUSH2 0x2127 PUSH2 0x20D4 JUMP JUMPDEST JUMPDEST PUSH1 0x0 PUSH2 0x2136 DUP5 DUP3 DUP6 ADD PUSH2 0x20FD JUMP JUMPDEST SWAP2 POP POP SWAP3 SWAP2 POP POP JUMP JUMPDEST PUSH2 0x2148 DUP2 PUSH2 0x20A0 JUMP JUMPDEST DUP2 EQ PUSH2 0x2153 JUMPI PUSH1 0x0 DUP1 REVERT JUMPDEST POP JUMP JUMPDEST PUSH1 0x0 DUP2 CALLDATALOAD SWAP1 POP PUSH2 0x2165 DUP2 PUSH2 0x213F JUMP JUMPDEST SWAP3 SWAP2 POP POP JUMP JUMPDEST PUSH1 0x0 PUSH1 0x20 DUP3 DUP5 SUB SLT ISZERO PUSH2 0x2181 JUMPI PUSH2 0x2180 PUSH2 0x20D4 JUMP JUMPDEST JUMPDEST PUSH1 0x0 PUSH2 0x218F DUP5 DUP3 DUP6 ADD PUSH2 0x2156 JUMP JUMPDEST SWAP2 POP POP SWAP3 SWAP2 POP POP JUMP JUMPDEST PUSH1 0x0 PUSH20 0xFFFFFFFFFFFFFFFFFFFFFFFFFFFFFFFFFFFFFFFF DUP3 AND SWAP1 POP SWAP2 SWAP1 POP JUMP JUMPDEST PUSH1 0x0 PUSH2 0x21C3 DUP3 PUSH2 0x2198 JUMP JUMPDEST SWAP1 POP SWAP2 SWAP1 POP JUMP JUMPDEST PUSH2 0x21D3 DUP2 PUSH2 0x21B8 JUMP JUMPDEST DUP3 MSTORE POP POP JUMP JUMPDEST PUSH1 0x0 PUSH1 0x20 DUP3 ADD SWAP1 POP PUSH2 0x21EE PUSH1 0x0 DUP4 ADD DUP5 PUSH2 0x21CA JUMP JUMPDEST SWAP3 SWAP2 POP POP JUMP JUMPDEST PUSH2 0x21FD DUP2 PUSH2 0x20A0 JUMP JUMPDEST DUP3 MSTORE POP POP JUMP JUMPDEST PUSH1 0x0 DUP3 DUP3 MSTORE PUSH1 0x20 DUP3 ADD SWAP1 POP SWAP3 SWAP2 POP POP JUMP JUMPDEST PUSH1 0x0 PUSH2 0x221F DUP3 PUSH2 0x1FEE JUMP JUMPDEST PUSH2 0x2229 DUP2 DUP6 PUSH2 0x2203 JUMP JUMPDEST SWAP4 POP PUSH2 0x2239 DUP2 DUP6 PUSH1 0x20 DUP7 ADD PUSH2 0x200A JUMP JUMPDEST PUSH2 0x2242 DUP2 PUSH2 0x2034 JUMP JUMPDEST DUP5 ADD SWAP2 POP POP SWAP3 SWAP2 POP POP JUMP JUMPDEST PUSH2 0x2256 DUP2 PUSH2 0x20D9 JUMP JUMPDEST DUP3 MSTORE POP POP JUMP JUMPDEST PUSH1 0x0 PUSH4 0xFFFFFFFF DUP3 AND SWAP1 POP SWAP2 SWAP1 POP JUMP JUMPDEST PUSH2 0x2275 DUP2 PUSH2 0x225C JUMP JUMPDEST DUP3 MSTORE POP POP JUMP JUMPDEST PUSH1 0x0 PUSH1 0xC0 DUP4 ADD PUSH1 0x0 DUP4 ADD MLOAD PUSH2 0x2293 PUSH1 0x0 DUP7 ADD DUP3 PUSH2 0x21F4 JUMP JUMPDEST POP PUSH1 0x20 DUP4 ADD MLOAD DUP5 DUP3 SUB PUSH1 0x20 DUP7 ADD MSTORE PUSH2 0x22AB DUP3 DUP3 PUSH2 0x2214 JUMP JUMPDEST SWAP2 POP POP PUSH1 0x40 DUP4 ADD MLOAD PUSH2 0x22C0 PUSH1 0x40 DUP7 ADD DUP3 PUSH2 0x224D JUMP JUMPDEST POP PUSH1 0x60 DUP4 ADD MLOAD PUSH2 0x22D3 PUSH1 0x60 DUP7 ADD DUP3 PUSH2 0x224D JUMP JUMPDEST POP PUSH1 0x80 DUP4 ADD MLOAD PUSH2 0x22E6 PUSH1 0x80 DUP7 ADD DUP3 PUSH2 0x224D JUMP JUMPDEST POP PUSH1 0xA0 DUP4 ADD MLOAD PUSH2 0x22F9 PUSH1 0xA0 DUP7 ADD DUP3 PUSH2 0x226C JUMP JUMPDEST POP DUP1 SWAP2 POP POP SWAP3 SWAP2 POP POP JUMP JUMPDEST PUSH1 0x0 PUSH1 0x20 DUP3 ADD SWAP1 POP DUP2 DUP2 SUB PUSH1 0x0 DUP4 ADD MSTORE PUSH2 0x231E DUP2 DUP5 PUSH2 0x227B JUMP JUMPDEST SWAP1 POP SWAP3 SWAP2 POP POP JUMP JUMPDEST PUSH2 0x232F DUP2 PUSH2 0x21B8 JUMP JUMPDEST DUP2 EQ PUSH2 0x233A JUMPI PUSH1 0x0 DUP1 REVERT JUMPDEST POP JUMP JUMPDEST PUSH1 0x0 DUP2 CALLDATALOAD SWAP1 POP PUSH2 0x234C DUP2 PUSH2 0x2326 JUMP JUMPDEST SWAP3 SWAP2 POP POP JUMP JUMPDEST PUSH1 0x0 PUSH1 0x20 DUP3 DUP5 SUB SLT ISZERO PUSH2 0x2368 JUMPI PUSH2 0x2367 PUSH2 0x20D4 JUMP JUMPDEST JUMPDEST PUSH1 0x0 PUSH2 0x2376 DUP5 DUP3 DUP6 ADD PUSH2 0x233D JUMP JUMPDEST SWAP2 POP POP SWAP3 SWAP2 POP POP JUMP JUMPDEST PUSH1 0x0 DUP1 PUSH1 0x40 DUP4 DUP6 SUB SLT ISZERO PUSH2 0x2396 JUMPI PUSH2 0x2395 PUSH2 0x20D4 JUMP JUMPDEST JUMPDEST PUSH1 0x0 PUSH2 0x23A4 DUP6 DUP3 DUP7 ADD PUSH2 0x233D JUMP JUMPDEST SWAP3 POP POP PUSH1 0x20 PUSH2 0x23B5 DUP6 DUP3 DUP7 ADD PUSH2 0x2156 JUMP JUMPDEST SWAP2 POP POP SWAP3 POP SWAP3 SWAP1 POP JUMP JUMPDEST PUSH1 0x0 DUP2 MLOAD SWAP1 POP SWAP2 SWAP1 POP JUMP JUMPDEST PUSH1 0x0 DUP3 DUP3 MSTORE PUSH1 0x20 DUP3 ADD SWAP1 POP SWAP3 SWAP2 POP POP JUMP JUMPDEST PUSH1 0x0 DUP2 SWAP1 POP PUSH1 0x20 DUP3 ADD SWAP1 POP SWAP2 SWAP1 POP JUMP JUMPDEST PUSH1 0x0 PUSH2 0x23F7 DUP4 DUP4 PUSH2 0x21F4 JUMP JUMPDEST PUSH1 0x20 DUP4 ADD SWAP1 POP SWAP3 SWAP2 POP POP JUMP JUMPDEST PUSH1 0x0 PUSH1 0x20 DUP3 ADD SWAP1 POP SWAP2 SWAP1 POP JUMP JUMPDEST PUSH1 0x0 PUSH2 0x241B DUP3 PUSH2 0x23BF JUMP JUMPDEST PUSH2 0x2425 DUP2 DUP6 PUSH2 0x23CA JUMP JUMPDEST SWAP4 POP PUSH2 0x2430 DUP4 PUSH2 0x23DB JUMP JUMPDEST DUP1 PUSH1 0x0 JUMPDEST DUP4 DUP2 LT ISZERO PUSH2 0x2461 JUMPI DUP2 MLOAD PUSH2 0x2448 DUP9 DUP3 PUSH2 0x23EB JUMP JUMPDEST SWAP8 POP PUSH2 0x2453 DUP4 PUSH2 0x2403 JUMP JUMPDEST SWAP3 POP POP PUSH1 0x1 DUP2 ADD SWAP1 POP PUSH2 0x2434 JUMP JUMPDEST POP DUP6 SWAP4 POP POP POP POP SWAP3 SWAP2 POP POP JUMP JUMPDEST PUSH1 0x0 PUSH1 0x20 DUP3 ADD SWAP1 POP DUP2 DUP2 SUB PUSH1 0x0 DUP4 ADD MSTORE PUSH2 0x2488 DUP2 DUP5 PUSH2 0x2410 JUMP JUMPDEST SWAP1 POP SWAP3 SWAP2 POP POP JUMP JUMPDEST PUSH32 0x4E487B7100000000000000000000000000000000000000000000000000000000 PUSH1 0x0 MSTORE PUSH1 0x22 PUSH1 0x4 MSTORE PUSH1 0x24 PUSH1 0x0 REVERT JUMPDEST PUSH1 0x0 PUSH1 0x2 DUP3 DIV SWAP1 POP PUSH1 0x1 DUP3 AND DUP1 PUSH2 0x24D7 JUMPI PUSH1 0x7F DUP3 AND SWAP2 POP JUMPDEST PUSH1 0x20 DUP3 LT DUP2 SUB PUSH2 0x24EA JUMPI PUSH2 0x24E9 PUSH2 0x2490 JUMP JUMPDEST JUMPDEST POP SWAP2 SWAP1 POP JUMP JUMPDEST PUSH32 0x4E487B7100000000000000000000000000000000000000000000000000000000 PUSH1 0x0 MSTORE PUSH1 0x32 PUSH1 0x4 MSTORE PUSH1 0x24 PUSH1 0x0 REVERT JUMPDEST PUSH32 0x4E487B7100000000000000000000000000000000000000000000000000000000 PUSH1 0x0 MSTORE PUSH1 0x11 PUSH1 0x4 MSTORE PUSH1 0x24 PUSH1 0x0 REVERT JUMPDEST PUSH1 0x0 PUSH2 0x2559 DUP3 PUSH2 0x20A0 JUMP JUMPDEST SWAP2 POP PUSH2 0x2564 DUP4 PUSH2 0x20A0 JUMP JUMPDEST SWAP3 POP DUP3 DUP3 SUB SWAP1 POP DUP2 DUP2 GT ISZERO PUSH2 0x257C JUMPI PUSH2 0x257B PUSH2 0x251F JUMP JUMPDEST JUMPDEST SWAP3 SWAP2 POP POP JUMP JUMPDEST PUSH1 0x0 PUSH2 0x258D DUP3 PUSH2 0x20A0 JUMP JUMPDEST SWAP2 POP PUSH2 0x2598 DUP4 PUSH2 0x20A0 JUMP JUMPDEST SWAP3 POP DUP3 DUP3 ADD SWAP1 POP DUP1 DUP3 GT ISZERO PUSH2 0x25B0 JUMPI PUSH2 0x25AF PUSH2 0x251F JUMP JUMPDEST JUMPDEST SWAP3 SWAP2 POP POP JUMP JUMPDEST PUSH32 0x4E6F7420656E6F75676820746F6B656E73000000000000000000000000000000 PUSH1 0x0 DUP3 ADD MSTORE POP JUMP JUMPDEST PUSH1 0x0 PUSH2 0x25EC PUSH1 0x11 DUP4 PUSH2 0x1FF9 JUMP JUMPDEST SWAP2 POP PUSH2 0x25F7 DUP3 PUSH2 0x25B6 JUMP JUMPDEST PUSH1 0x20 DUP3 ADD SWAP1 POP SWAP2 SWAP1 POP JUMP JUMPDEST PUSH1 0x0 PUSH1 0x20 DUP3 ADD SWAP1 POP DUP2 DUP2 SUB PUSH1 0x0 DUP4 ADD MSTORE PUSH2 0x261B DUP2 PUSH2 0x25DF JUMP JUMPDEST SWAP1 POP SWAP2 SWAP1 POP JUMP JUMPDEST PUSH1 0x0 DUP2 SWAP1 POP SWAP2 SWAP1 POP JUMP JUMPDEST PUSH1 0x0 DUP2 SWAP1 POP SWAP2 SWAP1 POP JUMP JUMPDEST PUSH1 0x0 PUSH2 0x2651 PUSH2 0x264C PUSH2 0x2647 DUP5 PUSH2 0x2622 JUMP JUMPDEST PUSH2 0x262C JUMP JUMPDEST PUSH2 0x20A0 JUMP JUMPDEST SWAP1 POP SWAP2 SWAP1 POP JUMP JUMPDEST PUSH2 0x2661 DUP2 PUSH2 0x2636 JUMP JUMPDEST DUP3 MSTORE POP POP JUMP JUMPDEST PUSH1 0x0 PUSH1 0x20 DUP3 ADD SWAP1 POP PUSH2 0x267C PUSH1 0x0 DUP4 ADD DUP5 PUSH2 0x2658 JUMP JUMPDEST SWAP3 SWAP2 POP POP JUMP JUMPDEST PUSH1 0x0 PUSH1 0x80 DUP3 ADD SWAP1 POP DUP2 DUP2 SUB PUSH1 0x0 DUP4 ADD MSTORE PUSH2 0x269C DUP2 DUP8 PUSH2 0x2045 JUMP JUMPDEST SWAP1 POP PUSH2 0x26AB PUSH1 0x20 DUP4 ADD DUP7 PUSH2 0x21CA JUMP JUMPDEST DUP2 DUP2 SUB PUSH1 0x40 DUP4 ADD MSTORE PUSH2 0x26BD DUP2 DUP6 PUSH2 0x2045 JUMP JUMPDEST SWAP1 POP PUSH2 0x26CC PUSH1 0x60 DUP4 ADD DUP5 PUSH2 0x20AA JUMP JUMPDEST SWAP6 SWAP5 POP POP POP POP POP JUMP JUMPDEST PUSH32 0x496E76616C696420626F6F737465722074797065000000000000000000000000 PUSH1 0x0 DUP3 ADD MSTORE POP JUMP JUMPDEST PUSH1 0x0 PUSH2 0x270B PUSH1 0x14 DUP4 PUSH2 0x1FF9 JUMP JUMPDEST SWAP2 POP PUSH2 0x2716 DUP3 PUSH2 0x26D5 JUMP JUMPDEST PUSH1 0x20 DUP3 ADD SWAP1 POP SWAP2 SWAP1 POP JUMP JUMPDEST PUSH1 0x0 PUSH1 0x20 DUP3 ADD SWAP1 POP DUP2 DUP2 SUB PUSH1 0x0 DUP4 ADD MSTORE PUSH2 0x273A DUP2 PUSH2 0x26FE JUMP JUMPDEST SWAP1 POP SWAP2 SWAP1 POP JUMP JUMPDEST PUSH1 0x0 PUSH2 0x274C DUP3 PUSH2 0x20D9 JUMP JUMPDEST SWAP2 POP PUSH2 0x2757 DUP4 PUSH2 0x20D9 JUMP JUMPDEST SWAP3 POP DUP3 DUP3 ADD SWAP1 POP PUSH1 0xFF DUP2 GT ISZERO PUSH2 0x2770 JUMPI PUSH2 0x276F PUSH2 0x251F JUMP JUMPDEST JUMPDEST SWAP3 SWAP2 POP POP JUMP JUMPDEST PUSH1 0x0 PUSH2 0x2781 DUP3 PUSH2 0x20D9 JUMP JUMPDEST SWAP2 POP PUSH1 0xFF DUP3 SUB PUSH2 0x2794 JUMPI PUSH2 0x2793 PUSH2 0x251F JUMP JUMPDEST JUMPDEST PUSH1 0x1 DUP3 ADD SWAP1 POP SWAP2 SWAP1 POP JUMP JUMPDEST PUSH1 0x0 PUSH1 0x80 DUP3 ADD SWAP1 POP DUP2 DUP2 SUB PUSH1 0x0 DUP4 ADD MSTORE PUSH2 0x27B9 DUP2 DUP8 PUSH2 0x2045 JUMP JUMPDEST SWAP1 POP PUSH2 0x27C8 PUSH1 0x20 DUP4 ADD DUP7 PUSH2 0x21CA JUMP JUMPDEST PUSH2 0x27D5 PUSH1 0x40 DUP4 ADD DUP6 PUSH2 0x20AA JUMP JUMPDEST PUSH2 0x27E2 PUSH1 0x60 DUP4 ADD DUP5 PUSH2 0x21CA JUMP JUMPDEST SWAP6 SWAP5 POP POP POP POP POP JUMP JUMPDEST PUSH32 0x55736572206E6F74206F776E6572206F66207468697320636172000000000000 PUSH1 0x0 DUP3 ADD MSTORE POP JUMP JUMPDEST PUSH1 0x0 PUSH2 0x2821 PUSH1 0x1A DUP4 PUSH2 0x1FF9 JUMP JUMPDEST SWAP2 POP PUSH2 0x282C DUP3 PUSH2 0x27EB JUMP JUMPDEST PUSH1 0x20 DUP3 ADD SWAP1 POP SWAP2 SWAP1 POP JUMP JUMPDEST PUSH1 0x0 PUSH1 0x20 DUP3 ADD SWAP1 POP DUP2 DUP2 SUB PUSH1 0x0 DUP4 ADD MSTORE PUSH2 0x2850 DUP2 PUSH2 0x2814 JUMP JUMPDEST SWAP1 POP SWAP2 SWAP1 POP JUMP JUMPDEST PUSH1 0x0 PUSH1 0x80 DUP3 ADD SWAP1 POP DUP2 DUP2 SUB PUSH1 0x0 DUP4 ADD MSTORE PUSH2 0x2871 DUP2 DUP8 PUSH2 0x2045 JUMP JUMPDEST SWAP1 POP PUSH2 0x2880 PUSH1 0x20 DUP4 ADD DUP7 PUSH2 0x21CA JUMP JUMPDEST PUSH2 0x288D PUSH1 0x40 DUP4 ADD DUP6 PUSH2 0x21CA JUMP JUMPDEST PUSH2 0x289A PUSH1 0x60 DUP4 ADD DUP5 PUSH2 0x20AA JUMP JUMPDEST SWAP6 SWAP5 POP POP POP POP POP JUMP JUMPDEST PUSH32 0x496E76616C696420726172697479000000000000000000000000000000000000 PUSH1 0x0 DUP3 ADD MSTORE POP JUMP JUMPDEST PUSH1 0x0 PUSH2 0x28D9 PUSH1 0xE DUP4 PUSH2 0x1FF9 JUMP JUMPDEST SWAP2 POP PUSH2 0x28E4 DUP3 PUSH2 0x28A3 JUMP JUMPDEST PUSH1 0x20 DUP3 ADD SWAP1 POP SWAP2 SWAP1 POP JUMP JUMPDEST PUSH1 0x0 PUSH1 0x20 DUP3 ADD SWAP1 POP DUP2 DUP2 SUB PUSH1 0x0 DUP4 ADD MSTORE PUSH2 0x2908 DUP2 PUSH2 0x28CC JUMP JUMPDEST SWAP1 POP SWAP2 SWAP1 POP JUMP JUMPDEST PUSH32 0x4E487B7100000000000000000000000000000000000000000000000000000000 PUSH1 0x0 MSTORE PUSH1 0x41 PUSH1 0x4 MSTORE PUSH1 0x24 PUSH1 0x0 REVERT JUMPDEST PUSH1 0x0 PUSH2 0x2949 DUP3 PUSH2 0x20A0 JUMP JUMPDEST SWAP2 POP PUSH32 0xFFFFFFFFFFFFFFFFFFFFFFFFFFFFFFFFFFFFFFFFFFFFFFFFFFFFFFFFFFFFFFFF DUP3 SUB PUSH2 0x297B JUMPI PUSH2 0x297A PUSH2 0x251F JUMP JUMPDEST JUMPDEST PUSH1 0x1 DUP3 ADD SWAP1 POP SWAP2 SWAP1 POP JUMP JUMPDEST PUSH32 0x4E487B7100000000000000000000000000000000000000000000000000000000 PUSH1 0x0 MSTORE PUSH1 0x12 PUSH1 0x4 MSTORE PUSH1 0x24 PUSH1 0x0 REVERT JUMPDEST PUSH1 0x0 PUSH2 0x29C0 DUP3 PUSH2 0x20A0 JUMP JUMPDEST SWAP2 POP PUSH2 0x29CB DUP4 PUSH2 0x20A0 JUMP JUMPDEST SWAP3 POP DUP3 PUSH2 0x29DB JUMPI PUSH2 0x29DA PUSH2 0x2986 JUMP JUMPDEST JUMPDEST DUP3 DUP3 DIV SWAP1 POP SWAP3 SWAP2 POP POP JUMP JUMPDEST PUSH1 0x0 DUP2 SWAP1 POP DUP2 PUSH1 0x0 MSTORE PUSH1 0x20 PUSH1 0x0 KECCAK256 SWAP1 POP SWAP2 SWAP1 POP JUMP JUMPDEST PUSH1 0x0 PUSH1 0x20 PUSH1 0x1F DUP4 ADD DIV SWAP1 POP SWAP2 SWAP1 POP JUMP JUMPDEST PUSH1 0x0 DUP3 DUP3 SHL SWAP1 POP SWAP3 SWAP2 POP POP JUMP JUMPDEST PUSH1 0x0 PUSH1 0x8 DUP4 MUL PUSH2 0x2A48 PUSH32 0xFFFFFFFFFFFFFFFFFFFFFFFFFFFFFFFFFFFFFFFFFFFFFFFFFFFFFFFFFFFFFFFF DUP3 PUSH2 0x2A0B JUMP JUMPDEST PUSH2 0x2A52 DUP7 DUP4 PUSH2 0x2A0B JUMP JUMPDEST SWAP6 POP DUP1 NOT DUP5 AND SWAP4 POP DUP1 DUP7 AND DUP5 OR SWAP3 POP POP POP SWAP4 SWAP3 POP POP POP JUMP JUMPDEST PUSH1 0x0 PUSH2 0x2A85 PUSH2 0x2A80 PUSH2 0x2A7B DUP5 PUSH2 0x20A0 JUMP JUMPDEST PUSH2 0x262C JUMP JUMPDEST PUSH2 0x20A0 JUMP JUMPDEST SWAP1 POP SWAP2 SWAP1 POP JUMP JUMPDEST PUSH1 0x0 DUP2 SWAP1 POP SWAP2 SWAP1 POP JUMP JUMPDEST PUSH2 0x2A9F DUP4 PUSH2 0x2A6A JUMP JUMPDEST PUSH2 0x2AB3 PUSH2 0x2AAB DUP3 PUSH2 0x2A8C JUMP JUMPDEST DUP5 DUP5 SLOAD PUSH2 0x2A18 JUMP JUMPDEST DUP3 SSTORE POP POP POP POP JUMP JUMPDEST PUSH1 0x0 SWAP1 JUMP JUMPDEST PUSH2 0x2AC8 PUSH2 0x2ABB JUMP JUMPDEST PUSH2 0x2AD3 DUP2 DUP5 DUP5 PUSH2 0x2A96 JUMP JUMPDEST POP POP POP JUMP JUMPDEST JUMPDEST DUP2 DUP2 LT ISZERO PUSH2 0x2AF7 JUMPI PUSH2 0x2AEC PUSH1 0x0 DUP3 PUSH2 0x2AC0 JUMP JUMPDEST PUSH1 0x1 DUP2 ADD SWAP1 POP PUSH2 0x2AD9 JUMP JUMPDEST POP POP JUMP JUMPDEST PUSH1 0x1F DUP3 GT ISZERO PUSH2 0x2B3C JUMPI PUSH2 0x2B0D DUP2 PUSH2 0x29E6 JUMP JUMPDEST PUSH2 0x2B16 DUP5 PUSH2 0x29FB JUMP JUMPDEST DUP2 ADD PUSH1 0x20 DUP6 LT ISZERO PUSH2 0x2B25 JUMPI DUP2 SWAP1 POP JUMPDEST PUSH2 0x2B39 PUSH2 0x2B31 DUP6 PUSH2 0x29FB JUMP JUMPDEST DUP4 ADD DUP3 PUSH2 0x2AD8 JUMP JUMPDEST POP POP JUMPDEST POP POP POP JUMP JUMPDEST PUSH1 0x0 DUP3 DUP3 SHR SWAP1 POP SWAP3 SWAP2 POP POP JUMP JUMPDEST PUSH1 0x0 PUSH2 0x2B5F PUSH1 0x0 NOT DUP5 PUSH1 0x8 MUL PUSH2 0x2B41 JUMP JUMPDEST NOT DUP1 DUP4 AND SWAP2 POP POP SWAP3 SWAP2 POP POP JUMP JUMPDEST PUSH1 0x0 PUSH2 0x2B78 DUP4 DUP4 PUSH2 0x2B4E JUMP JUMPDEST SWAP2 POP DUP3 PUSH1 0x2 MUL DUP3 OR SWAP1 POP SWAP3 SWAP2 POP POP JUMP JUMPDEST PUSH2 0x2B91 DUP3 PUSH2 0x1FEE JUMP JUMPDEST PUSH8 0xFFFFFFFFFFFFFFFF DUP2 GT ISZERO PUSH2 0x2BAA JUMPI PUSH2 0x2BA9 PUSH2 0x290F JUMP JUMPDEST JUMPDEST PUSH2 0x2BB4 DUP3 SLOAD PUSH2 0x24BF JUMP JUMPDEST PUSH2 0x2BBF DUP3 DUP3 DUP6 PUSH2 0x2AFB JUMP JUMPDEST PUSH1 0x0 PUSH1 0x20 SWAP1 POP PUSH1 0x1F DUP4 GT PUSH1 0x1 DUP2 EQ PUSH2 0x2BF2 JUMPI PUSH1 0x0 DUP5 ISZERO PUSH2 0x2BE0 JUMPI DUP3 DUP8 ADD MLOAD SWAP1 POP JUMPDEST PUSH2 0x2BEA DUP6 DUP3 PUSH2 0x2B6C JUMP JUMPDEST DUP7 SSTORE POP PUSH2 0x2C52 JUMP JUMPDEST PUSH1 0x1F NOT DUP5 AND PUSH2 0x2C00 DUP7 PUSH2 0x29E6 JUMP JUMPDEST PUSH1 0x0 JUMPDEST DUP3 DUP2 LT ISZERO PUSH2 0x2C28 JUMPI DUP5 DUP10 ADD MLOAD DUP3 SSTORE PUSH1 0x1 DUP3 ADD SWAP2 POP PUSH1 0x20 DUP6 ADD SWAP5 POP PUSH1 0x20 DUP2 ADD SWAP1 POP PUSH2 0x2C03 JUMP JUMPDEST DUP7 DUP4 LT ISZERO PUSH2 0x2C45 JUMPI DUP5 DUP10 ADD MLOAD PUSH2 0x2C41 PUSH1 0x1F DUP10 AND DUP3 PUSH2 0x2B4E JUMP JUMPDEST DUP4 SSTORE POP JUMPDEST PUSH1 0x1 PUSH1 0x2 DUP9 MUL ADD DUP9 SSTORE POP POP POP JUMPDEST POP POP POP POP POP POP JUMP JUMPDEST PUSH2 0x2C63 DUP2 PUSH2 0x20D9 JUMP JUMPDEST DUP3 MSTORE POP POP JUMP JUMPDEST PUSH2 0x2C72 DUP2 PUSH2 0x225C JUMP JUMPDEST DUP3 MSTORE POP POP JUMP JUMPDEST PUSH1 0x0 PUSH1 0xC0 DUP3 ADD SWAP1 POP PUSH2 0x2C8D PUSH1 0x0 DUP4 ADD DUP10 PUSH2 0x20AA JUMP JUMPDEST DUP2 DUP2 SUB PUSH1 0x20 DUP4 ADD MSTORE PUSH2 0x2C9F DUP2 DUP9 PUSH2 0x2045 JUMP JUMPDEST SWAP1 POP PUSH2 0x2CAE PUSH1 0x40 DUP4 ADD DUP8 PUSH2 0x2C5A JUMP JUMPDEST PUSH2 0x2CBB PUSH1 0x60 DUP4 ADD DUP7 PUSH2 0x2C5A JUMP JUMPDEST PUSH2 0x2CC8 PUSH1 0x80 DUP4 ADD DUP6 PUSH2 0x2C5A JUMP JUMPDEST PUSH2 0x2CD5 PUSH1 0xA0 DUP4 ADD DUP5 PUSH2 0x2C69 JUMP JUMPDEST SWAP8 SWAP7 POP POP POP POP POP POP POP JUMP JUMPDEST PUSH1 0x0 DUP2 SWAP1 POP SWAP2 SWAP1 POP JUMP JUMPDEST PUSH2 0x2CFB PUSH2 0x2CF6 DUP3 PUSH2 0x20A0 JUMP JUMPDEST PUSH2 0x2CE0 JUMP JUMPDEST DUP3 MSTORE POP POP JUMP JUMPDEST PUSH1 0x0 DUP2 PUSH1 0x60 SHL SWAP1 POP SWAP2 SWAP1 POP JUMP JUMPDEST PUSH1 0x0 PUSH2 0x2D19 DUP3 PUSH2 0x2D01 JUMP JUMPDEST SWAP1 POP SWAP2 SWAP1 POP JUMP JUMPDEST PUSH1 0x0 PUSH2 0x2D2B DUP3 PUSH2 0x2D0E JUMP JUMPDEST SWAP1 POP SWAP2 SWAP1 POP JUMP JUMPDEST PUSH2 0x2D43 PUSH2 0x2D3E DUP3 PUSH2 0x21B8 JUMP JUMPDEST PUSH2 0x2D20 JUMP JUMPDEST DUP3 MSTORE POP POP JUMP JUMPDEST PUSH1 0x0 PUSH2 0x2D55 DUP3 DUP7 PUSH2 0x2CEA JUMP JUMPDEST PUSH1 0x20 DUP3 ADD SWAP2 POP PUSH2 0x2D65 DUP3 DUP6 PUSH2 0x2D32 JUMP JUMPDEST PUSH1 0x14 DUP3 ADD SWAP2 POP PUSH2 0x2D75 DUP3 DUP5 PUSH2 0x2CEA JUMP JUMPDEST PUSH1 0x20 DUP3 ADD SWAP2 POP DUP2 SWAP1 POP SWAP5 SWAP4 POP POP POP POP JUMP JUMPDEST PUSH1 0x0 PUSH2 0x2D91 DUP3 PUSH2 0x20A0 JUMP JUMPDEST SWAP2 POP PUSH2 0x2D9C DUP4 PUSH2 0x20A0 JUMP JUMPDEST SWAP3 POP DUP3 PUSH2 0x2DAC JUMPI PUSH2 0x2DAB PUSH2 0x2986 JUMP JUMPDEST JUMPDEST DUP3 DUP3 MOD SWAP1 POP SWAP3 SWAP2 POP POP JUMP INVALID 0x25 PUSH20 0x20627579696E6720257320626F6F737465722066 PUSH16 0x7220257320746F6B656E732573206275 PUSH26 0x696E6720636F6F6C646F776E20666F7220257320746F6B656E73 KECCAK256 0x28 0x25 PUSH20 0x295472616E7366657272696E672066726F6D2025 PUSH20 0x20746F20257320257320746F6B656E73A2646970 PUSH7 0x7358221220B2CA COINBASE 0xB4 0x2A 0xF6 0x2E 0xA7 0x2D 0xA8 0xDB 0xB6 KECCAK256 0xC0 ADD PUSH27 0x591B02B145A73809DF55A12D5D56B53B64736F6C63430008120033 "},"methodIdentifiers":{"balanceOf(address)":"70a08231","carToOwner(uint256)":"33ca504b","generateBooster(uint8)":"1d609098","getCar(uint256)":"5e8be190","getUserCars()":"c27a399d","name()":"06fdde03","owner()":"8da5cb5b","resetCooldown(uint256)":"6b3830c6","symbol()":"95d89b41","totalSupply()":"18160ddd","transfer(address,uint256)":"a9059cbb"}}}}}