{
  "_format": "hh-sol-artifact-1",
  "contractName": "FCarToken",
  "sourceName": "contracts/FCarToken.sol",
  "abi": [
    {
      "inputs": [],
      "stateMutability": "nonpayable",
      "type": "constructor"
    },
    {
      "anonymous": false,
      "inputs": [
        {
          "indexed": true,
          "internalType": "address",
          "name": "owner",
          "type": "address"
        },
        {
          "indexed": true,
          "internalType": "address",
          "name": "spender",
          "type": "address"
        },
        {
          "indexed": false,
          "internalType": "uint256",
          "name": "value",
          "type": "uint256"
        }
      ],
      "name": "Approval",
      "type": "event"
    },
    {
      "anonymous": false,
      "inputs": [
        {
          "indexed": true,
          "internalType": "address",
          "name": "previousOwner",
          "type": "address"
        },
        {
          "indexed": true,
          "internalType": "address",
          "name": "newOwner",
          "type": "address"
        }
      ],
      "name": "OwnershipTransferred",
      "type": "event"
    },
    {
      "anonymous": false,
      "inputs": [
        {
          "indexed": true,
          "internalType": "address",
          "name": "from",
          "type": "address"
        },
        {
          "indexed": true,
          "internalType": "address",
          "name": "to",
          "type": "address"
        },
        {
          "indexed": false,
          "internalType": "uint256",
          "name": "value",
          "type": "uint256"
        }
      ],
      "name": "Transfer",
      "type": "event"
    },
    {
      "inputs": [
        {
          "internalType": "address",
          "name": "owner",
          "type": "address"
        },
        {
          "internalType": "address",
          "name": "spender",
          "type": "address"
        }
      ],
      "name": "allowance",
      "outputs": [
        {
          "internalType": "uint256",
          "name": "",
          "type": "uint256"
        }
      ],
      "stateMutability": "view",
      "type": "function"
    },
    {
      "inputs": [
        {
          "internalType": "address",
          "name": "spender",
          "type": "address"
        },
        {
          "internalType": "uint256",
          "name": "amount",
          "type": "uint256"
        }
      ],
      "name": "approve",
      "outputs": [
        {
          "internalType": "bool",
          "name": "",
          "type": "bool"
        }
      ],
      "stateMutability": "nonpayable",
      "type": "function"
    },
    {
      "inputs": [
        {
          "internalType": "address",
          "name": "account",
          "type": "address"
        }
      ],
      "name": "balanceOf",
      "outputs": [
        {
          "internalType": "uint256",
          "name": "",
          "type": "uint256"
        }
      ],
      "stateMutability": "view",
      "type": "function"
    },
    {
      "inputs": [
        {
          "internalType": "address",
          "name": "_buyer",
          "type": "address"
        }
      ],
      "name": "buy",
      "outputs": [],
      "stateMutability": "payable",
      "type": "function"
    },
    {
      "inputs": [],
      "name": "decimals",
      "outputs": [
        {
          "internalType": "uint8",
          "name": "",
          "type": "uint8"
        }
      ],
      "stateMutability": "view",
      "type": "function"
    },
    {
      "inputs": [
        {
          "internalType": "address",
          "name": "spender",
          "type": "address"
        },
        {
          "internalType": "uint256",
          "name": "subtractedValue",
          "type": "uint256"
        }
      ],
      "name": "decreaseAllowance",
      "outputs": [
        {
          "internalType": "bool",
          "name": "",
          "type": "bool"
        }
      ],
      "stateMutability": "nonpayable",
      "type": "function"
    },
    {
      "inputs": [
        {
          "internalType": "address",
          "name": "spender",
          "type": "address"
        },
        {
          "internalType": "uint256",
          "name": "addedValue",
          "type": "uint256"
        }
      ],
      "name": "increaseAllowance",
      "outputs": [
        {
          "internalType": "bool",
          "name": "",
          "type": "bool"
        }
      ],
      "stateMutability": "nonpayable",
      "type": "function"
    },
    {
      "inputs": [],
      "name": "name",
      "outputs": [
        {
          "internalType": "string",
          "name": "",
          "type": "string"
        }
      ],
      "stateMutability": "view",
      "type": "function"
    },
    {
      "inputs": [],
      "name": "owner",
      "outputs": [
        {
          "internalType": "address",
          "name": "",
          "type": "address"
        }
      ],
      "stateMutability": "view",
      "type": "function"
    },
    {
      "inputs": [],
      "name": "renounceOwnership",
      "outputs": [],
      "stateMutability": "nonpayable",
      "type": "function"
    },
    {
      "inputs": [
        {
          "internalType": "address",
          "name": "_seller",
          "type": "address"
        },
        {
          "internalType": "uint256",
          "name": "_amount",
          "type": "uint256"
        }
      ],
      "name": "sell",
      "outputs": [],
      "stateMutability": "nonpayable",
      "type": "function"
    },
    {
      "inputs": [],
      "name": "symbol",
      "outputs": [
        {
          "internalType": "string",
          "name": "",
          "type": "string"
        }
      ],
      "stateMutability": "view",
      "type": "function"
    },
    {
      "inputs": [],
      "name": "totalSupply",
      "outputs": [
        {
          "internalType": "uint256",
          "name": "",
          "type": "uint256"
        }
      ],
      "stateMutability": "view",
      "type": "function"
    },
    {
      "inputs": [
        {
          "internalType": "address",
          "name": "to",
          "type": "address"
        },
        {
          "internalType": "uint256",
          "name": "amount",
          "type": "uint256"
        }
      ],
      "name": "transfer",
      "outputs": [
        {
          "internalType": "bool",
          "name": "",
          "type": "bool"
        }
      ],
      "stateMutability": "nonpayable",
      "type": "function"
    },
    {
      "inputs": [
        {
          "internalType": "address",
          "name": "from",
          "type": "address"
        },
        {
          "internalType": "address",
          "name": "to",
          "type": "address"
        },
        {
          "internalType": "uint256",
          "name": "amount",
          "type": "uint256"
        }
      ],
      "name": "transferFrom",
      "outputs": [
        {
          "internalType": "bool",
          "name": "",
          "type": "bool"
        }
      ],
      "stateMutability": "nonpayable",
      "type": "function"
    },
    {
      "inputs": [
        {
          "internalType": "address",
          "name": "newOwner",
          "type": "address"
        }
      ],
      "name": "transferOwnership",
      "outputs": [],
      "stateMutability": "nonpayable",
      "type": "function"
    },
    {
      "inputs": [
        {
          "internalType": "address",
          "name": "_seller",
          "type": "address"
        },
        {
          "internalType": "uint256",
          "name": "_amount",
          "type": "uint256"
        }
      ],
      "name": "withdrawEther",
      "outputs": [],
      "stateMutability": "nonpayable",
      "type": "function"
    }
  ],
  "bytecode": "0x60806040523480156200001157600080fd5b506040518060400160405280600b81526020017f462d52414345546f6b656e0000000000000000000000000000000000000000008152506040518060400160405280600381526020017f465254000000000000000000000000000000000000000000000000000000000081525081600390816200008f9190620005be565b508060049081620000a19190620005be565b505050620000c4620000b8620000ff60201b60201c565b6200010760201b60201c565b620186a06006819055506000600654633b9aca00620000e49190620006d4565b9050620000f83082620001cd60201b60201c565b506200080b565b600033905090565b6000600560009054906101000a900473ffffffffffffffffffffffffffffffffffffffff16905081600560006101000a81548173ffffffffffffffffffffffffffffffffffffffff021916908373ffffffffffffffffffffffffffffffffffffffff1602179055508173ffffffffffffffffffffffffffffffffffffffff168173ffffffffffffffffffffffffffffffffffffffff167f8be0079c531659141344cd1fd0a4f28419497f9722a3daafe3b4186f6b6457e060405160405180910390a35050565b600073ffffffffffffffffffffffffffffffffffffffff168273ffffffffffffffffffffffffffffffffffffffff16036200023f576040517f08c379a0000000000000000000000000000000000000000000000000000000008152600401620002369062000780565b60405180910390fd5b62000253600083836200033a60201b60201c565b8060026000828254620002679190620007a2565b92505081905550806000808473ffffffffffffffffffffffffffffffffffffffff1673ffffffffffffffffffffffffffffffffffffffff168152602001908152602001600020600082825401925050819055508173ffffffffffffffffffffffffffffffffffffffff16600073ffffffffffffffffffffffffffffffffffffffff167fddf252ad1be2c89b69c2b068fc378daa952ba7f163c4a11628f55a4df523b3ef836040516200031a9190620007ee565b60405180910390a362000336600083836200033f60201b60201c565b5050565b505050565b505050565b600081519050919050565b7f4e487b7100000000000000000000000000000000000000000000000000000000600052604160045260246000fd5b7f4e487b7100000000000000000000000000000000000000000000000000000000600052602260045260246000fd5b60006002820490506001821680620003c657607f821691505b602082108103620003dc57620003db6200037e565b5b50919050565b60008190508160005260206000209050919050565b60006020601f8301049050919050565b600082821b905092915050565b600060088302620004467fffffffffffffffffffffffffffffffffffffffffffffffffffffffffffffffff8262000407565b62000452868362000407565b95508019841693508086168417925050509392505050565b6000819050919050565b6000819050919050565b60006200049f6200049962000493846200046a565b62000474565b6200046a565b9050919050565b6000819050919050565b620004bb836200047e565b620004d3620004ca82620004a6565b84845462000414565b825550505050565b600090565b620004ea620004db565b620004f7818484620004b0565b505050565b5b818110156200051f5762000513600082620004e0565b600181019050620004fd565b5050565b601f8211156200056e576200053881620003e2565b6200054384620003f7565b8101602085101562000553578190505b6200056b6200056285620003f7565b830182620004fc565b50505b505050565b600082821c905092915050565b6000620005936000198460080262000573565b1980831691505092915050565b6000620005ae838362000580565b9150826002028217905092915050565b620005c98262000344565b67ffffffffffffffff811115620005e557620005e46200034f565b5b620005f18254620003ad565b620005fe82828562000523565b600060209050601f83116001811462000636576000841562000621578287015190505b6200062d8582620005a0565b8655506200069d565b601f1984166200064686620003e2565b60005b82811015620006705784890151825560018201915060208501945060208101905062000649565b868310156200069057848901516200068c601f89168262000580565b8355505b6001600288020188555050505b505050505050565b7f4e487b7100000000000000000000000000000000000000000000000000000000600052601160045260246000fd5b6000620006e1826200046a565b9150620006ee836200046a565b9250828202620006fe816200046a565b91508282048414831517620007185762000717620006a5565b5b5092915050565b600082825260208201905092915050565b7f45524332303a206d696e7420746f20746865207a65726f206164647265737300600082015250565b600062000768601f836200071f565b9150620007758262000730565b602082019050919050565b600060208201905081810360008301526200079b8162000759565b9050919050565b6000620007af826200046a565b9150620007bc836200046a565b9250828201905080821115620007d757620007d6620006a5565b5b92915050565b620007e8816200046a565b82525050565b6000602082019050620008056000830184620007dd565b92915050565b611d71806200081b6000396000f3fe6080604052600436106100fe5760003560e01c806370a0823111610095578063a457c2d711610064578063a457c2d714610337578063a9059cbb14610374578063dd62ed3e146103b1578063f088d547146103ee578063f2fde38b1461040a576100fe565b806370a082311461028d578063715018a6146102ca5780638da5cb5b146102e157806395d89b411461030c576100fe565b8063313ce567116100d1578063313ce567146101d357806339509351146101fe578063522f68151461023b5780636c197ff514610264576100fe565b806306fdde0314610103578063095ea7b31461012e57806318160ddd1461016b57806323b872dd14610196575b600080fd5b34801561010f57600080fd5b50610118610433565b60405161012591906111d6565b60405180910390f35b34801561013a57600080fd5b5061015560048036038101906101509190611291565b6104c5565b60405161016291906112ec565b60405180910390f35b34801561017757600080fd5b506101806104e8565b60405161018d9190611316565b60405180910390f35b3480156101a257600080fd5b506101bd60048036038101906101b89190611331565b6104f2565b6040516101ca91906112ec565b60405180910390f35b3480156101df57600080fd5b506101e8610521565b6040516101f591906113a0565b60405180910390f35b34801561020a57600080fd5b5061022560048036038101906102209190611291565b61052a565b60405161023291906112ec565b60405180910390f35b34801561024757600080fd5b50610262600480360381019061025d9190611291565b610561565b005b34801561027057600080fd5b5061028b60048036038101906102869190611291565b61065d565b005b34801561029957600080fd5b506102b460048036038101906102af91906113bb565b6107ba565b6040516102c19190611316565b60405180910390f35b3480156102d657600080fd5b506102df610802565b005b3480156102ed57600080fd5b506102f6610816565b60405161030391906113f7565b60405180910390f35b34801561031857600080fd5b50610321610840565b60405161032e91906111d6565b60405180910390f35b34801561034357600080fd5b5061035e60048036038101906103599190611291565b6108d2565b60405161036b91906112ec565b60405180910390f35b34801561038057600080fd5b5061039b60048036038101906103969190611291565b610949565b6040516103a891906112ec565b60405180910390f35b3480156103bd57600080fd5b506103d860048036038101906103d39190611412565b61096c565b6040516103e59190611316565b60405180910390f35b610408600480360381019061040391906113bb565b6109f3565b005b34801561041657600080fd5b50610431600480360381019061042c91906113bb565b610aa2565b005b60606003805461044290611481565b80601f016020809104026020016040519081016040528092919081815260200182805461046e90611481565b80156104bb5780601f10610490576101008083540402835291602001916104bb565b820191906000526020600020905b81548152906001019060200180831161049e57829003601f168201915b5050505050905090565b6000806104d0610b25565b90506104dd818585610b2d565b600191505092915050565b6000600254905090565b6000806104fd610b25565b905061050a858285610cf6565b610515858585610d82565b60019150509392505050565b60006012905090565b600080610535610b25565b9050610556818585610547858961096c565b61055191906114e1565b610b2d565b600191505092915050565b610569610ff8565b804710156105ac576040517f08c379a00000000000000000000000000000000000000000000000000000000081526004016105a390611587565b60405180910390fd5b60008273ffffffffffffffffffffffffffffffffffffffff16826040516105d2906115d8565b60006040518083038185875af1925050503d806000811461060f576040519150601f19603f3d011682016040523d82523d6000602084013e610614565b606091505b5050905080610658576040517f08c379a000000000000000000000000000000000000000000000000000000000815260040161064f90611639565b60405180910390fd5b505050565b60006006548261066d9190611688565b905081610679846107ba565b10156106ba576040517f08c379a00000000000000000000000000000000000000000000000000000000081526004016106b190611705565b60405180910390fd5b804710156106fd576040517f08c379a00000000000000000000000000000000000000000000000000000000081526004016106f490611587565b60405180910390fd5b610708833084610d82565b60008373ffffffffffffffffffffffffffffffffffffffff168260405161072e906115d8565b60006040518083038185875af1925050503d806000811461076b576040519150601f19603f3d011682016040523d82523d6000602084013e610770565b606091505b50509050806107b4576040517f08c379a00000000000000000000000000000000000000000000000000000000081526004016107ab90611639565b60405180910390fd5b50505050565b60008060008373ffffffffffffffffffffffffffffffffffffffff1673ffffffffffffffffffffffffffffffffffffffff168152602001908152602001600020549050919050565b61080a610ff8565b6108146000611076565b565b6000600560009054906101000a900473ffffffffffffffffffffffffffffffffffffffff16905090565b60606004805461084f90611481565b80601f016020809104026020016040519081016040528092919081815260200182805461087b90611481565b80156108c85780601f1061089d576101008083540402835291602001916108c8565b820191906000526020600020905b8154815290600101906020018083116108ab57829003601f168201915b5050505050905090565b6000806108dd610b25565b905060006108eb828661096c565b905083811015610930576040517f08c379a000000000000000000000000000000000000000000000000000000000815260040161092790611797565b60405180910390fd5b61093d8286868403610b2d565b60019250505092915050565b600080610954610b25565b9050610961818585610d82565b600191505092915050565b6000600160008473ffffffffffffffffffffffffffffffffffffffff1673ffffffffffffffffffffffffffffffffffffffff16815260200190815260200160002060008373ffffffffffffffffffffffffffffffffffffffff1673ffffffffffffffffffffffffffffffffffffffff16815260200190815260200160002054905092915050565b60003411610a36576040517f08c379a0000000000000000000000000000000000000000000000000000000008152600401610a2d90611803565b60405180910390fd5b600060065434610a469190611823565b905080610a52306107ba565b1015610a93576040517f08c379a0000000000000000000000000000000000000000000000000000000008152600401610a8a906118d7565b60405180910390fd5b610a9e308383610d82565b5050565b610aaa610ff8565b600073ffffffffffffffffffffffffffffffffffffffff168173ffffffffffffffffffffffffffffffffffffffff1603610b19576040517f08c379a0000000000000000000000000000000000000000000000000000000008152600401610b1090611969565b60405180910390fd5b610b2281611076565b50565b600033905090565b600073ffffffffffffffffffffffffffffffffffffffff168373ffffffffffffffffffffffffffffffffffffffff1603610b9c576040517f08c379a0000000000000000000000000000000000000000000000000000000008152600401610b93906119fb565b60405180910390fd5b600073ffffffffffffffffffffffffffffffffffffffff168273ffffffffffffffffffffffffffffffffffffffff1603610c0b576040517f08c379a0000000000000000000000000000000000000000000000000000000008152600401610c0290611a8d565b60405180910390fd5b80600160008573ffffffffffffffffffffffffffffffffffffffff1673ffffffffffffffffffffffffffffffffffffffff16815260200190815260200160002060008473ffffffffffffffffffffffffffffffffffffffff1673ffffffffffffffffffffffffffffffffffffffff168152602001908152602001600020819055508173ffffffffffffffffffffffffffffffffffffffff168373ffffffffffffffffffffffffffffffffffffffff167f8c5be1e5ebec7d5bd14f71427d1e84f3dd0314c0f7b2291e5b200ac8c7c3b92583604051610ce99190611316565b60405180910390a3505050565b6000610d02848461096c565b90507fffffffffffffffffffffffffffffffffffffffffffffffffffffffffffffffff8114610d7c5781811015610d6e576040517f08c379a0000000000000000000000000000000000000000000000000000000008152600401610d6590611af9565b60405180910390fd5b610d7b8484848403610b2d565b5b50505050565b600073ffffffffffffffffffffffffffffffffffffffff168373ffffffffffffffffffffffffffffffffffffffff1603610df1576040517f08c379a0000000000000000000000000000000000000000000000000000000008152600401610de890611b8b565b60405180910390fd5b600073ffffffffffffffffffffffffffffffffffffffff168273ffffffffffffffffffffffffffffffffffffffff1603610e60576040517f08c379a0000000000000000000000000000000000000000000000000000000008152600401610e5790611c1d565b60405180910390fd5b610e6b83838361113c565b60008060008573ffffffffffffffffffffffffffffffffffffffff1673ffffffffffffffffffffffffffffffffffffffff16815260200190815260200160002054905081811015610ef1576040517f08c379a0000000000000000000000000000000000000000000000000000000008152600401610ee890611caf565b60405180910390fd5b8181036000808673ffffffffffffffffffffffffffffffffffffffff1673ffffffffffffffffffffffffffffffffffffffff16815260200190815260200160002081905550816000808573ffffffffffffffffffffffffffffffffffffffff1673ffffffffffffffffffffffffffffffffffffffff168152602001908152602001600020600082825401925050819055508273ffffffffffffffffffffffffffffffffffffffff168473ffffffffffffffffffffffffffffffffffffffff167fddf252ad1be2c89b69c2b068fc378daa952ba7f163c4a11628f55a4df523b3ef84604051610fdf9190611316565b60405180910390a3610ff2848484611141565b50505050565b611000610b25565b73ffffffffffffffffffffffffffffffffffffffff1661101e610816565b73ffffffffffffffffffffffffffffffffffffffff1614611074576040517f08c379a000000000000000000000000000000000000000000000000000000000815260040161106b90611d1b565b60405180910390fd5b565b6000600560009054906101000a900473ffffffffffffffffffffffffffffffffffffffff16905081600560006101000a81548173ffffffffffffffffffffffffffffffffffffffff021916908373ffffffffffffffffffffffffffffffffffffffff1602179055508173ffffffffffffffffffffffffffffffffffffffff168173ffffffffffffffffffffffffffffffffffffffff167f8be0079c531659141344cd1fd0a4f28419497f9722a3daafe3b4186f6b6457e060405160405180910390a35050565b505050565b505050565b600081519050919050565b600082825260208201905092915050565b60005b83811015611180578082015181840152602081019050611165565b60008484015250505050565b6000601f19601f8301169050919050565b60006111a882611146565b6111b28185611151565b93506111c2818560208601611162565b6111cb8161118c565b840191505092915050565b600060208201905081810360008301526111f0818461119d565b905092915050565b600080fd5b600073ffffffffffffffffffffffffffffffffffffffff82169050919050565b6000611228826111fd565b9050919050565b6112388161121d565b811461124357600080fd5b50565b6000813590506112558161122f565b92915050565b6000819050919050565b61126e8161125b565b811461127957600080fd5b50565b60008135905061128b81611265565b92915050565b600080604083850312156112a8576112a76111f8565b5b60006112b685828601611246565b92505060206112c78582860161127c565b9150509250929050565b60008115159050919050565b6112e6816112d1565b82525050565b600060208201905061130160008301846112dd565b92915050565b6113108161125b565b82525050565b600060208201905061132b6000830184611307565b92915050565b60008060006060848603121561134a576113496111f8565b5b600061135886828701611246565b935050602061136986828701611246565b925050604061137a8682870161127c565b9150509250925092565b600060ff82169050919050565b61139a81611384565b82525050565b60006020820190506113b56000830184611391565b92915050565b6000602082840312156113d1576113d06111f8565b5b60006113df84828501611246565b91505092915050565b6113f18161121d565b82525050565b600060208201905061140c60008301846113e8565b92915050565b60008060408385031215611429576114286111f8565b5b600061143785828601611246565b925050602061144885828601611246565b9150509250929050565b7f4e487b7100000000000000000000000000000000000000000000000000000000600052602260045260246000fd5b6000600282049050600182168061149957607f821691505b6020821081036114ac576114ab611452565b5b50919050565b7f4e487b7100000000000000000000000000000000000000000000000000000000600052601160045260246000fd5b60006114ec8261125b565b91506114f78361125b565b925082820190508082111561150f5761150e6114b2565b5b92915050565b7f496e73756666696369656e742065746865722062616c616e636520696e20636f60008201527f6e74726163740000000000000000000000000000000000000000000000000000602082015250565b6000611571602683611151565b915061157c82611515565b604082019050919050565b600060208201905081810360008301526115a081611564565b9050919050565b600081905092915050565b50565b60006115c26000836115a7565b91506115cd826115b2565b600082019050919050565b60006115e3826115b5565b9150819050919050565b7f4661696c656420746f2073656e64206574686572730000000000000000000000600082015250565b6000611623601583611151565b915061162e826115ed565b602082019050919050565b6000602082019050818103600083015261165281611616565b9050919050565b7f4e487b7100000000000000000000000000000000000000000000000000000000600052601260045260246000fd5b60006116938261125b565b915061169e8361125b565b9250826116ae576116ad611659565b5b828204905092915050565b7f496e73756666696369656e7420746f6b656e2062616c616e6365000000000000600082015250565b60006116ef601a83611151565b91506116fa826116b9565b602082019050919050565b6000602082019050818103600083015261171e816116e2565b9050919050565b7f45524332303a2064656372656173656420616c6c6f77616e63652062656c6f7760008201527f207a65726f000000000000000000000000000000000000000000000000000000602082015250565b6000611781602583611151565b915061178c82611725565b604082019050919050565b600060208201905081810360008301526117b081611774565b9050919050565b7f416d6f756e74206d7573742062652067726561746572207468616e207a65726f600082015250565b60006117ed602083611151565b91506117f8826117b7565b602082019050919050565b6000602082019050818103600083015261181c816117e0565b9050919050565b600061182e8261125b565b91506118398361125b565b92508282026118478161125b565b9150828204841483151761185e5761185d6114b2565b5b5092915050565b7f496e73756666696369656e7420746f6b656e2062616c616e636520696e20636f60008201527f6e74726163740000000000000000000000000000000000000000000000000000602082015250565b60006118c1602683611151565b91506118cc82611865565b604082019050919050565b600060208201905081810360008301526118f0816118b4565b9050919050565b7f4f776e61626c653a206e6577206f776e657220697320746865207a65726f206160008201527f6464726573730000000000000000000000000000000000000000000000000000602082015250565b6000611953602683611151565b915061195e826118f7565b604082019050919050565b6000602082019050818103600083015261198281611946565b9050919050565b7f45524332303a20617070726f76652066726f6d20746865207a65726f2061646460008201527f7265737300000000000000000000000000000000000000000000000000000000602082015250565b60006119e5602483611151565b91506119f082611989565b604082019050919050565b60006020820190508181036000830152611a14816119d8565b9050919050565b7f45524332303a20617070726f766520746f20746865207a65726f20616464726560008201527f7373000000000000000000000000000000000000000000000000000000000000602082015250565b6000611a77602283611151565b9150611a8282611a1b565b604082019050919050565b60006020820190508181036000830152611aa681611a6a565b9050919050565b7f45524332303a20696e73756666696369656e7420616c6c6f77616e6365000000600082015250565b6000611ae3601d83611151565b9150611aee82611aad565b602082019050919050565b60006020820190508181036000830152611b1281611ad6565b9050919050565b7f45524332303a207472616e736665722066726f6d20746865207a65726f20616460008201527f6472657373000000000000000000000000000000000000000000000000000000602082015250565b6000611b75602583611151565b9150611b8082611b19565b604082019050919050565b60006020820190508181036000830152611ba481611b68565b9050919050565b7f45524332303a207472616e7366657220746f20746865207a65726f206164647260008201527f6573730000000000000000000000000000000000000000000000000000000000602082015250565b6000611c07602383611151565b9150611c1282611bab565b604082019050919050565b60006020820190508181036000830152611c3681611bfa565b9050919050565b7f45524332303a207472616e7366657220616d6f756e742065786365656473206260008201527f616c616e63650000000000000000000000000000000000000000000000000000602082015250565b6000611c99602683611151565b9150611ca482611c3d565b604082019050919050565b60006020820190508181036000830152611cc881611c8c565b9050919050565b7f4f776e61626c653a2063616c6c6572206973206e6f7420746865206f776e6572600082015250565b6000611d05602083611151565b9150611d1082611ccf565b602082019050919050565b60006020820190508181036000830152611d3481611cf8565b905091905056fea2646970667358221220248f2dc99de8580e8de151c17e555be2ed96117564e6f0bc0f0229c57275662b64736f6c63430008120033",
  "linkReferences": {},
  "deployedLinkReferences": {}
}