{
  "_format": "hh-sol-artifact-1",
  "contractName": "NFTCar",
  "sourceName": "contracts/NFTCar.sol",
  "abi": [
    {
      "inputs": [
        {
          "internalType": "address",
          "name": "_fcarToken",
          "type": "address"
        }
      ],
      "stateMutability": "nonpayable",
      "type": "constructor"
    },
    {
      "anonymous": false,
      "inputs": [
        {
          "indexed": true,
          "internalType": "address",
          "name": "owner",
          "type": "address"
        },
        {
          "indexed": true,
          "internalType": "address",
          "name": "approved",
          "type": "address"
        },
        {
          "indexed": true,
          "internalType": "uint256",
          "name": "tokenId",
          "type": "uint256"
        }
      ],
      "name": "Approval",
      "type": "event"
    },
    {
      "anonymous": false,
      "inputs": [
        {
          "indexed": true,
          "internalType": "address",
          "name": "owner",
          "type": "address"
        },
        {
          "indexed": true,
          "internalType": "address",
          "name": "operator",
          "type": "address"
        },
        {
          "indexed": false,
          "internalType": "bool",
          "name": "approved",
          "type": "bool"
        }
      ],
      "name": "ApprovalForAll",
      "type": "event"
    },
    {
      "anonymous": false,
      "inputs": [
        {
          "indexed": false,
          "internalType": "uint256",
          "name": "_fromTokenId",
          "type": "uint256"
        },
        {
          "indexed": false,
          "internalType": "uint256",
          "name": "_toTokenId",
          "type": "uint256"
        }
      ],
      "name": "BatchMetadataUpdate",
      "type": "event"
    },
    {
      "anonymous": false,
      "inputs": [
        {
          "indexed": false,
          "internalType": "string",
          "name": "uri",
          "type": "string"
        }
      ],
      "name": "CollectionAdded",
      "type": "event"
    },
    {
      "anonymous": false,
      "inputs": [
        {
          "indexed": false,
          "internalType": "uint256",
          "name": "_tokenId",
          "type": "uint256"
        }
      ],
      "name": "MetadataUpdate",
      "type": "event"
    },
    {
      "anonymous": false,
      "inputs": [
        {
          "indexed": true,
          "internalType": "address",
          "name": "previousOwner",
          "type": "address"
        },
        {
          "indexed": true,
          "internalType": "address",
          "name": "newOwner",
          "type": "address"
        }
      ],
      "name": "OwnershipTransferred",
      "type": "event"
    },
    {
      "anonymous": false,
      "inputs": [
        {
          "indexed": true,
          "internalType": "address",
          "name": "from",
          "type": "address"
        },
        {
          "indexed": true,
          "internalType": "address",
          "name": "to",
          "type": "address"
        },
        {
          "indexed": true,
          "internalType": "uint256",
          "name": "tokenId",
          "type": "uint256"
        }
      ],
      "name": "Transfer",
      "type": "event"
    },
    {
      "inputs": [
        {
          "internalType": "string",
          "name": "_uri",
          "type": "string"
        },
        {
          "internalType": "string",
          "name": "_rarities",
          "type": "string"
        }
      ],
      "name": "addCollection",
      "outputs": [],
      "stateMutability": "nonpayable",
      "type": "function"
    },
    {
      "inputs": [
        {
          "internalType": "address",
          "name": "to",
          "type": "address"
        },
        {
          "internalType": "uint256",
          "name": "tokenId",
          "type": "uint256"
        }
      ],
      "name": "approve",
      "outputs": [],
      "stateMutability": "nonpayable",
      "type": "function"
    },
    {
      "inputs": [
        {
          "internalType": "address",
          "name": "owner",
          "type": "address"
        }
      ],
      "name": "balanceOf",
      "outputs": [
        {
          "internalType": "uint256",
          "name": "",
          "type": "uint256"
        }
      ],
      "stateMutability": "view",
      "type": "function"
    },
    {
      "inputs": [
        {
          "internalType": "uint256",
          "name": "idVoiture",
          "type": "uint256"
        },
        {
          "internalType": "uint256",
          "name": "prix",
          "type": "uint256"
        },
        {
          "internalType": "address",
          "name": "seller",
          "type": "address"
        }
      ],
      "name": "commencerEnchere",
      "outputs": [],
      "stateMutability": "nonpayable",
      "type": "function"
    },
    {
      "inputs": [],
      "name": "endAuctions",
      "outputs": [],
      "stateMutability": "nonpayable",
      "type": "function"
    },
    {
      "inputs": [
        {
          "internalType": "uint256",
          "name": "idNFT",
          "type": "uint256"
        },
        {
          "internalType": "uint256",
          "name": "montant",
          "type": "uint256"
        }
      ],
      "name": "faireOffre",
      "outputs": [],
      "stateMutability": "nonpayable",
      "type": "function"
    },
    {
      "inputs": [],
      "name": "getActiveAuctions",
      "outputs": [
        {
          "components": [
            {
              "internalType": "uint256",
              "name": "carId",
              "type": "uint256"
            },
            {
              "internalType": "bool",
              "name": "termine",
              "type": "bool"
            },
            {
              "internalType": "address",
              "name": "meilleurAcheteur",
              "type": "address"
            },
            {
              "internalType": "uint256",
              "name": "meilleureOffre",
              "type": "uint256"
            },
            {
              "internalType": "uint256",
              "name": "finEnchere",
              "type": "uint256"
            },
            {
              "internalType": "address[]",
              "name": "beter",
              "type": "address[]"
            },
            {
              "internalType": "uint256[]",
              "name": "amount",
              "type": "uint256[]"
            }
          ],
          "internalType": "struct NFTCar.Enchere[]",
          "name": "",
          "type": "tuple[]"
        }
      ],
      "stateMutability": "view",
      "type": "function"
    },
    {
      "inputs": [
        {
          "internalType": "uint256",
          "name": "tokenId",
          "type": "uint256"
        }
      ],
      "name": "getApproved",
      "outputs": [
        {
          "internalType": "address",
          "name": "",
          "type": "address"
        }
      ],
      "stateMutability": "view",
      "type": "function"
    },
    {
      "inputs": [],
      "name": "getUserNFTs",
      "outputs": [
        {
          "internalType": "uint256[]",
          "name": "",
          "type": "uint256[]"
        }
      ],
      "stateMutability": "view",
      "type": "function"
    },
    {
      "inputs": [
        {
          "internalType": "address",
          "name": "owner",
          "type": "address"
        },
        {
          "internalType": "address",
          "name": "operator",
          "type": "address"
        }
      ],
      "name": "isApprovedForAll",
      "outputs": [
        {
          "internalType": "bool",
          "name": "",
          "type": "bool"
        }
      ],
      "stateMutability": "view",
      "type": "function"
    },
    {
      "inputs": [
        {
          "internalType": "uint8",
          "name": "_forcedRarity",
          "type": "uint8"
        }
      ],
      "name": "mint",
      "outputs": [],
      "stateMutability": "nonpayable",
      "type": "function"
    },
    {
      "inputs": [],
      "name": "name",
      "outputs": [
        {
          "internalType": "string",
          "name": "",
          "type": "string"
        }
      ],
      "stateMutability": "view",
      "type": "function"
    },
    {
      "inputs": [],
      "name": "owner",
      "outputs": [
        {
          "internalType": "address",
          "name": "",
          "type": "address"
        }
      ],
      "stateMutability": "view",
      "type": "function"
    },
    {
      "inputs": [
        {
          "internalType": "uint256",
          "name": "tokenId",
          "type": "uint256"
        }
      ],
      "name": "ownerOf",
      "outputs": [
        {
          "internalType": "address",
          "name": "",
          "type": "address"
        }
      ],
      "stateMutability": "view",
      "type": "function"
    },
    {
      "inputs": [],
      "name": "renounceOwnership",
      "outputs": [],
      "stateMutability": "nonpayable",
      "type": "function"
    },
    {
      "inputs": [
        {
          "internalType": "address",
          "name": "from",
          "type": "address"
        },
        {
          "internalType": "address",
          "name": "to",
          "type": "address"
        },
        {
          "internalType": "uint256",
          "name": "tokenId",
          "type": "uint256"
        }
      ],
      "name": "safeTransferFrom",
      "outputs": [],
      "stateMutability": "nonpayable",
      "type": "function"
    },
    {
      "inputs": [
        {
          "internalType": "address",
          "name": "from",
          "type": "address"
        },
        {
          "internalType": "address",
          "name": "to",
          "type": "address"
        },
        {
          "internalType": "uint256",
          "name": "tokenId",
          "type": "uint256"
        },
        {
          "internalType": "bytes",
          "name": "data",
          "type": "bytes"
        }
      ],
      "name": "safeTransferFrom",
      "outputs": [],
      "stateMutability": "nonpayable",
      "type": "function"
    },
    {
      "inputs": [
        {
          "internalType": "address",
          "name": "operator",
          "type": "address"
        },
        {
          "internalType": "bool",
          "name": "approved",
          "type": "bool"
        }
      ],
      "name": "setApprovalForAll",
      "outputs": [],
      "stateMutability": "nonpayable",
      "type": "function"
    },
    {
      "inputs": [
        {
          "internalType": "bytes4",
          "name": "interfaceId",
          "type": "bytes4"
        }
      ],
      "name": "supportsInterface",
      "outputs": [
        {
          "internalType": "bool",
          "name": "",
          "type": "bool"
        }
      ],
      "stateMutability": "view",
      "type": "function"
    },
    {
      "inputs": [],
      "name": "symbol",
      "outputs": [
        {
          "internalType": "string",
          "name": "",
          "type": "string"
        }
      ],
      "stateMutability": "view",
      "type": "function"
    },
    {
      "inputs": [
        {
          "internalType": "uint256",
          "name": "tokenId",
          "type": "uint256"
        }
      ],
      "name": "tokenURI",
      "outputs": [
        {
          "internalType": "string",
          "name": "",
          "type": "string"
        }
      ],
      "stateMutability": "view",
      "type": "function"
    },
    {
      "inputs": [
        {
          "internalType": "address",
          "name": "from",
          "type": "address"
        },
        {
          "internalType": "address",
          "name": "to",
          "type": "address"
        },
        {
          "internalType": "uint256",
          "name": "tokenId",
          "type": "uint256"
        }
      ],
      "name": "transferFrom",
      "outputs": [],
      "stateMutability": "nonpayable",
      "type": "function"
    },
    {
      "inputs": [
        {
          "internalType": "address",
          "name": "newOwner",
          "type": "address"
        }
      ],
      "name": "transferOwnership",
      "outputs": [],
      "stateMutability": "nonpayable",
      "type": "function"
    }
  ],
  "bytecode": "0x60806040523480156200001157600080fd5b506040516200623138038062006231833981810160405281019062000037919062000337565b6040518060400160405280600681526020017f4e465443617200000000000000000000000000000000000000000000000000008152506040518060400160405280600681526020017f4e465443415200000000000000000000000000000000000000000000000000008152508160009080519060200190620000bb9291906200021d565b508060019080519060200190620000d49291906200021d565b505050620000f7620000eb6200014f60201b60201c565b6200015760201b60201c565b80600e60006101000a81548173ffffffffffffffffffffffffffffffffffffffff021916908373ffffffffffffffffffffffffffffffffffffffff1602179055506000600d819055506000600c8190555050620003ce565b600033905090565b6000600760009054906101000a900473ffffffffffffffffffffffffffffffffffffffff16905081600760006101000a81548173ffffffffffffffffffffffffffffffffffffffff021916908373ffffffffffffffffffffffffffffffffffffffff1602179055508173ffffffffffffffffffffffffffffffffffffffff168173ffffffffffffffffffffffffffffffffffffffff167f8be0079c531659141344cd1fd0a4f28419497f9722a3daafe3b4186f6b6457e060405160405180910390a35050565b8280546200022b9062000398565b90600052602060002090601f0160209004810192826200024f57600085556200029b565b82601f106200026a57805160ff19168380011785556200029b565b828001600101855582156200029b579182015b828111156200029a5782518255916020019190600101906200027d565b5b509050620002aa9190620002ae565b5090565b5b80821115620002c9576000816000905550600101620002af565b5090565b600080fd5b600073ffffffffffffffffffffffffffffffffffffffff82169050919050565b6000620002ff82620002d2565b9050919050565b6200031181620002f2565b81146200031d57600080fd5b50565b600081519050620003318162000306565b92915050565b60006020828403121562000350576200034f620002cd565b5b6000620003608482850162000320565b91505092915050565b7f4e487b7100000000000000000000000000000000000000000000000000000000600052602260045260246000fd5b60006002820490506001821680620003b157607f821691505b60208210811415620003c857620003c762000369565b5b50919050565b615e5380620003de6000396000f3fe608060405234801561001057600080fd5b506004361061014d5760003560e01c8063715018a6116100c3578063c87b56dd1161007c578063c87b56dd14610372578063c8f9a0ce146103a2578063cf44b5d5146103ac578063e985e9c5146103ca578063f2fde38b146103fa578063fdc5ab8e146104165761014d565b8063715018a6146102d857806387d6488a146102e25780638da5cb5b146102fe57806395d89b411461031c578063a22cb4651461033a578063b88d4fde146103565761014d565b806323b872dd1161011557806323b872dd14610208578063407917eb1461022457806342842e0e146102405780636352211e1461025c5780636ecd23061461028c57806370a08231146102a85761014d565b806301ffc9a71461015257806306fdde0314610182578063081812fc146101a0578063095ea7b3146101d057806313a29204146101ec575b600080fd5b61016c600480360381019061016791906140fc565b610434565b6040516101799190614144565b60405180910390f35b61018a610495565b60405161019791906141f8565b60405180910390f35b6101ba60048036038101906101b59190614250565b610527565b6040516101c791906142be565b60405180910390f35b6101ea60048036038101906101e59190614305565b61056d565b005b61020660048036038101906102019190614345565b610685565b005b610222600480360381019061021d9190614385565b610bcd565b005b61023e6004803603810190610239919061443d565b610c2d565b005b61025a60048036038101906102559190614385565b610d3d565b005b61027660048036038101906102719190614250565b610d5d565b60405161028391906142be565b60405180910390f35b6102a660048036038101906102a191906144f7565b610de4565b005b6102c260048036038101906102bd9190614524565b61156a565b6040516102cf9190614560565b60405180910390f35b6102e0611622565b005b6102fc60048036038101906102f7919061457b565b611636565b005b6103066119de565b60405161031391906142be565b60405180910390f35b610324611a08565b60405161033191906141f8565b60405180910390f35b610354600480360381019061034f91906145fa565b611a9a565b005b610370600480360381019061036b919061476a565b611ab0565b005b61038c60048036038101906103879190614250565b611b12565b60405161039991906141f8565b60405180910390f35b6103aa611c25565b005b6103b4611cb7565b6040516103c19190614add565b60405180910390f35b6103e460048036038101906103df9190614aff565b611f10565b6040516103f19190614144565b60405180910390f35b610414600480360381019061040f9190614524565b611fa4565b005b61041e612028565b60405161042b9190614bae565b60405180910390f35b6000634906490660e01b7bffffffffffffffffffffffffffffffffffffffffffffffffffffffff1916827bffffffffffffffffffffffffffffffffffffffffffffffffffffffff1916148061048e575061048d826120bd565b5b9050919050565b6060600080546104a490614bff565b80601f01602080910402602001604051908101604052809291908181526020018280546104d090614bff565b801561051d5780601f106104f25761010080835404028352916020019161051d565b820191906000526020600020905b81548152906001019060200180831161050057829003601f168201915b5050505050905090565b60006105328261219f565b6004600083815260200190815260200160002060009054906101000a900473ffffffffffffffffffffffffffffffffffffffff169050919050565b600061057882610d5d565b90508073ffffffffffffffffffffffffffffffffffffffff168373ffffffffffffffffffffffffffffffffffffffff1614156105e9576040517f08c379a00000000000000000000000000000000000000000000000000000000081526004016105e090614ca3565b60405180910390fd5b8073ffffffffffffffffffffffffffffffffffffffff166106086121ea565b73ffffffffffffffffffffffffffffffffffffffff1614806106375750610636816106316121ea565b611f10565b5b610676576040517f08c379a000000000000000000000000000000000000000000000000000000000815260040161066d90614d35565b60405180910390fd5b61068083836121f2565b505050565b6000600f60008481526020019081526020016000209050600080610829836040518060e0016040529081600082015481526020016001820160009054906101000a900460ff161515151581526020016001820160019054906101000a900473ffffffffffffffffffffffffffffffffffffffff1673ffffffffffffffffffffffffffffffffffffffff1673ffffffffffffffffffffffffffffffffffffffff1681526020016002820154815260200160038201548152602001600482018054806020026020016040519081016040528092919081815260200182805480156107c257602002820191906000526020600020905b8160009054906101000a900473ffffffffffffffffffffffffffffffffffffffff1673ffffffffffffffffffffffffffffffffffffffff1681526020019060010190808311610778575b505050505081526020016005820180548060200260200160405190810160405280929190818152602001828054801561081a57602002820191906000526020600020905b815481526020019060010190808311610806575b505050505081525050336122ab565b90508260040180549050811461085d5782600501818154811061084f5761084e614d55565b5b906000526020600020015491505b82600301544211156108a4576040517f08c379a000000000000000000000000000000000000000000000000000000000815260040161089b90614dd0565b60405180910390fd5b826002015482856108b59190614e1f565b116108f5576040517f08c379a00000000000000000000000000000000000000000000000000000000081526004016108ec90614ec1565b60405180910390fd5b83600e60009054906101000a900473ffffffffffffffffffffffffffffffffffffffff1673ffffffffffffffffffffffffffffffffffffffff166370a08231336040518263ffffffff1660e01b815260040161095191906142be565b60206040518083038186803b15801561096957600080fd5b505afa15801561097d573d6000803e3d6000fd5b505050506040513d601f19601f820116820180604052508101906109a19190614ef6565b10156109e2576040517f08c379a00000000000000000000000000000000000000000000000000000000081526004016109d990614f6f565b60405180910390fd5b600e60009054906101000a900473ffffffffffffffffffffffffffffffffffffffff1673ffffffffffffffffffffffffffffffffffffffff166323b872dd3330876040518463ffffffff1660e01b8152600401610a4193929190614f8f565b602060405180830381600087803b158015610a5b57600080fd5b505af1158015610a6f573d6000803e3d6000fd5b505050506040513d601f19601f82011682018060405250810190610a939190614fdb565b5082600401805490508114610ade5783836005018281548110610ab957610ab8614d55565b5b906000526020600020016000828254610ad29190614e1f565b92505081905550610b6f565b82600401339080600181540180825580915050600190039060005260206000200160009091909190916101000a81548173ffffffffffffffffffffffffffffffffffffffff021916908373ffffffffffffffffffffffffffffffffffffffff160217905550826005018490806001815401808255809150506001900390600052602060002001600090919091909150555b338360010160016101000a81548173ffffffffffffffffffffffffffffffffffffffff021916908373ffffffffffffffffffffffffffffffffffffffff1602179055508184610bbe9190614e1f565b83600201819055505050505050565b610bde610bd86121ea565b8261233e565b610c1d576040517f08c379a0000000000000000000000000000000000000000000000000000000008152600401610c149061507a565b60405180910390fd5b610c288383836123d3565b505050565b610c356126cd565b6008604051806040016040528086868080601f016020809104026020016040519081016040528093929190818152602001838380828437600081840152601f19601f820116905080830192505050505050508152602001610c96858561274b565b81525090806001815401808255809150506001900390600052602060002090600202016000909190919091506000820151816000019080519060200190610cde929190613d76565b506020820151816001019080519060200190610cfb929190613dfc565b5050507f3a6eabc1ea35f41cd485e412aa9d92cec3c646bb471dac85cb42d75b3ca461ac8484604051610d2f9291906150c7565b60405180910390a150505050565b610d5883838360405180602001604052806000815250611ab0565b505050565b600080610d6983612863565b9050600073ffffffffffffffffffffffffffffffffffffffff168173ffffffffffffffffffffffffffffffffffffffff161415610ddb576040517f08c379a0000000000000000000000000000000000000000000000000000000008152600401610dd290615137565b60405180910390fd5b80915050919050565b6000600a905080600e60009054906101000a900473ffffffffffffffffffffffffffffffffffffffff1673ffffffffffffffffffffffffffffffffffffffff166370a08231336040518263ffffffff1660e01b8152600401610e4691906142be565b60206040518083038186803b158015610e5e57600080fd5b505afa158015610e72573d6000803e3d6000fd5b505050506040513d601f19601f82011682018060405250810190610e969190614ef6565b1015610ed7576040517f08c379a0000000000000000000000000000000000000000000000000000000008152600401610ece90614f6f565b60405180910390fd5b600e60009054906101000a900473ffffffffffffffffffffffffffffffffffffffff1673ffffffffffffffffffffffffffffffffffffffff166323b872dd3330846040518463ffffffff1660e01b8152600401610f3693929190614f8f565b602060405180830381600087803b158015610f5057600080fd5b505af1158015610f64573d6000803e3d6000fd5b505050506040513d601f19601f82011682018060405250810190610f889190614fdb565b50600060088054905011610fd1576040517f08c379a0000000000000000000000000000000000000000000000000000000008152600401610fc8906151a3565b60405180910390fd5b60006008610fe36008805490506128a0565b81548110610ff457610ff3614d55565b5b906000526020600020906002020160405180604001604052908160008201805461101d90614bff565b80601f016020809104026020016040519081016040528092919081815260200182805461104990614bff565b80156110965780601f1061106b57610100808354040283529160200191611096565b820191906000526020600020905b81548152906001019060200180831161107957829003601f168201915b505050505081526020016001820180548060200260200160405190810160405280929190818152602001828054801561111457602002820191906000526020600020906000905b82829054906101000a900460ff1660ff16815260200190600101906020826000010492830192600103820291508084116110dd5790505b5050505050815250509050600081602001515111611167576040517f08c379a000000000000000000000000000000000000000000000000000000000815260040161115e9061520f565b60405180910390fd5b60008060008560ff1611156112135760058560ff1611156111bd576040517f08c379a00000000000000000000000000000000000000000000000000000000081526004016111b49061527b565b60405180910390fd5b6111cb8360200151516128a0565b90505b8460ff16836020015182815181106111e9576111e8614d55565b5b602002602001015160ff161461120e576112078360200151516128a0565b90506111ce565b6113f3565b60016112206127106128a0565b61122a9190614e1f565b915060328211611288576112428360200151516128a0565b90505b60018360200151828151811061125e5761125d614d55565b5b602002602001015160ff16146112835761127c8360200151516128a0565b9050611245565b6113f2565b61022682116112e55761129f8360200151516128a0565b90505b6002836020015182815181106112bb576112ba614d55565b5b602002602001015160ff16146112e0576112d98360200151516128a0565b90506112a2565b6113f1565b6109f68211611342576112fc8360200151516128a0565b90505b60038360200151828151811061131857611317614d55565b5b602002602001015160ff161461133d576113368360200151516128a0565b90506112ff565b6113f0565b6115ae821161139f576113598360200151516128a0565b90505b60048360200151828151811061137557611374614d55565b5b602002602001015160ff161461139a576113938360200151516128a0565b905061135c565b6113ef565b6113ad8360200151516128a0565b90505b6005836020015182815181106113c9576113c8614d55565b5b602002602001015160ff16146113ee576113e78360200151516128a0565b90506113b0565b5b5b5b5b5b600061140a6001836114059190614e1f565b6128fc565b905060008460000151905061142133600d546129d4565b611436600d546114318385612bf2565b612c1e565b3360096000600d54815260200190815260200160002060006101000a81548173ffffffffffffffffffffffffffffffffffffffff021916908373ffffffffffffffffffffffffffffffffffffffff160217905550600a60003373ffffffffffffffffffffffffffffffffffffffff1673ffffffffffffffffffffffffffffffffffffffff16815260200190815260200160002060008154809291906114da9061529b565b9190505550600b60003373ffffffffffffffffffffffffffffffffffffffff1673ffffffffffffffffffffffffffffffffffffffff168152602001908152602001600020600d5490806001815401808255809150506001900390600052602060002001600090919091909150556001600d600082825461155a9190614e1f565b9250508190555050505050505050565b60008073ffffffffffffffffffffffffffffffffffffffff168273ffffffffffffffffffffffffffffffffffffffff1614156115db576040517f08c379a00000000000000000000000000000000000000000000000000000000081526004016115d290615356565b60405180910390fd5b600360008373ffffffffffffffffffffffffffffffffffffffff1673ffffffffffffffffffffffffffffffffffffffff168152602001908152602001600020549050919050565b61162a6126cd565b6116346000612cc9565b565b8073ffffffffffffffffffffffffffffffffffffffff166009600085815260200190815260200160002060009054906101000a900473ffffffffffffffffffffffffffffffffffffffff1673ffffffffffffffffffffffffffffffffffffffff16146116d7576040517f08c379a00000000000000000000000000000000000000000000000000000000081526004016116ce906153e8565b60405180910390fd5b6010805490506116e684612d8f565b14611726576040517f08c379a000000000000000000000000000000000000000000000000000000000815260040161171d90615454565b60405180910390fd5b6040518060e001604052808481526020016000151581526020018273ffffffffffffffffffffffffffffffffffffffff16815260200183815260200162015180426117719190614e1f565b8152602001600067ffffffffffffffff8111156117915761179061463f565b5b6040519080825280602002602001820160405280156117bf5781602001602082028036833780820191505090505b508152602001600067ffffffffffffffff8111156117e0576117df61463f565b5b60405190808252806020026020018201604052801561180e5781602001602082028036833780820191505090505b50815250600f60008581526020019081526020016000206000820151816000015560208201518160010160006101000a81548160ff02191690831515021790555060408201518160010160016101000a81548173ffffffffffffffffffffffffffffffffffffffff021916908373ffffffffffffffffffffffffffffffffffffffff160217905550606082015181600201556080820151816003015560a08201518160040190805190602001906118c6929190613ea3565b5060c08201518160050190805190602001906118e3929190613f2d565b509050506010839080600181540180825580915050600190039060005260206000200160009091909190915055600061191c8483612df5565b90506000600b60008473ffffffffffffffffffffffffffffffffffffffff1673ffffffffffffffffffffffffffffffffffffffff168152602001908152602001600020905080600182805490506119739190615474565b8154811061198457611983614d55565b5b90600052602060002001548183815481106119a2576119a1614d55565b5b9060005260206000200181905550808054806119c1576119c06154a8565b5b600190038181906000526020600020016000905590555050505050565b6000600760009054906101000a900473ffffffffffffffffffffffffffffffffffffffff16905090565b606060018054611a1790614bff565b80601f0160208091040260200160405190810160405280929190818152602001828054611a4390614bff565b8015611a905780601f10611a6557610100808354040283529160200191611a90565b820191906000526020600020905b815481529060010190602001808311611a7357829003601f168201915b5050505050905090565b611aac611aa56121ea565b8383612f13565b5050565b611ac1611abb6121ea565b8361233e565b611b00576040517f08c379a0000000000000000000000000000000000000000000000000000000008152600401611af79061507a565b60405180910390fd5b611b0c84848484613080565b50505050565b6060611b1d8261219f565b6000600660008481526020019081526020016000208054611b3d90614bff565b80601f0160208091040260200160405190810160405280929190818152602001828054611b6990614bff565b8015611bb65780601f10611b8b57610100808354040283529160200191611bb6565b820191906000526020600020905b815481529060010190602001808311611b9957829003601f168201915b505050505090506000611bc76130dc565b9050600081511415611bdd578192505050611c20565b600082511115611c12578082604051602001611bfa929190615513565b60405160208183030381529060405292505050611c20565b611c1b846130f3565b925050505b919050565b600080600090505b601080549050811015611cb357600f600060108381548110611c5257611c51614d55565b5b90600052602060002001548152602001908152602001600020915042826003015411611ca057611c9f60108281548110611c8f57611c8e614d55565b5b906000526020600020015461315b565b5b8080611cab9061529b565b915050611c2d565b5050565b6060600060108054905067ffffffffffffffff811115611cda57611cd961463f565b5b604051908082528060200260200182016040528015611d1357816020015b611d00613f7a565b815260200190600190039081611cf85790505b50905060005b601080549050811015611f0857600f600060108381548110611d3e57611d3d614d55565b5b906000526020600020015481526020019081526020016000206040518060e0016040529081600082015481526020016001820160009054906101000a900460ff161515151581526020016001820160019054906101000a900473ffffffffffffffffffffffffffffffffffffffff1673ffffffffffffffffffffffffffffffffffffffff1673ffffffffffffffffffffffffffffffffffffffff168152602001600282015481526020016003820154815260200160048201805480602002602001604051908101604052809291908181526020018280548015611e7657602002820191906000526020600020905b8160009054906101000a900473ffffffffffffffffffffffffffffffffffffffff1673ffffffffffffffffffffffffffffffffffffffff1681526020019060010190808311611e2c575b5050505050815260200160058201805480602002602001604051908101604052809291908181526020018280548015611ece57602002820191906000526020600020905b815481526020019060010190808311611eba575b505050505081525050828281518110611eea57611ee9614d55565b5b60200260200101819052508080611f009061529b565b915050611d19565b508091505090565b6000600560008473ffffffffffffffffffffffffffffffffffffffff1673ffffffffffffffffffffffffffffffffffffffff16815260200190815260200160002060008373ffffffffffffffffffffffffffffffffffffffff1673ffffffffffffffffffffffffffffffffffffffff16815260200190815260200160002060009054906101000a900460ff16905092915050565b611fac6126cd565b600073ffffffffffffffffffffffffffffffffffffffff168173ffffffffffffffffffffffffffffffffffffffff16141561201c576040517f08c379a0000000000000000000000000000000000000000000000000000000008152600401612013906155a9565b60405180910390fd5b61202581612cc9565b50565b6060600b60003373ffffffffffffffffffffffffffffffffffffffff1673ffffffffffffffffffffffffffffffffffffffff1681526020019081526020016000208054806020026020016040519081016040528092919081815260200182805480156120b357602002820191906000526020600020905b81548152602001906001019080831161209f575b5050505050905090565b60007f80ac58cd000000000000000000000000000000000000000000000000000000007bffffffffffffffffffffffffffffffffffffffffffffffffffffffff1916827bffffffffffffffffffffffffffffffffffffffffffffffffffffffff1916148061218857507f5b5e139f000000000000000000000000000000000000000000000000000000007bffffffffffffffffffffffffffffffffffffffffffffffffffffffff1916827bffffffffffffffffffffffffffffffffffffffffffffffffffffffff1916145b806121985750612197826139b2565b5b9050919050565b6121a881613a1c565b6121e7576040517f08c379a00000000000000000000000000000000000000000000000000000000081526004016121de90615137565b60405180910390fd5b50565b600033905090565b816004600083815260200190815260200160002060006101000a81548173ffffffffffffffffffffffffffffffffffffffff021916908373ffffffffffffffffffffffffffffffffffffffff160217905550808273ffffffffffffffffffffffffffffffffffffffff1661226583610d5d565b73ffffffffffffffffffffffffffffffffffffffff167f8c5be1e5ebec7d5bd14f71427d1e84f3dd0314c0f7b2291e5b200ac8c7c3b92560405160405180910390a45050565b600080600090505b8360a001515181101561232e578360a0015181815181106122d7576122d6614d55565b5b602002602001015173ffffffffffffffffffffffffffffffffffffffff168373ffffffffffffffffffffffffffffffffffffffff16141561231b5780915050612338565b80806123269061529b565b9150506122b3565b508260a001515190505b92915050565b60008061234a83610d5d565b90508073ffffffffffffffffffffffffffffffffffffffff168473ffffffffffffffffffffffffffffffffffffffff16148061238c575061238b8185611f10565b5b806123ca57508373ffffffffffffffffffffffffffffffffffffffff166123b284610527565b73ffffffffffffffffffffffffffffffffffffffff16145b91505092915050565b8273ffffffffffffffffffffffffffffffffffffffff166123f382610d5d565b73ffffffffffffffffffffffffffffffffffffffff1614612449576040517f08c379a00000000000000000000000000000000000000000000000000000000081526004016124409061563b565b60405180910390fd5b600073ffffffffffffffffffffffffffffffffffffffff168273ffffffffffffffffffffffffffffffffffffffff1614156124b9576040517f08c379a00000000000000000000000000000000000000000000000000000000081526004016124b0906156cd565b60405180910390fd5b6124c68383836001613a5d565b8273ffffffffffffffffffffffffffffffffffffffff166124e682610d5d565b73ffffffffffffffffffffffffffffffffffffffff161461253c576040517f08c379a00000000000000000000000000000000000000000000000000000000081526004016125339061563b565b60405180910390fd5b6004600082815260200190815260200160002060006101000a81549073ffffffffffffffffffffffffffffffffffffffff02191690556001600360008573ffffffffffffffffffffffffffffffffffffffff1673ffffffffffffffffffffffffffffffffffffffff168152602001908152602001600020600082825403925050819055506001600360008473ffffffffffffffffffffffffffffffffffffffff1673ffffffffffffffffffffffffffffffffffffffff16815260200190815260200160002060008282540192505081905550816002600083815260200190815260200160002060006101000a81548173ffffffffffffffffffffffffffffffffffffffff021916908373ffffffffffffffffffffffffffffffffffffffff160217905550808273ffffffffffffffffffffffffffffffffffffffff168473ffffffffffffffffffffffffffffffffffffffff167fddf252ad1be2c89b69c2b068fc378daa952ba7f163c4a11628f55a4df523b3ef60405160405180910390a46126c88383836001613a63565b505050565b6126d56121ea565b73ffffffffffffffffffffffffffffffffffffffff166126f36119de565b73ffffffffffffffffffffffffffffffffffffffff1614612749576040517f08c379a000000000000000000000000000000000000000000000000000000000815260040161274090615739565b60405180910390fd5b565b6060600083838080601f016020809104026020016040519081016040528093929190818152602001838380828437600081840152601f19601f8201169050808301925050505050505090506000815167ffffffffffffffff8111156127b3576127b261463f565b5b6040519080825280602002602001820160405280156127e15781602001602082028036833780820191505090505b50905060005b825181101561285757603083828151811061280557612804614d55565b5b602001015160f81c60f81b60f81c61281d9190615759565b8282815181106128305761282f614d55565b5b602002602001019060ff16908160ff1681525050808061284f9061529b565b9150506127e7565b50809250505092915050565b60006002600083815260200190815260200160002060009054906101000a900473ffffffffffffffffffffffffffffffffffffffff169050919050565b6000600c60008154809291906128b59061529b565b9190505550814233600c546040516020016128d2939291906157f6565b6040516020818303038152906040528051906020012060001c6128f59190615862565b9050919050565b60606000600161290b84613a69565b01905060008167ffffffffffffffff81111561292a5761292961463f565b5b6040519080825280601f01601f19166020018201604052801561295c5781602001600182028036833780820191505090505b509050600082602001820190505b6001156129c9578080600190039150507f3031323334353637383961626364656600000000000000000000000000000000600a86061a8153600a85816129b3576129b2615833565b5b04945060008514156129c4576129c9565b61296a565b819350505050919050565b600073ffffffffffffffffffffffffffffffffffffffff168273ffffffffffffffffffffffffffffffffffffffff161415612a44576040517f08c379a0000000000000000000000000000000000000000000000000000000008152600401612a3b906158df565b60405180910390fd5b612a4d81613a1c565b15612a8d576040517f08c379a0000000000000000000000000000000000000000000000000000000008152600401612a849061594b565b60405180910390fd5b612a9b600083836001613a5d565b612aa481613a1c565b15612ae4576040517f08c379a0000000000000000000000000000000000000000000000000000000008152600401612adb9061594b565b60405180910390fd5b6001600360008473ffffffffffffffffffffffffffffffffffffffff1673ffffffffffffffffffffffffffffffffffffffff16815260200190815260200160002060008282540192505081905550816002600083815260200190815260200160002060006101000a81548173ffffffffffffffffffffffffffffffffffffffff021916908373ffffffffffffffffffffffffffffffffffffffff160217905550808273ffffffffffffffffffffffffffffffffffffffff16600073ffffffffffffffffffffffffffffffffffffffff167fddf252ad1be2c89b69c2b068fc378daa952ba7f163c4a11628f55a4df523b3ef60405160405180910390a4612bee600083836001613a63565b5050565b60608282604051602001612c07929190615a03565b604051602081830303815290604052905092915050565b612c2782613a1c565b612c66576040517f08c379a0000000000000000000000000000000000000000000000000000000008152600401612c5d90615aaf565b60405180910390fd5b80600660008481526020019081526020016000209080519060200190612c8d929190613d76565b507ff8e1a15aba9398e019f0b49df1a4fde98ee17ae345cb5f6b5e2c27f5033e8ce782604051612cbd9190614560565b60405180910390a15050565b6000600760009054906101000a900473ffffffffffffffffffffffffffffffffffffffff16905081600760006101000a81548173ffffffffffffffffffffffffffffffffffffffff021916908373ffffffffffffffffffffffffffffffffffffffff1602179055508173ffffffffffffffffffffffffffffffffffffffff168173ffffffffffffffffffffffffffffffffffffffff167f8be0079c531659141344cd1fd0a4f28419497f9722a3daafe3b4186f6b6457e060405160405180910390a35050565b600080600090505b601080549050811015612de6578260108281548110612db957612db8614d55565b5b90600052602060002001541415612dd35780915050612df0565b8080612dde9061529b565b915050612d97565b5060108054905090505b919050565b600080600090505b600b60008473ffffffffffffffffffffffffffffffffffffffff1673ffffffffffffffffffffffffffffffffffffffff16815260200190815260200160002080549050811015612ec65783600b60008573ffffffffffffffffffffffffffffffffffffffff1673ffffffffffffffffffffffffffffffffffffffff1681526020019081526020016000208281548110612e9957612e98614d55565b5b90600052602060002001541415612eb35780915050612f0d565b8080612ebe9061529b565b915050612dfd565b50600b60008373ffffffffffffffffffffffffffffffffffffffff1673ffffffffffffffffffffffffffffffffffffffff1681526020019081526020016000208054905090505b92915050565b8173ffffffffffffffffffffffffffffffffffffffff168373ffffffffffffffffffffffffffffffffffffffff161415612f82576040517f08c379a0000000000000000000000000000000000000000000000000000000008152600401612f7990615b1b565b60405180910390fd5b80600560008573ffffffffffffffffffffffffffffffffffffffff1673ffffffffffffffffffffffffffffffffffffffff16815260200190815260200160002060008473ffffffffffffffffffffffffffffffffffffffff1673ffffffffffffffffffffffffffffffffffffffff16815260200190815260200160002060006101000a81548160ff0219169083151502179055508173ffffffffffffffffffffffffffffffffffffffff168373ffffffffffffffffffffffffffffffffffffffff167f17307eab39ab6107e8899845ad3d59bd9653f200f220920489ca2b5937696c31836040516130739190614144565b60405180910390a3505050565b61308b8484846123d3565b61309784848484613bbc565b6130d6576040517f08c379a00000000000000000000000000000000000000000000000000000000081526004016130cd90615bad565b60405180910390fd5b50505050565b606060405180602001604052806000815250905090565b60606130fe8261219f565b60006131086130dc565b905060008151116131285760405180602001604052806000815250613153565b80613132846128fc565b604051602001613143929190615513565b6040516020818303038152906040525b915050919050565b6000600f6000838152602001908152602001600020905080600301544210156131b9576040517f08c379a00000000000000000000000000000000000000000000000000000000081526004016131b090615c19565b60405180910390fd5b8060010160009054906101000a900460ff161561320b576040517f08c379a000000000000000000000000000000000000000000000000000000000815260040161320290615c85565b60405180910390fd5b60018160010160006101000a81548160ff02191690831515021790555061323182610d5d565b73ffffffffffffffffffffffffffffffffffffffff168160010160019054906101000a900473ffffffffffffffffffffffffffffffffffffffff1673ffffffffffffffffffffffffffffffffffffffff161461343557600e60009054906101000a900473ffffffffffffffffffffffffffffffffffffffff1673ffffffffffffffffffffffffffffffffffffffff166370a08231306040518263ffffffff1660e01b81526004016132e291906142be565b60206040518083038186803b1580156132fa57600080fd5b505afa15801561330e573d6000803e3d6000fd5b505050506040513d601f19601f820116820180604052508101906133329190614ef6565b81600201541115613378576040517f08c379a000000000000000000000000000000000000000000000000000000000815260040161336f90615cf1565b60405180910390fd5b600e60009054906101000a900473ffffffffffffffffffffffffffffffffffffffff1673ffffffffffffffffffffffffffffffffffffffff1663a9059cbb6133bf84610d5d565b83600201546040518363ffffffff1660e01b81526004016133e1929190615d11565b602060405180830381600087803b1580156133fb57600080fd5b505af115801561340f573d6000803e3d6000fd5b505050506040513d601f19601f820116820180604052508101906134339190614fdb565b505b8060010160019054906101000a900473ffffffffffffffffffffffffffffffffffffffff166009600084815260200190815260200160002060006101000a81548173ffffffffffffffffffffffffffffffffffffffff021916908373ffffffffffffffffffffffffffffffffffffffff1602179055506001600a60006134ba85610d5d565b73ffffffffffffffffffffffffffffffffffffffff1673ffffffffffffffffffffffffffffffffffffffff16815260200190815260200160002060008282546135039190615474565b925050819055506001600a60008360010160019054906101000a900473ffffffffffffffffffffffffffffffffffffffff1673ffffffffffffffffffffffffffffffffffffffff1673ffffffffffffffffffffffffffffffffffffffff168152602001908152602001600020600082825461357e9190614e1f565b92505081905550600b60008260010160019054906101000a900473ffffffffffffffffffffffffffffffffffffffff1673ffffffffffffffffffffffffffffffffffffffff1673ffffffffffffffffffffffffffffffffffffffff16815260200190815260200160002082908060018154018082558091505060019003906000526020600020016000909190919091505561364661361b83610d5d565b8260010160019054906101000a900473ffffffffffffffffffffffffffffffffffffffff16846123d3565b600061365183612d8f565b90506000601060016010805490506136699190615474565b8154811061367a57613679614d55565b5b90600052602060002001546010838154811061369957613698614d55565b5b906000526020600020018190555060108054806136b9576136b86154a8565b5b600190038181906000526020600020016000905590556011839080600181540180825580915050600190039060005260206000209060060201600090919091909150600082015481600001556001820160009054906101000a900460ff168160010160006101000a81548160ff0219169083151502179055506001820160019054906101000a900473ffffffffffffffffffffffffffffffffffffffff168160010160016101000a81548173ffffffffffffffffffffffffffffffffffffffff021916908373ffffffffffffffffffffffffffffffffffffffff160217905550600282015481600201556003820154816003015560048201816004019080546137c3929190613fcf565b5060058201816005019080546137da929190614021565b505050600090505b82600401805490508110156139ac578260010160019054906101000a900473ffffffffffffffffffffffffffffffffffffffff1673ffffffffffffffffffffffffffffffffffffffff1683600401828154811061384257613841614d55565b5b9060005260206000200160009054906101000a900473ffffffffffffffffffffffffffffffffffffffff1673ffffffffffffffffffffffffffffffffffffffff161461399957600e60009054906101000a900473ffffffffffffffffffffffffffffffffffffffff1673ffffffffffffffffffffffffffffffffffffffff1663a9059cbb8460040183815481106138dc576138db614d55565b5b9060005260206000200160009054906101000a900473ffffffffffffffffffffffffffffffffffffffff1685600501848154811061391d5761391c614d55565b5b90600052602060002001546040518363ffffffff1660e01b8152600401613945929190615d11565b602060405180830381600087803b15801561395f57600080fd5b505af1158015613973573d6000803e3d6000fd5b505050506040513d601f19601f820116820180604052508101906139979190614fdb565b505b80806139a49061529b565b9150506137e2565b50505050565b60007f01ffc9a7000000000000000000000000000000000000000000000000000000007bffffffffffffffffffffffffffffffffffffffffffffffffffffffff1916827bffffffffffffffffffffffffffffffffffffffffffffffffffffffff1916149050919050565b60008073ffffffffffffffffffffffffffffffffffffffff16613a3e83612863565b73ffffffffffffffffffffffffffffffffffffffff1614159050919050565b50505050565b50505050565b600080600090507a184f03e93ff9f4daa797ed6e38ed64bf6a1f0100000000000000008310613ac7577a184f03e93ff9f4daa797ed6e38ed64bf6a1f0100000000000000008381613abd57613abc615833565b5b0492506040810190505b6d04ee2d6d415b85acef81000000008310613b04576d04ee2d6d415b85acef81000000008381613afa57613af9615833565b5b0492506020810190505b662386f26fc100008310613b3357662386f26fc100008381613b2957613b28615833565b5b0492506010810190505b6305f5e1008310613b5c576305f5e1008381613b5257613b51615833565b5b0492506008810190505b6127108310613b81576127108381613b7757613b76615833565b5b0492506004810190505b60648310613ba45760648381613b9a57613b99615833565b5b0492506002810190505b600a8310613bb3576001810190505b80915050919050565b6000613bdd8473ffffffffffffffffffffffffffffffffffffffff16613d53565b15613d46578373ffffffffffffffffffffffffffffffffffffffff1663150b7a02613c066121ea565b8786866040518563ffffffff1660e01b8152600401613c289493929190615d8f565b602060405180830381600087803b158015613c4257600080fd5b505af1925050508015613c7357506040513d601f19601f82011682018060405250810190613c709190615df0565b60015b613cf6573d8060008114613ca3576040519150601f19603f3d011682016040523d82523d6000602084013e613ca8565b606091505b50600081511415613cee576040517f08c379a0000000000000000000000000000000000000000000000000000000008152600401613ce590615bad565b60405180910390fd5b805181602001fd5b63150b7a0260e01b7bffffffffffffffffffffffffffffffffffffffffffffffffffffffff1916817bffffffffffffffffffffffffffffffffffffffffffffffffffffffff191614915050613d4b565b600190505b949350505050565b6000808273ffffffffffffffffffffffffffffffffffffffff163b119050919050565b828054613d8290614bff565b90600052602060002090601f016020900481019282613da45760008555613deb565b82601f10613dbd57805160ff1916838001178555613deb565b82800160010185558215613deb579182015b82811115613dea578251825591602001919060010190613dcf565b5b509050613df89190614073565b5090565b82805482825590600052602060002090601f01602090048101928215613e925791602002820160005b83821115613e6357835183826101000a81548160ff021916908360ff1602179055509260200192600101602081600001049283019260010302613e25565b8015613e905782816101000a81549060ff0219169055600101602081600001049283019260010302613e63565b505b509050613e9f9190614073565b5090565b828054828255906000526020600020908101928215613f1c579160200282015b82811115613f1b5782518260006101000a81548173ffffffffffffffffffffffffffffffffffffffff021916908373ffffffffffffffffffffffffffffffffffffffff16021790555091602001919060010190613ec3565b5b509050613f299190614073565b5090565b828054828255906000526020600020908101928215613f69579160200282015b82811115613f68578251825591602001919060010190613f4d565b5b509050613f769190614073565b5090565b6040518060e0016040528060008152602001600015158152602001600073ffffffffffffffffffffffffffffffffffffffff168152602001600081526020016000815260200160608152602001606081525090565b8280548282559060005260206000209081019282156140105760005260206000209182015b8281111561400f578254825591600101919060010190613ff4565b5b50905061401d9190614073565b5090565b8280548282559060005260206000209081019282156140625760005260206000209182015b82811115614061578254825591600101919060010190614046565b5b50905061406f9190614073565b5090565b5b8082111561408c576000816000905550600101614074565b5090565b6000604051905090565b600080fd5b600080fd5b60007fffffffff0000000000000000000000000000000000000000000000000000000082169050919050565b6140d9816140a4565b81146140e457600080fd5b50565b6000813590506140f6816140d0565b92915050565b6000602082840312156141125761411161409a565b5b6000614120848285016140e7565b91505092915050565b60008115159050919050565b61413e81614129565b82525050565b60006020820190506141596000830184614135565b92915050565b600081519050919050565b600082825260208201905092915050565b60005b8381101561419957808201518184015260208101905061417e565b838111156141a8576000848401525b50505050565b6000601f19601f8301169050919050565b60006141ca8261415f565b6141d4818561416a565b93506141e481856020860161417b565b6141ed816141ae565b840191505092915050565b6000602082019050818103600083015261421281846141bf565b905092915050565b6000819050919050565b61422d8161421a565b811461423857600080fd5b50565b60008135905061424a81614224565b92915050565b6000602082840312156142665761426561409a565b5b60006142748482850161423b565b91505092915050565b600073ffffffffffffffffffffffffffffffffffffffff82169050919050565b60006142a88261427d565b9050919050565b6142b88161429d565b82525050565b60006020820190506142d360008301846142af565b92915050565b6142e28161429d565b81146142ed57600080fd5b50565b6000813590506142ff816142d9565b92915050565b6000806040838503121561431c5761431b61409a565b5b600061432a858286016142f0565b925050602061433b8582860161423b565b9150509250929050565b6000806040838503121561435c5761435b61409a565b5b600061436a8582860161423b565b925050602061437b8582860161423b565b9150509250929050565b60008060006060848603121561439e5761439d61409a565b5b60006143ac868287016142f0565b93505060206143bd868287016142f0565b92505060406143ce8682870161423b565b9150509250925092565b600080fd5b600080fd5b600080fd5b60008083601f8401126143fd576143fc6143d8565b5b8235905067ffffffffffffffff81111561441a576144196143dd565b5b602083019150836001820283011115614436576144356143e2565b5b9250929050565b600080600080604085870312156144575761445661409a565b5b600085013567ffffffffffffffff8111156144755761447461409f565b5b614481878288016143e7565b9450945050602085013567ffffffffffffffff8111156144a4576144a361409f565b5b6144b0878288016143e7565b925092505092959194509250565b600060ff82169050919050565b6144d4816144be565b81146144df57600080fd5b50565b6000813590506144f1816144cb565b92915050565b60006020828403121561450d5761450c61409a565b5b600061451b848285016144e2565b91505092915050565b60006020828403121561453a5761453961409a565b5b6000614548848285016142f0565b91505092915050565b61455a8161421a565b82525050565b60006020820190506145756000830184614551565b92915050565b6000806000606084860312156145945761459361409a565b5b60006145a28682870161423b565b93505060206145b38682870161423b565b92505060406145c4868287016142f0565b9150509250925092565b6145d781614129565b81146145e257600080fd5b50565b6000813590506145f4816145ce565b92915050565b600080604083850312156146115761461061409a565b5b600061461f858286016142f0565b9250506020614630858286016145e5565b9150509250929050565b600080fd5b7f4e487b7100000000000000000000000000000000000000000000000000000000600052604160045260246000fd5b614677826141ae565b810181811067ffffffffffffffff821117156146965761469561463f565b5b80604052505050565b60006146a9614090565b90506146b5828261466e565b919050565b600067ffffffffffffffff8211156146d5576146d461463f565b5b6146de826141ae565b9050602081019050919050565b82818337600083830152505050565b600061470d614708846146ba565b61469f565b9050828152602081018484840111156147295761472861463a565b5b6147348482856146eb565b509392505050565b600082601f830112614751576147506143d8565b5b81356147618482602086016146fa565b91505092915050565b600080600080608085870312156147845761478361409a565b5b6000614792878288016142f0565b94505060206147a3878288016142f0565b93505060406147b48782880161423b565b925050606085013567ffffffffffffffff8111156147d5576147d461409f565b5b6147e18782880161473c565b91505092959194509250565b600081519050919050565b600082825260208201905092915050565b6000819050602082019050919050565b6148228161421a565b82525050565b61483181614129565b82525050565b6148408161429d565b82525050565b600081519050919050565b600082825260208201905092915050565b6000819050602082019050919050565b600061487e8383614837565b60208301905092915050565b6000602082019050919050565b60006148a282614846565b6148ac8185614851565b93506148b783614862565b8060005b838110156148e85781516148cf8882614872565b97506148da8361488a565b9250506001810190506148bb565b5085935050505092915050565b600081519050919050565b600082825260208201905092915050565b6000819050602082019050919050565b600061492d8383614819565b60208301905092915050565b6000602082019050919050565b6000614951826148f5565b61495b8185614900565b935061496683614911565b8060005b8381101561499757815161497e8882614921565b975061498983614939565b92505060018101905061496a565b5085935050505092915050565b600060e0830160008301516149bc6000860182614819565b5060208301516149cf6020860182614828565b5060408301516149e26040860182614837565b5060608301516149f56060860182614819565b506080830151614a086080860182614819565b5060a083015184820360a0860152614a208282614897565b91505060c083015184820360c0860152614a3a8282614946565b9150508091505092915050565b6000614a5383836149a4565b905092915050565b6000602082019050919050565b6000614a73826147ed565b614a7d81856147f8565b935083602082028501614a8f85614809565b8060005b85811015614acb5784840389528151614aac8582614a47565b9450614ab783614a5b565b925060208a01995050600181019050614a93565b50829750879550505050505092915050565b60006020820190508181036000830152614af78184614a68565b905092915050565b60008060408385031215614b1657614b1561409a565b5b6000614b24858286016142f0565b9250506020614b35858286016142f0565b9150509250929050565b600082825260208201905092915050565b6000614b5b826148f5565b614b658185614b3f565b9350614b7083614911565b8060005b83811015614ba1578151614b888882614921565b9750614b9383614939565b925050600181019050614b74565b5085935050505092915050565b60006020820190508181036000830152614bc88184614b50565b905092915050565b7f4e487b7100000000000000000000000000000000000000000000000000000000600052602260045260246000fd5b60006002820490506001821680614c1757607f821691505b60208210811415614c2b57614c2a614bd0565b5b50919050565b7f4552433732313a20617070726f76616c20746f2063757272656e74206f776e6560008201527f7200000000000000000000000000000000000000000000000000000000000000602082015250565b6000614c8d60218361416a565b9150614c9882614c31565b604082019050919050565b60006020820190508181036000830152614cbc81614c80565b9050919050565b7f4552433732313a20617070726f76652063616c6c6572206973206e6f7420746f60008201527f6b656e206f776e6572206f7220617070726f76656420666f7220616c6c000000602082015250565b6000614d1f603d8361416a565b9150614d2a82614cc3565b604082019050919050565b60006020820190508181036000830152614d4e81614d12565b9050919050565b7f4e487b7100000000000000000000000000000000000000000000000000000000600052603260045260246000fd5b7f41756374696f6e2068617320656e6465642e0000000000000000000000000000600082015250565b6000614dba60128361416a565b9150614dc582614d84565b602082019050919050565b60006020820190508181036000830152614de981614dad565b9050919050565b7f4e487b7100000000000000000000000000000000000000000000000000000000600052601160045260246000fd5b6000614e2a8261421a565b9150614e358361421a565b9250827fffffffffffffffffffffffffffffffffffffffffffffffffffffffffffffffff03821115614e6a57614e69614df0565b5b828201905092915050565b7f546865726520697320616c7265616479206120686967686572206269642e0000600082015250565b6000614eab601e8361416a565b9150614eb682614e75565b602082019050919050565b60006020820190508181036000830152614eda81614e9e565b9050919050565b600081519050614ef081614224565b92915050565b600060208284031215614f0c57614f0b61409a565b5b6000614f1a84828501614ee1565b91505092915050565b7f496e73756666696369656e74204652542062616c616e63650000000000000000600082015250565b6000614f5960188361416a565b9150614f6482614f23565b602082019050919050565b60006020820190508181036000830152614f8881614f4c565b9050919050565b6000606082019050614fa460008301866142af565b614fb160208301856142af565b614fbe6040830184614551565b949350505050565b600081519050614fd5816145ce565b92915050565b600060208284031215614ff157614ff061409a565b5b6000614fff84828501614fc6565b91505092915050565b7f4552433732313a2063616c6c6572206973206e6f7420746f6b656e206f776e6560008201527f72206f7220617070726f76656400000000000000000000000000000000000000602082015250565b6000615064602d8361416a565b915061506f82615008565b604082019050919050565b6000602082019050818103600083015261509381615057565b9050919050565b60006150a6838561416a565b93506150b38385846146eb565b6150bc836141ae565b840190509392505050565b600060208201905081810360008301526150e281848661509a565b90509392505050565b7f4552433732313a20696e76616c696420746f6b656e2049440000000000000000600082015250565b600061512160188361416a565b915061512c826150eb565b602082019050919050565b6000602082019050818103600083015261515081615114565b9050919050565b7f4e6f20636f6c6c656374696f6e7320617661696c61626c650000000000000000600082015250565b600061518d60188361416a565b915061519882615157565b602082019050919050565b600060208201905081810360008301526151bc81615180565b9050919050565b7f496e76616c696420636f6c6c656374696f6e206c656e67746800000000000000600082015250565b60006151f960198361416a565b9150615204826151c3565b602082019050919050565b60006020820190508181036000830152615228816151ec565b9050919050565b7f496e76616c696420666f72636564207261726974790000000000000000000000600082015250565b600061526560158361416a565b91506152708261522f565b602082019050919050565b6000602082019050818103600083015261529481615258565b9050919050565b60006152a68261421a565b91507fffffffffffffffffffffffffffffffffffffffffffffffffffffffffffffffff8214156152d9576152d8614df0565b5b600182019050919050565b7f4552433732313a2061646472657373207a65726f206973206e6f74206120766160008201527f6c6964206f776e65720000000000000000000000000000000000000000000000602082015250565b600061534060298361416a565b915061534b826152e4565b604082019050919050565b6000602082019050818103600083015261536f81615333565b9050919050565b7f566f7573206e6520706f73736564657a2070617320636574746520766f69747560008201527f72652e0000000000000000000000000000000000000000000000000000000000602082015250565b60006153d260238361416a565b91506153dd82615376565b604082019050919050565b60006020820190508181036000830152615401816153c5565b9050919050565b7f436574746520766f6974757265206573742064656a6120656e2076656e746500600082015250565b600061543e601f8361416a565b915061544982615408565b602082019050919050565b6000602082019050818103600083015261546d81615431565b9050919050565b600061547f8261421a565b915061548a8361421a565b92508282101561549d5761549c614df0565b5b828203905092915050565b7f4e487b7100000000000000000000000000000000000000000000000000000000600052603160045260246000fd5b600081905092915050565b60006154ed8261415f565b6154f781856154d7565b935061550781856020860161417b565b80840191505092915050565b600061551f82856154e2565b915061552b82846154e2565b91508190509392505050565b7f4f776e61626c653a206e6577206f776e657220697320746865207a65726f206160008201527f6464726573730000000000000000000000000000000000000000000000000000602082015250565b600061559360268361416a565b915061559e82615537565b604082019050919050565b600060208201905081810360008301526155c281615586565b9050919050565b7f4552433732313a207472616e736665722066726f6d20696e636f72726563742060008201527f6f776e6572000000000000000000000000000000000000000000000000000000602082015250565b600061562560258361416a565b9150615630826155c9565b604082019050919050565b6000602082019050818103600083015261565481615618565b9050919050565b7f4552433732313a207472616e7366657220746f20746865207a65726f2061646460008201527f7265737300000000000000000000000000000000000000000000000000000000602082015250565b60006156b760248361416a565b91506156c28261565b565b604082019050919050565b600060208201905081810360008301526156e6816156aa565b9050919050565b7f4f776e61626c653a2063616c6c6572206973206e6f7420746865206f776e6572600082015250565b600061572360208361416a565b915061572e826156ed565b602082019050919050565b6000602082019050818103600083015261575281615716565b9050919050565b6000615764826144be565b915061576f836144be565b92508282101561578257615781614df0565b5b828203905092915050565b6000819050919050565b6157a86157a38261421a565b61578d565b82525050565b60008160601b9050919050565b60006157c6826157ae565b9050919050565b60006157d8826157bb565b9050919050565b6157f06157eb8261429d565b6157cd565b82525050565b60006158028286615797565b60208201915061581282856157df565b6014820191506158228284615797565b602082019150819050949350505050565b7f4e487b7100000000000000000000000000000000000000000000000000000000600052601260045260246000fd5b600061586d8261421a565b91506158788361421a565b92508261588857615887615833565b5b828206905092915050565b7f4552433732313a206d696e7420746f20746865207a65726f2061646472657373600082015250565b60006158c960208361416a565b91506158d482615893565b602082019050919050565b600060208201905081810360008301526158f8816158bc565b9050919050565b7f4552433732313a20746f6b656e20616c7265616479206d696e74656400000000600082015250565b6000615935601c8361416a565b9150615940826158ff565b602082019050919050565b6000602082019050818103600083015261596481615928565b9050919050565b7f2f00000000000000000000000000000000000000000000000000000000000000600082015250565b60006159a16001836154d7565b91506159ac8261596b565b600182019050919050565b7f2e6a736f6e000000000000000000000000000000000000000000000000000000600082015250565b60006159ed6005836154d7565b91506159f8826159b7565b600582019050919050565b6000615a0f82856154e2565b9150615a1a82615994565b9150615a2682846154e2565b9150615a31826159e0565b91508190509392505050565b7f45524337323155524953746f726167653a2055524920736574206f66206e6f6e60008201527f6578697374656e7420746f6b656e000000000000000000000000000000000000602082015250565b6000615a99602e8361416a565b9150615aa482615a3d565b604082019050919050565b60006020820190508181036000830152615ac881615a8c565b9050919050565b7f4552433732313a20617070726f766520746f2063616c6c657200000000000000600082015250565b6000615b0560198361416a565b9150615b1082615acf565b602082019050919050565b60006020820190508181036000830152615b3481615af8565b9050919050565b7f4552433732313a207472616e7366657220746f206e6f6e20455243373231526560008201527f63656976657220696d706c656d656e7465720000000000000000000000000000602082015250565b6000615b9760328361416a565b9150615ba282615b3b565b604082019050919050565b60006020820190508181036000830152615bc681615b8a565b9050919050565b7f41756374696f6e206e6f7420656e646564000000000000000000000000000000600082015250565b6000615c0360118361416a565b9150615c0e82615bcd565b602082019050919050565b60006020820190508181036000830152615c3281615bf6565b9050919050565b7f41756374696f6e20736f6c7665642e0000000000000000000000000000000000600082015250565b6000615c6f600f8361416a565b9150615c7a82615c39565b602082019050919050565b60006020820190508181036000830152615c9e81615c62565b9050919050565b7f496e73756666696369656e7420746f6b656e2062616c616e6365000000000000600082015250565b6000615cdb601a8361416a565b9150615ce682615ca5565b602082019050919050565b60006020820190508181036000830152615d0a81615cce565b9050919050565b6000604082019050615d2660008301856142af565b615d336020830184614551565b9392505050565b600081519050919050565b600082825260208201905092915050565b6000615d6182615d3a565b615d6b8185615d45565b9350615d7b81856020860161417b565b615d84816141ae565b840191505092915050565b6000608082019050615da460008301876142af565b615db160208301866142af565b615dbe6040830185614551565b8181036060830152615dd08184615d56565b905095945050505050565b600081519050615dea816140d0565b92915050565b600060208284031215615e0657615e0561409a565b5b6000615e1484828501615ddb565b9150509291505056fea26469706673582212207994dbf052431476ad58ee119e227d17a0afa9a20f1f79144d0c852aa5d6edd064736f6c63430008090033",
  "linkReferences": {},
  "deployedLinkReferences": {}
}