{
  "_format": "hh-sol-artifact-1",
  "contractName": "FCarToken",
  "sourceName": "contracts/FCarToken.sol",
  "abi": [
    {
      "inputs": [],
      "stateMutability": "nonpayable",
      "type": "constructor"
    },
    {
      "anonymous": false,
      "inputs": [
        {
          "indexed": true,
          "internalType": "address",
          "name": "owner",
          "type": "address"
        },
        {
          "indexed": true,
          "internalType": "address",
          "name": "spender",
          "type": "address"
        },
        {
          "indexed": false,
          "internalType": "uint256",
          "name": "value",
          "type": "uint256"
        }
      ],
      "name": "Approval",
      "type": "event"
    },
    {
      "anonymous": false,
      "inputs": [
        {
          "indexed": true,
          "internalType": "address",
          "name": "previousOwner",
          "type": "address"
        },
        {
          "indexed": true,
          "internalType": "address",
          "name": "newOwner",
          "type": "address"
        }
      ],
      "name": "OwnershipTransferred",
      "type": "event"
    },
    {
      "anonymous": false,
      "inputs": [
        {
          "indexed": true,
          "internalType": "address",
          "name": "from",
          "type": "address"
        },
        {
          "indexed": true,
          "internalType": "address",
          "name": "to",
          "type": "address"
        },
        {
          "indexed": false,
          "internalType": "uint256",
          "name": "value",
          "type": "uint256"
        }
      ],
      "name": "Transfer",
      "type": "event"
    },
    {
      "inputs": [
        {
          "internalType": "address",
          "name": "owner",
          "type": "address"
        },
        {
          "internalType": "address",
          "name": "spender",
          "type": "address"
        }
      ],
      "name": "allowance",
      "outputs": [
        {
          "internalType": "uint256",
          "name": "",
          "type": "uint256"
        }
      ],
      "stateMutability": "view",
      "type": "function"
    },
    {
      "inputs": [
        {
          "internalType": "address",
          "name": "spender",
          "type": "address"
        },
        {
          "internalType": "uint256",
          "name": "amount",
          "type": "uint256"
        }
      ],
      "name": "approve",
      "outputs": [
        {
          "internalType": "bool",
          "name": "",
          "type": "bool"
        }
      ],
      "stateMutability": "nonpayable",
      "type": "function"
    },
    {
      "inputs": [
        {
          "internalType": "address",
          "name": "account",
          "type": "address"
        }
      ],
      "name": "balanceOf",
      "outputs": [
        {
          "internalType": "uint256",
          "name": "",
          "type": "uint256"
        }
      ],
      "stateMutability": "view",
      "type": "function"
    },
    {
      "inputs": [
        {
          "internalType": "address",
          "name": "_buyer",
          "type": "address"
        }
      ],
      "name": "buy",
      "outputs": [],
      "stateMutability": "payable",
      "type": "function"
    },
    {
      "inputs": [],
      "name": "decimals",
      "outputs": [
        {
          "internalType": "uint8",
          "name": "",
          "type": "uint8"
        }
      ],
      "stateMutability": "view",
      "type": "function"
    },
    {
      "inputs": [
        {
          "internalType": "address",
          "name": "spender",
          "type": "address"
        },
        {
          "internalType": "uint256",
          "name": "subtractedValue",
          "type": "uint256"
        }
      ],
      "name": "decreaseAllowance",
      "outputs": [
        {
          "internalType": "bool",
          "name": "",
          "type": "bool"
        }
      ],
      "stateMutability": "nonpayable",
      "type": "function"
    },
    {
      "inputs": [
        {
          "internalType": "address",
          "name": "spender",
          "type": "address"
        },
        {
          "internalType": "uint256",
          "name": "addedValue",
          "type": "uint256"
        }
      ],
      "name": "increaseAllowance",
      "outputs": [
        {
          "internalType": "bool",
          "name": "",
          "type": "bool"
        }
      ],
      "stateMutability": "nonpayable",
      "type": "function"
    },
    {
      "inputs": [],
      "name": "name",
      "outputs": [
        {
          "internalType": "string",
          "name": "",
          "type": "string"
        }
      ],
      "stateMutability": "view",
      "type": "function"
    },
    {
      "inputs": [],
      "name": "owner",
      "outputs": [
        {
          "internalType": "address",
          "name": "",
          "type": "address"
        }
      ],
      "stateMutability": "view",
      "type": "function"
    },
    {
      "inputs": [],
      "name": "renounceOwnership",
      "outputs": [],
      "stateMutability": "nonpayable",
      "type": "function"
    },
    {
      "inputs": [
        {
          "internalType": "address",
          "name": "_seller",
          "type": "address"
        },
        {
          "internalType": "uint256",
          "name": "_amount",
          "type": "uint256"
        }
      ],
      "name": "sell",
      "outputs": [],
      "stateMutability": "nonpayable",
      "type": "function"
    },
    {
      "inputs": [],
      "name": "symbol",
      "outputs": [
        {
          "internalType": "string",
          "name": "",
          "type": "string"
        }
      ],
      "stateMutability": "view",
      "type": "function"
    },
    {
      "inputs": [],
      "name": "totalSupply",
      "outputs": [
        {
          "internalType": "uint256",
          "name": "",
          "type": "uint256"
        }
      ],
      "stateMutability": "view",
      "type": "function"
    },
    {
      "inputs": [
        {
          "internalType": "address",
          "name": "to",
          "type": "address"
        },
        {
          "internalType": "uint256",
          "name": "amount",
          "type": "uint256"
        }
      ],
      "name": "transfer",
      "outputs": [
        {
          "internalType": "bool",
          "name": "",
          "type": "bool"
        }
      ],
      "stateMutability": "nonpayable",
      "type": "function"
    },
    {
      "inputs": [
        {
          "internalType": "address",
          "name": "from",
          "type": "address"
        },
        {
          "internalType": "address",
          "name": "to",
          "type": "address"
        },
        {
          "internalType": "uint256",
          "name": "amount",
          "type": "uint256"
        }
      ],
      "name": "transferFrom",
      "outputs": [
        {
          "internalType": "bool",
          "name": "",
          "type": "bool"
        }
      ],
      "stateMutability": "nonpayable",
      "type": "function"
    },
    {
      "inputs": [
        {
          "internalType": "address",
          "name": "newOwner",
          "type": "address"
        }
      ],
      "name": "transferOwnership",
      "outputs": [],
      "stateMutability": "nonpayable",
      "type": "function"
    },
    {
      "inputs": [
        {
          "internalType": "address",
          "name": "_seller",
          "type": "address"
        },
        {
          "internalType": "uint256",
          "name": "_amount",
          "type": "uint256"
        }
      ],
      "name": "withdrawEther",
      "outputs": [],
      "stateMutability": "nonpayable",
      "type": "function"
    }
  ],
  "bytecode": "0x60806040523480156200001157600080fd5b506040518060400160405280600b81526020017f462d52414345546f6b656e0000000000000000000000000000000000000000008152506040518060400160405280600381526020017f465254000000000000000000000000000000000000000000000000000000000081525081600390805190602001906200009692919062000353565b508060049080519060200190620000af92919062000353565b505050620000d2620000c66200010d60201b60201c565b6200011560201b60201c565b620186a06006819055506000600654633b9aca00620000f291906200043c565b9050620001063082620001db60201b60201c565b5062000610565b600033905090565b6000600560009054906101000a900473ffffffffffffffffffffffffffffffffffffffff16905081600560006101000a81548173ffffffffffffffffffffffffffffffffffffffff021916908373ffffffffffffffffffffffffffffffffffffffff1602179055508173ffffffffffffffffffffffffffffffffffffffff168173ffffffffffffffffffffffffffffffffffffffff167f8be0079c531659141344cd1fd0a4f28419497f9722a3daafe3b4186f6b6457e060405160405180910390a35050565b600073ffffffffffffffffffffffffffffffffffffffff168273ffffffffffffffffffffffffffffffffffffffff1614156200024e576040517f08c379a00000000000000000000000000000000000000000000000000000000081526004016200024590620004fe565b60405180910390fd5b62000262600083836200034960201b60201c565b806002600082825462000276919062000520565b92505081905550806000808473ffffffffffffffffffffffffffffffffffffffff1673ffffffffffffffffffffffffffffffffffffffff168152602001908152602001600020600082825401925050819055508173ffffffffffffffffffffffffffffffffffffffff16600073ffffffffffffffffffffffffffffffffffffffff167fddf252ad1be2c89b69c2b068fc378daa952ba7f163c4a11628f55a4df523b3ef836040516200032991906200058e565b60405180910390a362000345600083836200034e60201b60201c565b5050565b505050565b505050565b8280546200036190620005da565b90600052602060002090601f016020900481019282620003855760008555620003d1565b82601f10620003a057805160ff1916838001178555620003d1565b82800160010185558215620003d1579182015b82811115620003d0578251825591602001919060010190620003b3565b5b509050620003e09190620003e4565b5090565b5b80821115620003ff576000816000905550600101620003e5565b5090565b6000819050919050565b7f4e487b7100000000000000000000000000000000000000000000000000000000600052601160045260246000fd5b6000620004498262000403565b9150620004568362000403565b9250817fffffffffffffffffffffffffffffffffffffffffffffffffffffffffffffffff04831182151516156200049257620004916200040d565b5b828202905092915050565b600082825260208201905092915050565b7f45524332303a206d696e7420746f20746865207a65726f206164647265737300600082015250565b6000620004e6601f836200049d565b9150620004f382620004ae565b602082019050919050565b600060208201905081810360008301526200051981620004d7565b9050919050565b60006200052d8262000403565b91506200053a8362000403565b9250827fffffffffffffffffffffffffffffffffffffffffffffffffffffffffffffffff038211156200057257620005716200040d565b5b828201905092915050565b620005888162000403565b82525050565b6000602082019050620005a560008301846200057d565b92915050565b7f4e487b7100000000000000000000000000000000000000000000000000000000600052602260045260246000fd5b60006002820490506001821680620005f357607f821691505b602082108114156200060a5762000609620005ab565b5b50919050565b611dba80620006206000396000f3fe6080604052600436106100fe5760003560e01c806370a0823111610095578063a457c2d711610064578063a457c2d714610337578063a9059cbb14610374578063dd62ed3e146103b1578063f088d547146103ee578063f2fde38b1461040a576100fe565b806370a082311461028d578063715018a6146102ca5780638da5cb5b146102e157806395d89b411461030c576100fe565b8063313ce567116100d1578063313ce567146101d357806339509351146101fe578063522f68151461023b5780636c197ff514610264576100fe565b806306fdde0314610103578063095ea7b31461012e57806318160ddd1461016b57806323b872dd14610196575b600080fd5b34801561010f57600080fd5b50610118610433565b60405161012591906111e4565b60405180910390f35b34801561013a57600080fd5b506101556004803603810190610150919061129f565b6104c5565b60405161016291906112fa565b60405180910390f35b34801561017757600080fd5b506101806104e8565b60405161018d9190611324565b60405180910390f35b3480156101a257600080fd5b506101bd60048036038101906101b8919061133f565b6104f2565b6040516101ca91906112fa565b60405180910390f35b3480156101df57600080fd5b506101e8610521565b6040516101f591906113ae565b60405180910390f35b34801561020a57600080fd5b506102256004803603810190610220919061129f565b61052a565b60405161023291906112fa565b60405180910390f35b34801561024757600080fd5b50610262600480360381019061025d919061129f565b610561565b005b34801561027057600080fd5b5061028b6004803603810190610286919061129f565b61065d565b005b34801561029957600080fd5b506102b460048036038101906102af91906113c9565b6107ba565b6040516102c19190611324565b60405180910390f35b3480156102d657600080fd5b506102df610802565b005b3480156102ed57600080fd5b506102f6610816565b6040516103039190611405565b60405180910390f35b34801561031857600080fd5b50610321610840565b60405161032e91906111e4565b60405180910390f35b34801561034357600080fd5b5061035e6004803603810190610359919061129f565b6108d2565b60405161036b91906112fa565b60405180910390f35b34801561038057600080fd5b5061039b6004803603810190610396919061129f565b610949565b6040516103a891906112fa565b60405180910390f35b3480156103bd57600080fd5b506103d860048036038101906103d39190611420565b61096c565b6040516103e59190611324565b60405180910390f35b610408600480360381019061040391906113c9565b6109f3565b005b34801561041657600080fd5b50610431600480360381019061042c91906113c9565b610aa2565b005b6060600380546104429061148f565b80601f016020809104026020016040519081016040528092919081815260200182805461046e9061148f565b80156104bb5780601f10610490576101008083540402835291602001916104bb565b820191906000526020600020905b81548152906001019060200180831161049e57829003601f168201915b5050505050905090565b6000806104d0610b26565b90506104dd818585610b2e565b600191505092915050565b6000600254905090565b6000806104fd610b26565b905061050a858285610cf9565b610515858585610d85565b60019150509392505050565b60006012905090565b600080610535610b26565b9050610556818585610547858961096c565b61055191906114f0565b610b2e565b600191505092915050565b610569610ffd565b804710156105ac576040517f08c379a00000000000000000000000000000000000000000000000000000000081526004016105a3906115b8565b60405180910390fd5b60008273ffffffffffffffffffffffffffffffffffffffff16826040516105d290611609565b60006040518083038185875af1925050503d806000811461060f576040519150601f19603f3d011682016040523d82523d6000602084013e610614565b606091505b5050905080610658576040517f08c379a000000000000000000000000000000000000000000000000000000000815260040161064f9061166a565b60405180910390fd5b505050565b60006006548261066d91906116b9565b905081610679846107ba565b10156106ba576040517f08c379a00000000000000000000000000000000000000000000000000000000081526004016106b190611736565b60405180910390fd5b804710156106fd576040517f08c379a00000000000000000000000000000000000000000000000000000000081526004016106f4906115b8565b60405180910390fd5b610708833084610d85565b60008373ffffffffffffffffffffffffffffffffffffffff168260405161072e90611609565b60006040518083038185875af1925050503d806000811461076b576040519150601f19603f3d011682016040523d82523d6000602084013e610770565b606091505b50509050806107b4576040517f08c379a00000000000000000000000000000000000000000000000000000000081526004016107ab9061166a565b60405180910390fd5b50505050565b60008060008373ffffffffffffffffffffffffffffffffffffffff1673ffffffffffffffffffffffffffffffffffffffff168152602001908152602001600020549050919050565b61080a610ffd565b610814600061107b565b565b6000600560009054906101000a900473ffffffffffffffffffffffffffffffffffffffff16905090565b60606004805461084f9061148f565b80601f016020809104026020016040519081016040528092919081815260200182805461087b9061148f565b80156108c85780601f1061089d576101008083540402835291602001916108c8565b820191906000526020600020905b8154815290600101906020018083116108ab57829003601f168201915b5050505050905090565b6000806108dd610b26565b905060006108eb828661096c565b905083811015610930576040517f08c379a0000000000000000000000000000000000000000000000000000000008152600401610927906117c8565b60405180910390fd5b61093d8286868403610b2e565b60019250505092915050565b600080610954610b26565b9050610961818585610d85565b600191505092915050565b6000600160008473ffffffffffffffffffffffffffffffffffffffff1673ffffffffffffffffffffffffffffffffffffffff16815260200190815260200160002060008373ffffffffffffffffffffffffffffffffffffffff1673ffffffffffffffffffffffffffffffffffffffff16815260200190815260200160002054905092915050565b60003411610a36576040517f08c379a0000000000000000000000000000000000000000000000000000000008152600401610a2d90611834565b60405180910390fd5b600060065434610a469190611854565b905080610a52306107ba565b1015610a93576040517f08c379a0000000000000000000000000000000000000000000000000000000008152600401610a8a90611920565b60405180910390fd5b610a9e308383610d85565b5050565b610aaa610ffd565b600073ffffffffffffffffffffffffffffffffffffffff168173ffffffffffffffffffffffffffffffffffffffff161415610b1a576040517f08c379a0000000000000000000000000000000000000000000000000000000008152600401610b11906119b2565b60405180910390fd5b610b238161107b565b50565b600033905090565b600073ffffffffffffffffffffffffffffffffffffffff168373ffffffffffffffffffffffffffffffffffffffff161415610b9e576040517f08c379a0000000000000000000000000000000000000000000000000000000008152600401610b9590611a44565b60405180910390fd5b600073ffffffffffffffffffffffffffffffffffffffff168273ffffffffffffffffffffffffffffffffffffffff161415610c0e576040517f08c379a0000000000000000000000000000000000000000000000000000000008152600401610c0590611ad6565b60405180910390fd5b80600160008573ffffffffffffffffffffffffffffffffffffffff1673ffffffffffffffffffffffffffffffffffffffff16815260200190815260200160002060008473ffffffffffffffffffffffffffffffffffffffff1673ffffffffffffffffffffffffffffffffffffffff168152602001908152602001600020819055508173ffffffffffffffffffffffffffffffffffffffff168373ffffffffffffffffffffffffffffffffffffffff167f8c5be1e5ebec7d5bd14f71427d1e84f3dd0314c0f7b2291e5b200ac8c7c3b92583604051610cec9190611324565b60405180910390a3505050565b6000610d05848461096c565b90507fffffffffffffffffffffffffffffffffffffffffffffffffffffffffffffffff8114610d7f5781811015610d71576040517f08c379a0000000000000000000000000000000000000000000000000000000008152600401610d6890611b42565b60405180910390fd5b610d7e8484848403610b2e565b5b50505050565b600073ffffffffffffffffffffffffffffffffffffffff168373ffffffffffffffffffffffffffffffffffffffff161415610df5576040517f08c379a0000000000000000000000000000000000000000000000000000000008152600401610dec90611bd4565b60405180910390fd5b600073ffffffffffffffffffffffffffffffffffffffff168273ffffffffffffffffffffffffffffffffffffffff161415610e65576040517f08c379a0000000000000000000000000000000000000000000000000000000008152600401610e5c90611c66565b60405180910390fd5b610e70838383611141565b60008060008573ffffffffffffffffffffffffffffffffffffffff1673ffffffffffffffffffffffffffffffffffffffff16815260200190815260200160002054905081811015610ef6576040517f08c379a0000000000000000000000000000000000000000000000000000000008152600401610eed90611cf8565b60405180910390fd5b8181036000808673ffffffffffffffffffffffffffffffffffffffff1673ffffffffffffffffffffffffffffffffffffffff16815260200190815260200160002081905550816000808573ffffffffffffffffffffffffffffffffffffffff1673ffffffffffffffffffffffffffffffffffffffff168152602001908152602001600020600082825401925050819055508273ffffffffffffffffffffffffffffffffffffffff168473ffffffffffffffffffffffffffffffffffffffff167fddf252ad1be2c89b69c2b068fc378daa952ba7f163c4a11628f55a4df523b3ef84604051610fe49190611324565b60405180910390a3610ff7848484611146565b50505050565b611005610b26565b73ffffffffffffffffffffffffffffffffffffffff16611023610816565b73ffffffffffffffffffffffffffffffffffffffff1614611079576040517f08c379a000000000000000000000000000000000000000000000000000000000815260040161107090611d64565b60405180910390fd5b565b6000600560009054906101000a900473ffffffffffffffffffffffffffffffffffffffff16905081600560006101000a81548173ffffffffffffffffffffffffffffffffffffffff021916908373ffffffffffffffffffffffffffffffffffffffff1602179055508173ffffffffffffffffffffffffffffffffffffffff168173ffffffffffffffffffffffffffffffffffffffff167f8be0079c531659141344cd1fd0a4f28419497f9722a3daafe3b4186f6b6457e060405160405180910390a35050565b505050565b505050565b600081519050919050565b600082825260208201905092915050565b60005b8381101561118557808201518184015260208101905061116a565b83811115611194576000848401525b50505050565b6000601f19601f8301169050919050565b60006111b68261114b565b6111c08185611156565b93506111d0818560208601611167565b6111d98161119a565b840191505092915050565b600060208201905081810360008301526111fe81846111ab565b905092915050565b600080fd5b600073ffffffffffffffffffffffffffffffffffffffff82169050919050565b60006112368261120b565b9050919050565b6112468161122b565b811461125157600080fd5b50565b6000813590506112638161123d565b92915050565b6000819050919050565b61127c81611269565b811461128757600080fd5b50565b60008135905061129981611273565b92915050565b600080604083850312156112b6576112b5611206565b5b60006112c485828601611254565b92505060206112d58582860161128a565b9150509250929050565b60008115159050919050565b6112f4816112df565b82525050565b600060208201905061130f60008301846112eb565b92915050565b61131e81611269565b82525050565b60006020820190506113396000830184611315565b92915050565b60008060006060848603121561135857611357611206565b5b600061136686828701611254565b935050602061137786828701611254565b92505060406113888682870161128a565b9150509250925092565b600060ff82169050919050565b6113a881611392565b82525050565b60006020820190506113c3600083018461139f565b92915050565b6000602082840312156113df576113de611206565b5b60006113ed84828501611254565b91505092915050565b6113ff8161122b565b82525050565b600060208201905061141a60008301846113f6565b92915050565b6000806040838503121561143757611436611206565b5b600061144585828601611254565b925050602061145685828601611254565b9150509250929050565b7f4e487b7100000000000000000000000000000000000000000000000000000000600052602260045260246000fd5b600060028204905060018216806114a757607f821691505b602082108114156114bb576114ba611460565b5b50919050565b7f4e487b7100000000000000000000000000000000000000000000000000000000600052601160045260246000fd5b60006114fb82611269565b915061150683611269565b9250827fffffffffffffffffffffffffffffffffffffffffffffffffffffffffffffffff0382111561153b5761153a6114c1565b5b828201905092915050565b7f496e73756666696369656e742065746865722062616c616e636520696e20636f60008201527f6e74726163740000000000000000000000000000000000000000000000000000602082015250565b60006115a2602683611156565b91506115ad82611546565b604082019050919050565b600060208201905081810360008301526115d181611595565b9050919050565b600081905092915050565b50565b60006115f36000836115d8565b91506115fe826115e3565b600082019050919050565b6000611614826115e6565b9150819050919050565b7f4661696c656420746f2073656e64206574686572730000000000000000000000600082015250565b6000611654601583611156565b915061165f8261161e565b602082019050919050565b6000602082019050818103600083015261168381611647565b9050919050565b7f4e487b7100000000000000000000000000000000000000000000000000000000600052601260045260246000fd5b60006116c482611269565b91506116cf83611269565b9250826116df576116de61168a565b5b828204905092915050565b7f496e73756666696369656e7420746f6b656e2062616c616e6365000000000000600082015250565b6000611720601a83611156565b915061172b826116ea565b602082019050919050565b6000602082019050818103600083015261174f81611713565b9050919050565b7f45524332303a2064656372656173656420616c6c6f77616e63652062656c6f7760008201527f207a65726f000000000000000000000000000000000000000000000000000000602082015250565b60006117b2602583611156565b91506117bd82611756565b604082019050919050565b600060208201905081810360008301526117e1816117a5565b9050919050565b7f416d6f756e74206d7573742062652067726561746572207468616e207a65726f600082015250565b600061181e602083611156565b9150611829826117e8565b602082019050919050565b6000602082019050818103600083015261184d81611811565b9050919050565b600061185f82611269565b915061186a83611269565b9250817fffffffffffffffffffffffffffffffffffffffffffffffffffffffffffffffff04831182151516156118a3576118a26114c1565b5b828202905092915050565b7f496e73756666696369656e7420746f6b656e2062616c616e636520696e20636f60008201527f6e74726163740000000000000000000000000000000000000000000000000000602082015250565b600061190a602683611156565b9150611915826118ae565b604082019050919050565b60006020820190508181036000830152611939816118fd565b9050919050565b7f4f776e61626c653a206e6577206f776e657220697320746865207a65726f206160008201527f6464726573730000000000000000000000000000000000000000000000000000602082015250565b600061199c602683611156565b91506119a782611940565b604082019050919050565b600060208201905081810360008301526119cb8161198f565b9050919050565b7f45524332303a20617070726f76652066726f6d20746865207a65726f2061646460008201527f7265737300000000000000000000000000000000000000000000000000000000602082015250565b6000611a2e602483611156565b9150611a39826119d2565b604082019050919050565b60006020820190508181036000830152611a5d81611a21565b9050919050565b7f45524332303a20617070726f766520746f20746865207a65726f20616464726560008201527f7373000000000000000000000000000000000000000000000000000000000000602082015250565b6000611ac0602283611156565b9150611acb82611a64565b604082019050919050565b60006020820190508181036000830152611aef81611ab3565b9050919050565b7f45524332303a20696e73756666696369656e7420616c6c6f77616e6365000000600082015250565b6000611b2c601d83611156565b9150611b3782611af6565b602082019050919050565b60006020820190508181036000830152611b5b81611b1f565b9050919050565b7f45524332303a207472616e736665722066726f6d20746865207a65726f20616460008201527f6472657373000000000000000000000000000000000000000000000000000000602082015250565b6000611bbe602583611156565b9150611bc982611b62565b604082019050919050565b60006020820190508181036000830152611bed81611bb1565b9050919050565b7f45524332303a207472616e7366657220746f20746865207a65726f206164647260008201527f6573730000000000000000000000000000000000000000000000000000000000602082015250565b6000611c50602383611156565b9150611c5b82611bf4565b604082019050919050565b60006020820190508181036000830152611c7f81611c43565b9050919050565b7f45524332303a207472616e7366657220616d6f756e742065786365656473206260008201527f616c616e63650000000000000000000000000000000000000000000000000000602082015250565b6000611ce2602683611156565b9150611ced82611c86565b604082019050919050565b60006020820190508181036000830152611d1181611cd5565b9050919050565b7f4f776e61626c653a2063616c6c6572206973206e6f7420746865206f776e6572600082015250565b6000611d4e602083611156565b9150611d5982611d18565b602082019050919050565b60006020820190508181036000830152611d7d81611d41565b905091905056fea2646970667358221220f256eedffa0a26058a2c14c8adc889ffe55119993a8e1a16cbc15d4c498922b964736f6c63430008090033",
  "linkReferences": {},
  "deployedLinkReferences": {}
}