{
  "_format": "hh-sol-artifact-1",
  "contractName": "FToken",
  "sourceName": "contracts/FToken.sol",
  "abi": [
    {
      "inputs": [],
      "stateMutability": "nonpayable",
      "type": "constructor"
    },
    {
      "anonymous": false,
      "inputs": [
        {
          "indexed": false,
          "internalType": "uint256",
          "name": "id",
          "type": "uint256"
        },
        {
          "indexed": false,
          "internalType": "string",
          "name": "s_rarity",
          "type": "string"
        },
        {
          "indexed": false,
          "internalType": "uint8",
          "name": "speed",
          "type": "uint8"
        },
        {
          "indexed": false,
          "internalType": "uint8",
          "name": "acceleration",
          "type": "uint8"
        },
        {
          "indexed": false,
          "internalType": "uint8",
          "name": "maniability",
          "type": "uint8"
        },
        {
          "indexed": false,
          "internalType": "uint32",
          "name": "readyTime",
          "type": "uint32"
        }
      ],
      "name": "NewCar",
      "type": "event"
    },
    {
      "anonymous": false,
      "inputs": [
        {
          "indexed": true,
          "internalType": "address",
          "name": "_user",
          "type": "address"
        },
        {
          "indexed": true,
          "internalType": "uint256",
          "name": "_car",
          "type": "uint256"
        }
      ],
      "name": "ResetCooldown",
      "type": "event"
    },
    {
      "anonymous": false,
      "inputs": [
        {
          "indexed": true,
          "internalType": "address",
          "name": "_from",
          "type": "address"
        },
        {
          "indexed": true,
          "internalType": "address",
          "name": "_to",
          "type": "address"
        },
        {
          "indexed": false,
          "internalType": "uint256",
          "name": "_value",
          "type": "uint256"
        }
      ],
      "name": "Transfer",
      "type": "event"
    },
    {
      "inputs": [
        {
          "internalType": "address",
          "name": "account",
          "type": "address"
        }
      ],
      "name": "balanceOf",
      "outputs": [
        {
          "internalType": "uint256",
          "name": "",
          "type": "uint256"
        }
      ],
      "stateMutability": "view",
      "type": "function"
    },
    {
      "inputs": [
        {
          "internalType": "uint256",
          "name": "",
          "type": "uint256"
        }
      ],
      "name": "carToOwner",
      "outputs": [
        {
          "internalType": "address",
          "name": "",
          "type": "address"
        }
      ],
      "stateMutability": "view",
      "type": "function"
    },
    {
      "inputs": [
        {
          "internalType": "uint8",
          "name": "rarity",
          "type": "uint8"
        }
      ],
      "name": "generateBooster",
      "outputs": [],
      "stateMutability": "payable",
      "type": "function"
    },
    {
      "inputs": [
        {
          "internalType": "uint256",
          "name": "id",
          "type": "uint256"
        }
      ],
      "name": "getCar",
      "outputs": [
        {
          "components": [
            {
              "internalType": "uint256",
              "name": "id",
              "type": "uint256"
            },
            {
              "internalType": "string",
              "name": "rarity",
              "type": "string"
            },
            {
              "internalType": "uint8",
              "name": "speed",
              "type": "uint8"
            },
            {
              "internalType": "uint8",
              "name": "acceleration",
              "type": "uint8"
            },
            {
              "internalType": "uint8",
              "name": "maniability",
              "type": "uint8"
            },
            {
              "internalType": "uint32",
              "name": "readyTime",
              "type": "uint32"
            }
          ],
          "internalType": "struct FCar.Car",
          "name": "",
          "type": "tuple"
        }
      ],
      "stateMutability": "view",
      "type": "function"
    },
    {
      "inputs": [],
      "name": "getUserCars",
      "outputs": [
        {
          "internalType": "uint256[]",
          "name": "",
          "type": "uint256[]"
        }
      ],
      "stateMutability": "view",
      "type": "function"
    },
    {
      "inputs": [],
      "name": "name",
      "outputs": [
        {
          "internalType": "string",
          "name": "",
          "type": "string"
        }
      ],
      "stateMutability": "view",
      "type": "function"
    },
    {
      "inputs": [],
      "name": "owner",
      "outputs": [
        {
          "internalType": "address",
          "name": "",
          "type": "address"
        }
      ],
      "stateMutability": "view",
      "type": "function"
    },
    {
      "inputs": [
        {
          "internalType": "uint256",
          "name": "id",
          "type": "uint256"
        }
      ],
      "name": "resetCooldown",
      "outputs": [],
      "stateMutability": "payable",
      "type": "function"
    },
    {
      "inputs": [],
      "name": "symbol",
      "outputs": [
        {
          "internalType": "string",
          "name": "",
          "type": "string"
        }
      ],
      "stateMutability": "view",
      "type": "function"
    },
    {
      "inputs": [],
      "name": "totalSupply",
      "outputs": [
        {
          "internalType": "uint256",
          "name": "",
          "type": "uint256"
        }
      ],
      "stateMutability": "view",
      "type": "function"
    },
    {
      "inputs": [
        {
          "internalType": "address",
          "name": "to",
          "type": "address"
        },
        {
          "internalType": "uint256",
          "name": "amount",
          "type": "uint256"
        }
      ],
      "name": "transfer",
      "outputs": [],
      "stateMutability": "nonpayable",
      "type": "function"
    }
  ],
  "bytecode": "0x6080604052600060055562015180600660006101000a81548163ffffffff021916908363ffffffff1602179055506040518060a0016040528061271061ffff1681526020016105dc61ffff16815260200160fa61ffff168152602001603261ffff168152602001600a61ffff16815250600790600562000081929190620001f1565b506040518060400160405280600c81526020017f462d5261636520546f6b656e000000000000000000000000000000000000000081525060089081620000c891906200053b565b506040518060400160405280600381526020017f4652540000000000000000000000000000000000000000000000000000000000815250600990816200010f91906200053b565b50620f4240600a553480156200012457600080fd5b50336000806101000a81548173ffffffffffffffffffffffffffffffffffffffff021916908373ffffffffffffffffffffffffffffffffffffffff160217905550600a54600b60003373ffffffffffffffffffffffffffffffffffffffff1673ffffffffffffffffffffffffffffffffffffffff16815260200190815260200160002081905550336000806101000a81548173ffffffffffffffffffffffffffffffffffffffff021916908373ffffffffffffffffffffffffffffffffffffffff16021790555062000622565b82805482825590600052602060002090600f016010900481019282156200028f5791602002820160005b838211156200025d57835183826101000a81548161ffff021916908361ffff16021790555092602001926002016020816001010492830192600103026200021b565b80156200028d5782816101000a81549061ffff02191690556002016020816001010492830192600103026200025d565b505b5090506200029e9190620002a2565b5090565b5b80821115620002bd576000816000905550600101620002a3565b5090565b600081519050919050565b7f4e487b7100000000000000000000000000000000000000000000000000000000600052604160045260246000fd5b7f4e487b7100000000000000000000000000000000000000000000000000000000600052602260045260246000fd5b600060028204905060018216806200034357607f821691505b602082108103620003595762000358620002fb565b5b50919050565b60008190508160005260206000209050919050565b60006020601f8301049050919050565b600082821b905092915050565b600060088302620003c37fffffffffffffffffffffffffffffffffffffffffffffffffffffffffffffffff8262000384565b620003cf868362000384565b95508019841693508086168417925050509392505050565b6000819050919050565b6000819050919050565b60006200041c620004166200041084620003e7565b620003f1565b620003e7565b9050919050565b6000819050919050565b6200043883620003fb565b62000450620004478262000423565b84845462000391565b825550505050565b600090565b6200046762000458565b620004748184846200042d565b505050565b5b818110156200049c57620004906000826200045d565b6001810190506200047a565b5050565b601f821115620004eb57620004b5816200035f565b620004c08462000374565b81016020851015620004d0578190505b620004e8620004df8562000374565b83018262000479565b50505b505050565b600082821c905092915050565b60006200051060001984600802620004f0565b1980831691505092915050565b60006200052b8383620004fd565b9150826002028217905092915050565b6200054682620002c1565b67ffffffffffffffff811115620005625762000561620002cc565b5b6200056e82546200032a565b6200057b828285620004a0565b600060209050601f831160018114620005b357600084156200059e578287015190505b620005aa85826200051d565b8655506200061a565b601f198416620005c3866200035f565b60005b82811015620005ed57848901518255600182019150602085019450602081019050620005c6565b868310156200060d578489015162000609601f891682620004fd565b8355505b6001600288020188555050505b505050505050565b612e8080620006326000396000f3fe60806040526004361061009c5760003560e01c80636b3830c6116100645780636b3830c61461018d57806370a08231146101a95780638da5cb5b146101e657806395d89b4114610211578063a9059cbb1461023c578063c27a399d146102655761009c565b806306fdde03146100a157806318160ddd146100cc5780631d609098146100f757806333ca504b146101135780635e8be19014610150575b600080fd5b3480156100ad57600080fd5b506100b6610290565b6040516100c391906120a6565b60405180910390f35b3480156100d857600080fd5b506100e161031e565b6040516100ee91906120e1565b60405180910390f35b610111600480360381019061010c919061213a565b610324565b005b34801561011f57600080fd5b5061013a60048036038101906101359190612193565b6104a7565b6040516101479190612201565b60405180910390f35b34801561015c57600080fd5b5061017760048036038101906101729190612193565b6104da565b604051610184919061232c565b60405180910390f35b6101a760048036038101906101a29190612193565b61062f565b005b3480156101b557600080fd5b506101d060048036038101906101cb919061237a565b610818565b6040516101dd91906120e1565b60405180910390f35b3480156101f257600080fd5b506101fb610861565b6040516102089190612201565b60405180910390f35b34801561021d57600080fd5b50610226610885565b60405161023391906120a6565b60405180910390f35b34801561024857600080fd5b50610263600480360381019061025e91906123a7565b610913565b005b34801561027157600080fd5b5061027a610ace565b6040516102879190612496565b60405180910390f35b6008805461029d906124e7565b80601f01602080910402602001604051908101604052809291908181526020018280546102c9906124e7565b80156103165780601f106102eb57610100808354040283529160200191610316565b820191906000526020600020905b8154815290600101906020018083116102f957829003601f168201915b505050505081565b600a5481565b600060078260ff168154811061033d5761033c612518565b5b90600052602060002090601091828204019190066002029054906101000a900461ffff1690508061ffff16600b60003373ffffffffffffffffffffffffffffffffffffffff1673ffffffffffffffffffffffffffffffffffffffff1681526020019081526020016000205410156103b357600080fd5b6103e6604051806060016040528060228152602001612de060229139336103dc8560ff16610b63565b8461ffff16610cb7565b8061ffff16600b60003373ffffffffffffffffffffffffffffffffffffffff1673ffffffffffffffffffffffffffffffffffffffff16815260200190815260200160002060008282546104399190612576565b925050819055508061ffff16600b60003073ffffffffffffffffffffffffffffffffffffffff1673ffffffffffffffffffffffffffffffffffffffff168152602001908152602001600020600082825461049391906125aa565b925050819055506104a382610d59565b5050565b60026020528060005260406000206000915054906101000a900473ffffffffffffffffffffffffffffffffffffffff1681565b6104e2611fa7565b600182815481106104f6576104f5612518565b5b90600052602060002090600302016040518060c001604052908160008201548152602001600182018054610529906124e7565b80601f0160208091040260200160405190810160405280929190818152602001828054610555906124e7565b80156105a25780601f10610577576101008083540402835291602001916105a2565b820191906000526020600020905b81548152906001019060200180831161058557829003601f168201915b505050505081526020016002820160009054906101000a900460ff1660ff1660ff1681526020016002820160019054906101000a900460ff1660ff1660ff1681526020016002820160029054906101000a900460ff1660ff1660ff1681526020016002820160039054906101000a900463ffffffff1663ffffffff1663ffffffff16815250509050919050565b600a600b60003373ffffffffffffffffffffffffffffffffffffffff1673ffffffffffffffffffffffffffffffffffffffff1681526020019081526020016000205410156106b2576040517f08c379a00000000000000000000000000000000000000000000000000000000081526004016106a99061262a565b60405180910390fd5b6106d7604051806060016040528060258152602001612e026025913933600a30610df5565b600a600b60003373ffffffffffffffffffffffffffffffffffffffff1673ffffffffffffffffffffffffffffffffffffffff16815260200190815260200160002060008282546107279190612576565b92505081905550600a600b60003073ffffffffffffffffffffffffffffffffffffffff1673ffffffffffffffffffffffffffffffffffffffff168152602001908152602001600020600082825461077e91906125aa565b9250508190555061078f8133610e97565b60008054906101000a900473ffffffffffffffffffffffffffffffffffffffff1673ffffffffffffffffffffffffffffffffffffffff163373ffffffffffffffffffffffffffffffffffffffff167fddf252ad1be2c89b69c2b068fc378daa952ba7f163c4a11628f55a4df523b3ef600a60405161080d919061268f565b60405180910390a350565b6000600b60008373ffffffffffffffffffffffffffffffffffffffff1673ffffffffffffffffffffffffffffffffffffffff168152602001908152602001600020549050919050565b60008054906101000a900473ffffffffffffffffffffffffffffffffffffffff1681565b60098054610892906124e7565b80601f01602080910402602001604051908101604052809291908181526020018280546108be906124e7565b801561090b5780601f106108e05761010080835404028352916020019161090b565b820191906000526020600020905b8154815290600101906020018083116108ee57829003601f168201915b505050505081565b80600b60003373ffffffffffffffffffffffffffffffffffffffff1673ffffffffffffffffffffffffffffffffffffffff168152602001908152602001600020541015610995576040517f08c379a000000000000000000000000000000000000000000000000000000000815260040161098c9061262a565b60405180910390fd5b6109b9604051806060016040528060248152602001612e2760249139338484610fd0565b80600b60003373ffffffffffffffffffffffffffffffffffffffff1673ffffffffffffffffffffffffffffffffffffffff1681526020019081526020016000206000828254610a089190612576565b9250508190555080600b60008473ffffffffffffffffffffffffffffffffffffffff1673ffffffffffffffffffffffffffffffffffffffff1681526020019081526020016000206000828254610a5e91906125aa565b925050819055508173ffffffffffffffffffffffffffffffffffffffff163373ffffffffffffffffffffffffffffffffffffffff167fddf252ad1be2c89b69c2b068fc378daa952ba7f163c4a11628f55a4df523b3ef83604051610ac291906120e1565b60405180910390a35050565b6060600460003373ffffffffffffffffffffffffffffffffffffffff1673ffffffffffffffffffffffffffffffffffffffff168152602001908152602001600020805480602002602001604051908101604052809291908181526020018280548015610b5957602002820191906000526020600020905b815481526020019060010190808311610b45575b5050505050905090565b606060008203610baa576040518060400160405280600781526020017f506c6174696e65000000000000000000000000000000000000000000000000008152509050610cb2565b60018203610bef576040518060400160405280600481526020017f476f6c64000000000000000000000000000000000000000000000000000000008152509050610cb2565b60028203610c34576040518060400160405280600681526020017f53696c76657200000000000000000000000000000000000000000000000000008152509050610cb2565b60038203610c79576040518060400160405280600681526020017f42726f6e7a6500000000000000000000000000000000000000000000000000008152509050610cb2565b6040518060400160405280600781526020017f436c61737369630000000000000000000000000000000000000000000000000081525090505b919050565b610d5384848484604051602401610cd194939291906126aa565b6040516020818303038152906040527f91d1112e000000000000000000000000000000000000000000000000000000007bffffffffffffffffffffffffffffffffffffffffffffffffffffffff19166020820180517bffffffffffffffffffffffffffffffffffffffffffffffffffffffff8381831617835250505050611072565b50505050565b60008160ff1610158015610d71575060048160ff1611155b610db0576040517f08c379a0000000000000000000000000000000000000000000000000000000008152600401610da790612749565b60405180910390fd5b610dc5600282610dc09190612769565b61109b565b60005b60048160ff161015610df157610dde600061109b565b8080610de99061279e565b915050610dc8565b5050565b610e9184848484604051602401610e0f94939291906127c7565b6040516020818303038152906040527f63fb8bc5000000000000000000000000000000000000000000000000000000007bffffffffffffffffffffffffffffffffffffffffffffffffffffffff19166020820180517bffffffffffffffffffffffffffffffffffffffffffffffffffffffff8381831617835250505050611072565b50505050565b8073ffffffffffffffffffffffffffffffffffffffff166002600084815260200190815260200160002060009054906101000a900473ffffffffffffffffffffffffffffffffffffffff1673ffffffffffffffffffffffffffffffffffffffff1614610f38576040517f08c379a0000000000000000000000000000000000000000000000000000000008152600401610f2f9061285f565b60405180910390fd5b600142610f4591906125aa565b60018381548110610f5957610f58612518565b5b906000526020600020906003020160020160036101000a81548163ffffffff021916908363ffffffff160217905550818173ffffffffffffffffffffffffffffffffffffffff167f1e20cfa0dd7c11d3ad3d1737fe9ae16a0cacf7da2ac0388b19636e1db3c0eeff60405160405180910390a35050565b61106c84848484604051602401610fea949392919061287f565b6040516020818303038152906040527f8ef3f399000000000000000000000000000000000000000000000000000000007bffffffffffffffffffffffffffffffffffffffffffffffffffffffff19166020820180517bffffffffffffffffffffffffffffffffffffffffffffffffffffffff8381831617835250505050611072565b50505050565b60008151905060006a636f6e736f6c652e6c6f679050602083016000808483855afa5050505050565b60008160ff16101580156110b3575060068160ff1611155b6110f2576040517f08c379a00000000000000000000000000000000000000000000000000000000081526004016110e990612917565b60405180910390fd5b60006110fc611530565b90506000600660009054906101000a900463ffffffff1663ffffffff164261112491906125aa565b905060006111326003611545565b905060008167ffffffffffffffff8111156111505761114f612937565b5b60405190808252806020026020018201604052801561117e5781602001602082028036833780820191505090505b50905060005b828110156111dd5760005b6111996003611545565b90506111a583826115a1565b61118f57808383815181106111bd576111bc612518565b5b6020026020010181815250505080806111d590612966565b915050611184565b5060606111e8611fec565b6000808860ff160361120a57620f42408761120391906129dd565b905061128a565b60018860ff160361121e5760019050611289565b60028860ff1603611233576101f49050611288565b60038860ff1603611248576113889050611287565b60048860ff160361125d57614e209050611286565b60058860ff1603611272576175309050611285565b60068860ff160361128457620186a090505b5b5b5b5b5b5b611293816115fc565b92506112a0878286611799565b91506000600180549050905060016040518060c00160405280838152602001868152602001856000015160ff168152602001856020015160ff168152602001856040015160ff1681526020018963ffffffff16815250908060018154018082558091505060019003906000526020600020906003020160009091909190915060008201518160000155602082015181600101908161133e9190612bb0565b5060408201518160020160006101000a81548160ff021916908360ff16021790555060608201518160020160016101000a81548160ff021916908360ff16021790555060808201518160020160026101000a81548160ff021916908360ff16021790555060a08201518160020160036101000a81548163ffffffff021916908363ffffffff1602179055505050336002600083815260200190815260200160002060006101000a81548173ffffffffffffffffffffffffffffffffffffffff021916908373ffffffffffffffffffffffffffffffffffffffff160217905550600360003373ffffffffffffffffffffffffffffffffffffffff1673ffffffffffffffffffffffffffffffffffffffff168152602001908152602001600020600081548092919061146d90612966565b9190505550600460003373ffffffffffffffffffffffffffffffffffffffff1673ffffffffffffffffffffffffffffffffffffffff1681526020019081526020016000208190806001815401808255809150506001900390600052602060002001600090919091909150557f68f1b0c6421768ff2feaa94447c09d83abf4adc2aaa08dc350d7a87ce0a7e87a81858560000151866020015187604001518c60405161151d96959493929190612ca0565b60405180910390a1505050505050505050565b600061154064174876e800611545565b905090565b60006005600081548092919061155a90612966565b919050555081423360055460405160200161157793929190612d71565b6040516020818303038152906040528051906020012060001c61159a9190612dae565b9050919050565b600080600090505b83518110156115f057828482815181106115c6576115c5612518565b5b6020026020010151036115dd5760019150506115f6565b80806115e890612966565b9150506115a9565b50600090505b92915050565b606060018211611643576040518060400160405280600581526020017f52656c69630000000000000000000000000000000000000000000000000000008152509050611794565b6101f48211611689576040518060400160405280600981526020017f4c6567656e6461727900000000000000000000000000000000000000000000008152509050611794565b61138882116116cf576040518060400160405280600681526020017f4d797468696300000000000000000000000000000000000000000000000000008152509050611794565b614e208211611715576040518060400160405280600481526020017f52617265000000000000000000000000000000000000000000000000000000008152509050611794565b617530821161175b576040518060400160405280600881526020017f556e636f6d6d6f6e0000000000000000000000000000000000000000000000008152509050611794565b6040518060400160405280600681526020017f436f6d6d6f6e000000000000000000000000000000000000000000000000000081525090505b919050565b6117a1611fec565b6117a9611fec565b600184116117df576040518060600160405280606460ff168152602001606460ff168152602001606460ff168152509050611f9c565b6101f4841161196d576117f38360006115a1565b61182e57601460646127108761180991906129dd565b6118139190612dae565b61181d9190612dae565b605061182991906125aa565b611861565b600a60646127108761184091906129dd565b61184a9190612dae565b6118549190612dae565b605a61186091906125aa565b5b816000019060ff16908160ff168152505061187d8360016115a1565b6118b65760146064808761189191906129dd565b61189b9190612dae565b6118a59190612dae565b60506118b191906125aa565b6118e7565b600a606480876118c691906129dd565b6118d09190612dae565b6118da9190612dae565b605a6118e691906125aa565b5b816020019060ff16908160ff16815250506119038360026115a1565b6119315760146064866119169190612dae565b6119209190612dae565b605061192c91906125aa565b611957565b600a6064866119409190612dae565b61194a9190612dae565b605a61195691906125aa565b5b816040019060ff16908160ff1681525050611f9b565b6113888411611afb576119818360006115a1565b6119bc57601960646127108761199791906129dd565b6119a19190612dae565b6119ab9190612dae565b60416119b791906125aa565b6119ef565b600a6064612710876119ce91906129dd565b6119d89190612dae565b6119e29190612dae565b60506119ee91906125aa565b5b816000019060ff16908160ff1681525050611a0b8360016115a1565b611a4457601960648087611a1f91906129dd565b611a299190612dae565b611a339190612dae565b6041611a3f91906125aa565b611a75565b600a60648087611a5491906129dd565b611a5e9190612dae565b611a689190612dae565b6050611a7491906125aa565b5b816020019060ff16908160ff1681525050611a918360026115a1565b611abf576019606486611aa49190612dae565b611aae9190612dae565b6041611aba91906125aa565b611ae5565b600a606486611ace9190612dae565b611ad89190612dae565b6050611ae491906125aa565b5b816040019060ff16908160ff1681525050611f9a565b614e208411611c8957611b0f8360006115a1565b611b4a57601e606461271087611b2591906129dd565b611b2f9190612dae565b611b399190612dae565b6032611b4591906125aa565b611b7d565b600f606461271087611b5c91906129dd565b611b669190612dae565b611b709190612dae565b6041611b7c91906125aa565b5b816000019060ff16908160ff1681525050611b998360016115a1565b611bd257601e60648087611bad91906129dd565b611bb79190612dae565b611bc19190612dae565b6032611bcd91906125aa565b611c03565b600f60648087611be291906129dd565b611bec9190612dae565b611bf69190612dae565b6041611c0291906125aa565b5b816020019060ff16908160ff1681525050611c1f8360026115a1565b611c4d57601e606486611c329190612dae565b611c3c9190612dae565b6032611c4891906125aa565b611c73565b600f606486611c5c9190612dae565b611c669190612dae565b6041611c7291906125aa565b5b816040019060ff16908160ff1681525050611f99565b6175308411611e1757611c9d8360006115a1565b611cd8576014606461271087611cb391906129dd565b611cbd9190612dae565b611cc79190612dae565b601e611cd391906125aa565b611d0b565b600f606461271087611cea91906129dd565b611cf49190612dae565b611cfe9190612dae565b6032611d0a91906125aa565b5b816000019060ff16908160ff1681525050611d278360016115a1565b611d6057601460648087611d3b91906129dd565b611d459190612dae565b611d4f9190612dae565b601e611d5b91906125aa565b611d91565b600f60648087611d7091906129dd565b611d7a9190612dae565b611d849190612dae565b6032611d9091906125aa565b5b816020019060ff16908160ff1681525050611dad8360026115a1565b611ddb576014606486611dc09190612dae565b611dca9190612dae565b601e611dd691906125aa565b611e01565b600f606486611dea9190612dae565b611df49190612dae565b6032611e0091906125aa565b5b816040019060ff16908160ff1681525050611f98565b611e228360006115a1565b611e5d57600a606461271087611e3891906129dd565b611e429190612dae565b611e4c9190612dae565b6014611e5891906125aa565b611e90565b6005606461271087611e6f91906129dd565b611e799190612dae565b611e839190612dae565b601e611e8f91906125aa565b5b816000019060ff16908160ff1681525050611eac8360016115a1565b611ee557600a60648087611ec091906129dd565b611eca9190612dae565b611ed49190612dae565b6014611ee091906125aa565b611f16565b600560648087611ef591906129dd565b611eff9190612dae565b611f099190612dae565b601e611f1591906125aa565b5b816020019060ff16908160ff1681525050611f328360026115a1565b611f6057600a606486611f459190612dae565b611f4f9190612dae565b6014611f5b91906125aa565b611f86565b6005606486611f6f9190612dae565b611f799190612dae565b601e611f8591906125aa565b5b816040019060ff16908160ff16815250505b5b5b5b5b809150509392505050565b6040518060c001604052806000815260200160608152602001600060ff168152602001600060ff168152602001600060ff168152602001600063ffffffff1681525090565b6040518060600160405280600060ff168152602001600060ff168152602001600060ff1681525090565b600081519050919050565b600082825260208201905092915050565b60005b83811015612050578082015181840152602081019050612035565b60008484015250505050565b6000601f19601f8301169050919050565b600061207882612016565b6120828185612021565b9350612092818560208601612032565b61209b8161205c565b840191505092915050565b600060208201905081810360008301526120c0818461206d565b905092915050565b6000819050919050565b6120db816120c8565b82525050565b60006020820190506120f660008301846120d2565b92915050565b600080fd5b600060ff82169050919050565b61211781612101565b811461212257600080fd5b50565b6000813590506121348161210e565b92915050565b6000602082840312156121505761214f6120fc565b5b600061215e84828501612125565b91505092915050565b612170816120c8565b811461217b57600080fd5b50565b60008135905061218d81612167565b92915050565b6000602082840312156121a9576121a86120fc565b5b60006121b78482850161217e565b91505092915050565b600073ffffffffffffffffffffffffffffffffffffffff82169050919050565b60006121eb826121c0565b9050919050565b6121fb816121e0565b82525050565b600060208201905061221660008301846121f2565b92915050565b612225816120c8565b82525050565b600082825260208201905092915050565b600061224782612016565b612251818561222b565b9350612261818560208601612032565b61226a8161205c565b840191505092915050565b61227e81612101565b82525050565b600063ffffffff82169050919050565b61229d81612284565b82525050565b600060c0830160008301516122bb600086018261221c565b50602083015184820360208601526122d3828261223c565b91505060408301516122e86040860182612275565b5060608301516122fb6060860182612275565b50608083015161230e6080860182612275565b5060a083015161232160a0860182612294565b508091505092915050565b6000602082019050818103600083015261234681846122a3565b905092915050565b612357816121e0565b811461236257600080fd5b50565b6000813590506123748161234e565b92915050565b6000602082840312156123905761238f6120fc565b5b600061239e84828501612365565b91505092915050565b600080604083850312156123be576123bd6120fc565b5b60006123cc85828601612365565b92505060206123dd8582860161217e565b9150509250929050565b600081519050919050565b600082825260208201905092915050565b6000819050602082019050919050565b600061241f838361221c565b60208301905092915050565b6000602082019050919050565b6000612443826123e7565b61244d81856123f2565b935061245883612403565b8060005b838110156124895781516124708882612413565b975061247b8361242b565b92505060018101905061245c565b5085935050505092915050565b600060208201905081810360008301526124b08184612438565b905092915050565b7f4e487b7100000000000000000000000000000000000000000000000000000000600052602260045260246000fd5b600060028204905060018216806124ff57607f821691505b602082108103612512576125116124b8565b5b50919050565b7f4e487b7100000000000000000000000000000000000000000000000000000000600052603260045260246000fd5b7f4e487b7100000000000000000000000000000000000000000000000000000000600052601160045260246000fd5b6000612581826120c8565b915061258c836120c8565b92508282039050818111156125a4576125a3612547565b5b92915050565b60006125b5826120c8565b91506125c0836120c8565b92508282019050808211156125d8576125d7612547565b5b92915050565b7f4e6f7420656e6f75676820746f6b656e73000000000000000000000000000000600082015250565b6000612614601183612021565b915061261f826125de565b602082019050919050565b6000602082019050818103600083015261264381612607565b9050919050565b6000819050919050565b6000819050919050565b600061267961267461266f8461264a565b612654565b6120c8565b9050919050565b6126898161265e565b82525050565b60006020820190506126a46000830184612680565b92915050565b600060808201905081810360008301526126c4818761206d565b90506126d360208301866121f2565b81810360408301526126e5818561206d565b90506126f460608301846120d2565b95945050505050565b7f496e76616c696420626f6f737465722074797065000000000000000000000000600082015250565b6000612733601483612021565b915061273e826126fd565b602082019050919050565b6000602082019050818103600083015261276281612726565b9050919050565b600061277482612101565b915061277f83612101565b9250828201905060ff81111561279857612797612547565b5b92915050565b60006127a982612101565b915060ff82036127bc576127bb612547565b5b600182019050919050565b600060808201905081810360008301526127e1818761206d565b90506127f060208301866121f2565b6127fd60408301856120d2565b61280a60608301846121f2565b95945050505050565b7f55736572206e6f74206f776e6572206f66207468697320636172000000000000600082015250565b6000612849601a83612021565b915061285482612813565b602082019050919050565b600060208201905081810360008301526128788161283c565b9050919050565b60006080820190508181036000830152612899818761206d565b90506128a860208301866121f2565b6128b560408301856121f2565b6128c260608301846120d2565b95945050505050565b7f496e76616c696420726172697479000000000000000000000000000000000000600082015250565b6000612901600e83612021565b915061290c826128cb565b602082019050919050565b60006020820190508181036000830152612930816128f4565b9050919050565b7f4e487b7100000000000000000000000000000000000000000000000000000000600052604160045260246000fd5b6000612971826120c8565b91507fffffffffffffffffffffffffffffffffffffffffffffffffffffffffffffffff82036129a3576129a2612547565b5b600182019050919050565b7f4e487b7100000000000000000000000000000000000000000000000000000000600052601260045260246000fd5b60006129e8826120c8565b91506129f3836120c8565b925082612a0357612a026129ae565b5b828204905092915050565b60008190508160005260206000209050919050565b60006020601f8301049050919050565b600082821b905092915050565b600060088302612a707fffffffffffffffffffffffffffffffffffffffffffffffffffffffffffffffff82612a33565b612a7a8683612a33565b95508019841693508086168417925050509392505050565b6000612aad612aa8612aa3846120c8565b612654565b6120c8565b9050919050565b6000819050919050565b612ac783612a92565b612adb612ad382612ab4565b848454612a40565b825550505050565b600090565b612af0612ae3565b612afb818484612abe565b505050565b5b81811015612b1f57612b14600082612ae8565b600181019050612b01565b5050565b601f821115612b6457612b3581612a0e565b612b3e84612a23565b81016020851015612b4d578190505b612b61612b5985612a23565b830182612b00565b50505b505050565b600082821c905092915050565b6000612b8760001984600802612b69565b1980831691505092915050565b6000612ba08383612b76565b9150826002028217905092915050565b612bb982612016565b67ffffffffffffffff811115612bd257612bd1612937565b5b612bdc82546124e7565b612be7828285612b23565b600060209050601f831160018114612c1a5760008415612c08578287015190505b612c128582612b94565b865550612c7a565b601f198416612c2886612a0e565b60005b82811015612c5057848901518255600182019150602085019450602081019050612c2b565b86831015612c6d5784890151612c69601f891682612b76565b8355505b6001600288020188555050505b505050505050565b612c8b81612101565b82525050565b612c9a81612284565b82525050565b600060c082019050612cb560008301896120d2565b8181036020830152612cc7818861206d565b9050612cd66040830187612c82565b612ce36060830186612c82565b612cf06080830185612c82565b612cfd60a0830184612c91565b979650505050505050565b6000819050919050565b612d23612d1e826120c8565b612d08565b82525050565b60008160601b9050919050565b6000612d4182612d29565b9050919050565b6000612d5382612d36565b9050919050565b612d6b612d66826121e0565b612d48565b82525050565b6000612d7d8286612d12565b602082019150612d8d8285612d5a565b601482019150612d9d8284612d12565b602082019150819050949350505050565b6000612db9826120c8565b9150612dc4836120c8565b925082612dd457612dd36129ae565b5b82820690509291505056fe257320627579696e6720257320626f6f7374657220666f7220257320746f6b656e73257320627579696e6720636f6f6c646f776e20666f7220257320746f6b656e7320282573295472616e7366657272696e672066726f6d20257320746f20257320257320746f6b656e73a2646970667358221220a4ad4e8bd4d5927dba9d90b530baee9e7adea6b08c050a8c19a43ec1ea8fe46064736f6c63430008120033",
  "linkReferences": {},
  "deployedLinkReferences": {}
}