{
  "_format": "hh-sol-artifact-1",
  "contractName": "FToken",
  "sourceName": "contracts/FToken.sol",
  "abi": [
    {
      "inputs": [],
      "stateMutability": "nonpayable",
      "type": "constructor"
    },
    {
      "anonymous": false,
      "inputs": [
        {
          "indexed": false,
          "internalType": "uint256",
          "name": "id",
          "type": "uint256"
        },
        {
          "indexed": false,
          "internalType": "string",
          "name": "s_rarity",
          "type": "string"
        },
        {
          "indexed": false,
          "internalType": "uint8",
          "name": "speed",
          "type": "uint8"
        },
        {
          "indexed": false,
          "internalType": "uint8",
          "name": "acceleration",
          "type": "uint8"
        },
        {
          "indexed": false,
          "internalType": "uint8",
          "name": "maniability",
          "type": "uint8"
        },
        {
          "indexed": false,
          "internalType": "uint32",
          "name": "readyTime",
          "type": "uint32"
        }
      ],
      "name": "NewCar",
      "type": "event"
    },
    {
      "anonymous": false,
      "inputs": [
        {
          "indexed": true,
          "internalType": "address",
          "name": "_user",
          "type": "address"
        },
        {
          "indexed": true,
          "internalType": "uint256",
          "name": "_car",
          "type": "uint256"
        }
      ],
      "name": "ResetCooldown",
      "type": "event"
    },
    {
      "anonymous": false,
      "inputs": [
        {
          "indexed": true,
          "internalType": "address",
          "name": "_from",
          "type": "address"
        },
        {
          "indexed": true,
          "internalType": "address",
          "name": "_to",
          "type": "address"
        },
        {
          "indexed": false,
          "internalType": "uint256",
          "name": "_value",
          "type": "uint256"
        }
      ],
      "name": "Transfer",
      "type": "event"
    },
    {
      "inputs": [],
      "name": "RATE",
      "outputs": [
        {
          "internalType": "uint256",
          "name": "",
          "type": "uint256"
        }
      ],
      "stateMutability": "view",
      "type": "function"
    },
    {
      "inputs": [
        {
          "internalType": "address",
          "name": "account",
          "type": "address"
        }
      ],
      "name": "balanceOf",
      "outputs": [
        {
          "internalType": "uint256",
          "name": "",
          "type": "uint256"
        }
      ],
      "stateMutability": "view",
      "type": "function"
    },
    {
      "inputs": [
        {
          "internalType": "uint256",
          "name": "",
          "type": "uint256"
        }
      ],
      "name": "carToOwner",
      "outputs": [
        {
          "internalType": "address",
          "name": "",
          "type": "address"
        }
      ],
      "stateMutability": "view",
      "type": "function"
    },
    {
      "inputs": [
        {
          "internalType": "uint8",
          "name": "rarity",
          "type": "uint8"
        }
      ],
      "name": "generateBooster",
      "outputs": [],
      "stateMutability": "payable",
      "type": "function"
    },
    {
      "inputs": [
        {
          "internalType": "uint256",
          "name": "id",
          "type": "uint256"
        }
      ],
      "name": "getCar",
      "outputs": [
        {
          "components": [
            {
              "internalType": "uint256",
              "name": "id",
              "type": "uint256"
            },
            {
              "internalType": "string",
              "name": "rarity",
              "type": "string"
            },
            {
              "internalType": "uint8",
              "name": "speed",
              "type": "uint8"
            },
            {
              "internalType": "uint8",
              "name": "acceleration",
              "type": "uint8"
            },
            {
              "internalType": "uint8",
              "name": "maniability",
              "type": "uint8"
            },
            {
              "internalType": "uint32",
              "name": "readyTime",
              "type": "uint32"
            }
          ],
          "internalType": "struct FCar.Car",
          "name": "",
          "type": "tuple"
        }
      ],
      "stateMutability": "view",
      "type": "function"
    },
    {
      "inputs": [],
      "name": "getUserCars",
      "outputs": [
        {
          "internalType": "uint256[]",
          "name": "",
          "type": "uint256[]"
        }
      ],
      "stateMutability": "view",
      "type": "function"
    },
    {
      "inputs": [],
      "name": "buyToken",
      "outputs": [],
      "stateMutability": "payable",
      "type": "function"
    },
    {
      "inputs": [],
      "name": "name",
      "outputs": [
        {
          "internalType": "string",
          "name": "",
          "type": "string"
        }
      ],
      "stateMutability": "view",
      "type": "function"
    },
    {
      "inputs": [],
      "name": "owner",
      "outputs": [
        {
          "internalType": "address",
          "name": "",
          "type": "address"
        }
      ],
      "stateMutability": "view",
      "type": "function"
    },
    {
      "inputs": [
        {
          "internalType": "uint256",
          "name": "id",
          "type": "uint256"
        }
      ],
      "name": "resetCooldown",
      "outputs": [],
      "stateMutability": "payable",
      "type": "function"
    },
    {
      "inputs": [],
      "name": "symbol",
      "outputs": [
        {
          "internalType": "string",
          "name": "",
          "type": "string"
        }
      ],
      "stateMutability": "view",
      "type": "function"
    },
    {
      "inputs": [],
      "name": "totalSupply",
      "outputs": [
        {
          "internalType": "uint256",
          "name": "",
          "type": "uint256"
        }
      ],
      "stateMutability": "view",
      "type": "function"
    },
    {
      "inputs": [
        {
          "internalType": "address",
          "name": "to",
          "type": "address"
        },
        {
          "internalType": "uint256",
          "name": "amount",
          "type": "uint256"
        }
      ],
      "name": "transfer",
      "outputs": [],
      "stateMutability": "nonpayable",
      "type": "function"
    }
  ],
  "bytecode": "0x6080604052600060055562015180600660006101000a81548163ffffffff021916908363ffffffff1602179055506040518060a0016040528061271061ffff1681526020016105dc61ffff16815260200160fa61ffff168152602001603261ffff168152602001600a61ffff16815250600790600562000081929190620001f1565b506040518060400160405280600c81526020017f462d5261636520546f6b656e000000000000000000000000000000000000000081525060089081620000c891906200053b565b506040518060400160405280600381526020017f4652540000000000000000000000000000000000000000000000000000000000815250600990816200010f91906200053b565b50620f4240600a553480156200012457600080fd5b50336000806101000a81548173ffffffffffffffffffffffffffffffffffffffff021916908373ffffffffffffffffffffffffffffffffffffffff160217905550600a54600b60003373ffffffffffffffffffffffffffffffffffffffff1673ffffffffffffffffffffffffffffffffffffffff16815260200190815260200160002081905550336000806101000a81548173ffffffffffffffffffffffffffffffffffffffff021916908373ffffffffffffffffffffffffffffffffffffffff16021790555062000622565b82805482825590600052602060002090600f016010900481019282156200028f5791602002820160005b838211156200025d57835183826101000a81548161ffff021916908361ffff16021790555092602001926002016020816001010492830192600103026200021b565b80156200028d5782816101000a81549061ffff02191690556002016020816001010492830192600103026200025d565b505b5090506200029e9190620002a2565b5090565b5b80821115620002bd576000816000905550600101620002a3565b5090565b600081519050919050565b7f4e487b7100000000000000000000000000000000000000000000000000000000600052604160045260246000fd5b7f4e487b7100000000000000000000000000000000000000000000000000000000600052602260045260246000fd5b600060028204905060018216806200034357607f821691505b602082108103620003595762000358620002fb565b5b50919050565b60008190508160005260206000209050919050565b60006020601f8301049050919050565b600082821b905092915050565b600060088302620003c37fffffffffffffffffffffffffffffffffffffffffffffffffffffffffffffffff8262000384565b620003cf868362000384565b95508019841693508086168417925050509392505050565b6000819050919050565b6000819050919050565b60006200041c620004166200041084620003e7565b620003f1565b620003e7565b9050919050565b6000819050919050565b6200043883620003fb565b62000450620004478262000423565b84845462000391565b825550505050565b600090565b6200046762000458565b620004748184846200042d565b505050565b5b818110156200049c57620004906000826200045d565b6001810190506200047a565b5050565b601f821115620004eb57620004b5816200035f565b620004c08462000374565b81016020851015620004d0578190505b620004e8620004df8562000374565b83018262000479565b50505b505050565b600082821c905092915050565b60006200051060001984600802620004f0565b1980831691505092915050565b60006200052b8383620004fd565b9150826002028217905092915050565b6200054682620002c1565b67ffffffffffffffff811115620005625762000561620002cc565b5b6200056e82546200032a565b6200057b828285620004a0565b600060209050601f831160018114620005b357600084156200059e578287015190505b620005aa85826200051d565b8655506200061a565b601f198416620005c3866200035f565b60005b82811015620005ed57848901518255600182019150602085019450602081019050620005c6565b868310156200060d578489015162000609601f891682620004fd565b8355505b6001600288020188555050505b505050505050565b612e7880620006326000396000f3fe60806040526004361061009c5760003560e01c80636b3830c6116100645780636b3830c61461018d57806370a08231146101a95780638da5cb5b146101e657806395d89b4114610211578063a9059cbb1461023c578063c27a399d146102655761009c565b806306fdde03146100a157806318160ddd146100cc5780631d609098146100f757806333ca504b146101135780635e8be19014610150575b600080fd5b3480156100ad57600080fd5b506100b6610290565b6040516100c3919061209e565b60405180910390f35b3480156100d857600080fd5b506100e161031e565b6040516100ee91906120d9565b60405180910390f35b610111600480360381019061010c9190612132565b610324565b005b34801561011f57600080fd5b5061013a6004803603810190610135919061218b565b6104a7565b60405161014791906121f9565b60405180910390f35b34801561015c57600080fd5b506101776004803603810190610172919061218b565b6104da565b6040516101849190612324565b60405180910390f35b6101a760048036038101906101a2919061218b565b61062f565b005b3480156101b557600080fd5b506101d060048036038101906101cb9190612372565b610818565b6040516101dd91906120d9565b60405180910390f35b3480156101f257600080fd5b506101fb610861565b60405161020891906121f9565b60405180910390f35b34801561021d57600080fd5b50610226610885565b604051610233919061209e565b60405180910390f35b34801561024857600080fd5b50610263600480360381019061025e919061239f565b610913565b005b34801561027157600080fd5b5061027a610ace565b604051610287919061248e565b60405180910390f35b6008805461029d906124df565b80601f01602080910402602001604051908101604052809291908181526020018280546102c9906124df565b80156103165780601f106102eb57610100808354040283529160200191610316565b820191906000526020600020905b8154815290600101906020018083116102f957829003601f168201915b505050505081565b600a5481565b600060078260ff168154811061033d5761033c612510565b5b90600052602060002090601091828204019190066002029054906101000a900461ffff1690508061ffff16600b60003373ffffffffffffffffffffffffffffffffffffffff1673ffffffffffffffffffffffffffffffffffffffff1681526020019081526020016000205410156103b357600080fd5b6103e6604051806060016040528060228152602001612dd860229139336103dc8560ff16610b63565b8461ffff16610cb7565b8061ffff16600b60003373ffffffffffffffffffffffffffffffffffffffff1673ffffffffffffffffffffffffffffffffffffffff1681526020019081526020016000206000828254610439919061256e565b925050819055508061ffff16600b60003073ffffffffffffffffffffffffffffffffffffffff1673ffffffffffffffffffffffffffffffffffffffff168152602001908152602001600020600082825461049391906125a2565b925050819055506104a382610d59565b5050565b60026020528060005260406000206000915054906101000a900473ffffffffffffffffffffffffffffffffffffffff1681565b6104e2611f9f565b600182815481106104f6576104f5612510565b5b90600052602060002090600302016040518060c001604052908160008201548152602001600182018054610529906124df565b80601f0160208091040260200160405190810160405280929190818152602001828054610555906124df565b80156105a25780601f10610577576101008083540402835291602001916105a2565b820191906000526020600020905b81548152906001019060200180831161058557829003601f168201915b505050505081526020016002820160009054906101000a900460ff1660ff1660ff1681526020016002820160019054906101000a900460ff1660ff1660ff1681526020016002820160029054906101000a900460ff1660ff1660ff1681526020016002820160039054906101000a900463ffffffff1663ffffffff1663ffffffff16815250509050919050565b600a600b60003373ffffffffffffffffffffffffffffffffffffffff1673ffffffffffffffffffffffffffffffffffffffff1681526020019081526020016000205410156106b2576040517f08c379a00000000000000000000000000000000000000000000000000000000081526004016106a990612622565b60405180910390fd5b6106d7604051806060016040528060258152602001612dfa6025913933600a30610df5565b600a600b60003373ffffffffffffffffffffffffffffffffffffffff1673ffffffffffffffffffffffffffffffffffffffff1681526020019081526020016000206000828254610727919061256e565b92505081905550600a600b60003073ffffffffffffffffffffffffffffffffffffffff1673ffffffffffffffffffffffffffffffffffffffff168152602001908152602001600020600082825461077e91906125a2565b9250508190555061078f8133610e97565b60008054906101000a900473ffffffffffffffffffffffffffffffffffffffff1673ffffffffffffffffffffffffffffffffffffffff163373ffffffffffffffffffffffffffffffffffffffff167fddf252ad1be2c89b69c2b068fc378daa952ba7f163c4a11628f55a4df523b3ef600a60405161080d9190612687565b60405180910390a350565b6000600b60008373ffffffffffffffffffffffffffffffffffffffff1673ffffffffffffffffffffffffffffffffffffffff168152602001908152602001600020549050919050565b60008054906101000a900473ffffffffffffffffffffffffffffffffffffffff1681565b60098054610892906124df565b80601f01602080910402602001604051908101604052809291908181526020018280546108be906124df565b801561090b5780601f106108e05761010080835404028352916020019161090b565b820191906000526020600020905b8154815290600101906020018083116108ee57829003601f168201915b505050505081565b80600b60003373ffffffffffffffffffffffffffffffffffffffff1673ffffffffffffffffffffffffffffffffffffffff168152602001908152602001600020541015610995576040517f08c379a000000000000000000000000000000000000000000000000000000000815260040161098c90612622565b60405180910390fd5b6109b9604051806060016040528060248152602001612e1f60249139338484610fd0565b80600b60003373ffffffffffffffffffffffffffffffffffffffff1673ffffffffffffffffffffffffffffffffffffffff1681526020019081526020016000206000828254610a08919061256e565b9250508190555080600b60008473ffffffffffffffffffffffffffffffffffffffff1673ffffffffffffffffffffffffffffffffffffffff1681526020019081526020016000206000828254610a5e91906125a2565b925050819055508173ffffffffffffffffffffffffffffffffffffffff163373ffffffffffffffffffffffffffffffffffffffff167fddf252ad1be2c89b69c2b068fc378daa952ba7f163c4a11628f55a4df523b3ef83604051610ac291906120d9565b60405180910390a35050565b6060600460003373ffffffffffffffffffffffffffffffffffffffff1673ffffffffffffffffffffffffffffffffffffffff168152602001908152602001600020805480602002602001604051908101604052809291908181526020018280548015610b5957602002820191906000526020600020905b815481526020019060010190808311610b45575b5050505050905090565b606060008203610baa576040518060400160405280600781526020017f506c6174696e65000000000000000000000000000000000000000000000000008152509050610cb2565b60018203610bef576040518060400160405280600481526020017f476f6c64000000000000000000000000000000000000000000000000000000008152509050610cb2565b60028203610c34576040518060400160405280600681526020017f53696c76657200000000000000000000000000000000000000000000000000008152509050610cb2565b60038203610c79576040518060400160405280600681526020017f42726f6e7a6500000000000000000000000000000000000000000000000000008152509050610cb2565b6040518060400160405280600781526020017f436c61737369630000000000000000000000000000000000000000000000000081525090505b919050565b610d5384848484604051602401610cd194939291906126a2565b6040516020818303038152906040527f91d1112e000000000000000000000000000000000000000000000000000000007bffffffffffffffffffffffffffffffffffffffffffffffffffffffff19166020820180517bffffffffffffffffffffffffffffffffffffffffffffffffffffffff8381831617835250505050611072565b50505050565b60008160ff1610158015610d71575060048160ff1611155b610db0576040517f08c379a0000000000000000000000000000000000000000000000000000000008152600401610da790612741565b60405180910390fd5b610dc5600282610dc09190612761565b611093565b60005b60048160ff161015610df157610dde6000611093565b8080610de990612796565b915050610dc8565b5050565b610e9184848484604051602401610e0f94939291906127bf565b6040516020818303038152906040527f63fb8bc5000000000000000000000000000000000000000000000000000000007bffffffffffffffffffffffffffffffffffffffffffffffffffffffff19166020820180517bffffffffffffffffffffffffffffffffffffffffffffffffffffffff8381831617835250505050611072565b50505050565b8073ffffffffffffffffffffffffffffffffffffffff166002600084815260200190815260200160002060009054906101000a900473ffffffffffffffffffffffffffffffffffffffff1673ffffffffffffffffffffffffffffffffffffffff1614610f38576040517f08c379a0000000000000000000000000000000000000000000000000000000008152600401610f2f90612857565b60405180910390fd5b600142610f4591906125a2565b60018381548110610f5957610f58612510565b5b906000526020600020906003020160020160036101000a81548163ffffffff021916908363ffffffff160217905550818173ffffffffffffffffffffffffffffffffffffffff167f1e20cfa0dd7c11d3ad3d1737fe9ae16a0cacf7da2ac0388b19636e1db3c0eeff60405160405180910390a35050565b61106c84848484604051602401610fea9493929190612877565b6040516020818303038152906040527f8ef3f399000000000000000000000000000000000000000000000000000000007bffffffffffffffffffffffffffffffffffffffffffffffffffffffff19166020820180517bffffffffffffffffffffffffffffffffffffffffffffffffffffffff8381831617835250505050611072565b50505050565b60006a636f6e736f6c652e6c6f679050600080835160208501845afa505050565b60008160ff16101580156110ab575060068160ff1611155b6110ea576040517f08c379a00000000000000000000000000000000000000000000000000000000081526004016110e19061290f565b60405180910390fd5b60006110f4611528565b90506000600660009054906101000a900463ffffffff1663ffffffff164261111c91906125a2565b9050600061112a600361153d565b905060008167ffffffffffffffff8111156111485761114761292f565b5b6040519080825280602002602001820160405280156111765781602001602082028036833780820191505090505b50905060005b828110156111d55760005b611191600361153d565b905061119d8382611599565b61118757808383815181106111b5576111b4612510565b5b6020026020010181815250505080806111cd9061295e565b91505061117c565b5060606111e0611fe4565b6000808860ff160361120257620f4240876111fb91906129d5565b9050611282565b60018860ff16036112165760019050611281565b60028860ff160361122b576101f49050611280565b60038860ff160361124057611388905061127f565b60048860ff160361125557614e20905061127e565b60058860ff160361126a57617530905061127d565b60068860ff160361127c57620186a090505b5b5b5b5b5b5b61128b816115f4565b9250611298878286611791565b91506000600180549050905060016040518060c00160405280838152602001868152602001856000015160ff168152602001856020015160ff168152602001856040015160ff1681526020018963ffffffff1681525090806001815401808255809150506001900390600052602060002090600302016000909190919091506000820151816000015560208201518160010190816113369190612ba8565b5060408201518160020160006101000a81548160ff021916908360ff16021790555060608201518160020160016101000a81548160ff021916908360ff16021790555060808201518160020160026101000a81548160ff021916908360ff16021790555060a08201518160020160036101000a81548163ffffffff021916908363ffffffff1602179055505050336002600083815260200190815260200160002060006101000a81548173ffffffffffffffffffffffffffffffffffffffff021916908373ffffffffffffffffffffffffffffffffffffffff160217905550600360003373ffffffffffffffffffffffffffffffffffffffff1673ffffffffffffffffffffffffffffffffffffffff16815260200190815260200160002060008154809291906114659061295e565b9190505550600460003373ffffffffffffffffffffffffffffffffffffffff1673ffffffffffffffffffffffffffffffffffffffff1681526020019081526020016000208190806001815401808255809150506001900390600052602060002001600090919091909150557f68f1b0c6421768ff2feaa94447c09d83abf4adc2aaa08dc350d7a87ce0a7e87a81858560000151866020015187604001518c60405161151596959493929190612c98565b60405180910390a1505050505050505050565b600061153864174876e80061153d565b905090565b6000600560008154809291906115529061295e565b919050555081423360055460405160200161156f93929190612d69565b6040516020818303038152906040528051906020012060001c6115929190612da6565b9050919050565b600080600090505b83518110156115e857828482815181106115be576115bd612510565b5b6020026020010151036115d55760019150506115ee565b80806115e09061295e565b9150506115a1565b50600090505b92915050565b60606001821161163b576040518060400160405280600581526020017f52656c6963000000000000000000000000000000000000000000000000000000815250905061178c565b6101f48211611681576040518060400160405280600981526020017f4c6567656e646172790000000000000000000000000000000000000000000000815250905061178c565b61138882116116c7576040518060400160405280600681526020017f4d79746869630000000000000000000000000000000000000000000000000000815250905061178c565b614e20821161170d576040518060400160405280600481526020017f5261726500000000000000000000000000000000000000000000000000000000815250905061178c565b6175308211611753576040518060400160405280600881526020017f556e636f6d6d6f6e000000000000000000000000000000000000000000000000815250905061178c565b6040518060400160405280600681526020017f436f6d6d6f6e000000000000000000000000000000000000000000000000000081525090505b919050565b611799611fe4565b6117a1611fe4565b600184116117d7576040518060600160405280606460ff168152602001606460ff168152602001606460ff168152509050611f94565b6101f48411611965576117eb836000611599565b61182657601460646127108761180191906129d5565b61180b9190612da6565b6118159190612da6565b605061182191906125a2565b611859565b600a60646127108761183891906129d5565b6118429190612da6565b61184c9190612da6565b605a61185891906125a2565b5b816000019060ff16908160ff1681525050611875836001611599565b6118ae5760146064808761188991906129d5565b6118939190612da6565b61189d9190612da6565b60506118a991906125a2565b6118df565b600a606480876118be91906129d5565b6118c89190612da6565b6118d29190612da6565b605a6118de91906125a2565b5b816020019060ff16908160ff16815250506118fb836002611599565b61192957601460648661190e9190612da6565b6119189190612da6565b605061192491906125a2565b61194f565b600a6064866119389190612da6565b6119429190612da6565b605a61194e91906125a2565b5b816040019060ff16908160ff1681525050611f93565b6113888411611af357611979836000611599565b6119b457601960646127108761198f91906129d5565b6119999190612da6565b6119a39190612da6565b60416119af91906125a2565b6119e7565b600a6064612710876119c691906129d5565b6119d09190612da6565b6119da9190612da6565b60506119e691906125a2565b5b816000019060ff16908160ff1681525050611a03836001611599565b611a3c57601960648087611a1791906129d5565b611a219190612da6565b611a2b9190612da6565b6041611a3791906125a2565b611a6d565b600a60648087611a4c91906129d5565b611a569190612da6565b611a609190612da6565b6050611a6c91906125a2565b5b816020019060ff16908160ff1681525050611a89836002611599565b611ab7576019606486611a9c9190612da6565b611aa69190612da6565b6041611ab291906125a2565b611add565b600a606486611ac69190612da6565b611ad09190612da6565b6050611adc91906125a2565b5b816040019060ff16908160ff1681525050611f92565b614e208411611c8157611b07836000611599565b611b4257601e606461271087611b1d91906129d5565b611b279190612da6565b611b319190612da6565b6032611b3d91906125a2565b611b75565b600f606461271087611b5491906129d5565b611b5e9190612da6565b611b689190612da6565b6041611b7491906125a2565b5b816000019060ff16908160ff1681525050611b91836001611599565b611bca57601e60648087611ba591906129d5565b611baf9190612da6565b611bb99190612da6565b6032611bc591906125a2565b611bfb565b600f60648087611bda91906129d5565b611be49190612da6565b611bee9190612da6565b6041611bfa91906125a2565b5b816020019060ff16908160ff1681525050611c17836002611599565b611c4557601e606486611c2a9190612da6565b611c349190612da6565b6032611c4091906125a2565b611c6b565b600f606486611c549190612da6565b611c5e9190612da6565b6041611c6a91906125a2565b5b816040019060ff16908160ff1681525050611f91565b6175308411611e0f57611c95836000611599565b611cd0576014606461271087611cab91906129d5565b611cb59190612da6565b611cbf9190612da6565b601e611ccb91906125a2565b611d03565b600f606461271087611ce291906129d5565b611cec9190612da6565b611cf69190612da6565b6032611d0291906125a2565b5b816000019060ff16908160ff1681525050611d1f836001611599565b611d5857601460648087611d3391906129d5565b611d3d9190612da6565b611d479190612da6565b601e611d5391906125a2565b611d89565b600f60648087611d6891906129d5565b611d729190612da6565b611d7c9190612da6565b6032611d8891906125a2565b5b816020019060ff16908160ff1681525050611da5836002611599565b611dd3576014606486611db89190612da6565b611dc29190612da6565b601e611dce91906125a2565b611df9565b600f606486611de29190612da6565b611dec9190612da6565b6032611df891906125a2565b5b816040019060ff16908160ff1681525050611f90565b611e1a836000611599565b611e5557600a606461271087611e3091906129d5565b611e3a9190612da6565b611e449190612da6565b6014611e5091906125a2565b611e88565b6005606461271087611e6791906129d5565b611e719190612da6565b611e7b9190612da6565b601e611e8791906125a2565b5b816000019060ff16908160ff1681525050611ea4836001611599565b611edd57600a60648087611eb891906129d5565b611ec29190612da6565b611ecc9190612da6565b6014611ed891906125a2565b611f0e565b600560648087611eed91906129d5565b611ef79190612da6565b611f019190612da6565b601e611f0d91906125a2565b5b816020019060ff16908160ff1681525050611f2a836002611599565b611f5857600a606486611f3d9190612da6565b611f479190612da6565b6014611f5391906125a2565b611f7e565b6005606486611f679190612da6565b611f719190612da6565b601e611f7d91906125a2565b5b816040019060ff16908160ff16815250505b5b5b5b5b809150509392505050565b6040518060c001604052806000815260200160608152602001600060ff168152602001600060ff168152602001600060ff168152602001600063ffffffff1681525090565b6040518060600160405280600060ff168152602001600060ff168152602001600060ff1681525090565b600081519050919050565b600082825260208201905092915050565b60005b8381101561204857808201518184015260208101905061202d565b60008484015250505050565b6000601f19601f8301169050919050565b60006120708261200e565b61207a8185612019565b935061208a81856020860161202a565b61209381612054565b840191505092915050565b600060208201905081810360008301526120b88184612065565b905092915050565b6000819050919050565b6120d3816120c0565b82525050565b60006020820190506120ee60008301846120ca565b92915050565b600080fd5b600060ff82169050919050565b61210f816120f9565b811461211a57600080fd5b50565b60008135905061212c81612106565b92915050565b600060208284031215612148576121476120f4565b5b60006121568482850161211d565b91505092915050565b612168816120c0565b811461217357600080fd5b50565b6000813590506121858161215f565b92915050565b6000602082840312156121a1576121a06120f4565b5b60006121af84828501612176565b91505092915050565b600073ffffffffffffffffffffffffffffffffffffffff82169050919050565b60006121e3826121b8565b9050919050565b6121f3816121d8565b82525050565b600060208201905061220e60008301846121ea565b92915050565b61221d816120c0565b82525050565b600082825260208201905092915050565b600061223f8261200e565b6122498185612223565b935061225981856020860161202a565b61226281612054565b840191505092915050565b612276816120f9565b82525050565b600063ffffffff82169050919050565b6122958161227c565b82525050565b600060c0830160008301516122b36000860182612214565b50602083015184820360208601526122cb8282612234565b91505060408301516122e0604086018261226d565b5060608301516122f3606086018261226d565b506080830151612306608086018261226d565b5060a083015161231960a086018261228c565b508091505092915050565b6000602082019050818103600083015261233e818461229b565b905092915050565b61234f816121d8565b811461235a57600080fd5b50565b60008135905061236c81612346565b92915050565b600060208284031215612388576123876120f4565b5b60006123968482850161235d565b91505092915050565b600080604083850312156123b6576123b56120f4565b5b60006123c48582860161235d565b92505060206123d585828601612176565b9150509250929050565b600081519050919050565b600082825260208201905092915050565b6000819050602082019050919050565b60006124178383612214565b60208301905092915050565b6000602082019050919050565b600061243b826123df565b61244581856123ea565b9350612450836123fb565b8060005b83811015612481578151612468888261240b565b975061247383612423565b925050600181019050612454565b5085935050505092915050565b600060208201905081810360008301526124a88184612430565b905092915050565b7f4e487b7100000000000000000000000000000000000000000000000000000000600052602260045260246000fd5b600060028204905060018216806124f757607f821691505b60208210810361250a576125096124b0565b5b50919050565b7f4e487b7100000000000000000000000000000000000000000000000000000000600052603260045260246000fd5b7f4e487b7100000000000000000000000000000000000000000000000000000000600052601160045260246000fd5b6000612579826120c0565b9150612584836120c0565b925082820390508181111561259c5761259b61253f565b5b92915050565b60006125ad826120c0565b91506125b8836120c0565b92508282019050808211156125d0576125cf61253f565b5b92915050565b7f4e6f7420656e6f75676820746f6b656e73000000000000000000000000000000600082015250565b600061260c601183612019565b9150612617826125d6565b602082019050919050565b6000602082019050818103600083015261263b816125ff565b9050919050565b6000819050919050565b6000819050919050565b600061267161266c61266784612642565b61264c565b6120c0565b9050919050565b61268181612656565b82525050565b600060208201905061269c6000830184612678565b92915050565b600060808201905081810360008301526126bc8187612065565b90506126cb60208301866121ea565b81810360408301526126dd8185612065565b90506126ec60608301846120ca565b95945050505050565b7f496e76616c696420626f6f737465722074797065000000000000000000000000600082015250565b600061272b601483612019565b9150612736826126f5565b602082019050919050565b6000602082019050818103600083015261275a8161271e565b9050919050565b600061276c826120f9565b9150612777836120f9565b9250828201905060ff8111156127905761278f61253f565b5b92915050565b60006127a1826120f9565b915060ff82036127b4576127b361253f565b5b600182019050919050565b600060808201905081810360008301526127d98187612065565b90506127e860208301866121ea565b6127f560408301856120ca565b61280260608301846121ea565b95945050505050565b7f55736572206e6f74206f776e6572206f66207468697320636172000000000000600082015250565b6000612841601a83612019565b915061284c8261280b565b602082019050919050565b6000602082019050818103600083015261287081612834565b9050919050565b600060808201905081810360008301526128918187612065565b90506128a060208301866121ea565b6128ad60408301856121ea565b6128ba60608301846120ca565b95945050505050565b7f496e76616c696420726172697479000000000000000000000000000000000000600082015250565b60006128f9600e83612019565b9150612904826128c3565b602082019050919050565b60006020820190508181036000830152612928816128ec565b9050919050565b7f4e487b7100000000000000000000000000000000000000000000000000000000600052604160045260246000fd5b6000612969826120c0565b91507fffffffffffffffffffffffffffffffffffffffffffffffffffffffffffffffff820361299b5761299a61253f565b5b600182019050919050565b7f4e487b7100000000000000000000000000000000000000000000000000000000600052601260045260246000fd5b60006129e0826120c0565b91506129eb836120c0565b9250826129fb576129fa6129a6565b5b828204905092915050565b60008190508160005260206000209050919050565b60006020601f8301049050919050565b600082821b905092915050565b600060088302612a687fffffffffffffffffffffffffffffffffffffffffffffffffffffffffffffffff82612a2b565b612a728683612a2b565b95508019841693508086168417925050509392505050565b6000612aa5612aa0612a9b846120c0565b61264c565b6120c0565b9050919050565b6000819050919050565b612abf83612a8a565b612ad3612acb82612aac565b848454612a38565b825550505050565b600090565b612ae8612adb565b612af3818484612ab6565b505050565b5b81811015612b1757612b0c600082612ae0565b600181019050612af9565b5050565b601f821115612b5c57612b2d81612a06565b612b3684612a1b565b81016020851015612b45578190505b612b59612b5185612a1b565b830182612af8565b50505b505050565b600082821c905092915050565b6000612b7f60001984600802612b61565b1980831691505092915050565b6000612b988383612b6e565b9150826002028217905092915050565b612bb18261200e565b67ffffffffffffffff811115612bca57612bc961292f565b5b612bd482546124df565b612bdf828285612b1b565b600060209050601f831160018114612c125760008415612c00578287015190505b612c0a8582612b8c565b865550612c72565b601f198416612c2086612a06565b60005b82811015612c4857848901518255600182019150602085019450602081019050612c23565b86831015612c655784890151612c61601f891682612b6e565b8355505b6001600288020188555050505b505050505050565b612c83816120f9565b82525050565b612c928161227c565b82525050565b600060c082019050612cad60008301896120ca565b8181036020830152612cbf8188612065565b9050612cce6040830187612c7a565b612cdb6060830186612c7a565b612ce86080830185612c7a565b612cf560a0830184612c89565b979650505050505050565b6000819050919050565b612d1b612d16826120c0565b612d00565b82525050565b60008160601b9050919050565b6000612d3982612d21565b9050919050565b6000612d4b82612d2e565b9050919050565b612d63612d5e826121d8565b612d40565b82525050565b6000612d758286612d0a565b602082019150612d858285612d52565b601482019150612d958284612d0a565b602082019150819050949350505050565b6000612db1826120c0565b9150612dbc836120c0565b925082612dcc57612dcb6129a6565b5b82820690509291505056fe257320627579696e6720257320626f6f7374657220666f7220257320746f6b656e73257320627579696e6720636f6f6c646f776e20666f7220257320746f6b656e7320282573295472616e7366657272696e672066726f6d20257320746f20257320257320746f6b656e73a264697066735822122064dabde402e1eded7a054a593a2b63e62ee899a099b3e33bd4bfe2edebcbd4a464736f6c63430008120033",
  "linkReferences": {},
  "deployedLinkReferences": {}
}