{
  "_format": "hh-sol-artifact-1",
  "contractName": "FToken",
  "sourceName": "contracts/FToken.sol",
  "abi": [
    {
      "inputs": [],
      "stateMutability": "nonpayable",
      "type": "constructor"
    },
    {
      "anonymous": false,
      "inputs": [
        {
          "indexed": false,
          "internalType": "uint256",
          "name": "id",
          "type": "uint256"
        },
        {
          "indexed": false,
          "internalType": "string",
          "name": "s_rarity",
          "type": "string"
        },
        {
          "indexed": false,
          "internalType": "uint8",
          "name": "speed",
          "type": "uint8"
        },
        {
          "indexed": false,
          "internalType": "uint8",
          "name": "acceleration",
          "type": "uint8"
        },
        {
          "indexed": false,
          "internalType": "uint8",
          "name": "maniability",
          "type": "uint8"
        },
        {
          "indexed": false,
          "internalType": "uint32",
          "name": "readyTime",
          "type": "uint32"
        }
      ],
      "name": "NewCar",
      "type": "event"
    },
    {
      "anonymous": false,
      "inputs": [
        {
          "indexed": true,
          "internalType": "address",
          "name": "_user",
          "type": "address"
        },
        {
          "indexed": true,
          "internalType": "uint256",
          "name": "_car",
          "type": "uint256"
        }
      ],
      "name": "ResetCooldown",
      "type": "event"
    },
    {
      "anonymous": false,
      "inputs": [
        {
          "indexed": true,
          "internalType": "address",
          "name": "_from",
          "type": "address"
        },
        {
          "indexed": true,
          "internalType": "address",
          "name": "_to",
          "type": "address"
        },
        {
          "indexed": false,
          "internalType": "uint256",
          "name": "_value",
          "type": "uint256"
        }
      ],
      "name": "Transfer",
      "type": "event"
    },
    {
      "inputs": [
        {
          "internalType": "address",
          "name": "account",
          "type": "address"
        }
      ],
      "name": "balanceOf",
      "outputs": [
        {
          "internalType": "uint256",
          "name": "",
          "type": "uint256"
        }
      ],
      "stateMutability": "view",
      "type": "function"
    },
    {
      "inputs": [
        {
          "internalType": "uint256",
          "name": "",
          "type": "uint256"
        }
      ],
      "name": "carToOwner",
      "outputs": [
        {
          "internalType": "address",
          "name": "",
          "type": "address"
        }
      ],
      "stateMutability": "view",
      "type": "function"
    },
    {
      "inputs": [
        {
          "internalType": "uint8",
          "name": "rarity",
          "type": "uint8"
        }
      ],
      "name": "generateBooster",
      "outputs": [],
      "stateMutability": "payable",
      "type": "function"
    },
    {
      "inputs": [
        {
          "internalType": "uint256",
          "name": "id",
          "type": "uint256"
        }
      ],
      "name": "getCar",
      "outputs": [
        {
          "components": [
            {
              "internalType": "uint256",
              "name": "id",
              "type": "uint256"
            },
            {
              "internalType": "string",
              "name": "rarity",
              "type": "string"
            },
            {
              "internalType": "uint8",
              "name": "speed",
              "type": "uint8"
            },
            {
              "internalType": "uint8",
              "name": "acceleration",
              "type": "uint8"
            },
            {
              "internalType": "uint8",
              "name": "maniability",
              "type": "uint8"
            },
            {
              "internalType": "uint32",
              "name": "readyTime",
              "type": "uint32"
            }
          ],
          "internalType": "struct FCar.Car",
          "name": "",
          "type": "tuple"
        }
      ],
      "stateMutability": "view",
      "type": "function"
    },
    {
      "inputs": [],
      "name": "getUserCars",
      "outputs": [
        {
          "internalType": "uint256[]",
          "name": "",
          "type": "uint256[]"
        }
      ],
      "stateMutability": "view",
      "type": "function"
    },
    {
      "inputs": [],
      "name": "name",
      "outputs": [
        {
          "internalType": "string",
          "name": "",
          "type": "string"
        }
      ],
      "stateMutability": "view",
      "type": "function"
    },
    {
      "inputs": [],
      "name": "owner",
      "outputs": [
        {
          "internalType": "address",
          "name": "",
          "type": "address"
        }
      ],
      "stateMutability": "view",
      "type": "function"
    },
    {
      "inputs": [
        {
          "internalType": "uint256",
          "name": "id",
          "type": "uint256"
        }
      ],
      "name": "resetCooldown",
      "outputs": [],
      "stateMutability": "payable",
      "type": "function"
    },
    {
      "inputs": [],
      "name": "symbol",
      "outputs": [
        {
          "internalType": "string",
          "name": "",
          "type": "string"
        }
      ],
      "stateMutability": "view",
      "type": "function"
    },
    {
      "inputs": [],
      "name": "totalSupply",
      "outputs": [
        {
          "internalType": "uint256",
          "name": "",
          "type": "uint256"
        }
      ],
      "stateMutability": "view",
      "type": "function"
    },
    {
      "inputs": [
        {
          "internalType": "address",
          "name": "to",
          "type": "address"
        },
        {
          "internalType": "uint256",
          "name": "amount",
          "type": "uint256"
        }
      ],
      "name": "transfer",
      "outputs": [],
      "stateMutability": "nonpayable",
      "type": "function"
    }
  ],
  "bytecode": "0x6080604052600060055562015180600660006101000a81548163ffffffff021916908363ffffffff1602179055506040518060600160405280609660ff168152602001604b60ff168152602001600a60ff16815250600790600362000066929190620001d6565b506040518060400160405280600c81526020017f462d5261636520546f6b656e000000000000000000000000000000000000000081525060089081620000ad91906200051f565b506040518060400160405280600381526020017f465254000000000000000000000000000000000000000000000000000000000081525060099081620000f491906200051f565b50620f4240600a553480156200010957600080fd5b50336000806101000a81548173ffffffffffffffffffffffffffffffffffffffff021916908373ffffffffffffffffffffffffffffffffffffffff160217905550600a54600b60003373ffffffffffffffffffffffffffffffffffffffff1673ffffffffffffffffffffffffffffffffffffffff16815260200190815260200160002081905550336000806101000a81548173ffffffffffffffffffffffffffffffffffffffff021916908373ffffffffffffffffffffffffffffffffffffffff16021790555062000606565b82805482825590600052602060002090600f01601090048101928215620002735791602002820160005b838211156200024157835183826101000a81548161ffff021916908360ff160217905550926020019260020160208160010104928301926001030262000200565b8015620002715782816101000a81549061ffff021916905560020160208160010104928301926001030262000241565b505b50905062000282919062000286565b5090565b5b80821115620002a157600081600090555060010162000287565b5090565b600081519050919050565b7f4e487b7100000000000000000000000000000000000000000000000000000000600052604160045260246000fd5b7f4e487b7100000000000000000000000000000000000000000000000000000000600052602260045260246000fd5b600060028204905060018216806200032757607f821691505b6020821081036200033d576200033c620002df565b5b50919050565b60008190508160005260206000209050919050565b60006020601f8301049050919050565b600082821b905092915050565b600060088302620003a77fffffffffffffffffffffffffffffffffffffffffffffffffffffffffffffffff8262000368565b620003b3868362000368565b95508019841693508086168417925050509392505050565b6000819050919050565b6000819050919050565b600062000400620003fa620003f484620003cb565b620003d5565b620003cb565b9050919050565b6000819050919050565b6200041c83620003df565b620004346200042b8262000407565b84845462000375565b825550505050565b600090565b6200044b6200043c565b6200045881848462000411565b505050565b5b8181101562000480576200047460008262000441565b6001810190506200045e565b5050565b601f821115620004cf57620004998162000343565b620004a48462000358565b81016020851015620004b4578190505b620004cc620004c38562000358565b8301826200045d565b50505b505050565b600082821c905092915050565b6000620004f460001984600802620004d4565b1980831691505092915050565b60006200050f8383620004e1565b9150826002028217905092915050565b6200052a82620002a5565b67ffffffffffffffff811115620005465762000545620002b0565b5b6200055282546200030e565b6200055f82828562000484565b600060209050601f83116001811462000597576000841562000582578287015190505b6200058e858262000501565b865550620005fe565b601f198416620005a78662000343565b60005b82811015620005d157848901518255600182019150602085019450602081019050620005aa565b86831015620005f15784890151620005ed601f891682620004e1565b8355505b6001600288020188555050505b505050505050565b612e5880620006166000396000f3fe60806040526004361061009c5760003560e01c80636b3830c6116100645780636b3830c61461018d57806370a08231146101a95780638da5cb5b146101e657806395d89b4114610211578063a9059cbb1461023c578063c27a399d146102655761009c565b806306fdde03146100a157806318160ddd146100cc5780631d609098146100f757806333ca504b146101135780635e8be19014610150575b600080fd5b3480156100ad57600080fd5b506100b6610290565b6040516100c3919061207e565b60405180910390f35b3480156100d857600080fd5b506100e161031e565b6040516100ee91906120b9565b60405180910390f35b610111600480360381019061010c9190612112565b610324565b005b34801561011f57600080fd5b5061013a6004803603810190610135919061216b565b6104c8565b60405161014791906121d9565b60405180910390f35b34801561015c57600080fd5b506101776004803603810190610172919061216b565b6104fb565b6040516101849190612304565b60405180910390f35b6101a760048036038101906101a2919061216b565b610650565b005b3480156101b557600080fd5b506101d060048036038101906101cb9190612352565b61087a565b6040516101dd91906120b9565b60405180910390f35b3480156101f257600080fd5b506101fb6108c3565b60405161020891906121d9565b60405180910390f35b34801561021d57600080fd5b506102266108e7565b604051610233919061207e565b60405180910390f35b34801561024857600080fd5b50610263600480360381019061025e919061237f565b610975565b005b34801561027157600080fd5b5061027a610b30565b604051610287919061246e565b60405180910390f35b6008805461029d906124bf565b80601f01602080910402602001604051908101604052809291908181526020018280546102c9906124bf565b80156103165780601f106102eb57610100808354040283529160200191610316565b820191906000526020600020905b8154815290600101906020018083116102f957829003601f168201915b505050505081565b600a5481565b600060078260ff168154811061033d5761033c6124f0565b5b90600052602060002090601091828204019190066002029054906101000a900461ffff1690508061ffff16600b60003373ffffffffffffffffffffffffffffffffffffffff1673ffffffffffffffffffffffffffffffffffffffff1681526020019081526020016000205410156103b357600080fd5b6103e6604051806060016040528060228152602001612db860229139336103dc8560ff16610bc5565b8461ffff16610c8f565b8061ffff16600b60003373ffffffffffffffffffffffffffffffffffffffff1673ffffffffffffffffffffffffffffffffffffffff1681526020019081526020016000206000828254610439919061254e565b925050819055508061ffff16600b60008060009054906101000a900473ffffffffffffffffffffffffffffffffffffffff1673ffffffffffffffffffffffffffffffffffffffff1673ffffffffffffffffffffffffffffffffffffffff16815260200190815260200160002060008282546104b49190612582565b925050819055506104c482610d31565b5050565b60026020528060005260406000206000915054906101000a900473ffffffffffffffffffffffffffffffffffffffff1681565b610503611f7f565b60018281548110610517576105166124f0565b5b90600052602060002090600302016040518060c00160405290816000820154815260200160018201805461054a906124bf565b80601f0160208091040260200160405190810160405280929190818152602001828054610576906124bf565b80156105c35780601f10610598576101008083540402835291602001916105c3565b820191906000526020600020905b8154815290600101906020018083116105a657829003601f168201915b505050505081526020016002820160009054906101000a900460ff1660ff1660ff1681526020016002820160019054906101000a900460ff1660ff1660ff1681526020016002820160029054906101000a900460ff1660ff1660ff1681526020016002820160039054906101000a900463ffffffff1663ffffffff1663ffffffff16815250509050919050565b600a600b60003373ffffffffffffffffffffffffffffffffffffffff1673ffffffffffffffffffffffffffffffffffffffff1681526020019081526020016000205410156106d3576040517f08c379a00000000000000000000000000000000000000000000000000000000081526004016106ca90612602565b60405180910390fd5b610718604051806060016040528060258152602001612dda6025913933600a60008054906101000a900473ffffffffffffffffffffffffffffffffffffffff16610dcd565b600a600b60003373ffffffffffffffffffffffffffffffffffffffff1673ffffffffffffffffffffffffffffffffffffffff1681526020019081526020016000206000828254610768919061254e565b92505081905550600a600b60008060009054906101000a900473ffffffffffffffffffffffffffffffffffffffff1673ffffffffffffffffffffffffffffffffffffffff1673ffffffffffffffffffffffffffffffffffffffff16815260200190815260200160002060008282546107e09190612582565b925050819055506107f18133610e6f565b60008054906101000a900473ffffffffffffffffffffffffffffffffffffffff1673ffffffffffffffffffffffffffffffffffffffff163373ffffffffffffffffffffffffffffffffffffffff167fddf252ad1be2c89b69c2b068fc378daa952ba7f163c4a11628f55a4df523b3ef600a60405161086f9190612667565b60405180910390a350565b6000600b60008373ffffffffffffffffffffffffffffffffffffffff1673ffffffffffffffffffffffffffffffffffffffff168152602001908152602001600020549050919050565b60008054906101000a900473ffffffffffffffffffffffffffffffffffffffff1681565b600980546108f4906124bf565b80601f0160208091040260200160405190810160405280929190818152602001828054610920906124bf565b801561096d5780601f106109425761010080835404028352916020019161096d565b820191906000526020600020905b81548152906001019060200180831161095057829003601f168201915b505050505081565b80600b60003373ffffffffffffffffffffffffffffffffffffffff1673ffffffffffffffffffffffffffffffffffffffff1681526020019081526020016000205410156109f7576040517f08c379a00000000000000000000000000000000000000000000000000000000081526004016109ee90612602565b60405180910390fd5b610a1b604051806060016040528060248152602001612dff60249139338484610fa8565b80600b60003373ffffffffffffffffffffffffffffffffffffffff1673ffffffffffffffffffffffffffffffffffffffff1681526020019081526020016000206000828254610a6a919061254e565b9250508190555080600b60008473ffffffffffffffffffffffffffffffffffffffff1673ffffffffffffffffffffffffffffffffffffffff1681526020019081526020016000206000828254610ac09190612582565b925050819055508173ffffffffffffffffffffffffffffffffffffffff163373ffffffffffffffffffffffffffffffffffffffff167fddf252ad1be2c89b69c2b068fc378daa952ba7f163c4a11628f55a4df523b3ef83604051610b2491906120b9565b60405180910390a35050565b6060600460003373ffffffffffffffffffffffffffffffffffffffff1673ffffffffffffffffffffffffffffffffffffffff168152602001908152602001600020805480602002602001604051908101604052809291908181526020018280548015610bbb57602002820191906000526020600020905b815481526020019060010190808311610ba7575b5050505050905090565b606060008203610c0c576040518060400160405280600481526020017f476f6c64000000000000000000000000000000000000000000000000000000008152509050610c8a565b60018203610c51576040518060400160405280600681526020017f53696c76657200000000000000000000000000000000000000000000000000008152509050610c8a565b6040518060400160405280600681526020017f42726f6e7a65000000000000000000000000000000000000000000000000000081525090505b919050565b610d2b84848484604051602401610ca99493929190612682565b6040516020818303038152906040527f91d1112e000000000000000000000000000000000000000000000000000000007bffffffffffffffffffffffffffffffffffffffffffffffffffffffff19166020820180517bffffffffffffffffffffffffffffffffffffffffffffffffffffffff838183161783525050505061104a565b50505050565b60008160ff1610158015610d49575060038160ff1611155b610d88576040517f08c379a0000000000000000000000000000000000000000000000000000000008152600401610d7f90612721565b60405180910390fd5b610d9d600382610d989190612741565b611073565b60005b60048160ff161015610dc957610db66000611073565b8080610dc190612776565b915050610da0565b5050565b610e6984848484604051602401610de7949392919061279f565b6040516020818303038152906040527f63fb8bc5000000000000000000000000000000000000000000000000000000007bffffffffffffffffffffffffffffffffffffffffffffffffffffffff19166020820180517bffffffffffffffffffffffffffffffffffffffffffffffffffffffff838183161783525050505061104a565b50505050565b8073ffffffffffffffffffffffffffffffffffffffff166002600084815260200190815260200160002060009054906101000a900473ffffffffffffffffffffffffffffffffffffffff1673ffffffffffffffffffffffffffffffffffffffff1614610f10576040517f08c379a0000000000000000000000000000000000000000000000000000000008152600401610f0790612837565b60405180910390fd5b600142610f1d9190612582565b60018381548110610f3157610f306124f0565b5b906000526020600020906003020160020160036101000a81548163ffffffff021916908363ffffffff160217905550818173ffffffffffffffffffffffffffffffffffffffff167f1e20cfa0dd7c11d3ad3d1737fe9ae16a0cacf7da2ac0388b19636e1db3c0eeff60405160405180910390a35050565b61104484848484604051602401610fc29493929190612857565b6040516020818303038152906040527f8ef3f399000000000000000000000000000000000000000000000000000000007bffffffffffffffffffffffffffffffffffffffffffffffffffffffff19166020820180517bffffffffffffffffffffffffffffffffffffffffffffffffffffffff838183161783525050505061104a565b50505050565b60008151905060006a636f6e736f6c652e6c6f679050602083016000808483855afa5050505050565b60008160ff161015801561108b575060068160ff1611155b6110ca576040517f08c379a00000000000000000000000000000000000000000000000000000000081526004016110c1906128ef565b60405180910390fd5b60006110d4611508565b90506000600660009054906101000a900463ffffffff1663ffffffff16426110fc9190612582565b9050600061110a600361151d565b905060008167ffffffffffffffff8111156111285761112761290f565b5b6040519080825280602002602001820160405280156111565781602001602082028036833780820191505090505b50905060005b828110156111b55760005b611171600361151d565b905061117d8382611579565b6111675780838381518110611195576111946124f0565b5b6020026020010181815250505080806111ad9061293e565b91505061115c565b5060606111c0611fc4565b6000808860ff16036111e257620f4240876111db91906129b5565b9050611262565b60018860ff16036111f65760019050611261565b60028860ff160361120b576101f49050611260565b60038860ff160361122057611388905061125f565b60048860ff160361123557614e20905061125e565b60058860ff160361124a57617530905061125d565b60068860ff160361125c57620186a090505b5b5b5b5b5b5b61126b816115d4565b9250611278878286611771565b91506000600180549050905060016040518060c00160405280838152602001868152602001856000015160ff168152602001856020015160ff168152602001856040015160ff1681526020018963ffffffff1681525090806001815401808255809150506001900390600052602060002090600302016000909190919091506000820151816000015560208201518160010190816113169190612b88565b5060408201518160020160006101000a81548160ff021916908360ff16021790555060608201518160020160016101000a81548160ff021916908360ff16021790555060808201518160020160026101000a81548160ff021916908360ff16021790555060a08201518160020160036101000a81548163ffffffff021916908363ffffffff1602179055505050336002600083815260200190815260200160002060006101000a81548173ffffffffffffffffffffffffffffffffffffffff021916908373ffffffffffffffffffffffffffffffffffffffff160217905550600360003373ffffffffffffffffffffffffffffffffffffffff1673ffffffffffffffffffffffffffffffffffffffff16815260200190815260200160002060008154809291906114459061293e565b9190505550600460003373ffffffffffffffffffffffffffffffffffffffff1673ffffffffffffffffffffffffffffffffffffffff1681526020019081526020016000208190806001815401808255809150506001900390600052602060002001600090919091909150557f68f1b0c6421768ff2feaa94447c09d83abf4adc2aaa08dc350d7a87ce0a7e87a81858560000151866020015187604001518c6040516114f596959493929190612c78565b60405180910390a1505050505050505050565b600061151864174876e80061151d565b905090565b6000600560008154809291906115329061293e565b919050555081423360055460405160200161154f93929190612d49565b6040516020818303038152906040528051906020012060001c6115729190612d86565b9050919050565b600080600090505b83518110156115c8578284828151811061159e5761159d6124f0565b5b6020026020010151036115b55760019150506115ce565b80806115c09061293e565b915050611581565b50600090505b92915050565b60606001821161161b576040518060400160405280600581526020017f52656c6963000000000000000000000000000000000000000000000000000000815250905061176c565b6101f48211611661576040518060400160405280600981526020017f4c6567656e646172790000000000000000000000000000000000000000000000815250905061176c565b61138882116116a7576040518060400160405280600681526020017f4d79746869630000000000000000000000000000000000000000000000000000815250905061176c565b614e2082116116ed576040518060400160405280600481526020017f5261726500000000000000000000000000000000000000000000000000000000815250905061176c565b6175308211611733576040518060400160405280600881526020017f556e636f6d6d6f6e000000000000000000000000000000000000000000000000815250905061176c565b6040518060400160405280600681526020017f436f6d6d6f6e000000000000000000000000000000000000000000000000000081525090505b919050565b611779611fc4565b611781611fc4565b600184116117b7576040518060600160405280606460ff168152602001606460ff168152602001606460ff168152509050611f74565b6101f48411611945576117cb836000611579565b6118065760146064612710876117e191906129b5565b6117eb9190612d86565b6117f59190612d86565b60506118019190612582565b611839565b600a60646127108761181891906129b5565b6118229190612d86565b61182c9190612d86565b605a6118389190612582565b5b816000019060ff16908160ff1681525050611855836001611579565b61188e5760146064808761186991906129b5565b6118739190612d86565b61187d9190612d86565b60506118899190612582565b6118bf565b600a6064808761189e91906129b5565b6118a89190612d86565b6118b29190612d86565b605a6118be9190612582565b5b816020019060ff16908160ff16815250506118db836002611579565b6119095760146064866118ee9190612d86565b6118f89190612d86565b60506119049190612582565b61192f565b600a6064866119189190612d86565b6119229190612d86565b605a61192e9190612582565b5b816040019060ff16908160ff1681525050611f73565b6113888411611ad357611959836000611579565b61199457601960646127108761196f91906129b5565b6119799190612d86565b6119839190612d86565b604161198f9190612582565b6119c7565b600a6064612710876119a691906129b5565b6119b09190612d86565b6119ba9190612d86565b60506119c69190612582565b5b816000019060ff16908160ff16815250506119e3836001611579565b611a1c576019606480876119f791906129b5565b611a019190612d86565b611a0b9190612d86565b6041611a179190612582565b611a4d565b600a60648087611a2c91906129b5565b611a369190612d86565b611a409190612d86565b6050611a4c9190612582565b5b816020019060ff16908160ff1681525050611a69836002611579565b611a97576019606486611a7c9190612d86565b611a869190612d86565b6041611a929190612582565b611abd565b600a606486611aa69190612d86565b611ab09190612d86565b6050611abc9190612582565b5b816040019060ff16908160ff1681525050611f72565b614e208411611c6157611ae7836000611579565b611b2257601e606461271087611afd91906129b5565b611b079190612d86565b611b119190612d86565b6032611b1d9190612582565b611b55565b600f606461271087611b3491906129b5565b611b3e9190612d86565b611b489190612d86565b6041611b549190612582565b5b816000019060ff16908160ff1681525050611b71836001611579565b611baa57601e60648087611b8591906129b5565b611b8f9190612d86565b611b999190612d86565b6032611ba59190612582565b611bdb565b600f60648087611bba91906129b5565b611bc49190612d86565b611bce9190612d86565b6041611bda9190612582565b5b816020019060ff16908160ff1681525050611bf7836002611579565b611c2557601e606486611c0a9190612d86565b611c149190612d86565b6032611c209190612582565b611c4b565b600f606486611c349190612d86565b611c3e9190612d86565b6041611c4a9190612582565b5b816040019060ff16908160ff1681525050611f71565b6175308411611def57611c75836000611579565b611cb0576014606461271087611c8b91906129b5565b611c959190612d86565b611c9f9190612d86565b601e611cab9190612582565b611ce3565b600f606461271087611cc291906129b5565b611ccc9190612d86565b611cd69190612d86565b6032611ce29190612582565b5b816000019060ff16908160ff1681525050611cff836001611579565b611d3857601460648087611d1391906129b5565b611d1d9190612d86565b611d279190612d86565b601e611d339190612582565b611d69565b600f60648087611d4891906129b5565b611d529190612d86565b611d5c9190612d86565b6032611d689190612582565b5b816020019060ff16908160ff1681525050611d85836002611579565b611db3576014606486611d989190612d86565b611da29190612d86565b601e611dae9190612582565b611dd9565b600f606486611dc29190612d86565b611dcc9190612d86565b6032611dd89190612582565b5b816040019060ff16908160ff1681525050611f70565b611dfa836000611579565b611e3557600a606461271087611e1091906129b5565b611e1a9190612d86565b611e249190612d86565b6014611e309190612582565b611e68565b6005606461271087611e4791906129b5565b611e519190612d86565b611e5b9190612d86565b601e611e679190612582565b5b816000019060ff16908160ff1681525050611e84836001611579565b611ebd57600a60648087611e9891906129b5565b611ea29190612d86565b611eac9190612d86565b6014611eb89190612582565b611eee565b600560648087611ecd91906129b5565b611ed79190612d86565b611ee19190612d86565b601e611eed9190612582565b5b816020019060ff16908160ff1681525050611f0a836002611579565b611f3857600a606486611f1d9190612d86565b611f279190612d86565b6014611f339190612582565b611f5e565b6005606486611f479190612d86565b611f519190612d86565b601e611f5d9190612582565b5b816040019060ff16908160ff16815250505b5b5b5b5b809150509392505050565b6040518060c001604052806000815260200160608152602001600060ff168152602001600060ff168152602001600060ff168152602001600063ffffffff1681525090565b6040518060600160405280600060ff168152602001600060ff168152602001600060ff1681525090565b600081519050919050565b600082825260208201905092915050565b60005b8381101561202857808201518184015260208101905061200d565b60008484015250505050565b6000601f19601f8301169050919050565b600061205082611fee565b61205a8185611ff9565b935061206a81856020860161200a565b61207381612034565b840191505092915050565b600060208201905081810360008301526120988184612045565b905092915050565b6000819050919050565b6120b3816120a0565b82525050565b60006020820190506120ce60008301846120aa565b92915050565b600080fd5b600060ff82169050919050565b6120ef816120d9565b81146120fa57600080fd5b50565b60008135905061210c816120e6565b92915050565b600060208284031215612128576121276120d4565b5b6000612136848285016120fd565b91505092915050565b612148816120a0565b811461215357600080fd5b50565b6000813590506121658161213f565b92915050565b600060208284031215612181576121806120d4565b5b600061218f84828501612156565b91505092915050565b600073ffffffffffffffffffffffffffffffffffffffff82169050919050565b60006121c382612198565b9050919050565b6121d3816121b8565b82525050565b60006020820190506121ee60008301846121ca565b92915050565b6121fd816120a0565b82525050565b600082825260208201905092915050565b600061221f82611fee565b6122298185612203565b935061223981856020860161200a565b61224281612034565b840191505092915050565b612256816120d9565b82525050565b600063ffffffff82169050919050565b6122758161225c565b82525050565b600060c08301600083015161229360008601826121f4565b50602083015184820360208601526122ab8282612214565b91505060408301516122c0604086018261224d565b5060608301516122d3606086018261224d565b5060808301516122e6608086018261224d565b5060a08301516122f960a086018261226c565b508091505092915050565b6000602082019050818103600083015261231e818461227b565b905092915050565b61232f816121b8565b811461233a57600080fd5b50565b60008135905061234c81612326565b92915050565b600060208284031215612368576123676120d4565b5b60006123768482850161233d565b91505092915050565b60008060408385031215612396576123956120d4565b5b60006123a48582860161233d565b92505060206123b585828601612156565b9150509250929050565b600081519050919050565b600082825260208201905092915050565b6000819050602082019050919050565b60006123f783836121f4565b60208301905092915050565b6000602082019050919050565b600061241b826123bf565b61242581856123ca565b9350612430836123db565b8060005b8381101561246157815161244888826123eb565b975061245383612403565b925050600181019050612434565b5085935050505092915050565b600060208201905081810360008301526124888184612410565b905092915050565b7f4e487b7100000000000000000000000000000000000000000000000000000000600052602260045260246000fd5b600060028204905060018216806124d757607f821691505b6020821081036124ea576124e9612490565b5b50919050565b7f4e487b7100000000000000000000000000000000000000000000000000000000600052603260045260246000fd5b7f4e487b7100000000000000000000000000000000000000000000000000000000600052601160045260246000fd5b6000612559826120a0565b9150612564836120a0565b925082820390508181111561257c5761257b61251f565b5b92915050565b600061258d826120a0565b9150612598836120a0565b92508282019050808211156125b0576125af61251f565b5b92915050565b7f4e6f7420656e6f75676820746f6b656e73000000000000000000000000000000600082015250565b60006125ec601183611ff9565b91506125f7826125b6565b602082019050919050565b6000602082019050818103600083015261261b816125df565b9050919050565b6000819050919050565b6000819050919050565b600061265161264c61264784612622565b61262c565b6120a0565b9050919050565b61266181612636565b82525050565b600060208201905061267c6000830184612658565b92915050565b6000608082019050818103600083015261269c8187612045565b90506126ab60208301866121ca565b81810360408301526126bd8185612045565b90506126cc60608301846120aa565b95945050505050565b7f496e76616c696420626f6f737465722074797065000000000000000000000000600082015250565b600061270b601483611ff9565b9150612716826126d5565b602082019050919050565b6000602082019050818103600083015261273a816126fe565b9050919050565b600061274c826120d9565b9150612757836120d9565b9250828201905060ff8111156127705761276f61251f565b5b92915050565b6000612781826120d9565b915060ff82036127945761279361251f565b5b600182019050919050565b600060808201905081810360008301526127b98187612045565b90506127c860208301866121ca565b6127d560408301856120aa565b6127e260608301846121ca565b95945050505050565b7f55736572206e6f74206f776e6572206f66207468697320636172000000000000600082015250565b6000612821601a83611ff9565b915061282c826127eb565b602082019050919050565b6000602082019050818103600083015261285081612814565b9050919050565b600060808201905081810360008301526128718187612045565b905061288060208301866121ca565b61288d60408301856121ca565b61289a60608301846120aa565b95945050505050565b7f496e76616c696420726172697479000000000000000000000000000000000000600082015250565b60006128d9600e83611ff9565b91506128e4826128a3565b602082019050919050565b60006020820190508181036000830152612908816128cc565b9050919050565b7f4e487b7100000000000000000000000000000000000000000000000000000000600052604160045260246000fd5b6000612949826120a0565b91507fffffffffffffffffffffffffffffffffffffffffffffffffffffffffffffffff820361297b5761297a61251f565b5b600182019050919050565b7f4e487b7100000000000000000000000000000000000000000000000000000000600052601260045260246000fd5b60006129c0826120a0565b91506129cb836120a0565b9250826129db576129da612986565b5b828204905092915050565b60008190508160005260206000209050919050565b60006020601f8301049050919050565b600082821b905092915050565b600060088302612a487fffffffffffffffffffffffffffffffffffffffffffffffffffffffffffffffff82612a0b565b612a528683612a0b565b95508019841693508086168417925050509392505050565b6000612a85612a80612a7b846120a0565b61262c565b6120a0565b9050919050565b6000819050919050565b612a9f83612a6a565b612ab3612aab82612a8c565b848454612a18565b825550505050565b600090565b612ac8612abb565b612ad3818484612a96565b505050565b5b81811015612af757612aec600082612ac0565b600181019050612ad9565b5050565b601f821115612b3c57612b0d816129e6565b612b16846129fb565b81016020851015612b25578190505b612b39612b31856129fb565b830182612ad8565b50505b505050565b600082821c905092915050565b6000612b5f60001984600802612b41565b1980831691505092915050565b6000612b788383612b4e565b9150826002028217905092915050565b612b9182611fee565b67ffffffffffffffff811115612baa57612ba961290f565b5b612bb482546124bf565b612bbf828285612afb565b600060209050601f831160018114612bf25760008415612be0578287015190505b612bea8582612b6c565b865550612c52565b601f198416612c00866129e6565b60005b82811015612c2857848901518255600182019150602085019450602081019050612c03565b86831015612c455784890151612c41601f891682612b4e565b8355505b6001600288020188555050505b505050505050565b612c63816120d9565b82525050565b612c728161225c565b82525050565b600060c082019050612c8d60008301896120aa565b8181036020830152612c9f8188612045565b9050612cae6040830187612c5a565b612cbb6060830186612c5a565b612cc86080830185612c5a565b612cd560a0830184612c69565b979650505050505050565b6000819050919050565b612cfb612cf6826120a0565b612ce0565b82525050565b60008160601b9050919050565b6000612d1982612d01565b9050919050565b6000612d2b82612d0e565b9050919050565b612d43612d3e826121b8565b612d20565b82525050565b6000612d558286612cea565b602082019150612d658285612d32565b601482019150612d758284612cea565b602082019150819050949350505050565b6000612d91826120a0565b9150612d9c836120a0565b925082612dac57612dab612986565b5b82820690509291505056fe257320627579696e6720257320626f6f7374657220666f7220257320746f6b656e73257320627579696e6720636f6f6c646f776e20666f7220257320746f6b656e7320282573295472616e7366657272696e672066726f6d20257320746f20257320257320746f6b656e73a264697066735822122098875c88a5da8b2a46e8e32f86b00543e874f5dda7293890a4843a28b181b25b64736f6c63430008120033",
  "linkReferences": {},
  "deployedLinkReferences": {}
}