{
  "_format": "hh-sol-artifact-1",
  "contractName": "FToken",
  "sourceName": "contracts/FToken.sol",
  "abi": [
    {
      "inputs": [],
      "stateMutability": "nonpayable",
      "type": "constructor"
    },
    {
      "anonymous": false,
      "inputs": [
        {
          "indexed": false,
          "internalType": "uint256",
          "name": "id",
          "type": "uint256"
        },
        {
          "indexed": false,
          "internalType": "string",
          "name": "s_rarity",
          "type": "string"
        },
        {
          "indexed": false,
          "internalType": "uint8",
          "name": "speed",
          "type": "uint8"
        },
        {
          "indexed": false,
          "internalType": "uint8",
          "name": "acceleration",
          "type": "uint8"
        },
        {
          "indexed": false,
          "internalType": "uint8",
          "name": "maniability",
          "type": "uint8"
        },
        {
          "indexed": false,
          "internalType": "uint32",
          "name": "readyTime",
          "type": "uint32"
        }
      ],
      "name": "NewCar",
      "type": "event"
    },
    {
      "anonymous": false,
      "inputs": [
        {
          "indexed": true,
          "internalType": "address",
          "name": "_from",
          "type": "address"
        },
        {
          "indexed": true,
          "internalType": "address",
          "name": "_to",
          "type": "address"
        },
        {
          "indexed": false,
          "internalType": "uint256",
          "name": "_value",
          "type": "uint256"
        }
      ],
      "name": "Transfer",
      "type": "event"
    },
    {
      "inputs": [
        {
          "internalType": "address",
          "name": "account",
          "type": "address"
        }
      ],
      "name": "balanceOf",
      "outputs": [
        {
          "internalType": "uint256",
          "name": "",
          "type": "uint256"
        }
      ],
      "stateMutability": "view",
      "type": "function"
    },
    {
      "inputs": [
        {
          "internalType": "uint256",
          "name": "",
          "type": "uint256"
        }
      ],
      "name": "carToOwner",
      "outputs": [
        {
          "internalType": "address",
          "name": "",
          "type": "address"
        }
      ],
      "stateMutability": "view",
      "type": "function"
    },
    {
      "inputs": [
        {
          "internalType": "uint8",
          "name": "rarity",
          "type": "uint8"
        }
      ],
      "name": "generateBooster",
      "outputs": [],
      "stateMutability": "nonpayable",
      "type": "function"
    },
    {
      "inputs": [
        {
          "internalType": "uint256",
          "name": "id",
          "type": "uint256"
        }
      ],
      "name": "getCar",
      "outputs": [
        {
          "components": [
            {
              "internalType": "string",
              "name": "rarity",
              "type": "string"
            },
            {
              "internalType": "uint8",
              "name": "speed",
              "type": "uint8"
            },
            {
              "internalType": "uint8",
              "name": "acceleration",
              "type": "uint8"
            },
            {
              "internalType": "uint8",
              "name": "maniability",
              "type": "uint8"
            },
            {
              "internalType": "uint32",
              "name": "readyTime",
              "type": "uint32"
            }
          ],
          "internalType": "struct FCar.Car",
          "name": "",
          "type": "tuple"
        }
      ],
      "stateMutability": "view",
      "type": "function"
    },
    {
      "inputs": [],
      "name": "getUserCars",
      "outputs": [
        {
          "internalType": "uint256[]",
          "name": "",
          "type": "uint256[]"
        }
      ],
      "stateMutability": "view",
      "type": "function"
    },
    {
      "inputs": [],
      "name": "name",
      "outputs": [
        {
          "internalType": "string",
          "name": "",
          "type": "string"
        }
      ],
      "stateMutability": "view",
      "type": "function"
    },
    {
      "inputs": [],
      "name": "owner",
      "outputs": [
        {
          "internalType": "address",
          "name": "",
          "type": "address"
        }
      ],
      "stateMutability": "view",
      "type": "function"
    },
    {
      "inputs": [],
      "name": "symbol",
      "outputs": [
        {
          "internalType": "string",
          "name": "",
          "type": "string"
        }
      ],
      "stateMutability": "view",
      "type": "function"
    },
    {
      "inputs": [],
      "name": "totalSupply",
      "outputs": [
        {
          "internalType": "uint256",
          "name": "",
          "type": "uint256"
        }
      ],
      "stateMutability": "view",
      "type": "function"
    },
    {
      "inputs": [
        {
          "internalType": "address",
          "name": "to",
          "type": "address"
        },
        {
          "internalType": "uint256",
          "name": "amount",
          "type": "uint256"
        }
      ],
      "name": "transfer",
      "outputs": [],
      "stateMutability": "nonpayable",
      "type": "function"
    }
  ],
  "bytecode": "0x6080604052600060055562015180600660006101000a81548163ffffffff021916908363ffffffff1602179055506040518060400160405280600c81526020017f462d5261636520546f6b656e00000000000000000000000000000000000000008152506007908162000073919062000416565b506040518060400160405280600381526020017f465254000000000000000000000000000000000000000000000000000000000081525060089081620000ba919062000416565b50620f4240600955348015620000cf57600080fd5b50336000806101000a81548173ffffffffffffffffffffffffffffffffffffffff021916908373ffffffffffffffffffffffffffffffffffffffff160217905550600954600a60003373ffffffffffffffffffffffffffffffffffffffff1673ffffffffffffffffffffffffffffffffffffffff16815260200190815260200160002081905550336000806101000a81548173ffffffffffffffffffffffffffffffffffffffff021916908373ffffffffffffffffffffffffffffffffffffffff160217905550620004fd565b600081519050919050565b7f4e487b7100000000000000000000000000000000000000000000000000000000600052604160045260246000fd5b7f4e487b7100000000000000000000000000000000000000000000000000000000600052602260045260246000fd5b600060028204905060018216806200021e57607f821691505b602082108103620002345762000233620001d6565b5b50919050565b60008190508160005260206000209050919050565b60006020601f8301049050919050565b600082821b905092915050565b6000600883026200029e7fffffffffffffffffffffffffffffffffffffffffffffffffffffffffffffffff826200025f565b620002aa86836200025f565b95508019841693508086168417925050509392505050565b6000819050919050565b6000819050919050565b6000620002f7620002f1620002eb84620002c2565b620002cc565b620002c2565b9050919050565b6000819050919050565b6200031383620002d6565b6200032b6200032282620002fe565b8484546200026c565b825550505050565b600090565b6200034262000333565b6200034f81848462000308565b505050565b5b8181101562000377576200036b60008262000338565b60018101905062000355565b5050565b601f821115620003c65762000390816200023a565b6200039b846200024f565b81016020851015620003ab578190505b620003c3620003ba856200024f565b83018262000354565b50505b505050565b600082821c905092915050565b6000620003eb60001984600802620003cb565b1980831691505092915050565b6000620004068383620003d8565b9150826002028217905092915050565b62000421826200019c565b67ffffffffffffffff8111156200043d576200043c620001a7565b5b62000449825462000205565b620004568282856200037b565b600060209050601f8311600181146200048e576000841562000479578287015190505b620004858582620003f8565b865550620004f5565b601f1984166200049e866200023a565b60005b82811015620004c857848901518255600182019150602085019450602081019050620004a1565b86831015620004e85784890151620004e4601f891682620003d8565b8355505b6001600288020188555050505b505050505050565b6124e3806200050d6000396000f3fe608060405234801561001057600080fd5b506004361061009e5760003560e01c806370a082311161006657806370a082311461015b5780638da5cb5b1461018b57806395d89b41146101a9578063a9059cbb146101c7578063c27a399d146101e35761009e565b806306fdde03146100a357806318160ddd146100c15780631d609098146100df57806333ca504b146100fb5780635e8be1901461012b575b600080fd5b6100ab610201565b6040516100b891906118c4565b60405180910390f35b6100c961028f565b6040516100d691906118ff565b60405180910390f35b6100f960048036038101906100f49190611958565b610295565b005b610115600480360381019061011091906119b1565b610331565b6040516101229190611a1f565b60405180910390f35b610145600480360381019061014091906119b1565b610364565b6040516101529190611b28565b60405180910390f35b61017560048036038101906101709190611b76565b6104af565b60405161018291906118ff565b60405180910390f35b6101936104f8565b6040516101a09190611a1f565b60405180910390f35b6101b161051c565b6040516101be91906118c4565b60405180910390f35b6101e160048036038101906101dc9190611ba3565b6105aa565b005b6101eb610765565b6040516101f89190611ca1565b60405180910390f35b6007805461020e90611cf2565b80601f016020809104026020016040519081016040528092919081815260200182805461023a90611cf2565b80156102875780601f1061025c57610100808354040283529160200191610287565b820191906000526020600020905b81548152906001019060200180831161026a57829003601f168201915b505050505081565b60095481565b60008160ff16101580156102ad575060038160ff1611155b6102ec576040517f08c379a00000000000000000000000000000000000000000000000000000000081526004016102e390611d6f565b60405180910390fd5b6103016003826102fc9190611dbe565b6107fa565b60005b60048160ff16101561032d5761031a60006107fa565b808061032590611df3565b915050610304565b5050565b60026020528060005260406000206000915054906101000a900473ffffffffffffffffffffffffffffffffffffffff1681565b61036c6117cc565b600182815481106103805761037f611e1c565b5b90600052602060002090600202016040518060a00160405290816000820180546103a990611cf2565b80601f01602080910402602001604051908101604052809291908181526020018280546103d590611cf2565b80156104225780601f106103f757610100808354040283529160200191610422565b820191906000526020600020905b81548152906001019060200180831161040557829003601f168201915b505050505081526020016001820160009054906101000a900460ff1660ff1660ff1681526020016001820160019054906101000a900460ff1660ff1660ff1681526020016001820160029054906101000a900460ff1660ff1660ff1681526020016001820160039054906101000a900463ffffffff1663ffffffff1663ffffffff16815250509050919050565b6000600a60008373ffffffffffffffffffffffffffffffffffffffff1673ffffffffffffffffffffffffffffffffffffffff168152602001908152602001600020549050919050565b60008054906101000a900473ffffffffffffffffffffffffffffffffffffffff1681565b6008805461052990611cf2565b80601f016020809104026020016040519081016040528092919081815260200182805461055590611cf2565b80156105a25780601f10610577576101008083540402835291602001916105a2565b820191906000526020600020905b81548152906001019060200180831161058557829003601f168201915b505050505081565b80600a60003373ffffffffffffffffffffffffffffffffffffffff1673ffffffffffffffffffffffffffffffffffffffff16815260200190815260200160002054101561062c576040517f08c379a000000000000000000000000000000000000000000000000000000000815260040161062390611e97565b60405180910390fd5b61065060405180606001604052806024815260200161248a60249139338484610c8a565b80600a60003373ffffffffffffffffffffffffffffffffffffffff1673ffffffffffffffffffffffffffffffffffffffff168152602001908152602001600020600082825461069f9190611eb7565b9250508190555080600a60008473ffffffffffffffffffffffffffffffffffffffff1673ffffffffffffffffffffffffffffffffffffffff16815260200190815260200160002060008282546106f59190611eeb565b925050819055508173ffffffffffffffffffffffffffffffffffffffff163373ffffffffffffffffffffffffffffffffffffffff167fddf252ad1be2c89b69c2b068fc378daa952ba7f163c4a11628f55a4df523b3ef8360405161075991906118ff565b60405180910390a35050565b6060600460003373ffffffffffffffffffffffffffffffffffffffff1673ffffffffffffffffffffffffffffffffffffffff1681526020019081526020016000208054806020026020016040519081016040528092919081815260200182805480156107f057602002820191906000526020600020905b8154815260200190600101908083116107dc575b5050505050905090565b60008160ff1610158015610812575060068160ff1611155b610851576040517f08c379a000000000000000000000000000000000000000000000000000000000815260040161084890611f6b565b60405180910390fd5b600061085b610d2c565b90506000600660009054906101000a900463ffffffff1663ffffffff16426108839190611eeb565b905060006108916003610d41565b905060008167ffffffffffffffff8111156108af576108ae611f8b565b5b6040519080825280602002602001820160405280156108dd5781602001602082028036833780820191505090505b50905060005b8281101561093c5760005b6108f86003610d41565b90506109048382610d9d565b6108ee578083838151811061091c5761091b611e1c565b5b60200260200101818152505050808061093490611fba565b9150506108e3565b50606061094761180a565b6000808860ff160361096957620f4240876109629190612031565b90506109e9565b60018860ff160361097d57600190506109e8565b60028860ff1603610992576101f490506109e7565b60038860ff16036109a75761138890506109e6565b60048860ff16036109bc57614e2090506109e5565b60058860ff16036109d15761753090506109e4565b60068860ff16036109e357620186a090505b5b5b5b5b5b5b6109f281610df8565b92506109ff878286610f95565b915060016040518060a00160405280858152602001846000015160ff168152602001846020015160ff168152602001846040015160ff1681526020018863ffffffff1681525090806001815401808255809150506001900390600052602060002090600202016000909190919091506000820151816000019081610a83919061220e565b5060208201518160010160006101000a81548160ff021916908360ff16021790555060408201518160010160016101000a81548160ff021916908360ff16021790555060608201518160010160026101000a81548160ff021916908360ff16021790555060808201518160010160036101000a81548163ffffffff021916908363ffffffff1602179055505050600060018080549050610b239190611eb7565b9050336002600083815260200190815260200160002060006101000a81548173ffffffffffffffffffffffffffffffffffffffff021916908373ffffffffffffffffffffffffffffffffffffffff160217905550600360003373ffffffffffffffffffffffffffffffffffffffff1673ffffffffffffffffffffffffffffffffffffffff1681526020019081526020016000206000815480929190610bc790611fba565b9190505550600460003373ffffffffffffffffffffffffffffffffffffffff1673ffffffffffffffffffffffffffffffffffffffff1681526020019081526020016000208190806001815401808255809150506001900390600052602060002001600090919091909150557f68f1b0c6421768ff2feaa94447c09d83abf4adc2aaa08dc350d7a87ce0a7e87a81858560000151866020015187604001518c604051610c77969594939291906122fe565b60405180910390a1505050505050505050565b610d2684848484604051602401610ca49493929190612366565b6040516020818303038152906040527f8ef3f399000000000000000000000000000000000000000000000000000000007bffffffffffffffffffffffffffffffffffffffffffffffffffffffff19166020820180517bffffffffffffffffffffffffffffffffffffffffffffffffffffffff83818316178352505050506117a3565b50505050565b6000610d3c64174876e800610d41565b905090565b600060056000815480929190610d5690611fba565b9190505550814233600554604051602001610d739392919061241b565b6040516020818303038152906040528051906020012060001c610d969190612458565b9050919050565b600080600090505b8351811015610dec5782848281518110610dc257610dc1611e1c565b5b602002602001015103610dd9576001915050610df2565b8080610de490611fba565b915050610da5565b50600090505b92915050565b606060018211610e3f576040518060400160405280600581526020017f52656c69630000000000000000000000000000000000000000000000000000008152509050610f90565b6101f48211610e85576040518060400160405280600981526020017f4c6567656e6461727900000000000000000000000000000000000000000000008152509050610f90565b6113888211610ecb576040518060400160405280600681526020017f4d797468696300000000000000000000000000000000000000000000000000008152509050610f90565b614e208211610f11576040518060400160405280600481526020017f52617265000000000000000000000000000000000000000000000000000000008152509050610f90565b6175308211610f57576040518060400160405280600881526020017f556e636f6d6d6f6e0000000000000000000000000000000000000000000000008152509050610f90565b6040518060400160405280600681526020017f436f6d6d6f6e000000000000000000000000000000000000000000000000000081525090505b919050565b610f9d61180a565b610fa561180a565b60018411610fdb576040518060600160405280606460ff168152602001606460ff168152602001606460ff168152509050611798565b6101f4841161116957610fef836000610d9d565b61102a5760146064612710876110059190612031565b61100f9190612458565b6110199190612458565b60506110259190611eeb565b61105d565b600a60646127108761103c9190612031565b6110469190612458565b6110509190612458565b605a61105c9190611eeb565b5b816000019060ff16908160ff1681525050611079836001610d9d565b6110b25760146064808761108d9190612031565b6110979190612458565b6110a19190612458565b60506110ad9190611eeb565b6110e3565b600a606480876110c29190612031565b6110cc9190612458565b6110d69190612458565b605a6110e29190611eeb565b5b816020019060ff16908160ff16815250506110ff836002610d9d565b61112d5760146064866111129190612458565b61111c9190612458565b60506111289190611eeb565b611153565b600a60648661113c9190612458565b6111469190612458565b605a6111529190611eeb565b5b816040019060ff16908160ff1681525050611797565b61138884116112f75761117d836000610d9d565b6111b85760196064612710876111939190612031565b61119d9190612458565b6111a79190612458565b60416111b39190611eeb565b6111eb565b600a6064612710876111ca9190612031565b6111d49190612458565b6111de9190612458565b60506111ea9190611eeb565b5b816000019060ff16908160ff1681525050611207836001610d9d565b6112405760196064808761121b9190612031565b6112259190612458565b61122f9190612458565b604161123b9190611eeb565b611271565b600a606480876112509190612031565b61125a9190612458565b6112649190612458565b60506112709190611eeb565b5b816020019060ff16908160ff168152505061128d836002610d9d565b6112bb5760196064866112a09190612458565b6112aa9190612458565b60416112b69190611eeb565b6112e1565b600a6064866112ca9190612458565b6112d49190612458565b60506112e09190611eeb565b5b816040019060ff16908160ff1681525050611796565b614e2084116114855761130b836000610d9d565b61134657601e6064612710876113219190612031565b61132b9190612458565b6113359190612458565b60326113419190611eeb565b611379565b600f6064612710876113589190612031565b6113629190612458565b61136c9190612458565b60416113789190611eeb565b5b816000019060ff16908160ff1681525050611395836001610d9d565b6113ce57601e606480876113a99190612031565b6113b39190612458565b6113bd9190612458565b60326113c99190611eeb565b6113ff565b600f606480876113de9190612031565b6113e89190612458565b6113f29190612458565b60416113fe9190611eeb565b5b816020019060ff16908160ff168152505061141b836002610d9d565b61144957601e60648661142e9190612458565b6114389190612458565b60326114449190611eeb565b61146f565b600f6064866114589190612458565b6114629190612458565b604161146e9190611eeb565b5b816040019060ff16908160ff1681525050611795565b617530841161161357611499836000610d9d565b6114d45760146064612710876114af9190612031565b6114b99190612458565b6114c39190612458565b601e6114cf9190611eeb565b611507565b600f6064612710876114e69190612031565b6114f09190612458565b6114fa9190612458565b60326115069190611eeb565b5b816000019060ff16908160ff1681525050611523836001610d9d565b61155c576014606480876115379190612031565b6115419190612458565b61154b9190612458565b601e6115579190611eeb565b61158d565b600f6064808761156c9190612031565b6115769190612458565b6115809190612458565b603261158c9190611eeb565b5b816020019060ff16908160ff16815250506115a9836002610d9d565b6115d75760146064866115bc9190612458565b6115c69190612458565b601e6115d29190611eeb565b6115fd565b600f6064866115e69190612458565b6115f09190612458565b60326115fc9190611eeb565b5b816040019060ff16908160ff1681525050611794565b61161e836000610d9d565b61165957600a6064612710876116349190612031565b61163e9190612458565b6116489190612458565b60146116549190611eeb565b61168c565b600560646127108761166b9190612031565b6116759190612458565b61167f9190612458565b601e61168b9190611eeb565b5b816000019060ff16908160ff16815250506116a8836001610d9d565b6116e157600a606480876116bc9190612031565b6116c69190612458565b6116d09190612458565b60146116dc9190611eeb565b611712565b6005606480876116f19190612031565b6116fb9190612458565b6117059190612458565b601e6117119190611eeb565b5b816020019060ff16908160ff168152505061172e836002610d9d565b61175c57600a6064866117419190612458565b61174b9190612458565b60146117579190611eeb565b611782565b600560648661176b9190612458565b6117759190612458565b601e6117819190611eeb565b5b816040019060ff16908160ff16815250505b5b5b5b5b809150509392505050565b60008151905060006a636f6e736f6c652e6c6f679050602083016000808483855afa5050505050565b6040518060a0016040528060608152602001600060ff168152602001600060ff168152602001600060ff168152602001600063ffffffff1681525090565b6040518060600160405280600060ff168152602001600060ff168152602001600060ff1681525090565b600081519050919050565b600082825260208201905092915050565b60005b8381101561186e578082015181840152602081019050611853565b60008484015250505050565b6000601f19601f8301169050919050565b600061189682611834565b6118a0818561183f565b93506118b0818560208601611850565b6118b98161187a565b840191505092915050565b600060208201905081810360008301526118de818461188b565b905092915050565b6000819050919050565b6118f9816118e6565b82525050565b600060208201905061191460008301846118f0565b92915050565b600080fd5b600060ff82169050919050565b6119358161191f565b811461194057600080fd5b50565b6000813590506119528161192c565b92915050565b60006020828403121561196e5761196d61191a565b5b600061197c84828501611943565b91505092915050565b61198e816118e6565b811461199957600080fd5b50565b6000813590506119ab81611985565b92915050565b6000602082840312156119c7576119c661191a565b5b60006119d58482850161199c565b91505092915050565b600073ffffffffffffffffffffffffffffffffffffffff82169050919050565b6000611a09826119de565b9050919050565b611a19816119fe565b82525050565b6000602082019050611a346000830184611a10565b92915050565b600082825260208201905092915050565b6000611a5682611834565b611a608185611a3a565b9350611a70818560208601611850565b611a798161187a565b840191505092915050565b611a8d8161191f565b82525050565b600063ffffffff82169050919050565b611aac81611a93565b82525050565b600060a0830160008301518482036000860152611acf8282611a4b565b9150506020830151611ae46020860182611a84565b506040830151611af76040860182611a84565b506060830151611b0a6060860182611a84565b506080830151611b1d6080860182611aa3565b508091505092915050565b60006020820190508181036000830152611b428184611ab2565b905092915050565b611b53816119fe565b8114611b5e57600080fd5b50565b600081359050611b7081611b4a565b92915050565b600060208284031215611b8c57611b8b61191a565b5b6000611b9a84828501611b61565b91505092915050565b60008060408385031215611bba57611bb961191a565b5b6000611bc885828601611b61565b9250506020611bd98582860161199c565b9150509250929050565b600081519050919050565b600082825260208201905092915050565b6000819050602082019050919050565b611c18816118e6565b82525050565b6000611c2a8383611c0f565b60208301905092915050565b6000602082019050919050565b6000611c4e82611be3565b611c588185611bee565b9350611c6383611bff565b8060005b83811015611c94578151611c7b8882611c1e565b9750611c8683611c36565b925050600181019050611c67565b5085935050505092915050565b60006020820190508181036000830152611cbb8184611c43565b905092915050565b7f4e487b7100000000000000000000000000000000000000000000000000000000600052602260045260246000fd5b60006002820490506001821680611d0a57607f821691505b602082108103611d1d57611d1c611cc3565b5b50919050565b7f496e76616c696420626f6f737465722074797065000000000000000000000000600082015250565b6000611d5960148361183f565b9150611d6482611d23565b602082019050919050565b60006020820190508181036000830152611d8881611d4c565b9050919050565b7f4e487b7100000000000000000000000000000000000000000000000000000000600052601160045260246000fd5b6000611dc98261191f565b9150611dd48361191f565b9250828201905060ff811115611ded57611dec611d8f565b5b92915050565b6000611dfe8261191f565b915060ff8203611e1157611e10611d8f565b5b600182019050919050565b7f4e487b7100000000000000000000000000000000000000000000000000000000600052603260045260246000fd5b7f4e6f7420656e6f75676820746f6b656e73000000000000000000000000000000600082015250565b6000611e8160118361183f565b9150611e8c82611e4b565b602082019050919050565b60006020820190508181036000830152611eb081611e74565b9050919050565b6000611ec2826118e6565b9150611ecd836118e6565b9250828203905081811115611ee557611ee4611d8f565b5b92915050565b6000611ef6826118e6565b9150611f01836118e6565b9250828201905080821115611f1957611f18611d8f565b5b92915050565b7f496e76616c696420726172697479000000000000000000000000000000000000600082015250565b6000611f55600e8361183f565b9150611f6082611f1f565b602082019050919050565b60006020820190508181036000830152611f8481611f48565b9050919050565b7f4e487b7100000000000000000000000000000000000000000000000000000000600052604160045260246000fd5b6000611fc5826118e6565b91507fffffffffffffffffffffffffffffffffffffffffffffffffffffffffffffffff8203611ff757611ff6611d8f565b5b600182019050919050565b7f4e487b7100000000000000000000000000000000000000000000000000000000600052601260045260246000fd5b600061203c826118e6565b9150612047836118e6565b92508261205757612056612002565b5b828204905092915050565b60008190508160005260206000209050919050565b60006020601f8301049050919050565b600082821b905092915050565b6000600883026120c47fffffffffffffffffffffffffffffffffffffffffffffffffffffffffffffffff82612087565b6120ce8683612087565b95508019841693508086168417925050509392505050565b6000819050919050565b600061210b612106612101846118e6565b6120e6565b6118e6565b9050919050565b6000819050919050565b612125836120f0565b61213961213182612112565b848454612094565b825550505050565b600090565b61214e612141565b61215981848461211c565b505050565b5b8181101561217d57612172600082612146565b60018101905061215f565b5050565b601f8211156121c25761219381612062565b61219c84612077565b810160208510156121ab578190505b6121bf6121b785612077565b83018261215e565b50505b505050565b600082821c905092915050565b60006121e5600019846008026121c7565b1980831691505092915050565b60006121fe83836121d4565b9150826002028217905092915050565b61221782611834565b67ffffffffffffffff8111156122305761222f611f8b565b5b61223a8254611cf2565b612245828285612181565b600060209050601f8311600181146122785760008415612266578287015190505b61227085826121f2565b8655506122d8565b601f19841661228686612062565b60005b828110156122ae57848901518255600182019150602085019450602081019050612289565b868310156122cb57848901516122c7601f8916826121d4565b8355505b6001600288020188555050505b505050505050565b6122e98161191f565b82525050565b6122f881611a93565b82525050565b600060c08201905061231360008301896118f0565b8181036020830152612325818861188b565b905061233460408301876122e0565b61234160608301866122e0565b61234e60808301856122e0565b61235b60a08301846122ef565b979650505050505050565b60006080820190508181036000830152612380818761188b565b905061238f6020830186611a10565b61239c6040830185611a10565b6123a960608301846118f0565b95945050505050565b6000819050919050565b6123cd6123c8826118e6565b6123b2565b82525050565b60008160601b9050919050565b60006123eb826123d3565b9050919050565b60006123fd826123e0565b9050919050565b612415612410826119fe565b6123f2565b82525050565b600061242782866123bc565b6020820191506124378285612404565b60148201915061244782846123bc565b602082019150819050949350505050565b6000612463826118e6565b915061246e836118e6565b92508261247e5761247d612002565b5b82820690509291505056fe5472616e7366657272696e672066726f6d20257320746f20257320257320746f6b656e73a2646970667358221220deea81b700281aae70b1437bd3fd50f64cafaa7100e50d3884673efa5e9b475f64736f6c63430008120033",
  "linkReferences": {},
  "deployedLinkReferences": {}
}