{
  "_format": "hh-sol-artifact-1",
  "contractName": "NFTCar",
  "sourceName": "contracts/NFTCar.sol",
  "abi": [
    {
      "inputs": [
        {
          "internalType": "address",
          "name": "_fcarToken",
          "type": "address"
        }
      ],
      "stateMutability": "nonpayable",
      "type": "constructor"
    },
    {
      "anonymous": false,
      "inputs": [
        {
          "indexed": true,
          "internalType": "address",
          "name": "owner",
          "type": "address"
        },
        {
          "indexed": true,
          "internalType": "address",
          "name": "approved",
          "type": "address"
        },
        {
          "indexed": true,
          "internalType": "uint256",
          "name": "tokenId",
          "type": "uint256"
        }
      ],
      "name": "Approval",
      "type": "event"
    },
    {
      "anonymous": false,
      "inputs": [
        {
          "indexed": true,
          "internalType": "address",
          "name": "owner",
          "type": "address"
        },
        {
          "indexed": true,
          "internalType": "address",
          "name": "operator",
          "type": "address"
        },
        {
          "indexed": false,
          "internalType": "bool",
          "name": "approved",
          "type": "bool"
        }
      ],
      "name": "ApprovalForAll",
      "type": "event"
    },
    {
      "anonymous": false,
      "inputs": [
        {
          "indexed": false,
          "internalType": "uint256",
          "name": "_fromTokenId",
          "type": "uint256"
        },
        {
          "indexed": false,
          "internalType": "uint256",
          "name": "_toTokenId",
          "type": "uint256"
        }
      ],
      "name": "BatchMetadataUpdate",
      "type": "event"
    },
    {
      "anonymous": false,
      "inputs": [
        {
          "indexed": false,
          "internalType": "string",
          "name": "uri",
          "type": "string"
        }
      ],
      "name": "CollectionAdded",
      "type": "event"
    },
    {
      "anonymous": false,
      "inputs": [
        {
          "indexed": false,
          "internalType": "uint256",
          "name": "idVoiture",
          "type": "uint256"
        },
        {
          "indexed": false,
          "internalType": "address",
          "name": "gagnant",
          "type": "address"
        },
        {
          "indexed": false,
          "internalType": "uint256",
          "name": "montant",
          "type": "uint256"
        }
      ],
      "name": "EnchereTerminee",
      "type": "event"
    },
    {
      "anonymous": false,
      "inputs": [
        {
          "indexed": false,
          "internalType": "string",
          "name": "message",
          "type": "string"
        },
        {
          "indexed": false,
          "internalType": "uint256",
          "name": "value",
          "type": "uint256"
        }
      ],
      "name": "LogI",
      "type": "event"
    },
    {
      "anonymous": false,
      "inputs": [
        {
          "indexed": false,
          "internalType": "string",
          "name": "message",
          "type": "string"
        },
        {
          "indexed": false,
          "internalType": "string",
          "name": "value",
          "type": "string"
        }
      ],
      "name": "LogS",
      "type": "event"
    },
    {
      "anonymous": false,
      "inputs": [
        {
          "indexed": false,
          "internalType": "uint256",
          "name": "_tokenId",
          "type": "uint256"
        }
      ],
      "name": "MetadataUpdate",
      "type": "event"
    },
    {
      "anonymous": false,
      "inputs": [
        {
          "indexed": true,
          "internalType": "address",
          "name": "to",
          "type": "address"
        },
        {
          "indexed": true,
          "internalType": "uint256",
          "name": "tokenId",
          "type": "uint256"
        },
        {
          "indexed": true,
          "internalType": "string",
          "name": "uri",
          "type": "string"
        },
        {
          "indexed": false,
          "internalType": "string",
          "name": "index",
          "type": "string"
        }
      ],
      "name": "Minted",
      "type": "event"
    },
    {
      "anonymous": false,
      "inputs": [
        {
          "indexed": false,
          "internalType": "uint256",
          "name": "idVoiture",
          "type": "uint256"
        },
        {
          "indexed": false,
          "internalType": "address",
          "name": "acheteur",
          "type": "address"
        },
        {
          "indexed": false,
          "internalType": "uint256",
          "name": "montant",
          "type": "uint256"
        }
      ],
      "name": "NouvelleMeilleureOffre",
      "type": "event"
    },
    {
      "anonymous": false,
      "inputs": [
        {
          "indexed": true,
          "internalType": "address",
          "name": "previousOwner",
          "type": "address"
        },
        {
          "indexed": true,
          "internalType": "address",
          "name": "newOwner",
          "type": "address"
        }
      ],
      "name": "OwnershipTransferred",
      "type": "event"
    },
    {
      "anonymous": false,
      "inputs": [
        {
          "indexed": true,
          "internalType": "address",
          "name": "from",
          "type": "address"
        },
        {
          "indexed": true,
          "internalType": "address",
          "name": "to",
          "type": "address"
        },
        {
          "indexed": true,
          "internalType": "uint256",
          "name": "tokenId",
          "type": "uint256"
        }
      ],
      "name": "Transfer",
      "type": "event"
    },
    {
      "inputs": [
        {
          "internalType": "string",
          "name": "_uri",
          "type": "string"
        },
        {
          "internalType": "string",
          "name": "_rarities",
          "type": "string"
        }
      ],
      "name": "addCollection",
      "outputs": [],
      "stateMutability": "nonpayable",
      "type": "function"
    },
    {
      "inputs": [
        {
          "internalType": "address",
          "name": "to",
          "type": "address"
        },
        {
          "internalType": "uint256",
          "name": "tokenId",
          "type": "uint256"
        }
      ],
      "name": "approve",
      "outputs": [],
      "stateMutability": "nonpayable",
      "type": "function"
    },
    {
      "inputs": [
        {
          "internalType": "address",
          "name": "owner",
          "type": "address"
        }
      ],
      "name": "balanceOf",
      "outputs": [
        {
          "internalType": "uint256",
          "name": "",
          "type": "uint256"
        }
      ],
      "stateMutability": "view",
      "type": "function"
    },
    {
      "inputs": [
        {
          "internalType": "uint256",
          "name": "idVoiture",
          "type": "uint256"
        },
        {
          "internalType": "uint256",
          "name": "prix",
          "type": "uint256"
        },
        {
          "internalType": "address",
          "name": "seller",
          "type": "address"
        }
      ],
      "name": "commencerEnchere",
      "outputs": [],
      "stateMutability": "nonpayable",
      "type": "function"
    },
    {
      "inputs": [
        {
          "internalType": "uint256",
          "name": "",
          "type": "uint256"
        }
      ],
      "name": "encheres",
      "outputs": [
        {
          "internalType": "bool",
          "name": "termine",
          "type": "bool"
        },
        {
          "internalType": "address",
          "name": "meilleurAcheteur",
          "type": "address"
        },
        {
          "internalType": "uint256",
          "name": "meilleureOffre",
          "type": "uint256"
        },
        {
          "internalType": "uint256",
          "name": "finEnchere",
          "type": "uint256"
        }
      ],
      "stateMutability": "view",
      "type": "function"
    },
    {
      "inputs": [
        {
          "internalType": "uint256",
          "name": "idNFT",
          "type": "uint256"
        },
        {
          "internalType": "uint256",
          "name": "montant",
          "type": "uint256"
        }
      ],
      "name": "faireOffre",
      "outputs": [],
      "stateMutability": "nonpayable",
      "type": "function"
    },
    {
      "inputs": [
        {
          "internalType": "uint256",
          "name": "tokenId",
          "type": "uint256"
        }
      ],
      "name": "getApproved",
      "outputs": [
        {
          "internalType": "address",
          "name": "",
          "type": "address"
        }
      ],
      "stateMutability": "view",
      "type": "function"
    },
    {
      "inputs": [],
      "name": "getUserNFTs",
      "outputs": [
        {
          "internalType": "uint256[]",
          "name": "",
          "type": "uint256[]"
        }
      ],
      "stateMutability": "view",
      "type": "function"
    },
    {
      "inputs": [
        {
          "internalType": "address",
          "name": "owner",
          "type": "address"
        },
        {
          "internalType": "address",
          "name": "operator",
          "type": "address"
        }
      ],
      "name": "isApprovedForAll",
      "outputs": [
        {
          "internalType": "bool",
          "name": "",
          "type": "bool"
        }
      ],
      "stateMutability": "view",
      "type": "function"
    },
    {
      "inputs": [
        {
          "internalType": "uint8",
          "name": "_forcedRarity",
          "type": "uint8"
        }
      ],
      "name": "mint",
      "outputs": [],
      "stateMutability": "nonpayable",
      "type": "function"
    },
    {
      "inputs": [],
      "name": "name",
      "outputs": [
        {
          "internalType": "string",
          "name": "",
          "type": "string"
        }
      ],
      "stateMutability": "view",
      "type": "function"
    },
    {
      "inputs": [],
      "name": "owner",
      "outputs": [
        {
          "internalType": "address",
          "name": "",
          "type": "address"
        }
      ],
      "stateMutability": "view",
      "type": "function"
    },
    {
      "inputs": [
        {
          "internalType": "uint256",
          "name": "tokenId",
          "type": "uint256"
        }
      ],
      "name": "ownerOf",
      "outputs": [
        {
          "internalType": "address",
          "name": "",
          "type": "address"
        }
      ],
      "stateMutability": "view",
      "type": "function"
    },
    {
      "inputs": [],
      "name": "renounceOwnership",
      "outputs": [],
      "stateMutability": "nonpayable",
      "type": "function"
    },
    {
      "inputs": [
        {
          "internalType": "address",
          "name": "from",
          "type": "address"
        },
        {
          "internalType": "address",
          "name": "to",
          "type": "address"
        },
        {
          "internalType": "uint256",
          "name": "tokenId",
          "type": "uint256"
        }
      ],
      "name": "safeTransferFrom",
      "outputs": [],
      "stateMutability": "nonpayable",
      "type": "function"
    },
    {
      "inputs": [
        {
          "internalType": "address",
          "name": "from",
          "type": "address"
        },
        {
          "internalType": "address",
          "name": "to",
          "type": "address"
        },
        {
          "internalType": "uint256",
          "name": "tokenId",
          "type": "uint256"
        },
        {
          "internalType": "bytes",
          "name": "data",
          "type": "bytes"
        }
      ],
      "name": "safeTransferFrom",
      "outputs": [],
      "stateMutability": "nonpayable",
      "type": "function"
    },
    {
      "inputs": [
        {
          "internalType": "address",
          "name": "operator",
          "type": "address"
        },
        {
          "internalType": "bool",
          "name": "approved",
          "type": "bool"
        }
      ],
      "name": "setApprovalForAll",
      "outputs": [],
      "stateMutability": "nonpayable",
      "type": "function"
    },
    {
      "inputs": [
        {
          "internalType": "bytes4",
          "name": "interfaceId",
          "type": "bytes4"
        }
      ],
      "name": "supportsInterface",
      "outputs": [
        {
          "internalType": "bool",
          "name": "",
          "type": "bool"
        }
      ],
      "stateMutability": "view",
      "type": "function"
    },
    {
      "inputs": [],
      "name": "symbol",
      "outputs": [
        {
          "internalType": "string",
          "name": "",
          "type": "string"
        }
      ],
      "stateMutability": "view",
      "type": "function"
    },
    {
      "inputs": [
        {
          "internalType": "uint256",
          "name": "idNFT",
          "type": "uint256"
        }
      ],
      "name": "terminerEnchere",
      "outputs": [],
      "stateMutability": "nonpayable",
      "type": "function"
    },
    {
      "inputs": [
        {
          "internalType": "uint256",
          "name": "tokenId",
          "type": "uint256"
        }
      ],
      "name": "tokenURI",
      "outputs": [
        {
          "internalType": "string",
          "name": "",
          "type": "string"
        }
      ],
      "stateMutability": "view",
      "type": "function"
    },
    {
      "inputs": [
        {
          "internalType": "address",
          "name": "from",
          "type": "address"
        },
        {
          "internalType": "address",
          "name": "to",
          "type": "address"
        },
        {
          "internalType": "uint256",
          "name": "tokenId",
          "type": "uint256"
        }
      ],
      "name": "transferFrom",
      "outputs": [],
      "stateMutability": "nonpayable",
      "type": "function"
    },
    {
      "inputs": [
        {
          "internalType": "address",
          "name": "newOwner",
          "type": "address"
        }
      ],
      "name": "transferOwnership",
      "outputs": [],
      "stateMutability": "nonpayable",
      "type": "function"
    },
    {
      "inputs": [
        {
          "internalType": "uint256",
          "name": "",
          "type": "uint256"
        }
      ],
      "name": "voituresEncheresActives",
      "outputs": [
        {
          "internalType": "uint256",
          "name": "",
          "type": "uint256"
        }
      ],
      "stateMutability": "view",
      "type": "function"
    },
    {
      "inputs": [
        {
          "internalType": "uint256",
          "name": "",
          "type": "uint256"
        }
      ],
      "name": "voituresEncheresTerminees",
      "outputs": [
        {
          "internalType": "bool",
          "name": "termine",
          "type": "bool"
        },
        {
          "internalType": "address",
          "name": "meilleurAcheteur",
          "type": "address"
        },
        {
          "internalType": "uint256",
          "name": "meilleureOffre",
          "type": "uint256"
        },
        {
          "internalType": "uint256",
          "name": "finEnchere",
          "type": "uint256"
        }
      ],
      "stateMutability": "view",
      "type": "function"
    }
  ],
  "bytecode": "0x60806040523480156200001157600080fd5b506040516200643438038062006434833981810160405281019062000037919062000279565b6040518060400160405280600681526020017f4e465443617200000000000000000000000000000000000000000000000000008152506040518060400160405280600681526020017f4e465443415200000000000000000000000000000000000000000000000000008152508160009081620000b4919062000525565b508060019081620000c6919062000525565b505050620000e9620000dd6200014160201b60201c565b6200014960201b60201c565b80600e60006101000a81548173ffffffffffffffffffffffffffffffffffffffff021916908373ffffffffffffffffffffffffffffffffffffffff1602179055506000600d819055506000600c81905550506200060c565b600033905090565b6000600760009054906101000a900473ffffffffffffffffffffffffffffffffffffffff16905081600760006101000a81548173ffffffffffffffffffffffffffffffffffffffff021916908373ffffffffffffffffffffffffffffffffffffffff1602179055508173ffffffffffffffffffffffffffffffffffffffff168173ffffffffffffffffffffffffffffffffffffffff167f8be0079c531659141344cd1fd0a4f28419497f9722a3daafe3b4186f6b6457e060405160405180910390a35050565b600080fd5b600073ffffffffffffffffffffffffffffffffffffffff82169050919050565b6000620002418262000214565b9050919050565b620002538162000234565b81146200025f57600080fd5b50565b600081519050620002738162000248565b92915050565b6000602082840312156200029257620002916200020f565b5b6000620002a28482850162000262565b91505092915050565b600081519050919050565b7f4e487b7100000000000000000000000000000000000000000000000000000000600052604160045260246000fd5b7f4e487b7100000000000000000000000000000000000000000000000000000000600052602260045260246000fd5b600060028204905060018216806200032d57607f821691505b602082108103620003435762000342620002e5565b5b50919050565b60008190508160005260206000209050919050565b60006020601f8301049050919050565b600082821b905092915050565b600060088302620003ad7fffffffffffffffffffffffffffffffffffffffffffffffffffffffffffffffff826200036e565b620003b986836200036e565b95508019841693508086168417925050509392505050565b6000819050919050565b6000819050919050565b60006200040662000400620003fa84620003d1565b620003db565b620003d1565b9050919050565b6000819050919050565b6200042283620003e5565b6200043a62000431826200040d565b8484546200037b565b825550505050565b600090565b6200045162000442565b6200045e81848462000417565b505050565b5b8181101562000486576200047a60008262000447565b60018101905062000464565b5050565b601f821115620004d5576200049f8162000349565b620004aa846200035e565b81016020851015620004ba578190505b620004d2620004c9856200035e565b83018262000463565b50505b505050565b600082821c905092915050565b6000620004fa60001984600802620004da565b1980831691505092915050565b6000620005158383620004e7565b9150826002028217905092915050565b6200053082620002ab565b67ffffffffffffffff8111156200054c576200054b620002b6565b5b62000558825462000314565b620005658282856200048a565b600060209050601f8311600181146200059d576000841562000588578287015190505b62000594858262000507565b86555062000604565b601f198416620005ad8662000349565b60005b82811015620005d757848901518255600182019150602085019450602081019050620005b0565b86831015620005f75784890151620005f3601f891682620004e7565b8355505b6001600288020188555050505b505050505050565b615e18806200061c6000396000f3fe608060405234801561001057600080fd5b50600436106101735760003560e01c80636ecd2306116100de578063a22cb46511610097578063c87b56dd11610071578063c87b56dd1461044a578063e985e9c51461047a578063f2fde38b146104aa578063fdc5ab8e146104c657610173565b8063a22cb465146103df578063ae793014146103fb578063b88d4fde1461042e57610173565b80636ecd23061461033157806370a082311461034d578063715018a61461037d57806387d6488a146103875780638da5cb5b146103a357806395d89b41146103c157610173565b80631ccacf09116101305780631ccacf091461026157806323b872dd146102915780632941a9f4146102ad578063407917eb146102c957806342842e0e146102e55780636352211e1461030157610173565b8063015c603d1461017857806301ffc9a7146101ab57806306fdde03146101db578063081812fc146101f9578063095ea7b31461022957806313a2920414610245575b600080fd5b610192600480360381019061018d9190613f6d565b6104e4565b6040516101a29493929190614005565b60405180910390f35b6101c560048036038101906101c091906140a2565b610541565b6040516101d291906140cf565b60405180910390f35b6101e36105a2565b6040516101f0919061417a565b60405180910390f35b610213600480360381019061020e9190613f6d565b610634565b604051610220919061419c565b60405180910390f35b610243600480360381019061023e91906141e3565b61067a565b005b61025f600480360381019061025a9190614223565b610791565b005b61027b60048036038101906102769190613f6d565b610cf7565b6040516102889190614263565b60405180910390f35b6102ab60048036038101906102a6919061427e565b610d1b565b005b6102c760048036038101906102c29190613f6d565b610d7b565b005b6102e360048036038101906102de9190614336565b611683565b005b6102ff60048036038101906102fa919061427e565b61178c565b005b61031b60048036038101906103169190613f6d565b6117ac565b604051610328919061419c565b60405180910390f35b61034b600480360381019061034691906143f0565b611832565b005b6103676004803603810190610362919061441d565b6120af565b6040516103749190614263565b60405180910390f35b610385612166565b005b6103a1600480360381019061039c919061444a565b61217a565b005b6103ab61244a565b6040516103b8919061419c565b60405180910390f35b6103c9612474565b6040516103d6919061417a565b60405180910390f35b6103f960048036038101906103f491906144c9565b612506565b005b61041560048036038101906104109190613f6d565b61251c565b6040516104259493929190614005565b60405180910390f35b61044860048036038101906104439190614639565b612589565b005b610464600480360381019061045f9190613f6d565b6125eb565b604051610471919061417a565b60405180910390f35b610494600480360381019061048f91906146bc565b6126fd565b6040516104a191906140cf565b60405180910390f35b6104c460048036038101906104bf919061441d565b612791565b005b6104ce612814565b6040516104db91906147ba565b60405180910390f35b600f6020528060005260406000206000915090508060000160009054906101000a900460ff16908060000160019054906101000a900473ffffffffffffffffffffffffffffffffffffffff16908060010154908060020154905084565b6000634906490660e01b7bffffffffffffffffffffffffffffffffffffffffffffffffffffffff1916827bffffffffffffffffffffffffffffffffffffffffffffffffffffffff1916148061059b575061059a826128a9565b5b9050919050565b6060600080546105b19061480b565b80601f01602080910402602001604051908101604052809291908181526020018280546105dd9061480b565b801561062a5780601f106105ff5761010080835404028352916020019161062a565b820191906000526020600020905b81548152906001019060200180831161060d57829003601f168201915b5050505050905090565b600061063f8261298b565b6004600083815260200190815260200160002060009054906101000a900473ffffffffffffffffffffffffffffffffffffffff169050919050565b6000610685826117ac565b90508073ffffffffffffffffffffffffffffffffffffffff168373ffffffffffffffffffffffffffffffffffffffff16036106f5576040517f08c379a00000000000000000000000000000000000000000000000000000000081526004016106ec906148ae565b60405180910390fd5b8073ffffffffffffffffffffffffffffffffffffffff166107146129d6565b73ffffffffffffffffffffffffffffffffffffffff16148061074357506107428161073d6129d6565b6126fd565b5b610782576040517f08c379a000000000000000000000000000000000000000000000000000000000815260040161077990614940565b60405180910390fd5b61078c83836129de565b505050565b6000600f6000848152602001908152602001600020905060008061092b836040518060c00160405290816000820160009054906101000a900460ff161515151581526020016000820160019054906101000a900473ffffffffffffffffffffffffffffffffffffffff1673ffffffffffffffffffffffffffffffffffffffff1673ffffffffffffffffffffffffffffffffffffffff1681526020016001820154815260200160028201548152602001600382018054806020026020016040519081016040528092919081815260200182805480156108c457602002820191906000526020600020905b8160009054906101000a900473ffffffffffffffffffffffffffffffffffffffff1673ffffffffffffffffffffffffffffffffffffffff168152602001906001019080831161087a575b505050505081526020016004820180548060200260200160405190810160405280929190818152602001828054801561091c57602002820191906000526020600020905b815481526020019060010190808311610908575b50505050508152505033612a97565b90508260030180549050811461095f5782600401818154811061095157610950614960565b5b906000526020600020015491505b82600201544211156109a6576040517f08c379a000000000000000000000000000000000000000000000000000000000815260040161099d906149db565b60405180910390fd5b826001015482856109b79190614a2a565b116109f7576040517f08c379a00000000000000000000000000000000000000000000000000000000081526004016109ee90614aaa565b60405180910390fd5b83600e60009054906101000a900473ffffffffffffffffffffffffffffffffffffffff1673ffffffffffffffffffffffffffffffffffffffff166370a08231336040518263ffffffff1660e01b8152600401610a53919061419c565b602060405180830381865afa158015610a70573d6000803e3d6000fd5b505050506040513d601f19601f82011682018060405250810190610a949190614adf565b1015610ad5576040517f08c379a0000000000000000000000000000000000000000000000000000000008152600401610acc90614b58565b60405180910390fd5b600e60009054906101000a900473ffffffffffffffffffffffffffffffffffffffff1673ffffffffffffffffffffffffffffffffffffffff166323b872dd3330876040518463ffffffff1660e01b8152600401610b3493929190614b78565b6020604051808303816000875af1158015610b53573d6000803e3d6000fd5b505050506040513d601f19601f82011682018060405250810190610b779190614bc4565b5082600301805490508114610bc25783836004018281548110610b9d57610b9c614960565b5b906000526020600020016000828254610bb69190614a2a565b92505081905550610c53565b82600301339080600181540180825580915050600190039060005260206000200160009091909190916101000a81548173ffffffffffffffffffffffffffffffffffffffff021916908373ffffffffffffffffffffffffffffffffffffffff160217905550826004018490806001815401808255809150506001900390600052602060002001600090919091909150555b338360000160016101000a81548173ffffffffffffffffffffffffffffffffffffffff021916908373ffffffffffffffffffffffffffffffffffffffff1602179055508184610ca29190614a2a565b83600101819055507f7f68ede85a9fb6159422305b57ac1660b809478f78888413e1c7a581534aa56285338487610cd99190614a2a565b604051610ce893929190614bf1565b60405180910390a15050505050565b60108181548110610d0757600080fd5b906000526020600020016000915090505481565b610d2c610d266129d6565b82612b29565b610d6b576040517f08c379a0000000000000000000000000000000000000000000000000000000008152600401610d6290614c9a565b60405180910390fd5b610d76838383612bbe565b505050565b6000600f600083815260200190815260200160002090508060000160009054906101000a900460ff1615610de4576040517f08c379a0000000000000000000000000000000000000000000000000000000008152600401610ddb90614d06565b60405180910390fd5b60018160000160006101000a81548160ff0219169083151502179055507f5155b2097f8cdee890af8cda6502a21cdb5c97b769fdeab5cc5080f608e0e29d828260000160019054906101000a900473ffffffffffffffffffffffffffffffffffffffff168360010154604051610e5c93929190614bf1565b60405180910390a1600e60009054906101000a900473ffffffffffffffffffffffffffffffffffffffff1673ffffffffffffffffffffffffffffffffffffffff166370a08231306040518263ffffffff1660e01b8152600401610ebf919061419c565b602060405180830381865afa158015610edc573d6000803e3d6000fd5b505050506040513d601f19601f82011682018060405250810190610f009190614adf565b81600101541115610f46576040517f08c379a0000000000000000000000000000000000000000000000000000000008152600401610f3d90614d72565b60405180910390fd5b600e60009054906101000a900473ffffffffffffffffffffffffffffffffffffffff1673ffffffffffffffffffffffffffffffffffffffff1663a9059cbb610f8d846117ac565b83600101546040518363ffffffff1660e01b8152600401610faf929190614d92565b6020604051808303816000875af1158015610fce573d6000803e3d6000fd5b505050506040513d601f19601f82011682018060405250810190610ff29190614bc4565b508060000160019054906101000a900473ffffffffffffffffffffffffffffffffffffffff166009600084815260200190815260200160002060006101000a81548173ffffffffffffffffffffffffffffffffffffffff021916908373ffffffffffffffffffffffffffffffffffffffff1602179055506001600a6000611078856117ac565b73ffffffffffffffffffffffffffffffffffffffff1673ffffffffffffffffffffffffffffffffffffffff16815260200190815260200160002060008282546110c19190614dbb565b925050819055506001600a60008360000160019054906101000a900473ffffffffffffffffffffffffffffffffffffffff1673ffffffffffffffffffffffffffffffffffffffff1673ffffffffffffffffffffffffffffffffffffffff168152602001908152602001600020600082825461113c9190614a2a565b92505081905550600061115783611152856117ac565b612eb7565b90506000600b6000611168866117ac565b73ffffffffffffffffffffffffffffffffffffffff1673ffffffffffffffffffffffffffffffffffffffff168152602001908152602001600020905060008290505b600182805490506111bb9190614dbb565b81101561122057816001826111d09190614dbb565b815481106111e1576111e0614960565b5b90600052602060002001548282815481106111ff576111fe614960565b5b9060005260206000200181905550808061121890614def565b9150506111aa565b8180548061123157611230614e37565b5b60019003818190600052602060002001600090559055600b60008560000160019054906101000a900473ffffffffffffffffffffffffffffffffffffffff1673ffffffffffffffffffffffffffffffffffffffff1673ffffffffffffffffffffffffffffffffffffffff1681526020019081526020016000208590806001815401808255809150506001900390600052602060002001600090919091909150556113086112dd866117ac565b8560000160019054906101000a900473ffffffffffffffffffffffffffffffffffffffff1687612bbe565b61131185612fd4565b92508290505b60016010805490506113299190614dbb565b81101561139057601060018261133f9190614dbb565b815481106113505761134f614960565b5b90600052602060002001546010828154811061136f5761136e614960565b5b9060005260206000200181905550808061138890614def565b915050611317565b60108054806113a2576113a1614e37565b5b6001900381819060005260206000200160009055905560118490806001815401808255809150506001900390600052602060002090600502016000909190919091506000820160009054906101000a900460ff168160000160006101000a81548160ff0219169083151502179055506000820160019054906101000a900473ffffffffffffffffffffffffffffffffffffffff168160000160016101000a81548173ffffffffffffffffffffffffffffffffffffffff021916908373ffffffffffffffffffffffffffffffffffffffff160217905550600182015481600101556002820154816002015560038201816003019080546114a2929190613ce4565b5060048201816004019080546114b9929190613d36565b505050600090505b836003018054905081101561167c578360000160019054906101000a900473ffffffffffffffffffffffffffffffffffffffff1673ffffffffffffffffffffffffffffffffffffffff1684600301828154811061152157611520614960565b5b9060005260206000200160009054906101000a900473ffffffffffffffffffffffffffffffffffffffff1673ffffffffffffffffffffffffffffffffffffffff161461166957600e60009054906101000a900473ffffffffffffffffffffffffffffffffffffffff1673ffffffffffffffffffffffffffffffffffffffff1663a9059cbb8560030183815481106115bb576115ba614960565b5b9060005260206000200160009054906101000a900473ffffffffffffffffffffffffffffffffffffffff168660040184815481106115fc576115fb614960565b5b90600052602060002001546040518363ffffffff1660e01b8152600401611624929190614d92565b6020604051808303816000875af1158015611643573d6000803e3d6000fd5b505050506040513d601f19601f820116820180604052508101906116679190614bc4565b505b808061167490614def565b9150506114c1565b5050505050565b61168b613039565b6008604051806040016040528086868080601f016020809104026020016040519081016040528093929190818152602001838380828437600081840152601f19601f8201169050808301925050505050505081526020016116ec85856130b7565b8152509080600181540180825580915050600190039060005260206000209060020201600090919091909150600082015181600001908161172d9190615012565b50602082015181600101908051906020019061174a929190613d88565b5050507f3a6eabc1ea35f41cd485e412aa9d92cec3c646bb471dac85cb42d75b3ca461ac848460405161177e929190615111565b60405180910390a150505050565b6117a783838360405180602001604052806000815250612589565b505050565b6000806117b8836131cf565b9050600073ffffffffffffffffffffffffffffffffffffffff168173ffffffffffffffffffffffffffffffffffffffff1603611829576040517f08c379a000000000000000000000000000000000000000000000000000000000815260040161182090615181565b60405180910390fd5b80915050919050565b60006001905080600e60009054906101000a900473ffffffffffffffffffffffffffffffffffffffff1673ffffffffffffffffffffffffffffffffffffffff166370a08231336040518263ffffffff1660e01b8152600401611894919061419c565b602060405180830381865afa1580156118b1573d6000803e3d6000fd5b505050506040513d601f19601f820116820180604052508101906118d59190614adf565b1015611916576040517f08c379a000000000000000000000000000000000000000000000000000000000815260040161190d90614b58565b60405180910390fd5b600e60009054906101000a900473ffffffffffffffffffffffffffffffffffffffff1673ffffffffffffffffffffffffffffffffffffffff166323b872dd3330846040518463ffffffff1660e01b815260040161197593929190614b78565b6020604051808303816000875af1158015611994573d6000803e3d6000fd5b505050506040513d601f19601f820116820180604052508101906119b89190614bc4565b50600060088054905011611a01576040517f08c379a00000000000000000000000000000000000000000000000000000000081526004016119f8906151ed565b60405180910390fd5b60006008611a1360088054905061320c565b81548110611a2457611a23614960565b5b9060005260206000209060020201604051806040016040529081600082018054611a4d9061480b565b80601f0160208091040260200160405190810160405280929190818152602001828054611a799061480b565b8015611ac65780601f10611a9b57610100808354040283529160200191611ac6565b820191906000526020600020905b815481529060010190602001808311611aa957829003601f168201915b5050505050815260200160018201805480602002602001604051908101604052809291908181526020018280548015611b4457602002820191906000526020600020906000905b82829054906101000a900460ff1660ff1681526020019060010190602082600001049283019260010382029150808411611b0d5790505b5050505050815250509050600081602001515111611b97576040517f08c379a0000000000000000000000000000000000000000000000000000000008152600401611b8e90615259565b60405180910390fd5b60008060008560ff161115611c435760058560ff161115611bed576040517f08c379a0000000000000000000000000000000000000000000000000000000008152600401611be4906152c5565b60405180910390fd5b611bfb83602001515161320c565b90505b8460ff1683602001518281518110611c1957611c18614960565b5b602002602001015160ff1614611c3e57611c3783602001515161320c565b9050611bfe565b611e23565b6001611c5061271061320c565b611c5a9190614a2a565b915060328211611cb857611c7283602001515161320c565b90505b600183602001518281518110611c8e57611c8d614960565b5b602002602001015160ff1614611cb357611cac83602001515161320c565b9050611c75565b611e22565b6102268211611d1557611ccf83602001515161320c565b90505b600283602001518281518110611ceb57611cea614960565b5b602002602001015160ff1614611d1057611d0983602001515161320c565b9050611cd2565b611e21565b6109f68211611d7257611d2c83602001515161320c565b90505b600383602001518281518110611d4857611d47614960565b5b602002602001015160ff1614611d6d57611d6683602001515161320c565b9050611d2f565b611e20565b6115ae8211611dcf57611d8983602001515161320c565b90505b600483602001518281518110611da557611da4614960565b5b602002602001015160ff1614611dca57611dc383602001515161320c565b9050611d8c565b611e1f565b611ddd83602001515161320c565b90505b600583602001518281518110611df957611df8614960565b5b602002602001015160ff1614611e1e57611e1783602001515161320c565b9050611de0565b5b5b5b5b5b6000611e3a600183611e359190614a2a565b613268565b90506000846000015190507fbf431ccdc401f9b507a213e17d874e7fb7b2b1cc1edb7053003026a9faf501c48560000151604051611e789190615331565b60405180910390a17fe0a5e38f11c5257cc5b37023d5b7b7631c7ef4a1a7b2e25130dcddcd5d11cb93856020015151604051611eb491906153b2565b60405180910390a17fbf431ccdc401f9b507a213e17d874e7fb7b2b1cc1edb7053003026a9faf501c482604051611eeb919061542c565b60405180910390a1611eff33600d54613336565b611f14600d54611f0f8385613553565b61357f565b80604051611f22919061549d565b6040518091039020600d543373ffffffffffffffffffffffffffffffffffffffff167fe2406cfd356cfbe4e42d452bde96d27f48c423e5f02b5d78695893308399519d85604051611f73919061417a565b60405180910390a43360096000600d54815260200190815260200160002060006101000a81548173ffffffffffffffffffffffffffffffffffffffff021916908373ffffffffffffffffffffffffffffffffffffffff160217905550600a60003373ffffffffffffffffffffffffffffffffffffffff1673ffffffffffffffffffffffffffffffffffffffff168152602001908152602001600020600081548092919061201f90614def565b9190505550600b60003373ffffffffffffffffffffffffffffffffffffffff1673ffffffffffffffffffffffffffffffffffffffff168152602001908152602001600020600d5490806001815401808255809150506001900390600052602060002001600090919091909150556001600d600082825461209f9190614a2a565b9250508190555050505050505050565b60008073ffffffffffffffffffffffffffffffffffffffff168273ffffffffffffffffffffffffffffffffffffffff160361211f576040517f08c379a000000000000000000000000000000000000000000000000000000000815260040161211690615526565b60405180910390fd5b600360008373ffffffffffffffffffffffffffffffffffffffff1673ffffffffffffffffffffffffffffffffffffffff168152602001908152602001600020549050919050565b61216e613039565b6121786000613623565b565b8073ffffffffffffffffffffffffffffffffffffffff166009600085815260200190815260200160002060009054906101000a900473ffffffffffffffffffffffffffffffffffffffff1673ffffffffffffffffffffffffffffffffffffffff161461221b576040517f08c379a0000000000000000000000000000000000000000000000000000000008152600401612212906155b8565b60405180910390fd5b60108054905061222a84612fd4565b1461226a576040517f08c379a000000000000000000000000000000000000000000000000000000000815260040161226190615624565b60405180910390fd5b6040518060c00160405280600015158152602001600073ffffffffffffffffffffffffffffffffffffffff16815260200183815260200162015180426122b09190614a2a565b8152602001600067ffffffffffffffff8111156122d0576122cf61450e565b5b6040519080825280602002602001820160405280156122fe5781602001602082028036833780820191505090505b508152602001600067ffffffffffffffff81111561231f5761231e61450e565b5b60405190808252806020026020018201604052801561234d5781602001602082028036833780820191505090505b50815250600f600085815260200190815260200160002060008201518160000160006101000a81548160ff02191690831515021790555060208201518160000160016101000a81548173ffffffffffffffffffffffffffffffffffffffff021916908373ffffffffffffffffffffffffffffffffffffffff160217905550604082015181600101556060820151816002015560808201518160030190805190602001906123fb929190613e2f565b5060a0820151816004019080519060200190612418929190613eb9565b509050506010839080600181540180825580915050600190039060005260206000200160009091909190915055505050565b6000600760009054906101000a900473ffffffffffffffffffffffffffffffffffffffff16905090565b6060600180546124839061480b565b80601f01602080910402602001604051908101604052809291908181526020018280546124af9061480b565b80156124fc5780601f106124d1576101008083540402835291602001916124fc565b820191906000526020600020905b8154815290600101906020018083116124df57829003601f168201915b5050505050905090565b6125186125116129d6565b83836136e9565b5050565b6011818154811061252c57600080fd5b90600052602060002090600502016000915090508060000160009054906101000a900460ff16908060000160019054906101000a900473ffffffffffffffffffffffffffffffffffffffff16908060010154908060020154905084565b61259a6125946129d6565b83612b29565b6125d9576040517f08c379a00000000000000000000000000000000000000000000000000000000081526004016125d090614c9a565b60405180910390fd5b6125e584848484613855565b50505050565b60606125f68261298b565b60006006600084815260200190815260200160002080546126169061480b565b80601f01602080910402602001604051908101604052809291908181526020018280546126429061480b565b801561268f5780601f106126645761010080835404028352916020019161268f565b820191906000526020600020905b81548152906001019060200180831161267257829003601f168201915b5050505050905060006126a06138b1565b905060008151036126b55781925050506126f8565b6000825111156126ea5780826040516020016126d2929190615644565b604051602081830303815290604052925050506126f8565b6126f3846138c8565b925050505b919050565b6000600560008473ffffffffffffffffffffffffffffffffffffffff1673ffffffffffffffffffffffffffffffffffffffff16815260200190815260200160002060008373ffffffffffffffffffffffffffffffffffffffff1673ffffffffffffffffffffffffffffffffffffffff16815260200190815260200160002060009054906101000a900460ff16905092915050565b612799613039565b600073ffffffffffffffffffffffffffffffffffffffff168173ffffffffffffffffffffffffffffffffffffffff1603612808576040517f08c379a00000000000000000000000000000000000000000000000000000000081526004016127ff906156da565b60405180910390fd5b61281181613623565b50565b6060600b60003373ffffffffffffffffffffffffffffffffffffffff1673ffffffffffffffffffffffffffffffffffffffff16815260200190815260200160002080548060200260200160405190810160405280929190818152602001828054801561289f57602002820191906000526020600020905b81548152602001906001019080831161288b575b5050505050905090565b60007f80ac58cd000000000000000000000000000000000000000000000000000000007bffffffffffffffffffffffffffffffffffffffffffffffffffffffff1916827bffffffffffffffffffffffffffffffffffffffffffffffffffffffff1916148061297457507f5b5e139f000000000000000000000000000000000000000000000000000000007bffffffffffffffffffffffffffffffffffffffffffffffffffffffff1916827bffffffffffffffffffffffffffffffffffffffffffffffffffffffff1916145b80612984575061298382613930565b5b9050919050565b6129948161399a565b6129d3576040517f08c379a00000000000000000000000000000000000000000000000000000000081526004016129ca90615181565b60405180910390fd5b50565b600033905090565b816004600083815260200190815260200160002060006101000a81548173ffffffffffffffffffffffffffffffffffffffff021916908373ffffffffffffffffffffffffffffffffffffffff160217905550808273ffffffffffffffffffffffffffffffffffffffff16612a51836117ac565b73ffffffffffffffffffffffffffffffffffffffff167f8c5be1e5ebec7d5bd14f71427d1e84f3dd0314c0f7b2291e5b200ac8c7c3b92560405160405180910390a45050565b600080600090505b836080015151811015612b195783608001518181518110612ac357612ac2614960565b5b602002602001015173ffffffffffffffffffffffffffffffffffffffff168373ffffffffffffffffffffffffffffffffffffffff1603612b065780915050612b23565b8080612b1190614def565b915050612a9f565b5082608001515190505b92915050565b600080612b35836117ac565b90508073ffffffffffffffffffffffffffffffffffffffff168473ffffffffffffffffffffffffffffffffffffffff161480612b775750612b7681856126fd565b5b80612bb557508373ffffffffffffffffffffffffffffffffffffffff16612b9d84610634565b73ffffffffffffffffffffffffffffffffffffffff16145b91505092915050565b8273ffffffffffffffffffffffffffffffffffffffff16612bde826117ac565b73ffffffffffffffffffffffffffffffffffffffff1614612c34576040517f08c379a0000000000000000000000000000000000000000000000000000000008152600401612c2b9061576c565b60405180910390fd5b600073ffffffffffffffffffffffffffffffffffffffff168273ffffffffffffffffffffffffffffffffffffffff1603612ca3576040517f08c379a0000000000000000000000000000000000000000000000000000000008152600401612c9a906157fe565b60405180910390fd5b612cb083838360016139db565b8273ffffffffffffffffffffffffffffffffffffffff16612cd0826117ac565b73ffffffffffffffffffffffffffffffffffffffff1614612d26576040517f08c379a0000000000000000000000000000000000000000000000000000000008152600401612d1d9061576c565b60405180910390fd5b6004600082815260200190815260200160002060006101000a81549073ffffffffffffffffffffffffffffffffffffffff02191690556001600360008573ffffffffffffffffffffffffffffffffffffffff1673ffffffffffffffffffffffffffffffffffffffff168152602001908152602001600020600082825403925050819055506001600360008473ffffffffffffffffffffffffffffffffffffffff1673ffffffffffffffffffffffffffffffffffffffff16815260200190815260200160002060008282540192505081905550816002600083815260200190815260200160002060006101000a81548173ffffffffffffffffffffffffffffffffffffffff021916908373ffffffffffffffffffffffffffffffffffffffff160217905550808273ffffffffffffffffffffffffffffffffffffffff168473ffffffffffffffffffffffffffffffffffffffff167fddf252ad1be2c89b69c2b068fc378daa952ba7f163c4a11628f55a4df523b3ef60405160405180910390a4612eb283838360016139e1565b505050565b600080600090505b600b60008473ffffffffffffffffffffffffffffffffffffffff1673ffffffffffffffffffffffffffffffffffffffff16815260200190815260200160002080549050811015612f875783600b60008573ffffffffffffffffffffffffffffffffffffffff1673ffffffffffffffffffffffffffffffffffffffff1681526020019081526020016000208281548110612f5b57612f5a614960565b5b906000526020600020015403612f745780915050612fce565b8080612f7f90614def565b915050612ebf565b50600b60008373ffffffffffffffffffffffffffffffffffffffff1673ffffffffffffffffffffffffffffffffffffffff1681526020019081526020016000208054905090505b92915050565b600080600090505b60108054905081101561302a578260108281548110612ffe57612ffd614960565b5b9060005260206000200154036130175780915050613034565b808061302290614def565b915050612fdc565b5060108054905090505b919050565b6130416129d6565b73ffffffffffffffffffffffffffffffffffffffff1661305f61244a565b73ffffffffffffffffffffffffffffffffffffffff16146130b5576040517f08c379a00000000000000000000000000000000000000000000000000000000081526004016130ac9061586a565b60405180910390fd5b565b6060600083838080601f016020809104026020016040519081016040528093929190818152602001838380828437600081840152601f19601f8201169050808301925050505050505090506000815167ffffffffffffffff81111561311f5761311e61450e565b5b60405190808252806020026020018201604052801561314d5781602001602082028036833780820191505090505b50905060005b82518110156131c357603083828151811061317157613170614960565b5b602001015160f81c60f81b60f81c613189919061588a565b82828151811061319c5761319b614960565b5b602002602001019060ff16908160ff168152505080806131bb90614def565b915050613153565b50809250505092915050565b60006002600083815260200190815260200160002060009054906101000a900473ffffffffffffffffffffffffffffffffffffffff169050919050565b6000600c600081548092919061322190614def565b9190505550814233600c5460405160200161323e93929190615928565b6040516020818303038152906040528051906020012060001c6132619190615994565b9050919050565b606060006001613277846139e7565b01905060008167ffffffffffffffff8111156132965761329561450e565b5b6040519080825280601f01601f1916602001820160405280156132c85781602001600182028036833780820191505090505b509050600082602001820190505b60011561332b578080600190039150507f3031323334353637383961626364656600000000000000000000000000000000600a86061a8153600a858161331f5761331e615965565b5b049450600085036132d6575b819350505050919050565b600073ffffffffffffffffffffffffffffffffffffffff168273ffffffffffffffffffffffffffffffffffffffff16036133a5576040517f08c379a000000000000000000000000000000000000000000000000000000000815260040161339c90615a11565b60405180910390fd5b6133ae8161399a565b156133ee576040517f08c379a00000000000000000000000000000000000000000000000000000000081526004016133e590615a7d565b60405180910390fd5b6133fc6000838360016139db565b6134058161399a565b15613445576040517f08c379a000000000000000000000000000000000000000000000000000000000815260040161343c90615a7d565b60405180910390fd5b6001600360008473ffffffffffffffffffffffffffffffffffffffff1673ffffffffffffffffffffffffffffffffffffffff16815260200190815260200160002060008282540192505081905550816002600083815260200190815260200160002060006101000a81548173ffffffffffffffffffffffffffffffffffffffff021916908373ffffffffffffffffffffffffffffffffffffffff160217905550808273ffffffffffffffffffffffffffffffffffffffff16600073ffffffffffffffffffffffffffffffffffffffff167fddf252ad1be2c89b69c2b068fc378daa952ba7f163c4a11628f55a4df523b3ef60405160405180910390a461354f6000838360016139e1565b5050565b60608282604051602001613568929190615b35565b604051602081830303815290604052905092915050565b6135888261399a565b6135c7576040517f08c379a00000000000000000000000000000000000000000000000000000000081526004016135be90615be1565b60405180910390fd5b806006600084815260200190815260200160002090816135e79190615012565b507ff8e1a15aba9398e019f0b49df1a4fde98ee17ae345cb5f6b5e2c27f5033e8ce7826040516136179190614263565b60405180910390a15050565b6000600760009054906101000a900473ffffffffffffffffffffffffffffffffffffffff16905081600760006101000a81548173ffffffffffffffffffffffffffffffffffffffff021916908373ffffffffffffffffffffffffffffffffffffffff1602179055508173ffffffffffffffffffffffffffffffffffffffff168173ffffffffffffffffffffffffffffffffffffffff167f8be0079c531659141344cd1fd0a4f28419497f9722a3daafe3b4186f6b6457e060405160405180910390a35050565b8173ffffffffffffffffffffffffffffffffffffffff168373ffffffffffffffffffffffffffffffffffffffff1603613757576040517f08c379a000000000000000000000000000000000000000000000000000000000815260040161374e90615c4d565b60405180910390fd5b80600560008573ffffffffffffffffffffffffffffffffffffffff1673ffffffffffffffffffffffffffffffffffffffff16815260200190815260200160002060008473ffffffffffffffffffffffffffffffffffffffff1673ffffffffffffffffffffffffffffffffffffffff16815260200190815260200160002060006101000a81548160ff0219169083151502179055508173ffffffffffffffffffffffffffffffffffffffff168373ffffffffffffffffffffffffffffffffffffffff167f17307eab39ab6107e8899845ad3d59bd9653f200f220920489ca2b5937696c318360405161384891906140cf565b60405180910390a3505050565b613860848484612bbe565b61386c84848484613b3a565b6138ab576040517f08c379a00000000000000000000000000000000000000000000000000000000081526004016138a290615cdf565b60405180910390fd5b50505050565b606060405180602001604052806000815250905090565b60606138d38261298b565b60006138dd6138b1565b905060008151116138fd5760405180602001604052806000815250613928565b8061390784613268565b604051602001613918929190615644565b6040516020818303038152906040525b915050919050565b60007f01ffc9a7000000000000000000000000000000000000000000000000000000007bffffffffffffffffffffffffffffffffffffffffffffffffffffffff1916827bffffffffffffffffffffffffffffffffffffffffffffffffffffffff1916149050919050565b60008073ffffffffffffffffffffffffffffffffffffffff166139bc836131cf565b73ffffffffffffffffffffffffffffffffffffffff1614159050919050565b50505050565b50505050565b600080600090507a184f03e93ff9f4daa797ed6e38ed64bf6a1f0100000000000000008310613a45577a184f03e93ff9f4daa797ed6e38ed64bf6a1f0100000000000000008381613a3b57613a3a615965565b5b0492506040810190505b6d04ee2d6d415b85acef81000000008310613a82576d04ee2d6d415b85acef81000000008381613a7857613a77615965565b5b0492506020810190505b662386f26fc100008310613ab157662386f26fc100008381613aa757613aa6615965565b5b0492506010810190505b6305f5e1008310613ada576305f5e1008381613ad057613acf615965565b5b0492506008810190505b6127108310613aff576127108381613af557613af4615965565b5b0492506004810190505b60648310613b225760648381613b1857613b17615965565b5b0492506002810190505b600a8310613b31576001810190505b80915050919050565b6000613b5b8473ffffffffffffffffffffffffffffffffffffffff16613cc1565b15613cb4578373ffffffffffffffffffffffffffffffffffffffff1663150b7a02613b846129d6565b8786866040518563ffffffff1660e01b8152600401613ba69493929190615d54565b6020604051808303816000875af1925050508015613be257506040513d601f19601f82011682018060405250810190613bdf9190615db5565b60015b613c64573d8060008114613c12576040519150601f19603f3d011682016040523d82523d6000602084013e613c17565b606091505b506000815103613c5c576040517f08c379a0000000000000000000000000000000000000000000000000000000008152600401613c5390615cdf565b60405180910390fd5b805181602001fd5b63150b7a0260e01b7bffffffffffffffffffffffffffffffffffffffffffffffffffffffff1916817bffffffffffffffffffffffffffffffffffffffffffffffffffffffff191614915050613cb9565b600190505b949350505050565b6000808273ffffffffffffffffffffffffffffffffffffffff163b119050919050565b828054828255906000526020600020908101928215613d255760005260206000209182015b82811115613d24578254825591600101919060010190613d09565b5b509050613d329190613f06565b5090565b828054828255906000526020600020908101928215613d775760005260206000209182015b82811115613d76578254825591600101919060010190613d5b565b5b509050613d849190613f06565b5090565b82805482825590600052602060002090601f01602090048101928215613e1e5791602002820160005b83821115613def57835183826101000a81548160ff021916908360ff1602179055509260200192600101602081600001049283019260010302613db1565b8015613e1c5782816101000a81549060ff0219169055600101602081600001049283019260010302613def565b505b509050613e2b9190613f06565b5090565b828054828255906000526020600020908101928215613ea8579160200282015b82811115613ea75782518260006101000a81548173ffffffffffffffffffffffffffffffffffffffff021916908373ffffffffffffffffffffffffffffffffffffffff16021790555091602001919060010190613e4f565b5b509050613eb59190613f06565b5090565b828054828255906000526020600020908101928215613ef5579160200282015b82811115613ef4578251825591602001919060010190613ed9565b5b509050613f029190613f06565b5090565b5b80821115613f1f576000816000905550600101613f07565b5090565b6000604051905090565b600080fd5b600080fd5b6000819050919050565b613f4a81613f37565b8114613f5557600080fd5b50565b600081359050613f6781613f41565b92915050565b600060208284031215613f8357613f82613f2d565b5b6000613f9184828501613f58565b91505092915050565b60008115159050919050565b613faf81613f9a565b82525050565b600073ffffffffffffffffffffffffffffffffffffffff82169050919050565b6000613fe082613fb5565b9050919050565b613ff081613fd5565b82525050565b613fff81613f37565b82525050565b600060808201905061401a6000830187613fa6565b6140276020830186613fe7565b6140346040830185613ff6565b6140416060830184613ff6565b95945050505050565b60007fffffffff0000000000000000000000000000000000000000000000000000000082169050919050565b61407f8161404a565b811461408a57600080fd5b50565b60008135905061409c81614076565b92915050565b6000602082840312156140b8576140b7613f2d565b5b60006140c68482850161408d565b91505092915050565b60006020820190506140e46000830184613fa6565b92915050565b600081519050919050565b600082825260208201905092915050565b60005b83811015614124578082015181840152602081019050614109565b60008484015250505050565b6000601f19601f8301169050919050565b600061414c826140ea565b61415681856140f5565b9350614166818560208601614106565b61416f81614130565b840191505092915050565b600060208201905081810360008301526141948184614141565b905092915050565b60006020820190506141b16000830184613fe7565b92915050565b6141c081613fd5565b81146141cb57600080fd5b50565b6000813590506141dd816141b7565b92915050565b600080604083850312156141fa576141f9613f2d565b5b6000614208858286016141ce565b925050602061421985828601613f58565b9150509250929050565b6000806040838503121561423a57614239613f2d565b5b600061424885828601613f58565b925050602061425985828601613f58565b9150509250929050565b60006020820190506142786000830184613ff6565b92915050565b60008060006060848603121561429757614296613f2d565b5b60006142a5868287016141ce565b93505060206142b6868287016141ce565b92505060406142c786828701613f58565b9150509250925092565b600080fd5b600080fd5b600080fd5b60008083601f8401126142f6576142f56142d1565b5b8235905067ffffffffffffffff811115614313576143126142d6565b5b60208301915083600182028301111561432f5761432e6142db565b5b9250929050565b600080600080604085870312156143505761434f613f2d565b5b600085013567ffffffffffffffff81111561436e5761436d613f32565b5b61437a878288016142e0565b9450945050602085013567ffffffffffffffff81111561439d5761439c613f32565b5b6143a9878288016142e0565b925092505092959194509250565b600060ff82169050919050565b6143cd816143b7565b81146143d857600080fd5b50565b6000813590506143ea816143c4565b92915050565b60006020828403121561440657614405613f2d565b5b6000614414848285016143db565b91505092915050565b60006020828403121561443357614432613f2d565b5b6000614441848285016141ce565b91505092915050565b60008060006060848603121561446357614462613f2d565b5b600061447186828701613f58565b935050602061448286828701613f58565b9250506040614493868287016141ce565b9150509250925092565b6144a681613f9a565b81146144b157600080fd5b50565b6000813590506144c38161449d565b92915050565b600080604083850312156144e0576144df613f2d565b5b60006144ee858286016141ce565b92505060206144ff858286016144b4565b9150509250929050565b600080fd5b7f4e487b7100000000000000000000000000000000000000000000000000000000600052604160045260246000fd5b61454682614130565b810181811067ffffffffffffffff821117156145655761456461450e565b5b80604052505050565b6000614578613f23565b9050614584828261453d565b919050565b600067ffffffffffffffff8211156145a4576145a361450e565b5b6145ad82614130565b9050602081019050919050565b82818337600083830152505050565b60006145dc6145d784614589565b61456e565b9050828152602081018484840111156145f8576145f7614509565b5b6146038482856145ba565b509392505050565b600082601f8301126146205761461f6142d1565b5b81356146308482602086016145c9565b91505092915050565b6000806000806080858703121561465357614652613f2d565b5b6000614661878288016141ce565b9450506020614672878288016141ce565b935050604061468387828801613f58565b925050606085013567ffffffffffffffff8111156146a4576146a3613f32565b5b6146b08782880161460b565b91505092959194509250565b600080604083850312156146d3576146d2613f2d565b5b60006146e1858286016141ce565b92505060206146f2858286016141ce565b9150509250929050565b600081519050919050565b600082825260208201905092915050565b6000819050602082019050919050565b61473181613f37565b82525050565b60006147438383614728565b60208301905092915050565b6000602082019050919050565b6000614767826146fc565b6147718185614707565b935061477c83614718565b8060005b838110156147ad5781516147948882614737565b975061479f8361474f565b925050600181019050614780565b5085935050505092915050565b600060208201905081810360008301526147d4818461475c565b905092915050565b7f4e487b7100000000000000000000000000000000000000000000000000000000600052602260045260246000fd5b6000600282049050600182168061482357607f821691505b602082108103614836576148356147dc565b5b50919050565b7f4552433732313a20617070726f76616c20746f2063757272656e74206f776e6560008201527f7200000000000000000000000000000000000000000000000000000000000000602082015250565b60006148986021836140f5565b91506148a38261483c565b604082019050919050565b600060208201905081810360008301526148c78161488b565b9050919050565b7f4552433732313a20617070726f76652063616c6c6572206973206e6f7420746f60008201527f6b656e206f776e6572206f7220617070726f76656420666f7220616c6c000000602082015250565b600061492a603d836140f5565b9150614935826148ce565b604082019050919050565b600060208201905081810360008301526149598161491d565b9050919050565b7f4e487b7100000000000000000000000000000000000000000000000000000000600052603260045260246000fd5b7f41756374696f6e2068617320656e6465642e0000000000000000000000000000600082015250565b60006149c56012836140f5565b91506149d08261498f565b602082019050919050565b600060208201905081810360008301526149f4816149b8565b9050919050565b7f4e487b7100000000000000000000000000000000000000000000000000000000600052601160045260246000fd5b6000614a3582613f37565b9150614a4083613f37565b9250828201905080821115614a5857614a576149fb565b5b92915050565b7f546865726520697320616c7265616479206120686967686572206269642e0000600082015250565b6000614a94601e836140f5565b9150614a9f82614a5e565b602082019050919050565b60006020820190508181036000830152614ac381614a87565b9050919050565b600081519050614ad981613f41565b92915050565b600060208284031215614af557614af4613f2d565b5b6000614b0384828501614aca565b91505092915050565b7f496e73756666696369656e74204652542062616c616e63650000000000000000600082015250565b6000614b426018836140f5565b9150614b4d82614b0c565b602082019050919050565b60006020820190508181036000830152614b7181614b35565b9050919050565b6000606082019050614b8d6000830186613fe7565b614b9a6020830185613fe7565b614ba76040830184613ff6565b949350505050565b600081519050614bbe8161449d565b92915050565b600060208284031215614bda57614bd9613f2d565b5b6000614be884828501614baf565b91505092915050565b6000606082019050614c066000830186613ff6565b614c136020830185613fe7565b614c206040830184613ff6565b949350505050565b7f4552433732313a2063616c6c6572206973206e6f7420746f6b656e206f776e6560008201527f72206f7220617070726f76656400000000000000000000000000000000000000602082015250565b6000614c84602d836140f5565b9150614c8f82614c28565b604082019050919050565b60006020820190508181036000830152614cb381614c77565b9050919050565b7f4c27656e636865726520612064656a6120657465207265676c65652e00000000600082015250565b6000614cf0601c836140f5565b9150614cfb82614cba565b602082019050919050565b60006020820190508181036000830152614d1f81614ce3565b9050919050565b7f496e73756666696369656e7420746f6b656e2062616c616e6365000000000000600082015250565b6000614d5c601a836140f5565b9150614d6782614d26565b602082019050919050565b60006020820190508181036000830152614d8b81614d4f565b9050919050565b6000604082019050614da76000830185613fe7565b614db46020830184613ff6565b9392505050565b6000614dc682613f37565b9150614dd183613f37565b9250828203905081811115614de957614de86149fb565b5b92915050565b6000614dfa82613f37565b91507fffffffffffffffffffffffffffffffffffffffffffffffffffffffffffffffff8203614e2c57614e2b6149fb565b5b600182019050919050565b7f4e487b7100000000000000000000000000000000000000000000000000000000600052603160045260246000fd5b60008190508160005260206000209050919050565b60006020601f8301049050919050565b600082821b905092915050565b600060088302614ec87fffffffffffffffffffffffffffffffffffffffffffffffffffffffffffffffff82614e8b565b614ed28683614e8b565b95508019841693508086168417925050509392505050565b6000819050919050565b6000614f0f614f0a614f0584613f37565b614eea565b613f37565b9050919050565b6000819050919050565b614f2983614ef4565b614f3d614f3582614f16565b848454614e98565b825550505050565b600090565b614f52614f45565b614f5d818484614f20565b505050565b5b81811015614f8157614f76600082614f4a565b600181019050614f63565b5050565b601f821115614fc657614f9781614e66565b614fa084614e7b565b81016020851015614faf578190505b614fc3614fbb85614e7b565b830182614f62565b50505b505050565b600082821c905092915050565b6000614fe960001984600802614fcb565b1980831691505092915050565b60006150028383614fd8565b9150826002028217905092915050565b61501b826140ea565b67ffffffffffffffff8111156150345761503361450e565b5b61503e825461480b565b615049828285614f85565b600060209050601f83116001811461507c576000841561506a578287015190505b6150748582614ff6565b8655506150dc565b601f19841661508a86614e66565b60005b828110156150b25784890151825560018201915060208501945060208101905061508d565b868310156150cf57848901516150cb601f891682614fd8565b8355505b6001600288020188555050505b505050505050565b60006150f083856140f5565b93506150fd8385846145ba565b61510683614130565b840190509392505050565b6000602082019050818103600083015261512c8184866150e4565b90509392505050565b7f4552433732313a20696e76616c696420746f6b656e2049440000000000000000600082015250565b600061516b6018836140f5565b915061517682615135565b602082019050919050565b6000602082019050818103600083015261519a8161515e565b9050919050565b7f4e6f20636f6c6c656374696f6e7320617661696c61626c650000000000000000600082015250565b60006151d76018836140f5565b91506151e2826151a1565b602082019050919050565b60006020820190508181036000830152615206816151ca565b9050919050565b7f496e76616c696420636f6c6c656374696f6e206c656e67746800000000000000600082015250565b60006152436019836140f5565b915061524e8261520d565b602082019050919050565b6000602082019050818103600083015261527281615236565b9050919050565b7f496e76616c696420666f72636564207261726974790000000000000000000000600082015250565b60006152af6015836140f5565b91506152ba82615279565b602082019050919050565b600060208201905081810360008301526152de816152a2565b9050919050565b7f436f6c6c656374696f6e20555249000000000000000000000000000000000000600082015250565b600061531b600e836140f5565b9150615326826152e5565b602082019050919050565b6000604082019050818103600083015261534a8161530e565b9050818103602083015261535e8184614141565b905092915050565b7f436f6c6c656374696f6e204c656e677468000000000000000000000000000000600082015250565b600061539c6011836140f5565b91506153a782615366565b602082019050919050565b600060408201905081810360008301526153cb8161538f565b90506153da6020830184613ff6565b92915050565b7f47656e65726174656420496e6465780000000000000000000000000000000000600082015250565b6000615416600f836140f5565b9150615421826153e0565b602082019050919050565b6000604082019050818103600083015261544581615409565b905081810360208301526154598184614141565b905092915050565b600081905092915050565b6000615477826140ea565b6154818185615461565b9350615491818560208601614106565b80840191505092915050565b60006154a9828461546c565b915081905092915050565b7f4552433732313a2061646472657373207a65726f206973206e6f74206120766160008201527f6c6964206f776e65720000000000000000000000000000000000000000000000602082015250565b60006155106029836140f5565b915061551b826154b4565b604082019050919050565b6000602082019050818103600083015261553f81615503565b9050919050565b7f566f7573206e6520706f73736564657a2070617320636574746520766f69747560008201527f72652e0000000000000000000000000000000000000000000000000000000000602082015250565b60006155a26023836140f5565b91506155ad82615546565b604082019050919050565b600060208201905081810360008301526155d181615595565b9050919050565b7f436574746520766f6974757265206573742064656a6120656e2076656e746500600082015250565b600061560e601f836140f5565b9150615619826155d8565b602082019050919050565b6000602082019050818103600083015261563d81615601565b9050919050565b6000615650828561546c565b915061565c828461546c565b91508190509392505050565b7f4f776e61626c653a206e6577206f776e657220697320746865207a65726f206160008201527f6464726573730000000000000000000000000000000000000000000000000000602082015250565b60006156c46026836140f5565b91506156cf82615668565b604082019050919050565b600060208201905081810360008301526156f3816156b7565b9050919050565b7f4552433732313a207472616e736665722066726f6d20696e636f72726563742060008201527f6f776e6572000000000000000000000000000000000000000000000000000000602082015250565b60006157566025836140f5565b9150615761826156fa565b604082019050919050565b6000602082019050818103600083015261578581615749565b9050919050565b7f4552433732313a207472616e7366657220746f20746865207a65726f2061646460008201527f7265737300000000000000000000000000000000000000000000000000000000602082015250565b60006157e86024836140f5565b91506157f38261578c565b604082019050919050565b60006020820190508181036000830152615817816157db565b9050919050565b7f4f776e61626c653a2063616c6c6572206973206e6f7420746865206f776e6572600082015250565b60006158546020836140f5565b915061585f8261581e565b602082019050919050565b6000602082019050818103600083015261588381615847565b9050919050565b6000615895826143b7565b91506158a0836143b7565b9250828203905060ff8111156158b9576158b86149fb565b5b92915050565b6000819050919050565b6158da6158d582613f37565b6158bf565b82525050565b60008160601b9050919050565b60006158f8826158e0565b9050919050565b600061590a826158ed565b9050919050565b61592261591d82613fd5565b6158ff565b82525050565b600061593482866158c9565b6020820191506159448285615911565b60148201915061595482846158c9565b602082019150819050949350505050565b7f4e487b7100000000000000000000000000000000000000000000000000000000600052601260045260246000fd5b600061599f82613f37565b91506159aa83613f37565b9250826159ba576159b9615965565b5b828206905092915050565b7f4552433732313a206d696e7420746f20746865207a65726f2061646472657373600082015250565b60006159fb6020836140f5565b9150615a06826159c5565b602082019050919050565b60006020820190508181036000830152615a2a816159ee565b9050919050565b7f4552433732313a20746f6b656e20616c7265616479206d696e74656400000000600082015250565b6000615a67601c836140f5565b9150615a7282615a31565b602082019050919050565b60006020820190508181036000830152615a9681615a5a565b9050919050565b7f2f00000000000000000000000000000000000000000000000000000000000000600082015250565b6000615ad3600183615461565b9150615ade82615a9d565b600182019050919050565b7f2e6a736f6e000000000000000000000000000000000000000000000000000000600082015250565b6000615b1f600583615461565b9150615b2a82615ae9565b600582019050919050565b6000615b41828561546c565b9150615b4c82615ac6565b9150615b58828461546c565b9150615b6382615b12565b91508190509392505050565b7f45524337323155524953746f726167653a2055524920736574206f66206e6f6e60008201527f6578697374656e7420746f6b656e000000000000000000000000000000000000602082015250565b6000615bcb602e836140f5565b9150615bd682615b6f565b604082019050919050565b60006020820190508181036000830152615bfa81615bbe565b9050919050565b7f4552433732313a20617070726f766520746f2063616c6c657200000000000000600082015250565b6000615c376019836140f5565b9150615c4282615c01565b602082019050919050565b60006020820190508181036000830152615c6681615c2a565b9050919050565b7f4552433732313a207472616e7366657220746f206e6f6e20455243373231526560008201527f63656976657220696d706c656d656e7465720000000000000000000000000000602082015250565b6000615cc96032836140f5565b9150615cd482615c6d565b604082019050919050565b60006020820190508181036000830152615cf881615cbc565b9050919050565b600081519050919050565b600082825260208201905092915050565b6000615d2682615cff565b615d308185615d0a565b9350615d40818560208601614106565b615d4981614130565b840191505092915050565b6000608082019050615d696000830187613fe7565b615d766020830186613fe7565b615d836040830185613ff6565b8181036060830152615d958184615d1b565b905095945050505050565b600081519050615daf81614076565b92915050565b600060208284031215615dcb57615dca613f2d565b5b6000615dd984828501615da0565b9150509291505056fea2646970667358221220a14ce4f3781b05c0a0168a7503bf9ba4bb50fedda1e6d11e671bdb9622b8d24c64736f6c63430008120033",
  "linkReferences": {},
  "deployedLinkReferences": {}
}