{
  "_format": "hh-sol-artifact-1",
  "contractName": "NFTCar",
  "sourceName": "contracts/NFTCar.sol",
  "abi": [
    {
      "inputs": [
        {
          "internalType": "address",
          "name": "_fcarToken",
          "type": "address"
        }
      ],
      "stateMutability": "nonpayable",
      "type": "constructor"
    },
    {
      "anonymous": false,
      "inputs": [
        {
          "indexed": true,
          "internalType": "address",
          "name": "owner",
          "type": "address"
        },
        {
          "indexed": true,
          "internalType": "address",
          "name": "approved",
          "type": "address"
        },
        {
          "indexed": true,
          "internalType": "uint256",
          "name": "tokenId",
          "type": "uint256"
        }
      ],
      "name": "Approval",
      "type": "event"
    },
    {
      "anonymous": false,
      "inputs": [
        {
          "indexed": true,
          "internalType": "address",
          "name": "owner",
          "type": "address"
        },
        {
          "indexed": true,
          "internalType": "address",
          "name": "operator",
          "type": "address"
        },
        {
          "indexed": false,
          "internalType": "bool",
          "name": "approved",
          "type": "bool"
        }
      ],
      "name": "ApprovalForAll",
      "type": "event"
    },
    {
      "anonymous": false,
      "inputs": [
        {
          "indexed": false,
          "internalType": "uint256",
          "name": "_fromTokenId",
          "type": "uint256"
        },
        {
          "indexed": false,
          "internalType": "uint256",
          "name": "_toTokenId",
          "type": "uint256"
        }
      ],
      "name": "BatchMetadataUpdate",
      "type": "event"
    },
    {
      "anonymous": false,
      "inputs": [
        {
          "indexed": false,
          "internalType": "string",
          "name": "uri",
          "type": "string"
        }
      ],
      "name": "CollectionAdded",
      "type": "event"
    },
    {
      "anonymous": false,
      "inputs": [
        {
          "indexed": false,
          "internalType": "uint256",
          "name": "idVoiture",
          "type": "uint256"
        },
        {
          "indexed": false,
          "internalType": "address",
          "name": "gagnant",
          "type": "address"
        },
        {
          "indexed": false,
          "internalType": "uint256",
          "name": "montant",
          "type": "uint256"
        }
      ],
      "name": "EnchereTerminee",
      "type": "event"
    },
    {
      "anonymous": false,
      "inputs": [
        {
          "indexed": false,
          "internalType": "string",
          "name": "message",
          "type": "string"
        },
        {
          "indexed": false,
          "internalType": "uint256",
          "name": "value",
          "type": "uint256"
        }
      ],
      "name": "LogI",
      "type": "event"
    },
    {
      "anonymous": false,
      "inputs": [
        {
          "indexed": false,
          "internalType": "string",
          "name": "message",
          "type": "string"
        },
        {
          "indexed": false,
          "internalType": "string",
          "name": "value",
          "type": "string"
        }
      ],
      "name": "LogS",
      "type": "event"
    },
    {
      "anonymous": false,
      "inputs": [
        {
          "indexed": false,
          "internalType": "uint256",
          "name": "_tokenId",
          "type": "uint256"
        }
      ],
      "name": "MetadataUpdate",
      "type": "event"
    },
    {
      "anonymous": false,
      "inputs": [
        {
          "indexed": true,
          "internalType": "address",
          "name": "to",
          "type": "address"
        },
        {
          "indexed": true,
          "internalType": "uint256",
          "name": "tokenId",
          "type": "uint256"
        },
        {
          "indexed": true,
          "internalType": "string",
          "name": "uri",
          "type": "string"
        },
        {
          "indexed": false,
          "internalType": "string",
          "name": "index",
          "type": "string"
        }
      ],
      "name": "Minted",
      "type": "event"
    },
    {
      "anonymous": false,
      "inputs": [
        {
          "indexed": false,
          "internalType": "uint256",
          "name": "idVoiture",
          "type": "uint256"
        },
        {
          "indexed": false,
          "internalType": "address",
          "name": "acheteur",
          "type": "address"
        },
        {
          "indexed": false,
          "internalType": "uint256",
          "name": "montant",
          "type": "uint256"
        }
      ],
      "name": "NouvelleMeilleureOffre",
      "type": "event"
    },
    {
      "anonymous": false,
      "inputs": [
        {
          "indexed": true,
          "internalType": "address",
          "name": "previousOwner",
          "type": "address"
        },
        {
          "indexed": true,
          "internalType": "address",
          "name": "newOwner",
          "type": "address"
        }
      ],
      "name": "OwnershipTransferred",
      "type": "event"
    },
    {
      "anonymous": false,
      "inputs": [
        {
          "indexed": true,
          "internalType": "address",
          "name": "from",
          "type": "address"
        },
        {
          "indexed": true,
          "internalType": "address",
          "name": "to",
          "type": "address"
        },
        {
          "indexed": true,
          "internalType": "uint256",
          "name": "tokenId",
          "type": "uint256"
        }
      ],
      "name": "Transfer",
      "type": "event"
    },
    {
      "inputs": [
        {
          "internalType": "string",
          "name": "_uri",
          "type": "string"
        },
        {
          "internalType": "string",
          "name": "_rarities",
          "type": "string"
        }
      ],
      "name": "addCollection",
      "outputs": [],
      "stateMutability": "nonpayable",
      "type": "function"
    },
    {
      "inputs": [
        {
          "internalType": "address",
          "name": "to",
          "type": "address"
        },
        {
          "internalType": "uint256",
          "name": "tokenId",
          "type": "uint256"
        }
      ],
      "name": "approve",
      "outputs": [],
      "stateMutability": "nonpayable",
      "type": "function"
    },
    {
      "inputs": [
        {
          "internalType": "address",
          "name": "owner",
          "type": "address"
        }
      ],
      "name": "balanceOf",
      "outputs": [
        {
          "internalType": "uint256",
          "name": "",
          "type": "uint256"
        }
      ],
      "stateMutability": "view",
      "type": "function"
    },
    {
      "inputs": [
        {
          "internalType": "uint256",
          "name": "idVoiture",
          "type": "uint256"
        },
        {
          "internalType": "uint256",
          "name": "prix",
          "type": "uint256"
        },
        {
          "internalType": "address",
          "name": "seller",
          "type": "address"
        }
      ],
      "name": "commencerEnchere",
      "outputs": [],
      "stateMutability": "nonpayable",
      "type": "function"
    },
    {
      "inputs": [
        {
          "internalType": "uint256",
          "name": "",
          "type": "uint256"
        }
      ],
      "name": "encheres",
      "outputs": [
        {
          "internalType": "bool",
          "name": "termine",
          "type": "bool"
        },
        {
          "internalType": "address",
          "name": "meilleurAcheteur",
          "type": "address"
        },
        {
          "internalType": "uint256",
          "name": "meilleureOffre",
          "type": "uint256"
        },
        {
          "internalType": "uint256",
          "name": "finEnchere",
          "type": "uint256"
        }
      ],
      "stateMutability": "view",
      "type": "function"
    },
    {
      "inputs": [],
      "name": "endAuctions",
      "outputs": [],
      "stateMutability": "nonpayable",
      "type": "function"
    },
    {
      "inputs": [
        {
          "internalType": "uint256",
          "name": "idNFT",
          "type": "uint256"
        },
        {
          "internalType": "uint256",
          "name": "montant",
          "type": "uint256"
        }
      ],
      "name": "faireOffre",
      "outputs": [],
      "stateMutability": "nonpayable",
      "type": "function"
    },
    {
      "inputs": [
        {
          "internalType": "uint256",
          "name": "tokenId",
          "type": "uint256"
        }
      ],
      "name": "getApproved",
      "outputs": [
        {
          "internalType": "address",
          "name": "",
          "type": "address"
        }
      ],
      "stateMutability": "view",
      "type": "function"
    },
    {
      "inputs": [],
      "name": "getUserNFTs",
      "outputs": [
        {
          "internalType": "uint256[]",
          "name": "",
          "type": "uint256[]"
        }
      ],
      "stateMutability": "view",
      "type": "function"
    },
    {
      "inputs": [
        {
          "internalType": "address",
          "name": "owner",
          "type": "address"
        },
        {
          "internalType": "address",
          "name": "operator",
          "type": "address"
        }
      ],
      "name": "isApprovedForAll",
      "outputs": [
        {
          "internalType": "bool",
          "name": "",
          "type": "bool"
        }
      ],
      "stateMutability": "view",
      "type": "function"
    },
    {
      "inputs": [
        {
          "internalType": "uint8",
          "name": "_forcedRarity",
          "type": "uint8"
        }
      ],
      "name": "mint",
      "outputs": [],
      "stateMutability": "nonpayable",
      "type": "function"
    },
    {
      "inputs": [],
      "name": "name",
      "outputs": [
        {
          "internalType": "string",
          "name": "",
          "type": "string"
        }
      ],
      "stateMutability": "view",
      "type": "function"
    },
    {
      "inputs": [],
      "name": "owner",
      "outputs": [
        {
          "internalType": "address",
          "name": "",
          "type": "address"
        }
      ],
      "stateMutability": "view",
      "type": "function"
    },
    {
      "inputs": [
        {
          "internalType": "uint256",
          "name": "tokenId",
          "type": "uint256"
        }
      ],
      "name": "ownerOf",
      "outputs": [
        {
          "internalType": "address",
          "name": "",
          "type": "address"
        }
      ],
      "stateMutability": "view",
      "type": "function"
    },
    {
      "inputs": [],
      "name": "renounceOwnership",
      "outputs": [],
      "stateMutability": "nonpayable",
      "type": "function"
    },
    {
      "inputs": [
        {
          "internalType": "address",
          "name": "from",
          "type": "address"
        },
        {
          "internalType": "address",
          "name": "to",
          "type": "address"
        },
        {
          "internalType": "uint256",
          "name": "tokenId",
          "type": "uint256"
        }
      ],
      "name": "safeTransferFrom",
      "outputs": [],
      "stateMutability": "nonpayable",
      "type": "function"
    },
    {
      "inputs": [
        {
          "internalType": "address",
          "name": "from",
          "type": "address"
        },
        {
          "internalType": "address",
          "name": "to",
          "type": "address"
        },
        {
          "internalType": "uint256",
          "name": "tokenId",
          "type": "uint256"
        },
        {
          "internalType": "bytes",
          "name": "data",
          "type": "bytes"
        }
      ],
      "name": "safeTransferFrom",
      "outputs": [],
      "stateMutability": "nonpayable",
      "type": "function"
    },
    {
      "inputs": [
        {
          "internalType": "address",
          "name": "operator",
          "type": "address"
        },
        {
          "internalType": "bool",
          "name": "approved",
          "type": "bool"
        }
      ],
      "name": "setApprovalForAll",
      "outputs": [],
      "stateMutability": "nonpayable",
      "type": "function"
    },
    {
      "inputs": [
        {
          "internalType": "bytes4",
          "name": "interfaceId",
          "type": "bytes4"
        }
      ],
      "name": "supportsInterface",
      "outputs": [
        {
          "internalType": "bool",
          "name": "",
          "type": "bool"
        }
      ],
      "stateMutability": "view",
      "type": "function"
    },
    {
      "inputs": [],
      "name": "symbol",
      "outputs": [
        {
          "internalType": "string",
          "name": "",
          "type": "string"
        }
      ],
      "stateMutability": "view",
      "type": "function"
    },
    {
      "inputs": [
        {
          "internalType": "uint256",
          "name": "tokenId",
          "type": "uint256"
        }
      ],
      "name": "tokenURI",
      "outputs": [
        {
          "internalType": "string",
          "name": "",
          "type": "string"
        }
      ],
      "stateMutability": "view",
      "type": "function"
    },
    {
      "inputs": [
        {
          "internalType": "address",
          "name": "from",
          "type": "address"
        },
        {
          "internalType": "address",
          "name": "to",
          "type": "address"
        },
        {
          "internalType": "uint256",
          "name": "tokenId",
          "type": "uint256"
        }
      ],
      "name": "transferFrom",
      "outputs": [],
      "stateMutability": "nonpayable",
      "type": "function"
    },
    {
      "inputs": [
        {
          "internalType": "address",
          "name": "newOwner",
          "type": "address"
        }
      ],
      "name": "transferOwnership",
      "outputs": [],
      "stateMutability": "nonpayable",
      "type": "function"
    }
  ],
  "bytecode": "0x60806040523480156200001157600080fd5b506040516200646738038062006467833981810160405281019062000037919062000279565b6040518060400160405280600681526020017f4e465443617200000000000000000000000000000000000000000000000000008152506040518060400160405280600681526020017f4e465443415200000000000000000000000000000000000000000000000000008152508160009081620000b4919062000525565b508060019081620000c6919062000525565b505050620000e9620000dd6200014160201b60201c565b6200014960201b60201c565b80600e60006101000a81548173ffffffffffffffffffffffffffffffffffffffff021916908373ffffffffffffffffffffffffffffffffffffffff1602179055506000600d819055506000600c81905550506200060c565b600033905090565b6000600760009054906101000a900473ffffffffffffffffffffffffffffffffffffffff16905081600760006101000a81548173ffffffffffffffffffffffffffffffffffffffff021916908373ffffffffffffffffffffffffffffffffffffffff1602179055508173ffffffffffffffffffffffffffffffffffffffff168173ffffffffffffffffffffffffffffffffffffffff167f8be0079c531659141344cd1fd0a4f28419497f9722a3daafe3b4186f6b6457e060405160405180910390a35050565b600080fd5b600073ffffffffffffffffffffffffffffffffffffffff82169050919050565b6000620002418262000214565b9050919050565b620002538162000234565b81146200025f57600080fd5b50565b600081519050620002738162000248565b92915050565b6000602082840312156200029257620002916200020f565b5b6000620002a28482850162000262565b91505092915050565b600081519050919050565b7f4e487b7100000000000000000000000000000000000000000000000000000000600052604160045260246000fd5b7f4e487b7100000000000000000000000000000000000000000000000000000000600052602260045260246000fd5b600060028204905060018216806200032d57607f821691505b602082108103620003435762000342620002e5565b5b50919050565b60008190508160005260206000209050919050565b60006020601f8301049050919050565b600082821b905092915050565b600060088302620003ad7fffffffffffffffffffffffffffffffffffffffffffffffffffffffffffffffff826200036e565b620003b986836200036e565b95508019841693508086168417925050509392505050565b6000819050919050565b6000819050919050565b60006200040662000400620003fa84620003d1565b620003db565b620003d1565b9050919050565b6000819050919050565b6200042283620003e5565b6200043a62000431826200040d565b8484546200037b565b825550505050565b600090565b6200045162000442565b6200045e81848462000417565b505050565b5b8181101562000486576200047a60008262000447565b60018101905062000464565b5050565b601f821115620004d5576200049f8162000349565b620004aa846200035e565b81016020851015620004ba578190505b620004d2620004c9856200035e565b83018262000463565b50505b505050565b600082821c905092915050565b6000620004fa60001984600802620004da565b1980831691505092915050565b6000620005158383620004e7565b9150826002028217905092915050565b6200053082620002ab565b67ffffffffffffffff8111156200054c576200054b620002b6565b5b62000558825462000314565b620005658282856200048a565b600060209050601f8311600181146200059d576000841562000588578287015190505b62000594858262000507565b86555062000604565b601f198416620005ad8662000349565b60005b82811015620005d757848901518255600182019150602085019450602081019050620005b0565b86831015620005f75784890151620005f3601f891682620004e7565b8355505b6001600288020188555050505b505050505050565b615e4b806200061c6000396000f3fe608060405234801561001057600080fd5b506004361061014d5760003560e01c806370a08231116100c3578063b88d4fde1161007c578063b88d4fde14610389578063c87b56dd146103a5578063c8f9a0ce146103d5578063e985e9c5146103df578063f2fde38b1461040f578063fdc5ab8e1461042b5761014d565b806370a08231146102db578063715018a61461030b57806387d6488a146103155780638da5cb5b1461033157806395d89b411461034f578063a22cb4651461036d5761014d565b806313a292041161011557806313a292041461021f57806323b872dd1461023b578063407917eb1461025757806342842e0e146102735780636352211e1461028f5780636ecd2306146102bf5761014d565b8063015c603d1461015257806301ffc9a71461018557806306fdde03146101b5578063081812fc146101d3578063095ea7b314610203575b600080fd5b61016c60048036038101906101679190613f0e565b610449565b60405161017c9493929190613fa6565b60405180910390f35b61019f600480360381019061019a9190614043565b6104a6565b6040516101ac9190614070565b60405180910390f35b6101bd610507565b6040516101ca919061411b565b60405180910390f35b6101ed60048036038101906101e89190613f0e565b610599565b6040516101fa919061413d565b60405180910390f35b61021d60048036038101906102189190614184565b6105df565b005b610239600480360381019061023491906141c4565b6106f6565b005b61025560048036038101906102509190614204565b610c5c565b005b610271600480360381019061026c91906142bc565b610cbc565b005b61028d60048036038101906102889190614204565b610dc5565b005b6102a960048036038101906102a49190613f0e565b610de5565b6040516102b6919061413d565b60405180910390f35b6102d960048036038101906102d49190614376565b610e6b565b005b6102f560048036038101906102f091906143a3565b6116e8565b60405161030291906143d0565b60405180910390f35b61031361179f565b005b61032f600480360381019061032a91906143eb565b6117b3565b005b610339611b78565b604051610346919061413d565b60405180910390f35b610357611ba2565b604051610364919061411b565b60405180910390f35b6103876004803603810190610382919061446a565b611c34565b005b6103a3600480360381019061039e91906145da565b611c4a565b005b6103bf60048036038101906103ba9190613f0e565b611cac565b6040516103cc919061411b565b60405180910390f35b6103dd611dbe565b005b6103f960048036038101906103f4919061465d565b611e50565b6040516104069190614070565b60405180910390f35b610429600480360381019061042491906143a3565b611ee4565b005b610433611f67565b604051610440919061475b565b60405180910390f35b600f6020528060005260406000206000915090508060000160009054906101000a900460ff16908060000160019054906101000a900473ffffffffffffffffffffffffffffffffffffffff16908060010154908060020154905084565b6000634906490660e01b7bffffffffffffffffffffffffffffffffffffffffffffffffffffffff1916827bffffffffffffffffffffffffffffffffffffffffffffffffffffffff1916148061050057506104ff82611ffc565b5b9050919050565b606060008054610516906147ac565b80601f0160208091040260200160405190810160405280929190818152602001828054610542906147ac565b801561058f5780601f106105645761010080835404028352916020019161058f565b820191906000526020600020905b81548152906001019060200180831161057257829003601f168201915b5050505050905090565b60006105a4826120de565b6004600083815260200190815260200160002060009054906101000a900473ffffffffffffffffffffffffffffffffffffffff169050919050565b60006105ea82610de5565b90508073ffffffffffffffffffffffffffffffffffffffff168373ffffffffffffffffffffffffffffffffffffffff160361065a576040517f08c379a00000000000000000000000000000000000000000000000000000000081526004016106519061484f565b60405180910390fd5b8073ffffffffffffffffffffffffffffffffffffffff16610679612129565b73ffffffffffffffffffffffffffffffffffffffff1614806106a857506106a7816106a2612129565b611e50565b5b6106e7576040517f08c379a00000000000000000000000000000000000000000000000000000000081526004016106de906148e1565b60405180910390fd5b6106f18383612131565b505050565b6000600f60008481526020019081526020016000209050600080610890836040518060c00160405290816000820160009054906101000a900460ff161515151581526020016000820160019054906101000a900473ffffffffffffffffffffffffffffffffffffffff1673ffffffffffffffffffffffffffffffffffffffff1673ffffffffffffffffffffffffffffffffffffffff16815260200160018201548152602001600282015481526020016003820180548060200260200160405190810160405280929190818152602001828054801561082957602002820191906000526020600020905b8160009054906101000a900473ffffffffffffffffffffffffffffffffffffffff1673ffffffffffffffffffffffffffffffffffffffff16815260200190600101908083116107df575b505050505081526020016004820180548060200260200160405190810160405280929190818152602001828054801561088157602002820191906000526020600020905b81548152602001906001019080831161086d575b505050505081525050336121ea565b9050826003018054905081146108c4578260040181815481106108b6576108b5614901565b5b906000526020600020015491505b826002015442111561090b576040517f08c379a00000000000000000000000000000000000000000000000000000000081526004016109029061497c565b60405180910390fd5b8260010154828561091c91906149cb565b1161095c576040517f08c379a000000000000000000000000000000000000000000000000000000000815260040161095390614a4b565b60405180910390fd5b83600e60009054906101000a900473ffffffffffffffffffffffffffffffffffffffff1673ffffffffffffffffffffffffffffffffffffffff166370a08231336040518263ffffffff1660e01b81526004016109b8919061413d565b602060405180830381865afa1580156109d5573d6000803e3d6000fd5b505050506040513d601f19601f820116820180604052508101906109f99190614a80565b1015610a3a576040517f08c379a0000000000000000000000000000000000000000000000000000000008152600401610a3190614af9565b60405180910390fd5b600e60009054906101000a900473ffffffffffffffffffffffffffffffffffffffff1673ffffffffffffffffffffffffffffffffffffffff166323b872dd3330876040518463ffffffff1660e01b8152600401610a9993929190614b19565b6020604051808303816000875af1158015610ab8573d6000803e3d6000fd5b505050506040513d601f19601f82011682018060405250810190610adc9190614b65565b5082600301805490508114610b275783836004018281548110610b0257610b01614901565b5b906000526020600020016000828254610b1b91906149cb565b92505081905550610bb8565b82600301339080600181540180825580915050600190039060005260206000200160009091909190916101000a81548173ffffffffffffffffffffffffffffffffffffffff021916908373ffffffffffffffffffffffffffffffffffffffff160217905550826004018490806001815401808255809150506001900390600052602060002001600090919091909150555b338360000160016101000a81548173ffffffffffffffffffffffffffffffffffffffff021916908373ffffffffffffffffffffffffffffffffffffffff1602179055508184610c0791906149cb565b83600101819055507f7f68ede85a9fb6159422305b57ac1660b809478f78888413e1c7a581534aa56285338487610c3e91906149cb565b604051610c4d93929190614b92565b60405180910390a15050505050565b610c6d610c67612129565b8261227c565b610cac576040517f08c379a0000000000000000000000000000000000000000000000000000000008152600401610ca390614c3b565b60405180910390fd5b610cb7838383612311565b505050565b610cc461260a565b6008604051806040016040528086868080601f016020809104026020016040519081016040528093929190818152602001838380828437600081840152601f19601f820116905080830192505050505050508152602001610d258585612688565b81525090806001815401808255809150506001900390600052602060002090600202016000909190919091506000820151816000019081610d669190614e07565b506020820151816001019080519060200190610d83929190613c85565b5050507f3a6eabc1ea35f41cd485e412aa9d92cec3c646bb471dac85cb42d75b3ca461ac8484604051610db7929190614f06565b60405180910390a150505050565b610de083838360405180602001604052806000815250611c4a565b505050565b600080610df1836127a0565b9050600073ffffffffffffffffffffffffffffffffffffffff168173ffffffffffffffffffffffffffffffffffffffff1603610e62576040517f08c379a0000000000000000000000000000000000000000000000000000000008152600401610e5990614f76565b60405180910390fd5b80915050919050565b60006001905080600e60009054906101000a900473ffffffffffffffffffffffffffffffffffffffff1673ffffffffffffffffffffffffffffffffffffffff166370a08231336040518263ffffffff1660e01b8152600401610ecd919061413d565b602060405180830381865afa158015610eea573d6000803e3d6000fd5b505050506040513d601f19601f82011682018060405250810190610f0e9190614a80565b1015610f4f576040517f08c379a0000000000000000000000000000000000000000000000000000000008152600401610f4690614af9565b60405180910390fd5b600e60009054906101000a900473ffffffffffffffffffffffffffffffffffffffff1673ffffffffffffffffffffffffffffffffffffffff166323b872dd3330846040518463ffffffff1660e01b8152600401610fae93929190614b19565b6020604051808303816000875af1158015610fcd573d6000803e3d6000fd5b505050506040513d601f19601f82011682018060405250810190610ff19190614b65565b5060006008805490501161103a576040517f08c379a000000000000000000000000000000000000000000000000000000000815260040161103190614fe2565b60405180910390fd5b6000600861104c6008805490506127dd565b8154811061105d5761105c614901565b5b9060005260206000209060020201604051806040016040529081600082018054611086906147ac565b80601f01602080910402602001604051908101604052809291908181526020018280546110b2906147ac565b80156110ff5780601f106110d4576101008083540402835291602001916110ff565b820191906000526020600020905b8154815290600101906020018083116110e257829003601f168201915b505050505081526020016001820180548060200260200160405190810160405280929190818152602001828054801561117d57602002820191906000526020600020906000905b82829054906101000a900460ff1660ff16815260200190600101906020826000010492830192600103820291508084116111465790505b50505050508152505090506000816020015151116111d0576040517f08c379a00000000000000000000000000000000000000000000000000000000081526004016111c79061504e565b60405180910390fd5b60008060008560ff16111561127c5760058560ff161115611226576040517f08c379a000000000000000000000000000000000000000000000000000000000815260040161121d906150ba565b60405180910390fd5b6112348360200151516127dd565b90505b8460ff168360200151828151811061125257611251614901565b5b602002602001015160ff1614611277576112708360200151516127dd565b9050611237565b61145c565b60016112896127106127dd565b61129391906149cb565b9150603282116112f1576112ab8360200151516127dd565b90505b6001836020015182815181106112c7576112c6614901565b5b602002602001015160ff16146112ec576112e58360200151516127dd565b90506112ae565b61145b565b610226821161134e576113088360200151516127dd565b90505b60028360200151828151811061132457611323614901565b5b602002602001015160ff1614611349576113428360200151516127dd565b905061130b565b61145a565b6109f682116113ab576113658360200151516127dd565b90505b60038360200151828151811061138157611380614901565b5b602002602001015160ff16146113a65761139f8360200151516127dd565b9050611368565b611459565b6115ae8211611408576113c28360200151516127dd565b90505b6004836020015182815181106113de576113dd614901565b5b602002602001015160ff1614611403576113fc8360200151516127dd565b90506113c5565b611458565b6114168360200151516127dd565b90505b60058360200151828151811061143257611431614901565b5b602002602001015160ff1614611457576114508360200151516127dd565b9050611419565b5b5b5b5b5b600061147360018361146e91906149cb565b612839565b90506000846000015190507fbf431ccdc401f9b507a213e17d874e7fb7b2b1cc1edb7053003026a9faf501c485600001516040516114b19190615126565b60405180910390a17fe0a5e38f11c5257cc5b37023d5b7b7631c7ef4a1a7b2e25130dcddcd5d11cb938560200151516040516114ed91906151a7565b60405180910390a17fbf431ccdc401f9b507a213e17d874e7fb7b2b1cc1edb7053003026a9faf501c4826040516115249190615221565b60405180910390a161153833600d54612907565b61154d600d546115488385612b24565b612b50565b8060405161155b9190615292565b6040518091039020600d543373ffffffffffffffffffffffffffffffffffffffff167fe2406cfd356cfbe4e42d452bde96d27f48c423e5f02b5d78695893308399519d856040516115ac919061411b565b60405180910390a43360096000600d54815260200190815260200160002060006101000a81548173ffffffffffffffffffffffffffffffffffffffff021916908373ffffffffffffffffffffffffffffffffffffffff160217905550600a60003373ffffffffffffffffffffffffffffffffffffffff1673ffffffffffffffffffffffffffffffffffffffff1681526020019081526020016000206000815480929190611658906152a9565b9190505550600b60003373ffffffffffffffffffffffffffffffffffffffff1673ffffffffffffffffffffffffffffffffffffffff168152602001908152602001600020600d5490806001815401808255809150506001900390600052602060002001600090919091909150556001600d60008282546116d891906149cb565b9250508190555050505050505050565b60008073ffffffffffffffffffffffffffffffffffffffff168273ffffffffffffffffffffffffffffffffffffffff1603611758576040517f08c379a000000000000000000000000000000000000000000000000000000000815260040161174f90615363565b60405180910390fd5b600360008373ffffffffffffffffffffffffffffffffffffffff1673ffffffffffffffffffffffffffffffffffffffff168152602001908152602001600020549050919050565b6117a761260a565b6117b16000612bf4565b565b8073ffffffffffffffffffffffffffffffffffffffff166009600085815260200190815260200160002060009054906101000a900473ffffffffffffffffffffffffffffffffffffffff1673ffffffffffffffffffffffffffffffffffffffff1614611854576040517f08c379a000000000000000000000000000000000000000000000000000000000815260040161184b906153f5565b60405180910390fd5b60108054905061186384612cba565b146118a3576040517f08c379a000000000000000000000000000000000000000000000000000000000815260040161189a90615461565b60405180910390fd5b6040518060c00160405280600015158152602001600073ffffffffffffffffffffffffffffffffffffffff168152602001838152602001603c426118e791906149cb565b8152602001600067ffffffffffffffff811115611907576119066144af565b5b6040519080825280602002602001820160405280156119355781602001602082028036833780820191505090505b508152602001600067ffffffffffffffff811115611956576119556144af565b5b6040519080825280602002602001820160405280156119845781602001602082028036833780820191505090505b50815250600f600085815260200190815260200160002060008201518160000160006101000a81548160ff02191690831515021790555060208201518160000160016101000a81548173ffffffffffffffffffffffffffffffffffffffff021916908373ffffffffffffffffffffffffffffffffffffffff16021790555060408201518160010155606082015181600201556080820151816003019080519060200190611a32929190613d2c565b5060a0820151816004019080519060200190611a4f929190613db6565b5090505060108390806001815401808255809150506001900390600052602060002001600090919091909150556000611a888483612d1f565b90506000600b60008473ffffffffffffffffffffffffffffffffffffffff1673ffffffffffffffffffffffffffffffffffffffff168152602001908152602001600020905060008290505b60018280549050611ae49190615481565b811015611b495781600182611af99190615481565b81548110611b0a57611b09614901565b5b9060005260206000200154828281548110611b2857611b27614901565b5b90600052602060002001819055508080611b41906152a9565b915050611ad3565b81805480611b5a57611b596154b5565b5b60019003818190600052602060002001600090559055505050505050565b6000600760009054906101000a900473ffffffffffffffffffffffffffffffffffffffff16905090565b606060018054611bb1906147ac565b80601f0160208091040260200160405190810160405280929190818152602001828054611bdd906147ac565b8015611c2a5780601f10611bff57610100808354040283529160200191611c2a565b820191906000526020600020905b815481529060010190602001808311611c0d57829003601f168201915b5050505050905090565b611c46611c3f612129565b8383612e3c565b5050565b611c5b611c55612129565b8361227c565b611c9a576040517f08c379a0000000000000000000000000000000000000000000000000000000008152600401611c9190614c3b565b60405180910390fd5b611ca684848484612fa8565b50505050565b6060611cb7826120de565b6000600660008481526020019081526020016000208054611cd7906147ac565b80601f0160208091040260200160405190810160405280929190818152602001828054611d03906147ac565b8015611d505780601f10611d2557610100808354040283529160200191611d50565b820191906000526020600020905b815481529060010190602001808311611d3357829003601f168201915b505050505090506000611d61613004565b90506000815103611d76578192505050611db9565b600082511115611dab578082604051602001611d939291906154e4565b60405160208183030381529060405292505050611db9565b611db48461301b565b925050505b919050565b600080600090505b601080549050811015611e4c57600f600060108381548110611deb57611dea614901565b5b90600052602060002001548152602001908152602001600020915042826002015411611e3957611e3860108281548110611e2857611e27614901565b5b9060005260206000200154613083565b5b8080611e44906152a9565b915050611dc6565b5050565b6000600560008473ffffffffffffffffffffffffffffffffffffffff1673ffffffffffffffffffffffffffffffffffffffff16815260200190815260200160002060008373ffffffffffffffffffffffffffffffffffffffff1673ffffffffffffffffffffffffffffffffffffffff16815260200190815260200160002060009054906101000a900460ff16905092915050565b611eec61260a565b600073ffffffffffffffffffffffffffffffffffffffff168173ffffffffffffffffffffffffffffffffffffffff1603611f5b576040517f08c379a0000000000000000000000000000000000000000000000000000000008152600401611f529061557a565b60405180910390fd5b611f6481612bf4565b50565b6060600b60003373ffffffffffffffffffffffffffffffffffffffff1673ffffffffffffffffffffffffffffffffffffffff168152602001908152602001600020805480602002602001604051908101604052809291908181526020018280548015611ff257602002820191906000526020600020905b815481526020019060010190808311611fde575b5050505050905090565b60007f80ac58cd000000000000000000000000000000000000000000000000000000007bffffffffffffffffffffffffffffffffffffffffffffffffffffffff1916827bffffffffffffffffffffffffffffffffffffffffffffffffffffffff191614806120c757507f5b5e139f000000000000000000000000000000000000000000000000000000007bffffffffffffffffffffffffffffffffffffffffffffffffffffffff1916827bffffffffffffffffffffffffffffffffffffffffffffffffffffffff1916145b806120d757506120d6826138d1565b5b9050919050565b6120e78161393b565b612126576040517f08c379a000000000000000000000000000000000000000000000000000000000815260040161211d90614f76565b60405180910390fd5b50565b600033905090565b816004600083815260200190815260200160002060006101000a81548173ffffffffffffffffffffffffffffffffffffffff021916908373ffffffffffffffffffffffffffffffffffffffff160217905550808273ffffffffffffffffffffffffffffffffffffffff166121a483610de5565b73ffffffffffffffffffffffffffffffffffffffff167f8c5be1e5ebec7d5bd14f71427d1e84f3dd0314c0f7b2291e5b200ac8c7c3b92560405160405180910390a45050565b600080600090505b83608001515181101561226c578360800151818151811061221657612215614901565b5b602002602001015173ffffffffffffffffffffffffffffffffffffffff168373ffffffffffffffffffffffffffffffffffffffff16036122595780915050612276565b8080612264906152a9565b9150506121f2565b5082608001515190505b92915050565b60008061228883610de5565b90508073ffffffffffffffffffffffffffffffffffffffff168473ffffffffffffffffffffffffffffffffffffffff1614806122ca57506122c98185611e50565b5b8061230857508373ffffffffffffffffffffffffffffffffffffffff166122f084610599565b73ffffffffffffffffffffffffffffffffffffffff16145b91505092915050565b8273ffffffffffffffffffffffffffffffffffffffff1661233182610de5565b73ffffffffffffffffffffffffffffffffffffffff1614612387576040517f08c379a000000000000000000000000000000000000000000000000000000000815260040161237e9061560c565b60405180910390fd5b600073ffffffffffffffffffffffffffffffffffffffff168273ffffffffffffffffffffffffffffffffffffffff16036123f6576040517f08c379a00000000000000000000000000000000000000000000000000000000081526004016123ed9061569e565b60405180910390fd5b612403838383600161397c565b8273ffffffffffffffffffffffffffffffffffffffff1661242382610de5565b73ffffffffffffffffffffffffffffffffffffffff1614612479576040517f08c379a00000000000000000000000000000000000000000000000000000000081526004016124709061560c565b60405180910390fd5b6004600082815260200190815260200160002060006101000a81549073ffffffffffffffffffffffffffffffffffffffff02191690556001600360008573ffffffffffffffffffffffffffffffffffffffff1673ffffffffffffffffffffffffffffffffffffffff168152602001908152602001600020600082825403925050819055506001600360008473ffffffffffffffffffffffffffffffffffffffff1673ffffffffffffffffffffffffffffffffffffffff16815260200190815260200160002060008282540192505081905550816002600083815260200190815260200160002060006101000a81548173ffffffffffffffffffffffffffffffffffffffff021916908373ffffffffffffffffffffffffffffffffffffffff160217905550808273ffffffffffffffffffffffffffffffffffffffff168473ffffffffffffffffffffffffffffffffffffffff167fddf252ad1be2c89b69c2b068fc378daa952ba7f163c4a11628f55a4df523b3ef60405160405180910390a46126058383836001613982565b505050565b612612612129565b73ffffffffffffffffffffffffffffffffffffffff16612630611b78565b73ffffffffffffffffffffffffffffffffffffffff1614612686576040517f08c379a000000000000000000000000000000000000000000000000000000000815260040161267d9061570a565b60405180910390fd5b565b6060600083838080601f016020809104026020016040519081016040528093929190818152602001838380828437600081840152601f19601f8201169050808301925050505050505090506000815167ffffffffffffffff8111156126f0576126ef6144af565b5b60405190808252806020026020018201604052801561271e5781602001602082028036833780820191505090505b50905060005b825181101561279457603083828151811061274257612741614901565b5b602001015160f81c60f81b60f81c61275a919061572a565b82828151811061276d5761276c614901565b5b602002602001019060ff16908160ff1681525050808061278c906152a9565b915050612724565b50809250505092915050565b60006002600083815260200190815260200160002060009054906101000a900473ffffffffffffffffffffffffffffffffffffffff169050919050565b6000600c60008154809291906127f2906152a9565b9190505550814233600c5460405160200161280f939291906157c8565b6040516020818303038152906040528051906020012060001c6128329190615834565b9050919050565b60606000600161284884613988565b01905060008167ffffffffffffffff811115612867576128666144af565b5b6040519080825280601f01601f1916602001820160405280156128995781602001600182028036833780820191505090505b509050600082602001820190505b6001156128fc578080600190039150507f3031323334353637383961626364656600000000000000000000000000000000600a86061a8153600a85816128f0576128ef615805565b5b049450600085036128a7575b819350505050919050565b600073ffffffffffffffffffffffffffffffffffffffff168273ffffffffffffffffffffffffffffffffffffffff1603612976576040517f08c379a000000000000000000000000000000000000000000000000000000000815260040161296d906158b1565b60405180910390fd5b61297f8161393b565b156129bf576040517f08c379a00000000000000000000000000000000000000000000000000000000081526004016129b69061591d565b60405180910390fd5b6129cd60008383600161397c565b6129d68161393b565b15612a16576040517f08c379a0000000000000000000000000000000000000000000000000000000008152600401612a0d9061591d565b60405180910390fd5b6001600360008473ffffffffffffffffffffffffffffffffffffffff1673ffffffffffffffffffffffffffffffffffffffff16815260200190815260200160002060008282540192505081905550816002600083815260200190815260200160002060006101000a81548173ffffffffffffffffffffffffffffffffffffffff021916908373ffffffffffffffffffffffffffffffffffffffff160217905550808273ffffffffffffffffffffffffffffffffffffffff16600073ffffffffffffffffffffffffffffffffffffffff167fddf252ad1be2c89b69c2b068fc378daa952ba7f163c4a11628f55a4df523b3ef60405160405180910390a4612b20600083836001613982565b5050565b60608282604051602001612b399291906159d5565b604051602081830303815290604052905092915050565b612b598261393b565b612b98576040517f08c379a0000000000000000000000000000000000000000000000000000000008152600401612b8f90615a81565b60405180910390fd5b80600660008481526020019081526020016000209081612bb89190614e07565b507ff8e1a15aba9398e019f0b49df1a4fde98ee17ae345cb5f6b5e2c27f5033e8ce782604051612be891906143d0565b60405180910390a15050565b6000600760009054906101000a900473ffffffffffffffffffffffffffffffffffffffff16905081600760006101000a81548173ffffffffffffffffffffffffffffffffffffffff021916908373ffffffffffffffffffffffffffffffffffffffff1602179055508173ffffffffffffffffffffffffffffffffffffffff168173ffffffffffffffffffffffffffffffffffffffff167f8be0079c531659141344cd1fd0a4f28419497f9722a3daafe3b4186f6b6457e060405160405180910390a35050565b600080600090505b601080549050811015612d10578260108281548110612ce457612ce3614901565b5b906000526020600020015403612cfd5780915050612d1a565b8080612d08906152a9565b915050612cc2565b5060108054905090505b919050565b600080600090505b600b60008473ffffffffffffffffffffffffffffffffffffffff1673ffffffffffffffffffffffffffffffffffffffff16815260200190815260200160002080549050811015612def5783600b60008573ffffffffffffffffffffffffffffffffffffffff1673ffffffffffffffffffffffffffffffffffffffff1681526020019081526020016000208281548110612dc357612dc2614901565b5b906000526020600020015403612ddc5780915050612e36565b8080612de7906152a9565b915050612d27565b50600b60008373ffffffffffffffffffffffffffffffffffffffff1673ffffffffffffffffffffffffffffffffffffffff1681526020019081526020016000208054905090505b92915050565b8173ffffffffffffffffffffffffffffffffffffffff168373ffffffffffffffffffffffffffffffffffffffff1603612eaa576040517f08c379a0000000000000000000000000000000000000000000000000000000008152600401612ea190615aed565b60405180910390fd5b80600560008573ffffffffffffffffffffffffffffffffffffffff1673ffffffffffffffffffffffffffffffffffffffff16815260200190815260200160002060008473ffffffffffffffffffffffffffffffffffffffff1673ffffffffffffffffffffffffffffffffffffffff16815260200190815260200160002060006101000a81548160ff0219169083151502179055508173ffffffffffffffffffffffffffffffffffffffff168373ffffffffffffffffffffffffffffffffffffffff167f17307eab39ab6107e8899845ad3d59bd9653f200f220920489ca2b5937696c3183604051612f9b9190614070565b60405180910390a3505050565b612fb3848484612311565b612fbf84848484613adb565b612ffe576040517f08c379a0000000000000000000000000000000000000000000000000000000008152600401612ff590615b7f565b60405180910390fd5b50505050565b606060405180602001604052806000815250905090565b6060613026826120de565b6000613030613004565b90506000815111613050576040518060200160405280600081525061307b565b8061305a84612839565b60405160200161306b9291906154e4565b6040516020818303038152906040525b915050919050565b6000600f6000838152602001908152602001600020905080600201544210156130e1576040517f08c379a00000000000000000000000000000000000000000000000000000000081526004016130d890615c11565b60405180910390fd5b8060000160009054906101000a900460ff1615613133576040517f08c379a000000000000000000000000000000000000000000000000000000000815260040161312a90615c7d565b60405180910390fd5b60018160000160006101000a81548160ff0219169083151502179055507f5155b2097f8cdee890af8cda6502a21cdb5c97b769fdeab5cc5080f608e0e29d828260000160019054906101000a900473ffffffffffffffffffffffffffffffffffffffff1683600101546040516131ab93929190614b92565b60405180910390a1600e60009054906101000a900473ffffffffffffffffffffffffffffffffffffffff1673ffffffffffffffffffffffffffffffffffffffff166370a08231306040518263ffffffff1660e01b815260040161320e919061413d565b602060405180830381865afa15801561322b573d6000803e3d6000fd5b505050506040513d601f19601f8201168201806040525081019061324f9190614a80565b81600101541115613295576040517f08c379a000000000000000000000000000000000000000000000000000000000815260040161328c90615ce9565b60405180910390fd5b600e60009054906101000a900473ffffffffffffffffffffffffffffffffffffffff1673ffffffffffffffffffffffffffffffffffffffff1663a9059cbb6132dc84610de5565b83600101546040518363ffffffff1660e01b81526004016132fe929190615d09565b6020604051808303816000875af115801561331d573d6000803e3d6000fd5b505050506040513d601f19601f820116820180604052508101906133419190614b65565b508060000160019054906101000a900473ffffffffffffffffffffffffffffffffffffffff166009600084815260200190815260200160002060006101000a81548173ffffffffffffffffffffffffffffffffffffffff021916908373ffffffffffffffffffffffffffffffffffffffff1602179055506001600a60006133c785610de5565b73ffffffffffffffffffffffffffffffffffffffff1673ffffffffffffffffffffffffffffffffffffffff16815260200190815260200160002060008282546134109190615481565b925050819055506001600a60008360000160019054906101000a900473ffffffffffffffffffffffffffffffffffffffff1673ffffffffffffffffffffffffffffffffffffffff1673ffffffffffffffffffffffffffffffffffffffff168152602001908152602001600020600082825461348b91906149cb565b92505081905550600b60008260000160019054906101000a900473ffffffffffffffffffffffffffffffffffffffff1673ffffffffffffffffffffffffffffffffffffffff1673ffffffffffffffffffffffffffffffffffffffff16815260200190815260200160002082908060018154018082558091505060019003906000526020600020016000909190919091505561355361352883610de5565b8260000160019054906101000a900473ffffffffffffffffffffffffffffffffffffffff1684612311565b600061355e83612cba565b905060008190505b60016010805490506135789190615481565b8110156135df57601060018261358e9190615481565b8154811061359f5761359e614901565b5b9060005260206000200154601082815481106135be576135bd614901565b5b906000526020600020018190555080806135d7906152a9565b915050613566565b60108054806135f1576135f06154b5565b5b6001900381819060005260206000200160009055905560118390806001815401808255809150506001900390600052602060002090600502016000909190919091506000820160009054906101000a900460ff168160000160006101000a81548160ff0219169083151502179055506000820160019054906101000a900473ffffffffffffffffffffffffffffffffffffffff168160000160016101000a81548173ffffffffffffffffffffffffffffffffffffffff021916908373ffffffffffffffffffffffffffffffffffffffff160217905550600182015481600101556002820154816002015560038201816003019080546136f1929190613e03565b506004820181600401908054613708929190613e55565b505050600090505b82600301805490508110156138cb578260000160019054906101000a900473ffffffffffffffffffffffffffffffffffffffff1673ffffffffffffffffffffffffffffffffffffffff168360030182815481106137705761376f614901565b5b9060005260206000200160009054906101000a900473ffffffffffffffffffffffffffffffffffffffff1673ffffffffffffffffffffffffffffffffffffffff16146138b857600e60009054906101000a900473ffffffffffffffffffffffffffffffffffffffff1673ffffffffffffffffffffffffffffffffffffffff1663a9059cbb84600301838154811061380a57613809614901565b5b9060005260206000200160009054906101000a900473ffffffffffffffffffffffffffffffffffffffff1685600401848154811061384b5761384a614901565b5b90600052602060002001546040518363ffffffff1660e01b8152600401613873929190615d09565b6020604051808303816000875af1158015613892573d6000803e3d6000fd5b505050506040513d601f19601f820116820180604052508101906138b69190614b65565b505b80806138c3906152a9565b915050613710565b50505050565b60007f01ffc9a7000000000000000000000000000000000000000000000000000000007bffffffffffffffffffffffffffffffffffffffffffffffffffffffff1916827bffffffffffffffffffffffffffffffffffffffffffffffffffffffff1916149050919050565b60008073ffffffffffffffffffffffffffffffffffffffff1661395d836127a0565b73ffffffffffffffffffffffffffffffffffffffff1614159050919050565b50505050565b50505050565b600080600090507a184f03e93ff9f4daa797ed6e38ed64bf6a1f01000000000000000083106139e6577a184f03e93ff9f4daa797ed6e38ed64bf6a1f01000000000000000083816139dc576139db615805565b5b0492506040810190505b6d04ee2d6d415b85acef81000000008310613a23576d04ee2d6d415b85acef81000000008381613a1957613a18615805565b5b0492506020810190505b662386f26fc100008310613a5257662386f26fc100008381613a4857613a47615805565b5b0492506010810190505b6305f5e1008310613a7b576305f5e1008381613a7157613a70615805565b5b0492506008810190505b6127108310613aa0576127108381613a9657613a95615805565b5b0492506004810190505b60648310613ac35760648381613ab957613ab8615805565b5b0492506002810190505b600a8310613ad2576001810190505b80915050919050565b6000613afc8473ffffffffffffffffffffffffffffffffffffffff16613c62565b15613c55578373ffffffffffffffffffffffffffffffffffffffff1663150b7a02613b25612129565b8786866040518563ffffffff1660e01b8152600401613b479493929190615d87565b6020604051808303816000875af1925050508015613b8357506040513d601f19601f82011682018060405250810190613b809190615de8565b60015b613c05573d8060008114613bb3576040519150601f19603f3d011682016040523d82523d6000602084013e613bb8565b606091505b506000815103613bfd576040517f08c379a0000000000000000000000000000000000000000000000000000000008152600401613bf490615b7f565b60405180910390fd5b805181602001fd5b63150b7a0260e01b7bffffffffffffffffffffffffffffffffffffffffffffffffffffffff1916817bffffffffffffffffffffffffffffffffffffffffffffffffffffffff191614915050613c5a565b600190505b949350505050565b6000808273ffffffffffffffffffffffffffffffffffffffff163b119050919050565b82805482825590600052602060002090601f01602090048101928215613d1b5791602002820160005b83821115613cec57835183826101000a81548160ff021916908360ff1602179055509260200192600101602081600001049283019260010302613cae565b8015613d195782816101000a81549060ff0219169055600101602081600001049283019260010302613cec565b505b509050613d289190613ea7565b5090565b828054828255906000526020600020908101928215613da5579160200282015b82811115613da45782518260006101000a81548173ffffffffffffffffffffffffffffffffffffffff021916908373ffffffffffffffffffffffffffffffffffffffff16021790555091602001919060010190613d4c565b5b509050613db29190613ea7565b5090565b828054828255906000526020600020908101928215613df2579160200282015b82811115613df1578251825591602001919060010190613dd6565b5b509050613dff9190613ea7565b5090565b828054828255906000526020600020908101928215613e445760005260206000209182015b82811115613e43578254825591600101919060010190613e28565b5b509050613e519190613ea7565b5090565b828054828255906000526020600020908101928215613e965760005260206000209182015b82811115613e95578254825591600101919060010190613e7a565b5b509050613ea39190613ea7565b5090565b5b80821115613ec0576000816000905550600101613ea8565b5090565b6000604051905090565b600080fd5b600080fd5b6000819050919050565b613eeb81613ed8565b8114613ef657600080fd5b50565b600081359050613f0881613ee2565b92915050565b600060208284031215613f2457613f23613ece565b5b6000613f3284828501613ef9565b91505092915050565b60008115159050919050565b613f5081613f3b565b82525050565b600073ffffffffffffffffffffffffffffffffffffffff82169050919050565b6000613f8182613f56565b9050919050565b613f9181613f76565b82525050565b613fa081613ed8565b82525050565b6000608082019050613fbb6000830187613f47565b613fc86020830186613f88565b613fd56040830185613f97565b613fe26060830184613f97565b95945050505050565b60007fffffffff0000000000000000000000000000000000000000000000000000000082169050919050565b61402081613feb565b811461402b57600080fd5b50565b60008135905061403d81614017565b92915050565b60006020828403121561405957614058613ece565b5b60006140678482850161402e565b91505092915050565b60006020820190506140856000830184613f47565b92915050565b600081519050919050565b600082825260208201905092915050565b60005b838110156140c55780820151818401526020810190506140aa565b60008484015250505050565b6000601f19601f8301169050919050565b60006140ed8261408b565b6140f78185614096565b93506141078185602086016140a7565b614110816140d1565b840191505092915050565b6000602082019050818103600083015261413581846140e2565b905092915050565b60006020820190506141526000830184613f88565b92915050565b61416181613f76565b811461416c57600080fd5b50565b60008135905061417e81614158565b92915050565b6000806040838503121561419b5761419a613ece565b5b60006141a98582860161416f565b92505060206141ba85828601613ef9565b9150509250929050565b600080604083850312156141db576141da613ece565b5b60006141e985828601613ef9565b92505060206141fa85828601613ef9565b9150509250929050565b60008060006060848603121561421d5761421c613ece565b5b600061422b8682870161416f565b935050602061423c8682870161416f565b925050604061424d86828701613ef9565b9150509250925092565b600080fd5b600080fd5b600080fd5b60008083601f84011261427c5761427b614257565b5b8235905067ffffffffffffffff8111156142995761429861425c565b5b6020830191508360018202830111156142b5576142b4614261565b5b9250929050565b600080600080604085870312156142d6576142d5613ece565b5b600085013567ffffffffffffffff8111156142f4576142f3613ed3565b5b61430087828801614266565b9450945050602085013567ffffffffffffffff81111561432357614322613ed3565b5b61432f87828801614266565b925092505092959194509250565b600060ff82169050919050565b6143538161433d565b811461435e57600080fd5b50565b6000813590506143708161434a565b92915050565b60006020828403121561438c5761438b613ece565b5b600061439a84828501614361565b91505092915050565b6000602082840312156143b9576143b8613ece565b5b60006143c78482850161416f565b91505092915050565b60006020820190506143e56000830184613f97565b92915050565b60008060006060848603121561440457614403613ece565b5b600061441286828701613ef9565b935050602061442386828701613ef9565b92505060406144348682870161416f565b9150509250925092565b61444781613f3b565b811461445257600080fd5b50565b6000813590506144648161443e565b92915050565b6000806040838503121561448157614480613ece565b5b600061448f8582860161416f565b92505060206144a085828601614455565b9150509250929050565b600080fd5b7f4e487b7100000000000000000000000000000000000000000000000000000000600052604160045260246000fd5b6144e7826140d1565b810181811067ffffffffffffffff82111715614506576145056144af565b5b80604052505050565b6000614519613ec4565b905061452582826144de565b919050565b600067ffffffffffffffff821115614545576145446144af565b5b61454e826140d1565b9050602081019050919050565b82818337600083830152505050565b600061457d6145788461452a565b61450f565b905082815260208101848484011115614599576145986144aa565b5b6145a484828561455b565b509392505050565b600082601f8301126145c1576145c0614257565b5b81356145d184826020860161456a565b91505092915050565b600080600080608085870312156145f4576145f3613ece565b5b60006146028782880161416f565b94505060206146138782880161416f565b935050604061462487828801613ef9565b925050606085013567ffffffffffffffff81111561464557614644613ed3565b5b614651878288016145ac565b91505092959194509250565b6000806040838503121561467457614673613ece565b5b60006146828582860161416f565b92505060206146938582860161416f565b9150509250929050565b600081519050919050565b600082825260208201905092915050565b6000819050602082019050919050565b6146d281613ed8565b82525050565b60006146e483836146c9565b60208301905092915050565b6000602082019050919050565b60006147088261469d565b61471281856146a8565b935061471d836146b9565b8060005b8381101561474e57815161473588826146d8565b9750614740836146f0565b925050600181019050614721565b5085935050505092915050565b6000602082019050818103600083015261477581846146fd565b905092915050565b7f4e487b7100000000000000000000000000000000000000000000000000000000600052602260045260246000fd5b600060028204905060018216806147c457607f821691505b6020821081036147d7576147d661477d565b5b50919050565b7f4552433732313a20617070726f76616c20746f2063757272656e74206f776e6560008201527f7200000000000000000000000000000000000000000000000000000000000000602082015250565b6000614839602183614096565b9150614844826147dd565b604082019050919050565b600060208201905081810360008301526148688161482c565b9050919050565b7f4552433732313a20617070726f76652063616c6c6572206973206e6f7420746f60008201527f6b656e206f776e6572206f7220617070726f76656420666f7220616c6c000000602082015250565b60006148cb603d83614096565b91506148d68261486f565b604082019050919050565b600060208201905081810360008301526148fa816148be565b9050919050565b7f4e487b7100000000000000000000000000000000000000000000000000000000600052603260045260246000fd5b7f41756374696f6e2068617320656e6465642e0000000000000000000000000000600082015250565b6000614966601283614096565b915061497182614930565b602082019050919050565b6000602082019050818103600083015261499581614959565b9050919050565b7f4e487b7100000000000000000000000000000000000000000000000000000000600052601160045260246000fd5b60006149d682613ed8565b91506149e183613ed8565b92508282019050808211156149f9576149f861499c565b5b92915050565b7f546865726520697320616c7265616479206120686967686572206269642e0000600082015250565b6000614a35601e83614096565b9150614a40826149ff565b602082019050919050565b60006020820190508181036000830152614a6481614a28565b9050919050565b600081519050614a7a81613ee2565b92915050565b600060208284031215614a9657614a95613ece565b5b6000614aa484828501614a6b565b91505092915050565b7f496e73756666696369656e74204652542062616c616e63650000000000000000600082015250565b6000614ae3601883614096565b9150614aee82614aad565b602082019050919050565b60006020820190508181036000830152614b1281614ad6565b9050919050565b6000606082019050614b2e6000830186613f88565b614b3b6020830185613f88565b614b486040830184613f97565b949350505050565b600081519050614b5f8161443e565b92915050565b600060208284031215614b7b57614b7a613ece565b5b6000614b8984828501614b50565b91505092915050565b6000606082019050614ba76000830186613f97565b614bb46020830185613f88565b614bc16040830184613f97565b949350505050565b7f4552433732313a2063616c6c6572206973206e6f7420746f6b656e206f776e6560008201527f72206f7220617070726f76656400000000000000000000000000000000000000602082015250565b6000614c25602d83614096565b9150614c3082614bc9565b604082019050919050565b60006020820190508181036000830152614c5481614c18565b9050919050565b60008190508160005260206000209050919050565b60006020601f8301049050919050565b600082821b905092915050565b600060088302614cbd7fffffffffffffffffffffffffffffffffffffffffffffffffffffffffffffffff82614c80565b614cc78683614c80565b95508019841693508086168417925050509392505050565b6000819050919050565b6000614d04614cff614cfa84613ed8565b614cdf565b613ed8565b9050919050565b6000819050919050565b614d1e83614ce9565b614d32614d2a82614d0b565b848454614c8d565b825550505050565b600090565b614d47614d3a565b614d52818484614d15565b505050565b5b81811015614d7657614d6b600082614d3f565b600181019050614d58565b5050565b601f821115614dbb57614d8c81614c5b565b614d9584614c70565b81016020851015614da4578190505b614db8614db085614c70565b830182614d57565b50505b505050565b600082821c905092915050565b6000614dde60001984600802614dc0565b1980831691505092915050565b6000614df78383614dcd565b9150826002028217905092915050565b614e108261408b565b67ffffffffffffffff811115614e2957614e286144af565b5b614e3382546147ac565b614e3e828285614d7a565b600060209050601f831160018114614e715760008415614e5f578287015190505b614e698582614deb565b865550614ed1565b601f198416614e7f86614c5b565b60005b82811015614ea757848901518255600182019150602085019450602081019050614e82565b86831015614ec45784890151614ec0601f891682614dcd565b8355505b6001600288020188555050505b505050505050565b6000614ee58385614096565b9350614ef283858461455b565b614efb836140d1565b840190509392505050565b60006020820190508181036000830152614f21818486614ed9565b90509392505050565b7f4552433732313a20696e76616c696420746f6b656e2049440000000000000000600082015250565b6000614f60601883614096565b9150614f6b82614f2a565b602082019050919050565b60006020820190508181036000830152614f8f81614f53565b9050919050565b7f4e6f20636f6c6c656374696f6e7320617661696c61626c650000000000000000600082015250565b6000614fcc601883614096565b9150614fd782614f96565b602082019050919050565b60006020820190508181036000830152614ffb81614fbf565b9050919050565b7f496e76616c696420636f6c6c656374696f6e206c656e67746800000000000000600082015250565b6000615038601983614096565b915061504382615002565b602082019050919050565b600060208201905081810360008301526150678161502b565b9050919050565b7f496e76616c696420666f72636564207261726974790000000000000000000000600082015250565b60006150a4601583614096565b91506150af8261506e565b602082019050919050565b600060208201905081810360008301526150d381615097565b9050919050565b7f436f6c6c656374696f6e20555249000000000000000000000000000000000000600082015250565b6000615110600e83614096565b915061511b826150da565b602082019050919050565b6000604082019050818103600083015261513f81615103565b9050818103602083015261515381846140e2565b905092915050565b7f436f6c6c656374696f6e204c656e677468000000000000000000000000000000600082015250565b6000615191601183614096565b915061519c8261515b565b602082019050919050565b600060408201905081810360008301526151c081615184565b90506151cf6020830184613f97565b92915050565b7f47656e65726174656420496e6465780000000000000000000000000000000000600082015250565b600061520b600f83614096565b9150615216826151d5565b602082019050919050565b6000604082019050818103600083015261523a816151fe565b9050818103602083015261524e81846140e2565b905092915050565b600081905092915050565b600061526c8261408b565b6152768185615256565b93506152868185602086016140a7565b80840191505092915050565b600061529e8284615261565b915081905092915050565b60006152b482613ed8565b91507fffffffffffffffffffffffffffffffffffffffffffffffffffffffffffffffff82036152e6576152e561499c565b5b600182019050919050565b7f4552433732313a2061646472657373207a65726f206973206e6f74206120766160008201527f6c6964206f776e65720000000000000000000000000000000000000000000000602082015250565b600061534d602983614096565b9150615358826152f1565b604082019050919050565b6000602082019050818103600083015261537c81615340565b9050919050565b7f566f7573206e6520706f73736564657a2070617320636574746520766f69747560008201527f72652e0000000000000000000000000000000000000000000000000000000000602082015250565b60006153df602383614096565b91506153ea82615383565b604082019050919050565b6000602082019050818103600083015261540e816153d2565b9050919050565b7f436574746520766f6974757265206573742064656a6120656e2076656e746500600082015250565b600061544b601f83614096565b915061545682615415565b602082019050919050565b6000602082019050818103600083015261547a8161543e565b9050919050565b600061548c82613ed8565b915061549783613ed8565b92508282039050818111156154af576154ae61499c565b5b92915050565b7f4e487b7100000000000000000000000000000000000000000000000000000000600052603160045260246000fd5b60006154f08285615261565b91506154fc8284615261565b91508190509392505050565b7f4f776e61626c653a206e6577206f776e657220697320746865207a65726f206160008201527f6464726573730000000000000000000000000000000000000000000000000000602082015250565b6000615564602683614096565b915061556f82615508565b604082019050919050565b6000602082019050818103600083015261559381615557565b9050919050565b7f4552433732313a207472616e736665722066726f6d20696e636f72726563742060008201527f6f776e6572000000000000000000000000000000000000000000000000000000602082015250565b60006155f6602583614096565b91506156018261559a565b604082019050919050565b60006020820190508181036000830152615625816155e9565b9050919050565b7f4552433732313a207472616e7366657220746f20746865207a65726f2061646460008201527f7265737300000000000000000000000000000000000000000000000000000000602082015250565b6000615688602483614096565b91506156938261562c565b604082019050919050565b600060208201905081810360008301526156b78161567b565b9050919050565b7f4f776e61626c653a2063616c6c6572206973206e6f7420746865206f776e6572600082015250565b60006156f4602083614096565b91506156ff826156be565b602082019050919050565b60006020820190508181036000830152615723816156e7565b9050919050565b60006157358261433d565b91506157408361433d565b9250828203905060ff8111156157595761575861499c565b5b92915050565b6000819050919050565b61577a61577582613ed8565b61575f565b82525050565b60008160601b9050919050565b600061579882615780565b9050919050565b60006157aa8261578d565b9050919050565b6157c26157bd82613f76565b61579f565b82525050565b60006157d48286615769565b6020820191506157e482856157b1565b6014820191506157f48284615769565b602082019150819050949350505050565b7f4e487b7100000000000000000000000000000000000000000000000000000000600052601260045260246000fd5b600061583f82613ed8565b915061584a83613ed8565b92508261585a57615859615805565b5b828206905092915050565b7f4552433732313a206d696e7420746f20746865207a65726f2061646472657373600082015250565b600061589b602083614096565b91506158a682615865565b602082019050919050565b600060208201905081810360008301526158ca8161588e565b9050919050565b7f4552433732313a20746f6b656e20616c7265616479206d696e74656400000000600082015250565b6000615907601c83614096565b9150615912826158d1565b602082019050919050565b60006020820190508181036000830152615936816158fa565b9050919050565b7f2f00000000000000000000000000000000000000000000000000000000000000600082015250565b6000615973600183615256565b915061597e8261593d565b600182019050919050565b7f2e6a736f6e000000000000000000000000000000000000000000000000000000600082015250565b60006159bf600583615256565b91506159ca82615989565b600582019050919050565b60006159e18285615261565b91506159ec82615966565b91506159f88284615261565b9150615a03826159b2565b91508190509392505050565b7f45524337323155524953746f726167653a2055524920736574206f66206e6f6e60008201527f6578697374656e7420746f6b656e000000000000000000000000000000000000602082015250565b6000615a6b602e83614096565b9150615a7682615a0f565b604082019050919050565b60006020820190508181036000830152615a9a81615a5e565b9050919050565b7f4552433732313a20617070726f766520746f2063616c6c657200000000000000600082015250565b6000615ad7601983614096565b9150615ae282615aa1565b602082019050919050565b60006020820190508181036000830152615b0681615aca565b9050919050565b7f4552433732313a207472616e7366657220746f206e6f6e20455243373231526560008201527f63656976657220696d706c656d656e7465720000000000000000000000000000602082015250565b6000615b69603283614096565b9150615b7482615b0d565b604082019050919050565b60006020820190508181036000830152615b9881615b5c565b9050919050565b7f4c27656e6368657265206e276573742070617320656e636f7265207465726d6960008201527f6e65652e00000000000000000000000000000000000000000000000000000000602082015250565b6000615bfb602483614096565b9150615c0682615b9f565b604082019050919050565b60006020820190508181036000830152615c2a81615bee565b9050919050565b7f4c27656e636865726520612064656a6120657465207265676c65652e00000000600082015250565b6000615c67601c83614096565b9150615c7282615c31565b602082019050919050565b60006020820190508181036000830152615c9681615c5a565b9050919050565b7f496e73756666696369656e7420746f6b656e2062616c616e6365000000000000600082015250565b6000615cd3601a83614096565b9150615cde82615c9d565b602082019050919050565b60006020820190508181036000830152615d0281615cc6565b9050919050565b6000604082019050615d1e6000830185613f88565b615d2b6020830184613f97565b9392505050565b600081519050919050565b600082825260208201905092915050565b6000615d5982615d32565b615d638185615d3d565b9350615d738185602086016140a7565b615d7c816140d1565b840191505092915050565b6000608082019050615d9c6000830187613f88565b615da96020830186613f88565b615db66040830185613f97565b8181036060830152615dc88184615d4e565b905095945050505050565b600081519050615de281614017565b92915050565b600060208284031215615dfe57615dfd613ece565b5b6000615e0c84828501615dd3565b9150509291505056fea26469706673582212206b3607b61a8ecaa06f2264d67eff112aa8f97fe33039c442f70dc8c98b3afc5f64736f6c63430008120033",
  "linkReferences": {},
  "deployedLinkReferences": {}
}