{
  "_format": "hh-sol-artifact-1",
  "contractName": "NFTCar",
  "sourceName": "contracts/NFTCar.sol",
  "abi": [
    {
      "inputs": [
        {
          "internalType": "address",
          "name": "_fcarToken",
          "type": "address"
        }
      ],
      "stateMutability": "nonpayable",
      "type": "constructor"
    },
    {
      "anonymous": false,
      "inputs": [
        {
          "indexed": true,
          "internalType": "address",
          "name": "owner",
          "type": "address"
        },
        {
          "indexed": true,
          "internalType": "address",
          "name": "approved",
          "type": "address"
        },
        {
          "indexed": true,
          "internalType": "uint256",
          "name": "tokenId",
          "type": "uint256"
        }
      ],
      "name": "Approval",
      "type": "event"
    },
    {
      "anonymous": false,
      "inputs": [
        {
          "indexed": true,
          "internalType": "address",
          "name": "owner",
          "type": "address"
        },
        {
          "indexed": true,
          "internalType": "address",
          "name": "operator",
          "type": "address"
        },
        {
          "indexed": false,
          "internalType": "bool",
          "name": "approved",
          "type": "bool"
        }
      ],
      "name": "ApprovalForAll",
      "type": "event"
    },
    {
      "anonymous": false,
      "inputs": [
        {
          "indexed": false,
          "internalType": "uint256",
          "name": "_fromTokenId",
          "type": "uint256"
        },
        {
          "indexed": false,
          "internalType": "uint256",
          "name": "_toTokenId",
          "type": "uint256"
        }
      ],
      "name": "BatchMetadataUpdate",
      "type": "event"
    },
    {
      "anonymous": false,
      "inputs": [
        {
          "indexed": false,
          "internalType": "string",
          "name": "uri",
          "type": "string"
        }
      ],
      "name": "CollectionAdded",
      "type": "event"
    },
    {
      "anonymous": false,
      "inputs": [
        {
          "indexed": false,
          "internalType": "string",
          "name": "message",
          "type": "string"
        },
        {
          "indexed": false,
          "internalType": "uint256",
          "name": "value",
          "type": "uint256"
        }
      ],
      "name": "LogI",
      "type": "event"
    },
    {
      "anonymous": false,
      "inputs": [
        {
          "indexed": false,
          "internalType": "string",
          "name": "message",
          "type": "string"
        },
        {
          "indexed": false,
          "internalType": "string",
          "name": "value",
          "type": "string"
        }
      ],
      "name": "LogS",
      "type": "event"
    },
    {
      "anonymous": false,
      "inputs": [
        {
          "indexed": false,
          "internalType": "uint256",
          "name": "_tokenId",
          "type": "uint256"
        }
      ],
      "name": "MetadataUpdate",
      "type": "event"
    },
    {
      "anonymous": false,
      "inputs": [
        {
          "indexed": true,
          "internalType": "address",
          "name": "to",
          "type": "address"
        },
        {
          "indexed": true,
          "internalType": "uint256",
          "name": "tokenId",
          "type": "uint256"
        },
        {
          "indexed": true,
          "internalType": "string",
          "name": "uri",
          "type": "string"
        },
        {
          "indexed": false,
          "internalType": "string",
          "name": "index",
          "type": "string"
        }
      ],
      "name": "Minted",
      "type": "event"
    },
    {
      "anonymous": false,
      "inputs": [
        {
          "indexed": true,
          "internalType": "address",
          "name": "previousOwner",
          "type": "address"
        },
        {
          "indexed": true,
          "internalType": "address",
          "name": "newOwner",
          "type": "address"
        }
      ],
      "name": "OwnershipTransferred",
      "type": "event"
    },
    {
      "anonymous": false,
      "inputs": [
        {
          "indexed": true,
          "internalType": "address",
          "name": "from",
          "type": "address"
        },
        {
          "indexed": true,
          "internalType": "address",
          "name": "to",
          "type": "address"
        },
        {
          "indexed": true,
          "internalType": "uint256",
          "name": "tokenId",
          "type": "uint256"
        }
      ],
      "name": "Transfer",
      "type": "event"
    },
    {
      "inputs": [
        {
          "internalType": "string",
          "name": "_uri",
          "type": "string"
        },
        {
          "internalType": "string",
          "name": "_rarities",
          "type": "string"
        }
      ],
      "name": "addCollection",
      "outputs": [],
      "stateMutability": "nonpayable",
      "type": "function"
    },
    {
      "inputs": [
        {
          "internalType": "address",
          "name": "to",
          "type": "address"
        },
        {
          "internalType": "uint256",
          "name": "tokenId",
          "type": "uint256"
        }
      ],
      "name": "approve",
      "outputs": [],
      "stateMutability": "nonpayable",
      "type": "function"
    },
    {
      "inputs": [
        {
          "internalType": "address",
          "name": "owner",
          "type": "address"
        }
      ],
      "name": "balanceOf",
      "outputs": [
        {
          "internalType": "uint256",
          "name": "",
          "type": "uint256"
        }
      ],
      "stateMutability": "view",
      "type": "function"
    },
    {
      "inputs": [
        {
          "internalType": "uint256",
          "name": "tokenId",
          "type": "uint256"
        }
      ],
      "name": "getApproved",
      "outputs": [
        {
          "internalType": "address",
          "name": "",
          "type": "address"
        }
      ],
      "stateMutability": "view",
      "type": "function"
    },
    {
      "inputs": [],
      "name": "getCollections",
      "outputs": [
        {
          "components": [
            {
              "internalType": "string",
              "name": "uri",
              "type": "string"
            },
            {
              "internalType": "uint8[]",
              "name": "rarities",
              "type": "uint8[]"
            }
          ],
          "internalType": "struct NFTCar.NFTCollection[]",
          "name": "",
          "type": "tuple[]"
        }
      ],
      "stateMutability": "view",
      "type": "function"
    },
    {
      "inputs": [],
      "name": "getUserNFTs",
      "outputs": [
        {
          "internalType": "uint256[]",
          "name": "",
          "type": "uint256[]"
        }
      ],
      "stateMutability": "view",
      "type": "function"
    },
    {
      "inputs": [
        {
          "internalType": "address",
          "name": "owner",
          "type": "address"
        },
        {
          "internalType": "address",
          "name": "operator",
          "type": "address"
        }
      ],
      "name": "isApprovedForAll",
      "outputs": [
        {
          "internalType": "bool",
          "name": "",
          "type": "bool"
        }
      ],
      "stateMutability": "view",
      "type": "function"
    },
    {
      "inputs": [
        {
          "internalType": "uint8",
          "name": "_forcedRarity",
          "type": "uint8"
        }
      ],
      "name": "mint",
      "outputs": [],
      "stateMutability": "nonpayable",
      "type": "function"
    },
    {
      "inputs": [
        {
          "internalType": "uint256",
          "name": "_index",
          "type": "uint256"
        }
      ],
      "name": "mint_forced",
      "outputs": [],
      "stateMutability": "nonpayable",
      "type": "function"
    },
    {
      "inputs": [],
      "name": "name",
      "outputs": [
        {
          "internalType": "string",
          "name": "",
          "type": "string"
        }
      ],
      "stateMutability": "view",
      "type": "function"
    },
    {
      "inputs": [
        {
          "internalType": "uint256",
          "name": "",
          "type": "uint256"
        }
      ],
      "name": "nftToOwner",
      "outputs": [
        {
          "internalType": "address",
          "name": "",
          "type": "address"
        }
      ],
      "stateMutability": "view",
      "type": "function"
    },
    {
      "inputs": [],
      "name": "owner",
      "outputs": [
        {
          "internalType": "address",
          "name": "",
          "type": "address"
        }
      ],
      "stateMutability": "view",
      "type": "function"
    },
    {
      "inputs": [
        {
          "internalType": "uint256",
          "name": "tokenId",
          "type": "uint256"
        }
      ],
      "name": "ownerOf",
      "outputs": [
        {
          "internalType": "address",
          "name": "",
          "type": "address"
        }
      ],
      "stateMutability": "view",
      "type": "function"
    },
    {
      "inputs": [],
      "name": "renounceOwnership",
      "outputs": [],
      "stateMutability": "nonpayable",
      "type": "function"
    },
    {
      "inputs": [
        {
          "internalType": "address",
          "name": "from",
          "type": "address"
        },
        {
          "internalType": "address",
          "name": "to",
          "type": "address"
        },
        {
          "internalType": "uint256",
          "name": "tokenId",
          "type": "uint256"
        }
      ],
      "name": "safeTransferFrom",
      "outputs": [],
      "stateMutability": "nonpayable",
      "type": "function"
    },
    {
      "inputs": [
        {
          "internalType": "address",
          "name": "from",
          "type": "address"
        },
        {
          "internalType": "address",
          "name": "to",
          "type": "address"
        },
        {
          "internalType": "uint256",
          "name": "tokenId",
          "type": "uint256"
        },
        {
          "internalType": "bytes",
          "name": "data",
          "type": "bytes"
        }
      ],
      "name": "safeTransferFrom",
      "outputs": [],
      "stateMutability": "nonpayable",
      "type": "function"
    },
    {
      "inputs": [
        {
          "internalType": "address",
          "name": "operator",
          "type": "address"
        },
        {
          "internalType": "bool",
          "name": "approved",
          "type": "bool"
        }
      ],
      "name": "setApprovalForAll",
      "outputs": [],
      "stateMutability": "nonpayable",
      "type": "function"
    },
    {
      "inputs": [
        {
          "internalType": "bytes4",
          "name": "interfaceId",
          "type": "bytes4"
        }
      ],
      "name": "supportsInterface",
      "outputs": [
        {
          "internalType": "bool",
          "name": "",
          "type": "bool"
        }
      ],
      "stateMutability": "view",
      "type": "function"
    },
    {
      "inputs": [],
      "name": "symbol",
      "outputs": [
        {
          "internalType": "string",
          "name": "",
          "type": "string"
        }
      ],
      "stateMutability": "view",
      "type": "function"
    },
    {
      "inputs": [
        {
          "internalType": "uint256",
          "name": "tokenId",
          "type": "uint256"
        }
      ],
      "name": "tokenURI",
      "outputs": [
        {
          "internalType": "string",
          "name": "",
          "type": "string"
        }
      ],
      "stateMutability": "view",
      "type": "function"
    },
    {
      "inputs": [
        {
          "internalType": "address",
          "name": "from",
          "type": "address"
        },
        {
          "internalType": "address",
          "name": "to",
          "type": "address"
        },
        {
          "internalType": "uint256",
          "name": "tokenId",
          "type": "uint256"
        }
      ],
      "name": "transferFrom",
      "outputs": [],
      "stateMutability": "nonpayable",
      "type": "function"
    },
    {
      "inputs": [
        {
          "internalType": "address",
          "name": "newOwner",
          "type": "address"
        }
      ],
      "name": "transferOwnership",
      "outputs": [],
      "stateMutability": "nonpayable",
      "type": "function"
    }
  ],
  "bytecode": "0x60806040523480156200001157600080fd5b50604051620050a3380380620050a3833981810160405281019062000037919062000279565b6040518060400160405280600681526020017f4e465443617200000000000000000000000000000000000000000000000000008152506040518060400160405280600681526020017f4e465443415200000000000000000000000000000000000000000000000000008152508160009081620000b4919062000525565b508060019081620000c6919062000525565b505050620000e9620000dd6200014160201b60201c565b6200014960201b60201c565b80600e60006101000a81548173ffffffffffffffffffffffffffffffffffffffff021916908373ffffffffffffffffffffffffffffffffffffffff1602179055506000600d819055506000600c81905550506200060c565b600033905090565b6000600760009054906101000a900473ffffffffffffffffffffffffffffffffffffffff16905081600760006101000a81548173ffffffffffffffffffffffffffffffffffffffff021916908373ffffffffffffffffffffffffffffffffffffffff1602179055508173ffffffffffffffffffffffffffffffffffffffff168173ffffffffffffffffffffffffffffffffffffffff167f8be0079c531659141344cd1fd0a4f28419497f9722a3daafe3b4186f6b6457e060405160405180910390a35050565b600080fd5b600073ffffffffffffffffffffffffffffffffffffffff82169050919050565b6000620002418262000214565b9050919050565b620002538162000234565b81146200025f57600080fd5b50565b600081519050620002738162000248565b92915050565b6000602082840312156200029257620002916200020f565b5b6000620002a28482850162000262565b91505092915050565b600081519050919050565b7f4e487b7100000000000000000000000000000000000000000000000000000000600052604160045260246000fd5b7f4e487b7100000000000000000000000000000000000000000000000000000000600052602260045260246000fd5b600060028204905060018216806200032d57607f821691505b602082108103620003435762000342620002e5565b5b50919050565b60008190508160005260206000209050919050565b60006020601f8301049050919050565b600082821b905092915050565b600060088302620003ad7fffffffffffffffffffffffffffffffffffffffffffffffffffffffffffffffff826200036e565b620003b986836200036e565b95508019841693508086168417925050509392505050565b6000819050919050565b6000819050919050565b60006200040662000400620003fa84620003d1565b620003db565b620003d1565b9050919050565b6000819050919050565b6200042283620003e5565b6200043a62000431826200040d565b8484546200037b565b825550505050565b600090565b6200045162000442565b6200045e81848462000417565b505050565b5b8181101562000486576200047a60008262000447565b60018101905062000464565b5050565b601f821115620004d5576200049f8162000349565b620004aa846200035e565b81016020851015620004ba578190505b620004d2620004c9856200035e565b83018262000463565b50505b505050565b600082821c905092915050565b6000620004fa60001984600802620004da565b1980831691505092915050565b6000620005158383620004e7565b9150826002028217905092915050565b6200053082620002ab565b67ffffffffffffffff8111156200054c576200054b620002b6565b5b62000558825462000314565b620005658282856200048a565b600060209050601f8311600181146200059d576000841562000588578287015190505b62000594858262000507565b86555062000604565b601f198416620005ad8662000349565b60005b82811015620005d757848901518255600182019150602085019450602081019050620005b0565b86831015620005f75784890151620005f3601f891682620004e7565b8355505b6001600288020188555050505b505050505050565b614a87806200061c6000396000f3fe608060405234801561001057600080fd5b50600436106101425760003560e01c806370a08231116100b8578063b88d4fde1161007c578063b88d4fde1461034d578063c1e808d414610369578063c87b56dd14610399578063e985e9c5146103c9578063f2fde38b146103f9578063fdc5ab8e1461041557610142565b806370a08231146102bb578063715018a6146102eb5780638da5cb5b146102f557806395d89b4114610313578063a22cb4651461033157610142565b80632e15a5a61161010a5780632e15a5a6146101fd578063407917eb1461021957806342842e0e1461023557806346e63586146102515780636352211e1461026f5780636ecd23061461029f57610142565b806301ffc9a71461014757806306fdde0314610177578063081812fc14610195578063095ea7b3146101c557806323b872dd146101e1575b600080fd5b610161600480360381019061015c9190612e17565b610433565b60405161016e9190612e5f565b60405180910390f35b61017f610494565b60405161018c9190612f0a565b60405180910390f35b6101af60048036038101906101aa9190612f62565b610526565b6040516101bc9190612fd0565b60405180910390f35b6101df60048036038101906101da9190613017565b61056c565b005b6101fb60048036038101906101f69190613057565b610683565b005b61021760048036038101906102129190612f62565b6106e3565b005b610233600480360381019061022e919061310f565b610a35565b005b61024f600480360381019061024a9190613057565b610b3e565b005b610259610b5e565b60405161026691906133ab565b60405180910390f35b61028960048036038101906102849190612f62565b610ccd565b6040516102969190612fd0565b60405180910390f35b6102b960048036038101906102b491906133f9565b610d53565b005b6102d560048036038101906102d09190613426565b6115d0565b6040516102e29190613462565b60405180910390f35b6102f3611687565b005b6102fd61169b565b60405161030a9190612fd0565b60405180910390f35b61031b6116c5565b6040516103289190612f0a565b60405180910390f35b61034b600480360381019061034691906134a9565b611757565b005b61036760048036038101906103629190613619565b61176d565b005b610383600480360381019061037e9190612f62565b6117cf565b6040516103909190612fd0565b60405180910390f35b6103b360048036038101906103ae9190612f62565b611802565b6040516103c09190612f0a565b60405180910390f35b6103e360048036038101906103de919061369c565b611914565b6040516103f09190612e5f565b60405180910390f35b610413600480360381019061040e9190613426565b6119a8565b005b61041d611a2b565b60405161042a919061379a565b60405180910390f35b6000634906490660e01b7bffffffffffffffffffffffffffffffffffffffffffffffffffffffff1916827bffffffffffffffffffffffffffffffffffffffffffffffffffffffff1916148061048d575061048c82611ac0565b5b9050919050565b6060600080546104a3906137eb565b80601f01602080910402602001604051908101604052809291908181526020018280546104cf906137eb565b801561051c5780601f106104f15761010080835404028352916020019161051c565b820191906000526020600020905b8154815290600101906020018083116104ff57829003601f168201915b5050505050905090565b600061053182611ba2565b6004600083815260200190815260200160002060009054906101000a900473ffffffffffffffffffffffffffffffffffffffff169050919050565b600061057782610ccd565b90508073ffffffffffffffffffffffffffffffffffffffff168373ffffffffffffffffffffffffffffffffffffffff16036105e7576040517f08c379a00000000000000000000000000000000000000000000000000000000081526004016105de9061388e565b60405180910390fd5b8073ffffffffffffffffffffffffffffffffffffffff16610606611bed565b73ffffffffffffffffffffffffffffffffffffffff16148061063557506106348161062f611bed565b611914565b5b610674576040517f08c379a000000000000000000000000000000000000000000000000000000000815260040161066b90613920565b60405180910390fd5b61067e8383611bf5565b505050565b61069461068e611bed565b82611cae565b6106d3576040517f08c379a00000000000000000000000000000000000000000000000000000000081526004016106ca906139b2565b60405180910390fd5b6106de838383611d43565b505050565b6106eb61203c565b600060088054905011610733576040517f08c379a000000000000000000000000000000000000000000000000000000000815260040161072a90613a1e565b60405180910390fd5b600060086107456008805490506120ba565b8154811061075657610755613a3e565b5b906000526020600020906002020160405180604001604052908160008201805461077f906137eb565b80601f01602080910402602001604051908101604052809291908181526020018280546107ab906137eb565b80156107f85780601f106107cd576101008083540402835291602001916107f8565b820191906000526020600020905b8154815290600101906020018083116107db57829003601f168201915b505050505081526020016001820180548060200260200160405190810160405280929190818152602001828054801561087657602002820191906000526020600020906000905b82829054906101000a900460ff1660ff168152602001906001019060208260000104928301926001038202915080841161083f5790505b50505050508152505090506000816020015151116108c9576040517f08c379a00000000000000000000000000000000000000000000000000000000081526004016108c090613ab9565b60405180910390fd5b60006108d483612116565b90506000826000015190507fbf431ccdc401f9b507a213e17d874e7fb7b2b1cc1edb7053003026a9faf501c483600001516040516109129190613b25565b60405180910390a17fe0a5e38f11c5257cc5b37023d5b7b7631c7ef4a1a7b2e25130dcddcd5d11cb9383602001515160405161094e9190613ba6565b60405180910390a17fbf431ccdc401f9b507a213e17d874e7fb7b2b1cc1edb7053003026a9faf501c4826040516109859190613c20565b60405180910390a161099933600d546121e4565b6109ae600d546109a98385612401565b61242d565b806040516109bc9190613c91565b6040518091039020600d543373ffffffffffffffffffffffffffffffffffffffff167fe2406cfd356cfbe4e42d452bde96d27f48c423e5f02b5d78695893308399519d85604051610a0d9190612f0a565b60405180910390a46001600d6000828254610a289190613cd7565b9250508190555050505050565b610a3d61203c565b6008604051806040016040528086868080601f016020809104026020016040519081016040528093929190818152602001838380828437600081840152601f19601f820116905080830192505050505050508152602001610a9e85856124d1565b81525090806001815401808255809150506001900390600052602060002090600202016000909190919091506000820151816000019081610adf9190613eb7565b506020820151816001019080519060200190610afc929190612ce7565b5050507f3a6eabc1ea35f41cd485e412aa9d92cec3c646bb471dac85cb42d75b3ca461ac8484604051610b30929190613fb6565b60405180910390a150505050565b610b598383836040518060200160405280600081525061176d565b505050565b60606008805480602002602001604051908101604052809291908181526020016000905b82821015610cc45783829060005260206000209060020201604051806040016040529081600082018054610bb5906137eb565b80601f0160208091040260200160405190810160405280929190818152602001828054610be1906137eb565b8015610c2e5780601f10610c0357610100808354040283529160200191610c2e565b820191906000526020600020905b815481529060010190602001808311610c1157829003601f168201915b5050505050815260200160018201805480602002602001604051908101604052809291908181526020018280548015610cac57602002820191906000526020600020906000905b82829054906101000a900460ff1660ff1681526020019060010190602082600001049283019260010382029150808411610c755790505b50505050508152505081526020019060010190610b82565b50505050905090565b600080610cd9836125e9565b9050600073ffffffffffffffffffffffffffffffffffffffff168173ffffffffffffffffffffffffffffffffffffffff1603610d4a576040517f08c379a0000000000000000000000000000000000000000000000000000000008152600401610d4190614026565b60405180910390fd5b80915050919050565b60006001905080600e60009054906101000a900473ffffffffffffffffffffffffffffffffffffffff1673ffffffffffffffffffffffffffffffffffffffff166370a08231336040518263ffffffff1660e01b8152600401610db59190612fd0565b602060405180830381865afa158015610dd2573d6000803e3d6000fd5b505050506040513d601f19601f82011682018060405250810190610df6919061405b565b1015610e37576040517f08c379a0000000000000000000000000000000000000000000000000000000008152600401610e2e906140d4565b60405180910390fd5b600e60009054906101000a900473ffffffffffffffffffffffffffffffffffffffff1673ffffffffffffffffffffffffffffffffffffffff166323b872dd3330846040518463ffffffff1660e01b8152600401610e96939291906140f4565b6020604051808303816000875af1158015610eb5573d6000803e3d6000fd5b505050506040513d601f19601f82011682018060405250810190610ed99190614140565b50600060088054905011610f22576040517f08c379a0000000000000000000000000000000000000000000000000000000008152600401610f1990613a1e565b60405180910390fd5b60006008610f346008805490506120ba565b81548110610f4557610f44613a3e565b5b9060005260206000209060020201604051806040016040529081600082018054610f6e906137eb565b80601f0160208091040260200160405190810160405280929190818152602001828054610f9a906137eb565b8015610fe75780601f10610fbc57610100808354040283529160200191610fe7565b820191906000526020600020905b815481529060010190602001808311610fca57829003601f168201915b505050505081526020016001820180548060200260200160405190810160405280929190818152602001828054801561106557602002820191906000526020600020906000905b82829054906101000a900460ff1660ff168152602001906001019060208260000104928301926001038202915080841161102e5790505b50505050508152505090506000816020015151116110b8576040517f08c379a00000000000000000000000000000000000000000000000000000000081526004016110af90613ab9565b60405180910390fd5b60008060008560ff1611156111645760058560ff16111561110e576040517f08c379a0000000000000000000000000000000000000000000000000000000008152600401611105906141b9565b60405180910390fd5b61111c8360200151516120ba565b90505b8460ff168360200151828151811061113a57611139613a3e565b5b602002602001015160ff161461115f576111588360200151516120ba565b905061111f565b611344565b60016111716127106120ba565b61117b9190613cd7565b9150603282116111d9576111938360200151516120ba565b90505b6001836020015182815181106111af576111ae613a3e565b5b602002602001015160ff16146111d4576111cd8360200151516120ba565b9050611196565b611343565b6102268211611236576111f08360200151516120ba565b90505b60028360200151828151811061120c5761120b613a3e565b5b602002602001015160ff16146112315761122a8360200151516120ba565b90506111f3565b611342565b6109f682116112935761124d8360200151516120ba565b90505b60038360200151828151811061126957611268613a3e565b5b602002602001015160ff161461128e576112878360200151516120ba565b9050611250565b611341565b6115ae82116112f0576112aa8360200151516120ba565b90505b6004836020015182815181106112c6576112c5613a3e565b5b602002602001015160ff16146112eb576112e48360200151516120ba565b90506112ad565b611340565b6112fe8360200151516120ba565b90505b60058360200151828151811061131a57611319613a3e565b5b602002602001015160ff161461133f576113388360200151516120ba565b9050611301565b5b5b5b5b5b600061135b6001836113569190613cd7565b612116565b90506000846000015190507fbf431ccdc401f9b507a213e17d874e7fb7b2b1cc1edb7053003026a9faf501c485600001516040516113999190613b25565b60405180910390a17fe0a5e38f11c5257cc5b37023d5b7b7631c7ef4a1a7b2e25130dcddcd5d11cb938560200151516040516113d59190613ba6565b60405180910390a17fbf431ccdc401f9b507a213e17d874e7fb7b2b1cc1edb7053003026a9faf501c48260405161140c9190613c20565b60405180910390a161142033600d546121e4565b611435600d546114308385612401565b61242d565b806040516114439190613c91565b6040518091039020600d543373ffffffffffffffffffffffffffffffffffffffff167fe2406cfd356cfbe4e42d452bde96d27f48c423e5f02b5d78695893308399519d856040516114949190612f0a565b60405180910390a43360096000600d54815260200190815260200160002060006101000a81548173ffffffffffffffffffffffffffffffffffffffff021916908373ffffffffffffffffffffffffffffffffffffffff160217905550600a60003373ffffffffffffffffffffffffffffffffffffffff1673ffffffffffffffffffffffffffffffffffffffff1681526020019081526020016000206000815480929190611540906141d9565b9190505550600b60003373ffffffffffffffffffffffffffffffffffffffff1673ffffffffffffffffffffffffffffffffffffffff168152602001908152602001600020600d5490806001815401808255809150506001900390600052602060002001600090919091909150556001600d60008282546115c09190613cd7565b9250508190555050505050505050565b60008073ffffffffffffffffffffffffffffffffffffffff168273ffffffffffffffffffffffffffffffffffffffff1603611640576040517f08c379a000000000000000000000000000000000000000000000000000000000815260040161163790614293565b60405180910390fd5b600360008373ffffffffffffffffffffffffffffffffffffffff1673ffffffffffffffffffffffffffffffffffffffff168152602001908152602001600020549050919050565b61168f61203c565b6116996000612626565b565b6000600760009054906101000a900473ffffffffffffffffffffffffffffffffffffffff16905090565b6060600180546116d4906137eb565b80601f0160208091040260200160405190810160405280929190818152602001828054611700906137eb565b801561174d5780601f106117225761010080835404028352916020019161174d565b820191906000526020600020905b81548152906001019060200180831161173057829003601f168201915b5050505050905090565b611769611762611bed565b83836126ec565b5050565b61177e611778611bed565b83611cae565b6117bd576040517f08c379a00000000000000000000000000000000000000000000000000000000081526004016117b4906139b2565b60405180910390fd5b6117c984848484612858565b50505050565b60096020528060005260406000206000915054906101000a900473ffffffffffffffffffffffffffffffffffffffff1681565b606061180d82611ba2565b600060066000848152602001908152602001600020805461182d906137eb565b80601f0160208091040260200160405190810160405280929190818152602001828054611859906137eb565b80156118a65780601f1061187b576101008083540402835291602001916118a6565b820191906000526020600020905b81548152906001019060200180831161188957829003601f168201915b5050505050905060006118b76128b4565b905060008151036118cc57819250505061190f565b6000825111156119015780826040516020016118e99291906142b3565b6040516020818303038152906040529250505061190f565b61190a846128cb565b925050505b919050565b6000600560008473ffffffffffffffffffffffffffffffffffffffff1673ffffffffffffffffffffffffffffffffffffffff16815260200190815260200160002060008373ffffffffffffffffffffffffffffffffffffffff1673ffffffffffffffffffffffffffffffffffffffff16815260200190815260200160002060009054906101000a900460ff16905092915050565b6119b061203c565b600073ffffffffffffffffffffffffffffffffffffffff168173ffffffffffffffffffffffffffffffffffffffff1603611a1f576040517f08c379a0000000000000000000000000000000000000000000000000000000008152600401611a1690614349565b60405180910390fd5b611a2881612626565b50565b6060600b60003373ffffffffffffffffffffffffffffffffffffffff1673ffffffffffffffffffffffffffffffffffffffff168152602001908152602001600020805480602002602001604051908101604052809291908181526020018280548015611ab657602002820191906000526020600020905b815481526020019060010190808311611aa2575b5050505050905090565b60007f80ac58cd000000000000000000000000000000000000000000000000000000007bffffffffffffffffffffffffffffffffffffffffffffffffffffffff1916827bffffffffffffffffffffffffffffffffffffffffffffffffffffffff19161480611b8b57507f5b5e139f000000000000000000000000000000000000000000000000000000007bffffffffffffffffffffffffffffffffffffffffffffffffffffffff1916827bffffffffffffffffffffffffffffffffffffffffffffffffffffffff1916145b80611b9b5750611b9a82612933565b5b9050919050565b611bab8161299d565b611bea576040517f08c379a0000000000000000000000000000000000000000000000000000000008152600401611be190614026565b60405180910390fd5b50565b600033905090565b816004600083815260200190815260200160002060006101000a81548173ffffffffffffffffffffffffffffffffffffffff021916908373ffffffffffffffffffffffffffffffffffffffff160217905550808273ffffffffffffffffffffffffffffffffffffffff16611c6883610ccd565b73ffffffffffffffffffffffffffffffffffffffff167f8c5be1e5ebec7d5bd14f71427d1e84f3dd0314c0f7b2291e5b200ac8c7c3b92560405160405180910390a45050565b600080611cba83610ccd565b90508073ffffffffffffffffffffffffffffffffffffffff168473ffffffffffffffffffffffffffffffffffffffff161480611cfc5750611cfb8185611914565b5b80611d3a57508373ffffffffffffffffffffffffffffffffffffffff16611d2284610526565b73ffffffffffffffffffffffffffffffffffffffff16145b91505092915050565b8273ffffffffffffffffffffffffffffffffffffffff16611d6382610ccd565b73ffffffffffffffffffffffffffffffffffffffff1614611db9576040517f08c379a0000000000000000000000000000000000000000000000000000000008152600401611db0906143db565b60405180910390fd5b600073ffffffffffffffffffffffffffffffffffffffff168273ffffffffffffffffffffffffffffffffffffffff1603611e28576040517f08c379a0000000000000000000000000000000000000000000000000000000008152600401611e1f9061446d565b60405180910390fd5b611e3583838360016129de565b8273ffffffffffffffffffffffffffffffffffffffff16611e5582610ccd565b73ffffffffffffffffffffffffffffffffffffffff1614611eab576040517f08c379a0000000000000000000000000000000000000000000000000000000008152600401611ea2906143db565b60405180910390fd5b6004600082815260200190815260200160002060006101000a81549073ffffffffffffffffffffffffffffffffffffffff02191690556001600360008573ffffffffffffffffffffffffffffffffffffffff1673ffffffffffffffffffffffffffffffffffffffff168152602001908152602001600020600082825403925050819055506001600360008473ffffffffffffffffffffffffffffffffffffffff1673ffffffffffffffffffffffffffffffffffffffff16815260200190815260200160002060008282540192505081905550816002600083815260200190815260200160002060006101000a81548173ffffffffffffffffffffffffffffffffffffffff021916908373ffffffffffffffffffffffffffffffffffffffff160217905550808273ffffffffffffffffffffffffffffffffffffffff168473ffffffffffffffffffffffffffffffffffffffff167fddf252ad1be2c89b69c2b068fc378daa952ba7f163c4a11628f55a4df523b3ef60405160405180910390a461203783838360016129e4565b505050565b612044611bed565b73ffffffffffffffffffffffffffffffffffffffff1661206261169b565b73ffffffffffffffffffffffffffffffffffffffff16146120b8576040517f08c379a00000000000000000000000000000000000000000000000000000000081526004016120af906144d9565b60405180910390fd5b565b6000600c60008154809291906120cf906141d9565b9190505550814233600c546040516020016120ec93929190614562565b6040516020818303038152906040528051906020012060001c61210f91906145ce565b9050919050565b606060006001612125846129ea565b01905060008167ffffffffffffffff811115612144576121436134ee565b5b6040519080825280601f01601f1916602001820160405280156121765781602001600182028036833780820191505090505b509050600082602001820190505b6001156121d9578080600190039150507f3031323334353637383961626364656600000000000000000000000000000000600a86061a8153600a85816121cd576121cc61459f565b5b04945060008503612184575b819350505050919050565b600073ffffffffffffffffffffffffffffffffffffffff168273ffffffffffffffffffffffffffffffffffffffff1603612253576040517f08c379a000000000000000000000000000000000000000000000000000000000815260040161224a9061464b565b60405180910390fd5b61225c8161299d565b1561229c576040517f08c379a0000000000000000000000000000000000000000000000000000000008152600401612293906146b7565b60405180910390fd5b6122aa6000838360016129de565b6122b38161299d565b156122f3576040517f08c379a00000000000000000000000000000000000000000000000000000000081526004016122ea906146b7565b60405180910390fd5b6001600360008473ffffffffffffffffffffffffffffffffffffffff1673ffffffffffffffffffffffffffffffffffffffff16815260200190815260200160002060008282540192505081905550816002600083815260200190815260200160002060006101000a81548173ffffffffffffffffffffffffffffffffffffffff021916908373ffffffffffffffffffffffffffffffffffffffff160217905550808273ffffffffffffffffffffffffffffffffffffffff16600073ffffffffffffffffffffffffffffffffffffffff167fddf252ad1be2c89b69c2b068fc378daa952ba7f163c4a11628f55a4df523b3ef60405160405180910390a46123fd6000838360016129e4565b5050565b6060828260405160200161241692919061476f565b604051602081830303815290604052905092915050565b6124368261299d565b612475576040517f08c379a000000000000000000000000000000000000000000000000000000000815260040161246c9061481b565b60405180910390fd5b806006600084815260200190815260200160002090816124959190613eb7565b507ff8e1a15aba9398e019f0b49df1a4fde98ee17ae345cb5f6b5e2c27f5033e8ce7826040516124c59190613462565b60405180910390a15050565b6060600083838080601f016020809104026020016040519081016040528093929190818152602001838380828437600081840152601f19601f8201169050808301925050505050505090506000815167ffffffffffffffff811115612539576125386134ee565b5b6040519080825280602002602001820160405280156125675781602001602082028036833780820191505090505b50905060005b82518110156125dd57603083828151811061258b5761258a613a3e565b5b602001015160f81c60f81b60f81c6125a3919061483b565b8282815181106125b6576125b5613a3e565b5b602002602001019060ff16908160ff168152505080806125d5906141d9565b91505061256d565b50809250505092915050565b60006002600083815260200190815260200160002060009054906101000a900473ffffffffffffffffffffffffffffffffffffffff169050919050565b6000600760009054906101000a900473ffffffffffffffffffffffffffffffffffffffff16905081600760006101000a81548173ffffffffffffffffffffffffffffffffffffffff021916908373ffffffffffffffffffffffffffffffffffffffff1602179055508173ffffffffffffffffffffffffffffffffffffffff168173ffffffffffffffffffffffffffffffffffffffff167f8be0079c531659141344cd1fd0a4f28419497f9722a3daafe3b4186f6b6457e060405160405180910390a35050565b8173ffffffffffffffffffffffffffffffffffffffff168373ffffffffffffffffffffffffffffffffffffffff160361275a576040517f08c379a0000000000000000000000000000000000000000000000000000000008152600401612751906148bc565b60405180910390fd5b80600560008573ffffffffffffffffffffffffffffffffffffffff1673ffffffffffffffffffffffffffffffffffffffff16815260200190815260200160002060008473ffffffffffffffffffffffffffffffffffffffff1673ffffffffffffffffffffffffffffffffffffffff16815260200190815260200160002060006101000a81548160ff0219169083151502179055508173ffffffffffffffffffffffffffffffffffffffff168373ffffffffffffffffffffffffffffffffffffffff167f17307eab39ab6107e8899845ad3d59bd9653f200f220920489ca2b5937696c318360405161284b9190612e5f565b60405180910390a3505050565b612863848484611d43565b61286f84848484612b3d565b6128ae576040517f08c379a00000000000000000000000000000000000000000000000000000000081526004016128a59061494e565b60405180910390fd5b50505050565b606060405180602001604052806000815250905090565b60606128d682611ba2565b60006128e06128b4565b90506000815111612900576040518060200160405280600081525061292b565b8061290a84612116565b60405160200161291b9291906142b3565b6040516020818303038152906040525b915050919050565b60007f01ffc9a7000000000000000000000000000000000000000000000000000000007bffffffffffffffffffffffffffffffffffffffffffffffffffffffff1916827bffffffffffffffffffffffffffffffffffffffffffffffffffffffff1916149050919050565b60008073ffffffffffffffffffffffffffffffffffffffff166129bf836125e9565b73ffffffffffffffffffffffffffffffffffffffff1614159050919050565b50505050565b50505050565b600080600090507a184f03e93ff9f4daa797ed6e38ed64bf6a1f0100000000000000008310612a48577a184f03e93ff9f4daa797ed6e38ed64bf6a1f0100000000000000008381612a3e57612a3d61459f565b5b0492506040810190505b6d04ee2d6d415b85acef81000000008310612a85576d04ee2d6d415b85acef81000000008381612a7b57612a7a61459f565b5b0492506020810190505b662386f26fc100008310612ab457662386f26fc100008381612aaa57612aa961459f565b5b0492506010810190505b6305f5e1008310612add576305f5e1008381612ad357612ad261459f565b5b0492506008810190505b6127108310612b02576127108381612af857612af761459f565b5b0492506004810190505b60648310612b255760648381612b1b57612b1a61459f565b5b0492506002810190505b600a8310612b34576001810190505b80915050919050565b6000612b5e8473ffffffffffffffffffffffffffffffffffffffff16612cc4565b15612cb7578373ffffffffffffffffffffffffffffffffffffffff1663150b7a02612b87611bed565b8786866040518563ffffffff1660e01b8152600401612ba994939291906149c3565b6020604051808303816000875af1925050508015612be557506040513d601f19601f82011682018060405250810190612be29190614a24565b60015b612c67573d8060008114612c15576040519150601f19603f3d011682016040523d82523d6000602084013e612c1a565b606091505b506000815103612c5f576040517f08c379a0000000000000000000000000000000000000000000000000000000008152600401612c569061494e565b60405180910390fd5b805181602001fd5b63150b7a0260e01b7bffffffffffffffffffffffffffffffffffffffffffffffffffffffff1916817bffffffffffffffffffffffffffffffffffffffffffffffffffffffff191614915050612cbc565b600190505b949350505050565b6000808273ffffffffffffffffffffffffffffffffffffffff163b119050919050565b82805482825590600052602060002090601f01602090048101928215612d7d5791602002820160005b83821115612d4e57835183826101000a81548160ff021916908360ff1602179055509260200192600101602081600001049283019260010302612d10565b8015612d7b5782816101000a81549060ff0219169055600101602081600001049283019260010302612d4e565b505b509050612d8a9190612d8e565b5090565b5b80821115612da7576000816000905550600101612d8f565b5090565b6000604051905090565b600080fd5b600080fd5b60007fffffffff0000000000000000000000000000000000000000000000000000000082169050919050565b612df481612dbf565b8114612dff57600080fd5b50565b600081359050612e1181612deb565b92915050565b600060208284031215612e2d57612e2c612db5565b5b6000612e3b84828501612e02565b91505092915050565b60008115159050919050565b612e5981612e44565b82525050565b6000602082019050612e746000830184612e50565b92915050565b600081519050919050565b600082825260208201905092915050565b60005b83811015612eb4578082015181840152602081019050612e99565b60008484015250505050565b6000601f19601f8301169050919050565b6000612edc82612e7a565b612ee68185612e85565b9350612ef6818560208601612e96565b612eff81612ec0565b840191505092915050565b60006020820190508181036000830152612f248184612ed1565b905092915050565b6000819050919050565b612f3f81612f2c565b8114612f4a57600080fd5b50565b600081359050612f5c81612f36565b92915050565b600060208284031215612f7857612f77612db5565b5b6000612f8684828501612f4d565b91505092915050565b600073ffffffffffffffffffffffffffffffffffffffff82169050919050565b6000612fba82612f8f565b9050919050565b612fca81612faf565b82525050565b6000602082019050612fe56000830184612fc1565b92915050565b612ff481612faf565b8114612fff57600080fd5b50565b60008135905061301181612feb565b92915050565b6000806040838503121561302e5761302d612db5565b5b600061303c85828601613002565b925050602061304d85828601612f4d565b9150509250929050565b6000806000606084860312156130705761306f612db5565b5b600061307e86828701613002565b935050602061308f86828701613002565b92505060406130a086828701612f4d565b9150509250925092565b600080fd5b600080fd5b600080fd5b60008083601f8401126130cf576130ce6130aa565b5b8235905067ffffffffffffffff8111156130ec576130eb6130af565b5b602083019150836001820283011115613108576131076130b4565b5b9250929050565b6000806000806040858703121561312957613128612db5565b5b600085013567ffffffffffffffff81111561314757613146612dba565b5b613153878288016130b9565b9450945050602085013567ffffffffffffffff81111561317657613175612dba565b5b613182878288016130b9565b925092505092959194509250565b600081519050919050565b600082825260208201905092915050565b6000819050602082019050919050565b600082825260208201905092915050565b60006131d882612e7a565b6131e281856131bc565b93506131f2818560208601612e96565b6131fb81612ec0565b840191505092915050565b600081519050919050565b600082825260208201905092915050565b6000819050602082019050919050565b600060ff82169050919050565b61324881613232565b82525050565b600061325a838361323f565b60208301905092915050565b6000602082019050919050565b600061327e82613206565b6132888185613211565b935061329383613222565b8060005b838110156132c45781516132ab888261324e565b97506132b683613266565b925050600181019050613297565b5085935050505092915050565b600060408301600083015184820360008601526132ee82826131cd565b915050602083015184820360208601526133088282613273565b9150508091505092915050565b600061332183836132d1565b905092915050565b6000602082019050919050565b600061334182613190565b61334b818561319b565b93508360208202850161335d856131ac565b8060005b85811015613399578484038952815161337a8582613315565b945061338583613329565b925060208a01995050600181019050613361565b50829750879550505050505092915050565b600060208201905081810360008301526133c58184613336565b905092915050565b6133d681613232565b81146133e157600080fd5b50565b6000813590506133f3816133cd565b92915050565b60006020828403121561340f5761340e612db5565b5b600061341d848285016133e4565b91505092915050565b60006020828403121561343c5761343b612db5565b5b600061344a84828501613002565b91505092915050565b61345c81612f2c565b82525050565b60006020820190506134776000830184613453565b92915050565b61348681612e44565b811461349157600080fd5b50565b6000813590506134a38161347d565b92915050565b600080604083850312156134c0576134bf612db5565b5b60006134ce85828601613002565b92505060206134df85828601613494565b9150509250929050565b600080fd5b7f4e487b7100000000000000000000000000000000000000000000000000000000600052604160045260246000fd5b61352682612ec0565b810181811067ffffffffffffffff82111715613545576135446134ee565b5b80604052505050565b6000613558612dab565b9050613564828261351d565b919050565b600067ffffffffffffffff821115613584576135836134ee565b5b61358d82612ec0565b9050602081019050919050565b82818337600083830152505050565b60006135bc6135b784613569565b61354e565b9050828152602081018484840111156135d8576135d76134e9565b5b6135e384828561359a565b509392505050565b600082601f830112613600576135ff6130aa565b5b81356136108482602086016135a9565b91505092915050565b6000806000806080858703121561363357613632612db5565b5b600061364187828801613002565b945050602061365287828801613002565b935050604061366387828801612f4d565b925050606085013567ffffffffffffffff81111561368457613683612dba565b5b613690878288016135eb565b91505092959194509250565b600080604083850312156136b3576136b2612db5565b5b60006136c185828601613002565b92505060206136d285828601613002565b9150509250929050565b600081519050919050565b600082825260208201905092915050565b6000819050602082019050919050565b61371181612f2c565b82525050565b60006137238383613708565b60208301905092915050565b6000602082019050919050565b6000613747826136dc565b61375181856136e7565b935061375c836136f8565b8060005b8381101561378d5781516137748882613717565b975061377f8361372f565b925050600181019050613760565b5085935050505092915050565b600060208201905081810360008301526137b4818461373c565b905092915050565b7f4e487b7100000000000000000000000000000000000000000000000000000000600052602260045260246000fd5b6000600282049050600182168061380357607f821691505b602082108103613816576138156137bc565b5b50919050565b7f4552433732313a20617070726f76616c20746f2063757272656e74206f776e6560008201527f7200000000000000000000000000000000000000000000000000000000000000602082015250565b6000613878602183612e85565b91506138838261381c565b604082019050919050565b600060208201905081810360008301526138a78161386b565b9050919050565b7f4552433732313a20617070726f76652063616c6c6572206973206e6f7420746f60008201527f6b656e206f776e6572206f7220617070726f76656420666f7220616c6c000000602082015250565b600061390a603d83612e85565b9150613915826138ae565b604082019050919050565b60006020820190508181036000830152613939816138fd565b9050919050565b7f4552433732313a2063616c6c6572206973206e6f7420746f6b656e206f776e6560008201527f72206f7220617070726f76656400000000000000000000000000000000000000602082015250565b600061399c602d83612e85565b91506139a782613940565b604082019050919050565b600060208201905081810360008301526139cb8161398f565b9050919050565b7f4e6f20636f6c6c656374696f6e7320617661696c61626c650000000000000000600082015250565b6000613a08601883612e85565b9150613a13826139d2565b602082019050919050565b60006020820190508181036000830152613a37816139fb565b9050919050565b7f4e487b7100000000000000000000000000000000000000000000000000000000600052603260045260246000fd5b7f496e76616c696420636f6c6c656374696f6e206c656e67746800000000000000600082015250565b6000613aa3601983612e85565b9150613aae82613a6d565b602082019050919050565b60006020820190508181036000830152613ad281613a96565b9050919050565b7f436f6c6c656374696f6e20555249000000000000000000000000000000000000600082015250565b6000613b0f600e83612e85565b9150613b1a82613ad9565b602082019050919050565b60006040820190508181036000830152613b3e81613b02565b90508181036020830152613b528184612ed1565b905092915050565b7f436f6c6c656374696f6e204c656e677468000000000000000000000000000000600082015250565b6000613b90601183612e85565b9150613b9b82613b5a565b602082019050919050565b60006040820190508181036000830152613bbf81613b83565b9050613bce6020830184613453565b92915050565b7f47656e65726174656420496e6465780000000000000000000000000000000000600082015250565b6000613c0a600f83612e85565b9150613c1582613bd4565b602082019050919050565b60006040820190508181036000830152613c3981613bfd565b90508181036020830152613c4d8184612ed1565b905092915050565b600081905092915050565b6000613c6b82612e7a565b613c758185613c55565b9350613c85818560208601612e96565b80840191505092915050565b6000613c9d8284613c60565b915081905092915050565b7f4e487b7100000000000000000000000000000000000000000000000000000000600052601160045260246000fd5b6000613ce282612f2c565b9150613ced83612f2c565b9250828201905080821115613d0557613d04613ca8565b5b92915050565b60008190508160005260206000209050919050565b60006020601f8301049050919050565b600082821b905092915050565b600060088302613d6d7fffffffffffffffffffffffffffffffffffffffffffffffffffffffffffffffff82613d30565b613d778683613d30565b95508019841693508086168417925050509392505050565b6000819050919050565b6000613db4613daf613daa84612f2c565b613d8f565b612f2c565b9050919050565b6000819050919050565b613dce83613d99565b613de2613dda82613dbb565b848454613d3d565b825550505050565b600090565b613df7613dea565b613e02818484613dc5565b505050565b5b81811015613e2657613e1b600082613def565b600181019050613e08565b5050565b601f821115613e6b57613e3c81613d0b565b613e4584613d20565b81016020851015613e54578190505b613e68613e6085613d20565b830182613e07565b50505b505050565b600082821c905092915050565b6000613e8e60001984600802613e70565b1980831691505092915050565b6000613ea78383613e7d565b9150826002028217905092915050565b613ec082612e7a565b67ffffffffffffffff811115613ed957613ed86134ee565b5b613ee382546137eb565b613eee828285613e2a565b600060209050601f831160018114613f215760008415613f0f578287015190505b613f198582613e9b565b865550613f81565b601f198416613f2f86613d0b565b60005b82811015613f5757848901518255600182019150602085019450602081019050613f32565b86831015613f745784890151613f70601f891682613e7d565b8355505b6001600288020188555050505b505050505050565b6000613f958385612e85565b9350613fa283858461359a565b613fab83612ec0565b840190509392505050565b60006020820190508181036000830152613fd1818486613f89565b90509392505050565b7f4552433732313a20696e76616c696420746f6b656e2049440000000000000000600082015250565b6000614010601883612e85565b915061401b82613fda565b602082019050919050565b6000602082019050818103600083015261403f81614003565b9050919050565b60008151905061405581612f36565b92915050565b60006020828403121561407157614070612db5565b5b600061407f84828501614046565b91505092915050565b7f496e73756666696369656e74204652542062616c616e63650000000000000000600082015250565b60006140be601883612e85565b91506140c982614088565b602082019050919050565b600060208201905081810360008301526140ed816140b1565b9050919050565b60006060820190506141096000830186612fc1565b6141166020830185612fc1565b6141236040830184613453565b949350505050565b60008151905061413a8161347d565b92915050565b60006020828403121561415657614155612db5565b5b60006141648482850161412b565b91505092915050565b7f496e76616c696420666f72636564207261726974790000000000000000000000600082015250565b60006141a3601583612e85565b91506141ae8261416d565b602082019050919050565b600060208201905081810360008301526141d281614196565b9050919050565b60006141e482612f2c565b91507fffffffffffffffffffffffffffffffffffffffffffffffffffffffffffffffff820361421657614215613ca8565b5b600182019050919050565b7f4552433732313a2061646472657373207a65726f206973206e6f74206120766160008201527f6c6964206f776e65720000000000000000000000000000000000000000000000602082015250565b600061427d602983612e85565b915061428882614221565b604082019050919050565b600060208201905081810360008301526142ac81614270565b9050919050565b60006142bf8285613c60565b91506142cb8284613c60565b91508190509392505050565b7f4f776e61626c653a206e6577206f776e657220697320746865207a65726f206160008201527f6464726573730000000000000000000000000000000000000000000000000000602082015250565b6000614333602683612e85565b915061433e826142d7565b604082019050919050565b6000602082019050818103600083015261436281614326565b9050919050565b7f4552433732313a207472616e736665722066726f6d20696e636f72726563742060008201527f6f776e6572000000000000000000000000000000000000000000000000000000602082015250565b60006143c5602583612e85565b91506143d082614369565b604082019050919050565b600060208201905081810360008301526143f4816143b8565b9050919050565b7f4552433732313a207472616e7366657220746f20746865207a65726f2061646460008201527f7265737300000000000000000000000000000000000000000000000000000000602082015250565b6000614457602483612e85565b9150614462826143fb565b604082019050919050565b600060208201905081810360008301526144868161444a565b9050919050565b7f4f776e61626c653a2063616c6c6572206973206e6f7420746865206f776e6572600082015250565b60006144c3602083612e85565b91506144ce8261448d565b602082019050919050565b600060208201905081810360008301526144f2816144b6565b9050919050565b6000819050919050565b61451461450f82612f2c565b6144f9565b82525050565b60008160601b9050919050565b60006145328261451a565b9050919050565b600061454482614527565b9050919050565b61455c61455782612faf565b614539565b82525050565b600061456e8286614503565b60208201915061457e828561454b565b60148201915061458e8284614503565b602082019150819050949350505050565b7f4e487b7100000000000000000000000000000000000000000000000000000000600052601260045260246000fd5b60006145d982612f2c565b91506145e483612f2c565b9250826145f4576145f361459f565b5b828206905092915050565b7f4552433732313a206d696e7420746f20746865207a65726f2061646472657373600082015250565b6000614635602083612e85565b9150614640826145ff565b602082019050919050565b6000602082019050818103600083015261466481614628565b9050919050565b7f4552433732313a20746f6b656e20616c7265616479206d696e74656400000000600082015250565b60006146a1601c83612e85565b91506146ac8261466b565b602082019050919050565b600060208201905081810360008301526146d081614694565b9050919050565b7f2f00000000000000000000000000000000000000000000000000000000000000600082015250565b600061470d600183613c55565b9150614718826146d7565b600182019050919050565b7f2e6a736f6e000000000000000000000000000000000000000000000000000000600082015250565b6000614759600583613c55565b915061476482614723565b600582019050919050565b600061477b8285613c60565b915061478682614700565b91506147928284613c60565b915061479d8261474c565b91508190509392505050565b7f45524337323155524953746f726167653a2055524920736574206f66206e6f6e60008201527f6578697374656e7420746f6b656e000000000000000000000000000000000000602082015250565b6000614805602e83612e85565b9150614810826147a9565b604082019050919050565b60006020820190508181036000830152614834816147f8565b9050919050565b600061484682613232565b915061485183613232565b9250828203905060ff81111561486a57614869613ca8565b5b92915050565b7f4552433732313a20617070726f766520746f2063616c6c657200000000000000600082015250565b60006148a6601983612e85565b91506148b182614870565b602082019050919050565b600060208201905081810360008301526148d581614899565b9050919050565b7f4552433732313a207472616e7366657220746f206e6f6e20455243373231526560008201527f63656976657220696d706c656d656e7465720000000000000000000000000000602082015250565b6000614938603283612e85565b9150614943826148dc565b604082019050919050565b600060208201905081810360008301526149678161492b565b9050919050565b600081519050919050565b600082825260208201905092915050565b60006149958261496e565b61499f8185614979565b93506149af818560208601612e96565b6149b881612ec0565b840191505092915050565b60006080820190506149d86000830187612fc1565b6149e56020830186612fc1565b6149f26040830185613453565b8181036060830152614a04818461498a565b905095945050505050565b600081519050614a1e81612deb565b92915050565b600060208284031215614a3a57614a39612db5565b5b6000614a4884828501614a0f565b9150509291505056fea2646970667358221220271b057ae222702b5623f4d38bd9091c5031236010f88957238646fe143aa90f64736f6c63430008120033",
  "linkReferences": {},
  "deployedLinkReferences": {}
}