{
  "_format": "hh-sol-artifact-1",
  "contractName": "NFTCar",
  "sourceName": "contracts/NFTCar.sol",
  "abi": [
    {
      "inputs": [
        {
          "internalType": "address",
          "name": "_fcarToken",
          "type": "address"
        }
      ],
      "stateMutability": "nonpayable",
      "type": "constructor"
    },
    {
      "anonymous": false,
      "inputs": [
        {
          "indexed": true,
          "internalType": "address",
          "name": "owner",
          "type": "address"
        },
        {
          "indexed": true,
          "internalType": "address",
          "name": "approved",
          "type": "address"
        },
        {
          "indexed": true,
          "internalType": "uint256",
          "name": "tokenId",
          "type": "uint256"
        }
      ],
      "name": "Approval",
      "type": "event"
    },
    {
      "anonymous": false,
      "inputs": [
        {
          "indexed": true,
          "internalType": "address",
          "name": "owner",
          "type": "address"
        },
        {
          "indexed": true,
          "internalType": "address",
          "name": "operator",
          "type": "address"
        },
        {
          "indexed": false,
          "internalType": "bool",
          "name": "approved",
          "type": "bool"
        }
      ],
      "name": "ApprovalForAll",
      "type": "event"
    },
    {
      "anonymous": false,
      "inputs": [
        {
          "indexed": false,
          "internalType": "uint256",
          "name": "_fromTokenId",
          "type": "uint256"
        },
        {
          "indexed": false,
          "internalType": "uint256",
          "name": "_toTokenId",
          "type": "uint256"
        }
      ],
      "name": "BatchMetadataUpdate",
      "type": "event"
    },
    {
      "anonymous": false,
      "inputs": [
        {
          "indexed": false,
          "internalType": "string",
          "name": "uri",
          "type": "string"
        }
      ],
      "name": "CollectionAdded",
      "type": "event"
    },
    {
      "anonymous": false,
      "inputs": [
        {
          "indexed": false,
          "internalType": "uint256",
          "name": "_tokenId",
          "type": "uint256"
        }
      ],
      "name": "MetadataUpdate",
      "type": "event"
    },
    {
      "anonymous": false,
      "inputs": [
        {
          "indexed": true,
          "internalType": "address",
          "name": "to",
          "type": "address"
        },
        {
          "indexed": true,
          "internalType": "uint256",
          "name": "tokenId",
          "type": "uint256"
        },
        {
          "indexed": true,
          "internalType": "string",
          "name": "uri",
          "type": "string"
        },
        {
          "indexed": false,
          "internalType": "string",
          "name": "index",
          "type": "string"
        }
      ],
      "name": "Minted",
      "type": "event"
    },
    {
      "anonymous": false,
      "inputs": [
        {
          "indexed": true,
          "internalType": "address",
          "name": "previousOwner",
          "type": "address"
        },
        {
          "indexed": true,
          "internalType": "address",
          "name": "newOwner",
          "type": "address"
        }
      ],
      "name": "OwnershipTransferred",
      "type": "event"
    },
    {
      "anonymous": false,
      "inputs": [
        {
          "indexed": true,
          "internalType": "address",
          "name": "from",
          "type": "address"
        },
        {
          "indexed": true,
          "internalType": "address",
          "name": "to",
          "type": "address"
        },
        {
          "indexed": true,
          "internalType": "uint256",
          "name": "tokenId",
          "type": "uint256"
        }
      ],
      "name": "Transfer",
      "type": "event"
    },
    {
      "inputs": [
        {
          "internalType": "string",
          "name": "_uri",
          "type": "string"
        },
        {
          "internalType": "string",
          "name": "_rarities",
          "type": "string"
        }
      ],
      "name": "addCollection",
      "outputs": [],
      "stateMutability": "nonpayable",
      "type": "function"
    },
    {
      "inputs": [
        {
          "internalType": "address",
          "name": "to",
          "type": "address"
        },
        {
          "internalType": "uint256",
          "name": "tokenId",
          "type": "uint256"
        }
      ],
      "name": "approve",
      "outputs": [],
      "stateMutability": "nonpayable",
      "type": "function"
    },
    {
      "inputs": [
        {
          "internalType": "address",
          "name": "owner",
          "type": "address"
        }
      ],
      "name": "balanceOf",
      "outputs": [
        {
          "internalType": "uint256",
          "name": "",
          "type": "uint256"
        }
      ],
      "stateMutability": "view",
      "type": "function"
    },
    {
      "inputs": [
        {
          "internalType": "uint256",
          "name": "idVoiture",
          "type": "uint256"
        },
        {
          "internalType": "uint256",
          "name": "prix",
          "type": "uint256"
        },
        {
          "internalType": "address",
          "name": "seller",
          "type": "address"
        }
      ],
      "name": "commencerEnchere",
      "outputs": [],
      "stateMutability": "nonpayable",
      "type": "function"
    },
    {
      "inputs": [],
      "name": "endAuctions",
      "outputs": [],
      "stateMutability": "nonpayable",
      "type": "function"
    },
    {
      "inputs": [
        {
          "internalType": "uint256",
          "name": "idNFT",
          "type": "uint256"
        },
        {
          "internalType": "uint256",
          "name": "montant",
          "type": "uint256"
        }
      ],
      "name": "faireOffre",
      "outputs": [],
      "stateMutability": "nonpayable",
      "type": "function"
    },
    {
      "inputs": [],
      "name": "getActiveAuctions",
      "outputs": [
        {
          "components": [
            {
              "internalType": "uint256",
              "name": "carId",
              "type": "uint256"
            },
            {
              "internalType": "bool",
              "name": "termine",
              "type": "bool"
            },
            {
              "internalType": "address",
              "name": "meilleurAcheteur",
              "type": "address"
            },
            {
              "internalType": "uint256",
              "name": "meilleureOffre",
              "type": "uint256"
            },
            {
              "internalType": "uint256",
              "name": "finEnchere",
              "type": "uint256"
            },
            {
              "internalType": "address[]",
              "name": "beter",
              "type": "address[]"
            },
            {
              "internalType": "uint256[]",
              "name": "amount",
              "type": "uint256[]"
            }
          ],
          "internalType": "struct NFTCar.Enchere[]",
          "name": "",
          "type": "tuple[]"
        }
      ],
      "stateMutability": "view",
      "type": "function"
    },
    {
      "inputs": [
        {
          "internalType": "uint256",
          "name": "tokenId",
          "type": "uint256"
        }
      ],
      "name": "getApproved",
      "outputs": [
        {
          "internalType": "address",
          "name": "",
          "type": "address"
        }
      ],
      "stateMutability": "view",
      "type": "function"
    },
    {
      "inputs": [],
      "name": "getUserNFTs",
      "outputs": [
        {
          "internalType": "uint256[]",
          "name": "",
          "type": "uint256[]"
        }
      ],
      "stateMutability": "view",
      "type": "function"
    },
    {
      "inputs": [
        {
          "internalType": "address",
          "name": "owner",
          "type": "address"
        },
        {
          "internalType": "address",
          "name": "operator",
          "type": "address"
        }
      ],
      "name": "isApprovedForAll",
      "outputs": [
        {
          "internalType": "bool",
          "name": "",
          "type": "bool"
        }
      ],
      "stateMutability": "view",
      "type": "function"
    },
    {
      "inputs": [
        {
          "internalType": "uint8",
          "name": "_forcedRarity",
          "type": "uint8"
        }
      ],
      "name": "mint",
      "outputs": [],
      "stateMutability": "nonpayable",
      "type": "function"
    },
    {
      "inputs": [],
      "name": "name",
      "outputs": [
        {
          "internalType": "string",
          "name": "",
          "type": "string"
        }
      ],
      "stateMutability": "view",
      "type": "function"
    },
    {
      "inputs": [],
      "name": "owner",
      "outputs": [
        {
          "internalType": "address",
          "name": "",
          "type": "address"
        }
      ],
      "stateMutability": "view",
      "type": "function"
    },
    {
      "inputs": [
        {
          "internalType": "uint256",
          "name": "tokenId",
          "type": "uint256"
        }
      ],
      "name": "ownerOf",
      "outputs": [
        {
          "internalType": "address",
          "name": "",
          "type": "address"
        }
      ],
      "stateMutability": "view",
      "type": "function"
    },
    {
      "inputs": [],
      "name": "renounceOwnership",
      "outputs": [],
      "stateMutability": "nonpayable",
      "type": "function"
    },
    {
      "inputs": [
        {
          "internalType": "address",
          "name": "from",
          "type": "address"
        },
        {
          "internalType": "address",
          "name": "to",
          "type": "address"
        },
        {
          "internalType": "uint256",
          "name": "tokenId",
          "type": "uint256"
        }
      ],
      "name": "safeTransferFrom",
      "outputs": [],
      "stateMutability": "nonpayable",
      "type": "function"
    },
    {
      "inputs": [
        {
          "internalType": "address",
          "name": "from",
          "type": "address"
        },
        {
          "internalType": "address",
          "name": "to",
          "type": "address"
        },
        {
          "internalType": "uint256",
          "name": "tokenId",
          "type": "uint256"
        },
        {
          "internalType": "bytes",
          "name": "data",
          "type": "bytes"
        }
      ],
      "name": "safeTransferFrom",
      "outputs": [],
      "stateMutability": "nonpayable",
      "type": "function"
    },
    {
      "inputs": [
        {
          "internalType": "address",
          "name": "operator",
          "type": "address"
        },
        {
          "internalType": "bool",
          "name": "approved",
          "type": "bool"
        }
      ],
      "name": "setApprovalForAll",
      "outputs": [],
      "stateMutability": "nonpayable",
      "type": "function"
    },
    {
      "inputs": [
        {
          "internalType": "bytes4",
          "name": "interfaceId",
          "type": "bytes4"
        }
      ],
      "name": "supportsInterface",
      "outputs": [
        {
          "internalType": "bool",
          "name": "",
          "type": "bool"
        }
      ],
      "stateMutability": "view",
      "type": "function"
    },
    {
      "inputs": [],
      "name": "symbol",
      "outputs": [
        {
          "internalType": "string",
          "name": "",
          "type": "string"
        }
      ],
      "stateMutability": "view",
      "type": "function"
    },
    {
      "inputs": [
        {
          "internalType": "uint256",
          "name": "tokenId",
          "type": "uint256"
        }
      ],
      "name": "tokenURI",
      "outputs": [
        {
          "internalType": "string",
          "name": "",
          "type": "string"
        }
      ],
      "stateMutability": "view",
      "type": "function"
    },
    {
      "inputs": [
        {
          "internalType": "address",
          "name": "from",
          "type": "address"
        },
        {
          "internalType": "address",
          "name": "to",
          "type": "address"
        },
        {
          "internalType": "uint256",
          "name": "tokenId",
          "type": "uint256"
        }
      ],
      "name": "transferFrom",
      "outputs": [],
      "stateMutability": "nonpayable",
      "type": "function"
    },
    {
      "inputs": [
        {
          "internalType": "address",
          "name": "newOwner",
          "type": "address"
        }
      ],
      "name": "transferOwnership",
      "outputs": [],
      "stateMutability": "nonpayable",
      "type": "function"
    }
  ],
  "bytecode": "0x60806040523480156200001157600080fd5b50604051620062af380380620062af833981810160405281019062000037919062000337565b6040518060400160405280600681526020017f4e465443617200000000000000000000000000000000000000000000000000008152506040518060400160405280600681526020017f4e465443415200000000000000000000000000000000000000000000000000008152508160009080519060200190620000bb9291906200021d565b508060019080519060200190620000d49291906200021d565b505050620000f7620000eb6200014f60201b60201c565b6200015760201b60201c565b80600e60006101000a81548173ffffffffffffffffffffffffffffffffffffffff021916908373ffffffffffffffffffffffffffffffffffffffff1602179055506000600d819055506000600c8190555050620003ce565b600033905090565b6000600760009054906101000a900473ffffffffffffffffffffffffffffffffffffffff16905081600760006101000a81548173ffffffffffffffffffffffffffffffffffffffff021916908373ffffffffffffffffffffffffffffffffffffffff1602179055508173ffffffffffffffffffffffffffffffffffffffff168173ffffffffffffffffffffffffffffffffffffffff167f8be0079c531659141344cd1fd0a4f28419497f9722a3daafe3b4186f6b6457e060405160405180910390a35050565b8280546200022b9062000398565b90600052602060002090601f0160209004810192826200024f57600085556200029b565b82601f106200026a57805160ff19168380011785556200029b565b828001600101855582156200029b579182015b828111156200029a5782518255916020019190600101906200027d565b5b509050620002aa9190620002ae565b5090565b5b80821115620002c9576000816000905550600101620002af565b5090565b600080fd5b600073ffffffffffffffffffffffffffffffffffffffff82169050919050565b6000620002ff82620002d2565b9050919050565b6200031181620002f2565b81146200031d57600080fd5b50565b600081519050620003318162000306565b92915050565b60006020828403121562000350576200034f620002cd565b5b6000620003608482850162000320565b91505092915050565b7f4e487b7100000000000000000000000000000000000000000000000000000000600052602260045260246000fd5b60006002820490506001821680620003b157607f821691505b60208210811415620003c857620003c762000369565b5b50919050565b615ed180620003de6000396000f3fe608060405234801561001057600080fd5b506004361061014d5760003560e01c8063715018a6116100c3578063c87b56dd1161007c578063c87b56dd14610372578063c8f9a0ce146103a2578063cf44b5d5146103ac578063e985e9c5146103ca578063f2fde38b146103fa578063fdc5ab8e146104165761014d565b8063715018a6146102d857806387d6488a146102e25780638da5cb5b146102fe57806395d89b411461031c578063a22cb4651461033a578063b88d4fde146103565761014d565b806323b872dd1161011557806323b872dd14610208578063407917eb1461022457806342842e0e146102405780636352211e1461025c5780636ecd23061461028c57806370a08231146102a85761014d565b806301ffc9a71461015257806306fdde0314610182578063081812fc146101a0578063095ea7b3146101d057806313a29204146101ec575b600080fd5b61016c60048036038101906101679190614163565b610434565b60405161017991906141ab565b60405180910390f35b61018a610495565b604051610197919061425f565b60405180910390f35b6101ba60048036038101906101b591906142b7565b610527565b6040516101c79190614325565b60405180910390f35b6101ea60048036038101906101e5919061436c565b61056d565b005b610206600480360381019061020191906143ac565b610685565b005b610222600480360381019061021d91906143ec565b610bcd565b005b61023e600480360381019061023991906144a4565b610c2d565b005b61025a600480360381019061025591906143ec565b610d3d565b005b610276600480360381019061027191906142b7565b610d5d565b6040516102839190614325565b60405180910390f35b6102a660048036038101906102a1919061455e565b610de4565b005b6102c260048036038101906102bd919061458b565b6115d1565b6040516102cf91906145c7565b60405180910390f35b6102e0611689565b005b6102fc60048036038101906102f791906145e2565b61169d565b005b610306611a45565b6040516103139190614325565b60405180910390f35b610324611a6f565b604051610331919061425f565b60405180910390f35b610354600480360381019061034f9190614661565b611b01565b005b610370600480360381019061036b91906147d1565b611b17565b005b61038c600480360381019061038791906142b7565b611b79565b604051610399919061425f565b60405180910390f35b6103aa611c8c565b005b6103b4611d1e565b6040516103c19190614b44565b60405180910390f35b6103e460048036038101906103df9190614b66565b611f77565b6040516103f191906141ab565b60405180910390f35b610414600480360381019061040f919061458b565b61200b565b005b61041e61208f565b60405161042b9190614c15565b60405180910390f35b6000634906490660e01b7bffffffffffffffffffffffffffffffffffffffffffffffffffffffff1916827bffffffffffffffffffffffffffffffffffffffffffffffffffffffff1916148061048e575061048d82612124565b5b9050919050565b6060600080546104a490614c66565b80601f01602080910402602001604051908101604052809291908181526020018280546104d090614c66565b801561051d5780601f106104f25761010080835404028352916020019161051d565b820191906000526020600020905b81548152906001019060200180831161050057829003601f168201915b5050505050905090565b600061053282612206565b6004600083815260200190815260200160002060009054906101000a900473ffffffffffffffffffffffffffffffffffffffff169050919050565b600061057882610d5d565b90508073ffffffffffffffffffffffffffffffffffffffff168373ffffffffffffffffffffffffffffffffffffffff1614156105e9576040517f08c379a00000000000000000000000000000000000000000000000000000000081526004016105e090614d0a565b60405180910390fd5b8073ffffffffffffffffffffffffffffffffffffffff16610608612251565b73ffffffffffffffffffffffffffffffffffffffff161480610637575061063681610631612251565b611f77565b5b610676576040517f08c379a000000000000000000000000000000000000000000000000000000000815260040161066d90614d9c565b60405180910390fd5b6106808383612259565b505050565b6000600f60008481526020019081526020016000209050600080610829836040518060e0016040529081600082015481526020016001820160009054906101000a900460ff161515151581526020016001820160019054906101000a900473ffffffffffffffffffffffffffffffffffffffff1673ffffffffffffffffffffffffffffffffffffffff1673ffffffffffffffffffffffffffffffffffffffff1681526020016002820154815260200160038201548152602001600482018054806020026020016040519081016040528092919081815260200182805480156107c257602002820191906000526020600020905b8160009054906101000a900473ffffffffffffffffffffffffffffffffffffffff1673ffffffffffffffffffffffffffffffffffffffff1681526020019060010190808311610778575b505050505081526020016005820180548060200260200160405190810160405280929190818152602001828054801561081a57602002820191906000526020600020905b815481526020019060010190808311610806575b50505050508152505033612312565b90508260040180549050811461085d5782600501818154811061084f5761084e614dbc565b5b906000526020600020015491505b82600301544211156108a4576040517f08c379a000000000000000000000000000000000000000000000000000000000815260040161089b90614e37565b60405180910390fd5b826002015482856108b59190614e86565b116108f5576040517f08c379a00000000000000000000000000000000000000000000000000000000081526004016108ec90614f28565b60405180910390fd5b83600e60009054906101000a900473ffffffffffffffffffffffffffffffffffffffff1673ffffffffffffffffffffffffffffffffffffffff166370a08231336040518263ffffffff1660e01b81526004016109519190614325565b60206040518083038186803b15801561096957600080fd5b505afa15801561097d573d6000803e3d6000fd5b505050506040513d601f19601f820116820180604052508101906109a19190614f5d565b10156109e2576040517f08c379a00000000000000000000000000000000000000000000000000000000081526004016109d990614fd6565b60405180910390fd5b600e60009054906101000a900473ffffffffffffffffffffffffffffffffffffffff1673ffffffffffffffffffffffffffffffffffffffff166323b872dd3330876040518463ffffffff1660e01b8152600401610a4193929190614ff6565b602060405180830381600087803b158015610a5b57600080fd5b505af1158015610a6f573d6000803e3d6000fd5b505050506040513d601f19601f82011682018060405250810190610a939190615042565b5082600401805490508114610ade5783836005018281548110610ab957610ab8614dbc565b5b906000526020600020016000828254610ad29190614e86565b92505081905550610b6f565b82600401339080600181540180825580915050600190039060005260206000200160009091909190916101000a81548173ffffffffffffffffffffffffffffffffffffffff021916908373ffffffffffffffffffffffffffffffffffffffff160217905550826005018490806001815401808255809150506001900390600052602060002001600090919091909150555b338360010160016101000a81548173ffffffffffffffffffffffffffffffffffffffff021916908373ffffffffffffffffffffffffffffffffffffffff1602179055508184610bbe9190614e86565b83600201819055505050505050565b610bde610bd8612251565b826123a5565b610c1d576040517f08c379a0000000000000000000000000000000000000000000000000000000008152600401610c14906150e1565b60405180910390fd5b610c2883838361243a565b505050565b610c35612734565b6008604051806040016040528086868080601f016020809104026020016040519081016040528093929190818152602001838380828437600081840152601f19601f820116905080830192505050505050508152602001610c9685856127b2565b81525090806001815401808255809150506001900390600052602060002090600202016000909190919091506000820151816000019080519060200190610cde929190613ddd565b506020820151816001019080519060200190610cfb929190613e63565b5050507f3a6eabc1ea35f41cd485e412aa9d92cec3c646bb471dac85cb42d75b3ca461ac8484604051610d2f92919061512e565b60405180910390a150505050565b610d5883838360405180602001604052806000815250611b17565b505050565b600080610d69836128ca565b9050600073ffffffffffffffffffffffffffffffffffffffff168173ffffffffffffffffffffffffffffffffffffffff161415610ddb576040517f08c379a0000000000000000000000000000000000000000000000000000000008152600401610dd29061519e565b60405180910390fd5b80915050919050565b60006001905080600e60009054906101000a900473ffffffffffffffffffffffffffffffffffffffff1673ffffffffffffffffffffffffffffffffffffffff166370a08231336040518263ffffffff1660e01b8152600401610e469190614325565b60206040518083038186803b158015610e5e57600080fd5b505afa158015610e72573d6000803e3d6000fd5b505050506040513d601f19601f82011682018060405250810190610e969190614f5d565b1015610ed7576040517f08c379a0000000000000000000000000000000000000000000000000000000008152600401610ece90614fd6565b60405180910390fd5b600e60009054906101000a900473ffffffffffffffffffffffffffffffffffffffff1673ffffffffffffffffffffffffffffffffffffffff166323b872dd3330846040518463ffffffff1660e01b8152600401610f3693929190614ff6565b602060405180830381600087803b158015610f5057600080fd5b505af1158015610f64573d6000803e3d6000fd5b505050506040513d601f19601f82011682018060405250810190610f889190615042565b50600060088054905011610fd1576040517f08c379a0000000000000000000000000000000000000000000000000000000008152600401610fc89061520a565b60405180910390fd5b60006008610fe3600880549050612907565b81548110610ff457610ff3614dbc565b5b906000526020600020906002020160405180604001604052908160008201805461101d90614c66565b80601f016020809104026020016040519081016040528092919081815260200182805461104990614c66565b80156110965780601f1061106b57610100808354040283529160200191611096565b820191906000526020600020905b81548152906001019060200180831161107957829003601f168201915b505050505081526020016001820180548060200260200160405190810160405280929190818152602001828054801561111457602002820191906000526020600020906000905b82829054906101000a900460ff1660ff16815260200190600101906020826000010492830192600103820291508084116110dd5790505b5050505050815250509050600081602001515111611167576040517f08c379a000000000000000000000000000000000000000000000000000000000815260040161115e90615276565b60405180910390fd5b60008060008560ff1611156112135760058560ff1611156111bd576040517f08c379a00000000000000000000000000000000000000000000000000000000081526004016111b4906152e2565b60405180910390fd5b6111cb836020015151612907565b90505b8460ff16836020015182815181106111e9576111e8614dbc565b5b602002602001015160ff161461120e57611207836020015151612907565b90506111ce565b6113f3565b6001611220612710612907565b61122a9190614e86565b91506032821161128857611242836020015151612907565b90505b60018360200151828151811061125e5761125d614dbc565b5b602002602001015160ff16146112835761127c836020015151612907565b9050611245565b6113f2565b61022682116112e55761129f836020015151612907565b90505b6002836020015182815181106112bb576112ba614dbc565b5b602002602001015160ff16146112e0576112d9836020015151612907565b90506112a2565b6113f1565b6109f68211611342576112fc836020015151612907565b90505b60038360200151828151811061131857611317614dbc565b5b602002602001015160ff161461133d57611336836020015151612907565b90506112ff565b6113f0565b6115ae821161139f57611359836020015151612907565b90505b60048360200151828151811061137557611374614dbc565b5b602002602001015160ff161461139a57611393836020015151612907565b905061135c565b6113ef565b6113ad836020015151612907565b90505b6005836020015182815181106113c9576113c8614dbc565b5b602002602001015160ff16146113ee576113e7836020015151612907565b90506113b0565b5b5b5b5b5b600061140a6001836114059190614e86565b612963565b905060008460000151905061142133600d54612a3b565b611436600d546114318385612c59565b612c85565b80604051611444919061533e565b6040518091039020600d543373ffffffffffffffffffffffffffffffffffffffff167fe2406cfd356cfbe4e42d452bde96d27f48c423e5f02b5d78695893308399519d85604051611495919061425f565b60405180910390a43360096000600d54815260200190815260200160002060006101000a81548173ffffffffffffffffffffffffffffffffffffffff021916908373ffffffffffffffffffffffffffffffffffffffff160217905550600a60003373ffffffffffffffffffffffffffffffffffffffff1673ffffffffffffffffffffffffffffffffffffffff168152602001908152602001600020600081548092919061154190615355565b9190505550600b60003373ffffffffffffffffffffffffffffffffffffffff1673ffffffffffffffffffffffffffffffffffffffff168152602001908152602001600020600d5490806001815401808255809150506001900390600052602060002001600090919091909150556001600d60008282546115c19190614e86565b9250508190555050505050505050565b60008073ffffffffffffffffffffffffffffffffffffffff168273ffffffffffffffffffffffffffffffffffffffff161415611642576040517f08c379a000000000000000000000000000000000000000000000000000000000815260040161163990615410565b60405180910390fd5b600360008373ffffffffffffffffffffffffffffffffffffffff1673ffffffffffffffffffffffffffffffffffffffff168152602001908152602001600020549050919050565b611691612734565b61169b6000612d30565b565b8073ffffffffffffffffffffffffffffffffffffffff166009600085815260200190815260200160002060009054906101000a900473ffffffffffffffffffffffffffffffffffffffff1673ffffffffffffffffffffffffffffffffffffffff161461173e576040517f08c379a0000000000000000000000000000000000000000000000000000000008152600401611735906154a2565b60405180910390fd5b60108054905061174d84612df6565b1461178d576040517f08c379a00000000000000000000000000000000000000000000000000000000081526004016117849061550e565b60405180910390fd5b6040518060e001604052808481526020016000151581526020018273ffffffffffffffffffffffffffffffffffffffff16815260200183815260200162015180426117d89190614e86565b8152602001600067ffffffffffffffff8111156117f8576117f76146a6565b5b6040519080825280602002602001820160405280156118265781602001602082028036833780820191505090505b508152602001600067ffffffffffffffff811115611847576118466146a6565b5b6040519080825280602002602001820160405280156118755781602001602082028036833780820191505090505b50815250600f60008581526020019081526020016000206000820151816000015560208201518160010160006101000a81548160ff02191690831515021790555060408201518160010160016101000a81548173ffffffffffffffffffffffffffffffffffffffff021916908373ffffffffffffffffffffffffffffffffffffffff160217905550606082015181600201556080820151816003015560a082015181600401908051906020019061192d929190613f0a565b5060c082015181600501908051906020019061194a929190613f94565b50905050601083908060018154018082558091505060019003906000526020600020016000909190919091505560006119838483612e5c565b90506000600b60008473ffffffffffffffffffffffffffffffffffffffff1673ffffffffffffffffffffffffffffffffffffffff168152602001908152602001600020905080600182805490506119da919061552e565b815481106119eb576119ea614dbc565b5b9060005260206000200154818381548110611a0957611a08614dbc565b5b906000526020600020018190555080805480611a2857611a27615562565b5b600190038181906000526020600020016000905590555050505050565b6000600760009054906101000a900473ffffffffffffffffffffffffffffffffffffffff16905090565b606060018054611a7e90614c66565b80601f0160208091040260200160405190810160405280929190818152602001828054611aaa90614c66565b8015611af75780601f10611acc57610100808354040283529160200191611af7565b820191906000526020600020905b815481529060010190602001808311611ada57829003601f168201915b5050505050905090565b611b13611b0c612251565b8383612f7a565b5050565b611b28611b22612251565b836123a5565b611b67576040517f08c379a0000000000000000000000000000000000000000000000000000000008152600401611b5e906150e1565b60405180910390fd5b611b73848484846130e7565b50505050565b6060611b8482612206565b6000600660008481526020019081526020016000208054611ba490614c66565b80601f0160208091040260200160405190810160405280929190818152602001828054611bd090614c66565b8015611c1d5780601f10611bf257610100808354040283529160200191611c1d565b820191906000526020600020905b815481529060010190602001808311611c0057829003601f168201915b505050505090506000611c2e613143565b9050600081511415611c44578192505050611c87565b600082511115611c79578082604051602001611c61929190615591565b60405160208183030381529060405292505050611c87565b611c828461315a565b925050505b919050565b600080600090505b601080549050811015611d1a57600f600060108381548110611cb957611cb8614dbc565b5b90600052602060002001548152602001908152602001600020915042826003015411611d0757611d0660108281548110611cf657611cf5614dbc565b5b90600052602060002001546131c2565b5b8080611d1290615355565b915050611c94565b5050565b6060600060108054905067ffffffffffffffff811115611d4157611d406146a6565b5b604051908082528060200260200182016040528015611d7a57816020015b611d67613fe1565b815260200190600190039081611d5f5790505b50905060005b601080549050811015611f6f57600f600060108381548110611da557611da4614dbc565b5b906000526020600020015481526020019081526020016000206040518060e0016040529081600082015481526020016001820160009054906101000a900460ff161515151581526020016001820160019054906101000a900473ffffffffffffffffffffffffffffffffffffffff1673ffffffffffffffffffffffffffffffffffffffff1673ffffffffffffffffffffffffffffffffffffffff168152602001600282015481526020016003820154815260200160048201805480602002602001604051908101604052809291908181526020018280548015611edd57602002820191906000526020600020905b8160009054906101000a900473ffffffffffffffffffffffffffffffffffffffff1673ffffffffffffffffffffffffffffffffffffffff1681526020019060010190808311611e93575b5050505050815260200160058201805480602002602001604051908101604052809291908181526020018280548015611f3557602002820191906000526020600020905b815481526020019060010190808311611f21575b505050505081525050828281518110611f5157611f50614dbc565b5b60200260200101819052508080611f6790615355565b915050611d80565b508091505090565b6000600560008473ffffffffffffffffffffffffffffffffffffffff1673ffffffffffffffffffffffffffffffffffffffff16815260200190815260200160002060008373ffffffffffffffffffffffffffffffffffffffff1673ffffffffffffffffffffffffffffffffffffffff16815260200190815260200160002060009054906101000a900460ff16905092915050565b612013612734565b600073ffffffffffffffffffffffffffffffffffffffff168173ffffffffffffffffffffffffffffffffffffffff161415612083576040517f08c379a000000000000000000000000000000000000000000000000000000000815260040161207a90615627565b60405180910390fd5b61208c81612d30565b50565b6060600b60003373ffffffffffffffffffffffffffffffffffffffff1673ffffffffffffffffffffffffffffffffffffffff16815260200190815260200160002080548060200260200160405190810160405280929190818152602001828054801561211a57602002820191906000526020600020905b815481526020019060010190808311612106575b5050505050905090565b60007f80ac58cd000000000000000000000000000000000000000000000000000000007bffffffffffffffffffffffffffffffffffffffffffffffffffffffff1916827bffffffffffffffffffffffffffffffffffffffffffffffffffffffff191614806121ef57507f5b5e139f000000000000000000000000000000000000000000000000000000007bffffffffffffffffffffffffffffffffffffffffffffffffffffffff1916827bffffffffffffffffffffffffffffffffffffffffffffffffffffffff1916145b806121ff57506121fe82613a19565b5b9050919050565b61220f81613a83565b61224e576040517f08c379a00000000000000000000000000000000000000000000000000000000081526004016122459061519e565b60405180910390fd5b50565b600033905090565b816004600083815260200190815260200160002060006101000a81548173ffffffffffffffffffffffffffffffffffffffff021916908373ffffffffffffffffffffffffffffffffffffffff160217905550808273ffffffffffffffffffffffffffffffffffffffff166122cc83610d5d565b73ffffffffffffffffffffffffffffffffffffffff167f8c5be1e5ebec7d5bd14f71427d1e84f3dd0314c0f7b2291e5b200ac8c7c3b92560405160405180910390a45050565b600080600090505b8360a0015151811015612395578360a00151818151811061233e5761233d614dbc565b5b602002602001015173ffffffffffffffffffffffffffffffffffffffff168373ffffffffffffffffffffffffffffffffffffffff161415612382578091505061239f565b808061238d90615355565b91505061231a565b508260a001515190505b92915050565b6000806123b183610d5d565b90508073ffffffffffffffffffffffffffffffffffffffff168473ffffffffffffffffffffffffffffffffffffffff1614806123f357506123f28185611f77565b5b8061243157508373ffffffffffffffffffffffffffffffffffffffff1661241984610527565b73ffffffffffffffffffffffffffffffffffffffff16145b91505092915050565b8273ffffffffffffffffffffffffffffffffffffffff1661245a82610d5d565b73ffffffffffffffffffffffffffffffffffffffff16146124b0576040517f08c379a00000000000000000000000000000000000000000000000000000000081526004016124a7906156b9565b60405180910390fd5b600073ffffffffffffffffffffffffffffffffffffffff168273ffffffffffffffffffffffffffffffffffffffff161415612520576040517f08c379a00000000000000000000000000000000000000000000000000000000081526004016125179061574b565b60405180910390fd5b61252d8383836001613ac4565b8273ffffffffffffffffffffffffffffffffffffffff1661254d82610d5d565b73ffffffffffffffffffffffffffffffffffffffff16146125a3576040517f08c379a000000000000000000000000000000000000000000000000000000000815260040161259a906156b9565b60405180910390fd5b6004600082815260200190815260200160002060006101000a81549073ffffffffffffffffffffffffffffffffffffffff02191690556001600360008573ffffffffffffffffffffffffffffffffffffffff1673ffffffffffffffffffffffffffffffffffffffff168152602001908152602001600020600082825403925050819055506001600360008473ffffffffffffffffffffffffffffffffffffffff1673ffffffffffffffffffffffffffffffffffffffff16815260200190815260200160002060008282540192505081905550816002600083815260200190815260200160002060006101000a81548173ffffffffffffffffffffffffffffffffffffffff021916908373ffffffffffffffffffffffffffffffffffffffff160217905550808273ffffffffffffffffffffffffffffffffffffffff168473ffffffffffffffffffffffffffffffffffffffff167fddf252ad1be2c89b69c2b068fc378daa952ba7f163c4a11628f55a4df523b3ef60405160405180910390a461272f8383836001613aca565b505050565b61273c612251565b73ffffffffffffffffffffffffffffffffffffffff1661275a611a45565b73ffffffffffffffffffffffffffffffffffffffff16146127b0576040517f08c379a00000000000000000000000000000000000000000000000000000000081526004016127a7906157b7565b60405180910390fd5b565b6060600083838080601f016020809104026020016040519081016040528093929190818152602001838380828437600081840152601f19601f8201169050808301925050505050505090506000815167ffffffffffffffff81111561281a576128196146a6565b5b6040519080825280602002602001820160405280156128485781602001602082028036833780820191505090505b50905060005b82518110156128be57603083828151811061286c5761286b614dbc565b5b602001015160f81c60f81b60f81c61288491906157d7565b82828151811061289757612896614dbc565b5b602002602001019060ff16908160ff168152505080806128b690615355565b91505061284e565b50809250505092915050565b60006002600083815260200190815260200160002060009054906101000a900473ffffffffffffffffffffffffffffffffffffffff169050919050565b6000600c600081548092919061291c90615355565b9190505550814233600c5460405160200161293993929190615874565b6040516020818303038152906040528051906020012060001c61295c91906158e0565b9050919050565b60606000600161297284613ad0565b01905060008167ffffffffffffffff811115612991576129906146a6565b5b6040519080825280601f01601f1916602001820160405280156129c35781602001600182028036833780820191505090505b509050600082602001820190505b600115612a30578080600190039150507f3031323334353637383961626364656600000000000000000000000000000000600a86061a8153600a8581612a1a57612a196158b1565b5b0494506000851415612a2b57612a30565b6129d1565b819350505050919050565b600073ffffffffffffffffffffffffffffffffffffffff168273ffffffffffffffffffffffffffffffffffffffff161415612aab576040517f08c379a0000000000000000000000000000000000000000000000000000000008152600401612aa29061595d565b60405180910390fd5b612ab481613a83565b15612af4576040517f08c379a0000000000000000000000000000000000000000000000000000000008152600401612aeb906159c9565b60405180910390fd5b612b02600083836001613ac4565b612b0b81613a83565b15612b4b576040517f08c379a0000000000000000000000000000000000000000000000000000000008152600401612b42906159c9565b60405180910390fd5b6001600360008473ffffffffffffffffffffffffffffffffffffffff1673ffffffffffffffffffffffffffffffffffffffff16815260200190815260200160002060008282540192505081905550816002600083815260200190815260200160002060006101000a81548173ffffffffffffffffffffffffffffffffffffffff021916908373ffffffffffffffffffffffffffffffffffffffff160217905550808273ffffffffffffffffffffffffffffffffffffffff16600073ffffffffffffffffffffffffffffffffffffffff167fddf252ad1be2c89b69c2b068fc378daa952ba7f163c4a11628f55a4df523b3ef60405160405180910390a4612c55600083836001613aca565b5050565b60608282604051602001612c6e929190615a81565b604051602081830303815290604052905092915050565b612c8e82613a83565b612ccd576040517f08c379a0000000000000000000000000000000000000000000000000000000008152600401612cc490615b2d565b60405180910390fd5b80600660008481526020019081526020016000209080519060200190612cf4929190613ddd565b507ff8e1a15aba9398e019f0b49df1a4fde98ee17ae345cb5f6b5e2c27f5033e8ce782604051612d2491906145c7565b60405180910390a15050565b6000600760009054906101000a900473ffffffffffffffffffffffffffffffffffffffff16905081600760006101000a81548173ffffffffffffffffffffffffffffffffffffffff021916908373ffffffffffffffffffffffffffffffffffffffff1602179055508173ffffffffffffffffffffffffffffffffffffffff168173ffffffffffffffffffffffffffffffffffffffff167f8be0079c531659141344cd1fd0a4f28419497f9722a3daafe3b4186f6b6457e060405160405180910390a35050565b600080600090505b601080549050811015612e4d578260108281548110612e2057612e1f614dbc565b5b90600052602060002001541415612e3a5780915050612e57565b8080612e4590615355565b915050612dfe565b5060108054905090505b919050565b600080600090505b600b60008473ffffffffffffffffffffffffffffffffffffffff1673ffffffffffffffffffffffffffffffffffffffff16815260200190815260200160002080549050811015612f2d5783600b60008573ffffffffffffffffffffffffffffffffffffffff1673ffffffffffffffffffffffffffffffffffffffff1681526020019081526020016000208281548110612f0057612eff614dbc565b5b90600052602060002001541415612f1a5780915050612f74565b8080612f2590615355565b915050612e64565b50600b60008373ffffffffffffffffffffffffffffffffffffffff1673ffffffffffffffffffffffffffffffffffffffff1681526020019081526020016000208054905090505b92915050565b8173ffffffffffffffffffffffffffffffffffffffff168373ffffffffffffffffffffffffffffffffffffffff161415612fe9576040517f08c379a0000000000000000000000000000000000000000000000000000000008152600401612fe090615b99565b60405180910390fd5b80600560008573ffffffffffffffffffffffffffffffffffffffff1673ffffffffffffffffffffffffffffffffffffffff16815260200190815260200160002060008473ffffffffffffffffffffffffffffffffffffffff1673ffffffffffffffffffffffffffffffffffffffff16815260200190815260200160002060006101000a81548160ff0219169083151502179055508173ffffffffffffffffffffffffffffffffffffffff168373ffffffffffffffffffffffffffffffffffffffff167f17307eab39ab6107e8899845ad3d59bd9653f200f220920489ca2b5937696c31836040516130da91906141ab565b60405180910390a3505050565b6130f284848461243a565b6130fe84848484613c23565b61313d576040517f08c379a000000000000000000000000000000000000000000000000000000000815260040161313490615c2b565b60405180910390fd5b50505050565b606060405180602001604052806000815250905090565b606061316582612206565b600061316f613143565b9050600081511161318f57604051806020016040528060008152506131ba565b8061319984612963565b6040516020016131aa929190615591565b6040516020818303038152906040525b915050919050565b6000600f600083815260200190815260200160002090508060030154421015613220576040517f08c379a000000000000000000000000000000000000000000000000000000000815260040161321790615c97565b60405180910390fd5b8060010160009054906101000a900460ff1615613272576040517f08c379a000000000000000000000000000000000000000000000000000000000815260040161326990615d03565b60405180910390fd5b60018160010160006101000a81548160ff02191690831515021790555061329882610d5d565b73ffffffffffffffffffffffffffffffffffffffff168160010160019054906101000a900473ffffffffffffffffffffffffffffffffffffffff1673ffffffffffffffffffffffffffffffffffffffff161461349c57600e60009054906101000a900473ffffffffffffffffffffffffffffffffffffffff1673ffffffffffffffffffffffffffffffffffffffff166370a08231306040518263ffffffff1660e01b81526004016133499190614325565b60206040518083038186803b15801561336157600080fd5b505afa158015613375573d6000803e3d6000fd5b505050506040513d601f19601f820116820180604052508101906133999190614f5d565b816002015411156133df576040517f08c379a00000000000000000000000000000000000000000000000000000000081526004016133d690615d6f565b60405180910390fd5b600e60009054906101000a900473ffffffffffffffffffffffffffffffffffffffff1673ffffffffffffffffffffffffffffffffffffffff1663a9059cbb61342684610d5d565b83600201546040518363ffffffff1660e01b8152600401613448929190615d8f565b602060405180830381600087803b15801561346257600080fd5b505af1158015613476573d6000803e3d6000fd5b505050506040513d601f19601f8201168201806040525081019061349a9190615042565b505b8060010160019054906101000a900473ffffffffffffffffffffffffffffffffffffffff166009600084815260200190815260200160002060006101000a81548173ffffffffffffffffffffffffffffffffffffffff021916908373ffffffffffffffffffffffffffffffffffffffff1602179055506001600a600061352185610d5d565b73ffffffffffffffffffffffffffffffffffffffff1673ffffffffffffffffffffffffffffffffffffffff168152602001908152602001600020600082825461356a919061552e565b925050819055506001600a60008360010160019054906101000a900473ffffffffffffffffffffffffffffffffffffffff1673ffffffffffffffffffffffffffffffffffffffff1673ffffffffffffffffffffffffffffffffffffffff16815260200190815260200160002060008282546135e59190614e86565b92505081905550600b60008260010160019054906101000a900473ffffffffffffffffffffffffffffffffffffffff1673ffffffffffffffffffffffffffffffffffffffff1673ffffffffffffffffffffffffffffffffffffffff1681526020019081526020016000208290806001815401808255809150506001900390600052602060002001600090919091909150556136ad61368283610d5d565b8260010160019054906101000a900473ffffffffffffffffffffffffffffffffffffffff168461243a565b60006136b883612df6565b90506000601060016010805490506136d0919061552e565b815481106136e1576136e0614dbc565b5b906000526020600020015460108381548110613700576136ff614dbc565b5b906000526020600020018190555060108054806137205761371f615562565b5b600190038181906000526020600020016000905590556011839080600181540180825580915050600190039060005260206000209060060201600090919091909150600082015481600001556001820160009054906101000a900460ff168160010160006101000a81548160ff0219169083151502179055506001820160019054906101000a900473ffffffffffffffffffffffffffffffffffffffff168160010160016101000a81548173ffffffffffffffffffffffffffffffffffffffff021916908373ffffffffffffffffffffffffffffffffffffffff1602179055506002820154816002015560038201548160030155600482018160040190805461382a929190614036565b506005820181600501908054613841929190614088565b505050600090505b8260040180549050811015613a13578260010160019054906101000a900473ffffffffffffffffffffffffffffffffffffffff1673ffffffffffffffffffffffffffffffffffffffff168360040182815481106138a9576138a8614dbc565b5b9060005260206000200160009054906101000a900473ffffffffffffffffffffffffffffffffffffffff1673ffffffffffffffffffffffffffffffffffffffff1614613a0057600e60009054906101000a900473ffffffffffffffffffffffffffffffffffffffff1673ffffffffffffffffffffffffffffffffffffffff1663a9059cbb84600401838154811061394357613942614dbc565b5b9060005260206000200160009054906101000a900473ffffffffffffffffffffffffffffffffffffffff1685600501848154811061398457613983614dbc565b5b90600052602060002001546040518363ffffffff1660e01b81526004016139ac929190615d8f565b602060405180830381600087803b1580156139c657600080fd5b505af11580156139da573d6000803e3d6000fd5b505050506040513d601f19601f820116820180604052508101906139fe9190615042565b505b8080613a0b90615355565b915050613849565b50505050565b60007f01ffc9a7000000000000000000000000000000000000000000000000000000007bffffffffffffffffffffffffffffffffffffffffffffffffffffffff1916827bffffffffffffffffffffffffffffffffffffffffffffffffffffffff1916149050919050565b60008073ffffffffffffffffffffffffffffffffffffffff16613aa5836128ca565b73ffffffffffffffffffffffffffffffffffffffff1614159050919050565b50505050565b50505050565b600080600090507a184f03e93ff9f4daa797ed6e38ed64bf6a1f0100000000000000008310613b2e577a184f03e93ff9f4daa797ed6e38ed64bf6a1f0100000000000000008381613b2457613b236158b1565b5b0492506040810190505b6d04ee2d6d415b85acef81000000008310613b6b576d04ee2d6d415b85acef81000000008381613b6157613b606158b1565b5b0492506020810190505b662386f26fc100008310613b9a57662386f26fc100008381613b9057613b8f6158b1565b5b0492506010810190505b6305f5e1008310613bc3576305f5e1008381613bb957613bb86158b1565b5b0492506008810190505b6127108310613be8576127108381613bde57613bdd6158b1565b5b0492506004810190505b60648310613c0b5760648381613c0157613c006158b1565b5b0492506002810190505b600a8310613c1a576001810190505b80915050919050565b6000613c448473ffffffffffffffffffffffffffffffffffffffff16613dba565b15613dad578373ffffffffffffffffffffffffffffffffffffffff1663150b7a02613c6d612251565b8786866040518563ffffffff1660e01b8152600401613c8f9493929190615e0d565b602060405180830381600087803b158015613ca957600080fd5b505af1925050508015613cda57506040513d601f19601f82011682018060405250810190613cd79190615e6e565b60015b613d5d573d8060008114613d0a576040519150601f19603f3d011682016040523d82523d6000602084013e613d0f565b606091505b50600081511415613d55576040517f08c379a0000000000000000000000000000000000000000000000000000000008152600401613d4c90615c2b565b60405180910390fd5b805181602001fd5b63150b7a0260e01b7bffffffffffffffffffffffffffffffffffffffffffffffffffffffff1916817bffffffffffffffffffffffffffffffffffffffffffffffffffffffff191614915050613db2565b600190505b949350505050565b6000808273ffffffffffffffffffffffffffffffffffffffff163b119050919050565b828054613de990614c66565b90600052602060002090601f016020900481019282613e0b5760008555613e52565b82601f10613e2457805160ff1916838001178555613e52565b82800160010185558215613e52579182015b82811115613e51578251825591602001919060010190613e36565b5b509050613e5f91906140da565b5090565b82805482825590600052602060002090601f01602090048101928215613ef95791602002820160005b83821115613eca57835183826101000a81548160ff021916908360ff1602179055509260200192600101602081600001049283019260010302613e8c565b8015613ef75782816101000a81549060ff0219169055600101602081600001049283019260010302613eca565b505b509050613f0691906140da565b5090565b828054828255906000526020600020908101928215613f83579160200282015b82811115613f825782518260006101000a81548173ffffffffffffffffffffffffffffffffffffffff021916908373ffffffffffffffffffffffffffffffffffffffff16021790555091602001919060010190613f2a565b5b509050613f9091906140da565b5090565b828054828255906000526020600020908101928215613fd0579160200282015b82811115613fcf578251825591602001919060010190613fb4565b5b509050613fdd91906140da565b5090565b6040518060e0016040528060008152602001600015158152602001600073ffffffffffffffffffffffffffffffffffffffff168152602001600081526020016000815260200160608152602001606081525090565b8280548282559060005260206000209081019282156140775760005260206000209182015b8281111561407657825482559160010191906001019061405b565b5b50905061408491906140da565b5090565b8280548282559060005260206000209081019282156140c95760005260206000209182015b828111156140c85782548255916001019190600101906140ad565b5b5090506140d691906140da565b5090565b5b808211156140f35760008160009055506001016140db565b5090565b6000604051905090565b600080fd5b600080fd5b60007fffffffff0000000000000000000000000000000000000000000000000000000082169050919050565b6141408161410b565b811461414b57600080fd5b50565b60008135905061415d81614137565b92915050565b60006020828403121561417957614178614101565b5b60006141878482850161414e565b91505092915050565b60008115159050919050565b6141a581614190565b82525050565b60006020820190506141c0600083018461419c565b92915050565b600081519050919050565b600082825260208201905092915050565b60005b838110156142005780820151818401526020810190506141e5565b8381111561420f576000848401525b50505050565b6000601f19601f8301169050919050565b6000614231826141c6565b61423b81856141d1565b935061424b8185602086016141e2565b61425481614215565b840191505092915050565b600060208201905081810360008301526142798184614226565b905092915050565b6000819050919050565b61429481614281565b811461429f57600080fd5b50565b6000813590506142b18161428b565b92915050565b6000602082840312156142cd576142cc614101565b5b60006142db848285016142a2565b91505092915050565b600073ffffffffffffffffffffffffffffffffffffffff82169050919050565b600061430f826142e4565b9050919050565b61431f81614304565b82525050565b600060208201905061433a6000830184614316565b92915050565b61434981614304565b811461435457600080fd5b50565b60008135905061436681614340565b92915050565b6000806040838503121561438357614382614101565b5b600061439185828601614357565b92505060206143a2858286016142a2565b9150509250929050565b600080604083850312156143c3576143c2614101565b5b60006143d1858286016142a2565b92505060206143e2858286016142a2565b9150509250929050565b60008060006060848603121561440557614404614101565b5b600061441386828701614357565b935050602061442486828701614357565b9250506040614435868287016142a2565b9150509250925092565b600080fd5b600080fd5b600080fd5b60008083601f8401126144645761446361443f565b5b8235905067ffffffffffffffff81111561448157614480614444565b5b60208301915083600182028301111561449d5761449c614449565b5b9250929050565b600080600080604085870312156144be576144bd614101565b5b600085013567ffffffffffffffff8111156144dc576144db614106565b5b6144e88782880161444e565b9450945050602085013567ffffffffffffffff81111561450b5761450a614106565b5b6145178782880161444e565b925092505092959194509250565b600060ff82169050919050565b61453b81614525565b811461454657600080fd5b50565b60008135905061455881614532565b92915050565b60006020828403121561457457614573614101565b5b600061458284828501614549565b91505092915050565b6000602082840312156145a1576145a0614101565b5b60006145af84828501614357565b91505092915050565b6145c181614281565b82525050565b60006020820190506145dc60008301846145b8565b92915050565b6000806000606084860312156145fb576145fa614101565b5b6000614609868287016142a2565b935050602061461a868287016142a2565b925050604061462b86828701614357565b9150509250925092565b61463e81614190565b811461464957600080fd5b50565b60008135905061465b81614635565b92915050565b6000806040838503121561467857614677614101565b5b600061468685828601614357565b92505060206146978582860161464c565b9150509250929050565b600080fd5b7f4e487b7100000000000000000000000000000000000000000000000000000000600052604160045260246000fd5b6146de82614215565b810181811067ffffffffffffffff821117156146fd576146fc6146a6565b5b80604052505050565b60006147106140f7565b905061471c82826146d5565b919050565b600067ffffffffffffffff82111561473c5761473b6146a6565b5b61474582614215565b9050602081019050919050565b82818337600083830152505050565b600061477461476f84614721565b614706565b9050828152602081018484840111156147905761478f6146a1565b5b61479b848285614752565b509392505050565b600082601f8301126147b8576147b761443f565b5b81356147c8848260208601614761565b91505092915050565b600080600080608085870312156147eb576147ea614101565b5b60006147f987828801614357565b945050602061480a87828801614357565b935050604061481b878288016142a2565b925050606085013567ffffffffffffffff81111561483c5761483b614106565b5b614848878288016147a3565b91505092959194509250565b600081519050919050565b600082825260208201905092915050565b6000819050602082019050919050565b61488981614281565b82525050565b61489881614190565b82525050565b6148a781614304565b82525050565b600081519050919050565b600082825260208201905092915050565b6000819050602082019050919050565b60006148e5838361489e565b60208301905092915050565b6000602082019050919050565b6000614909826148ad565b61491381856148b8565b935061491e836148c9565b8060005b8381101561494f57815161493688826148d9565b9750614941836148f1565b925050600181019050614922565b5085935050505092915050565b600081519050919050565b600082825260208201905092915050565b6000819050602082019050919050565b60006149948383614880565b60208301905092915050565b6000602082019050919050565b60006149b88261495c565b6149c28185614967565b93506149cd83614978565b8060005b838110156149fe5781516149e58882614988565b97506149f0836149a0565b9250506001810190506149d1565b5085935050505092915050565b600060e083016000830151614a236000860182614880565b506020830151614a36602086018261488f565b506040830151614a49604086018261489e565b506060830151614a5c6060860182614880565b506080830151614a6f6080860182614880565b5060a083015184820360a0860152614a8782826148fe565b91505060c083015184820360c0860152614aa182826149ad565b9150508091505092915050565b6000614aba8383614a0b565b905092915050565b6000602082019050919050565b6000614ada82614854565b614ae4818561485f565b935083602082028501614af685614870565b8060005b85811015614b325784840389528151614b138582614aae565b9450614b1e83614ac2565b925060208a01995050600181019050614afa565b50829750879550505050505092915050565b60006020820190508181036000830152614b5e8184614acf565b905092915050565b60008060408385031215614b7d57614b7c614101565b5b6000614b8b85828601614357565b9250506020614b9c85828601614357565b9150509250929050565b600082825260208201905092915050565b6000614bc28261495c565b614bcc8185614ba6565b9350614bd783614978565b8060005b83811015614c08578151614bef8882614988565b9750614bfa836149a0565b925050600181019050614bdb565b5085935050505092915050565b60006020820190508181036000830152614c2f8184614bb7565b905092915050565b7f4e487b7100000000000000000000000000000000000000000000000000000000600052602260045260246000fd5b60006002820490506001821680614c7e57607f821691505b60208210811415614c9257614c91614c37565b5b50919050565b7f4552433732313a20617070726f76616c20746f2063757272656e74206f776e6560008201527f7200000000000000000000000000000000000000000000000000000000000000602082015250565b6000614cf46021836141d1565b9150614cff82614c98565b604082019050919050565b60006020820190508181036000830152614d2381614ce7565b9050919050565b7f4552433732313a20617070726f76652063616c6c6572206973206e6f7420746f60008201527f6b656e206f776e6572206f7220617070726f76656420666f7220616c6c000000602082015250565b6000614d86603d836141d1565b9150614d9182614d2a565b604082019050919050565b60006020820190508181036000830152614db581614d79565b9050919050565b7f4e487b7100000000000000000000000000000000000000000000000000000000600052603260045260246000fd5b7f41756374696f6e2068617320656e6465642e0000000000000000000000000000600082015250565b6000614e216012836141d1565b9150614e2c82614deb565b602082019050919050565b60006020820190508181036000830152614e5081614e14565b9050919050565b7f4e487b7100000000000000000000000000000000000000000000000000000000600052601160045260246000fd5b6000614e9182614281565b9150614e9c83614281565b9250827fffffffffffffffffffffffffffffffffffffffffffffffffffffffffffffffff03821115614ed157614ed0614e57565b5b828201905092915050565b7f546865726520697320616c7265616479206120686967686572206269642e0000600082015250565b6000614f12601e836141d1565b9150614f1d82614edc565b602082019050919050565b60006020820190508181036000830152614f4181614f05565b9050919050565b600081519050614f578161428b565b92915050565b600060208284031215614f7357614f72614101565b5b6000614f8184828501614f48565b91505092915050565b7f496e73756666696369656e74204652542062616c616e63650000000000000000600082015250565b6000614fc06018836141d1565b9150614fcb82614f8a565b602082019050919050565b60006020820190508181036000830152614fef81614fb3565b9050919050565b600060608201905061500b6000830186614316565b6150186020830185614316565b61502560408301846145b8565b949350505050565b60008151905061503c81614635565b92915050565b60006020828403121561505857615057614101565b5b60006150668482850161502d565b91505092915050565b7f4552433732313a2063616c6c6572206973206e6f7420746f6b656e206f776e6560008201527f72206f7220617070726f76656400000000000000000000000000000000000000602082015250565b60006150cb602d836141d1565b91506150d68261506f565b604082019050919050565b600060208201905081810360008301526150fa816150be565b9050919050565b600061510d83856141d1565b935061511a838584614752565b61512383614215565b840190509392505050565b60006020820190508181036000830152615149818486615101565b90509392505050565b7f4552433732313a20696e76616c696420746f6b656e2049440000000000000000600082015250565b60006151886018836141d1565b915061519382615152565b602082019050919050565b600060208201905081810360008301526151b78161517b565b9050919050565b7f4e6f20636f6c6c656374696f6e7320617661696c61626c650000000000000000600082015250565b60006151f46018836141d1565b91506151ff826151be565b602082019050919050565b60006020820190508181036000830152615223816151e7565b9050919050565b7f496e76616c696420636f6c6c656374696f6e206c656e67746800000000000000600082015250565b60006152606019836141d1565b915061526b8261522a565b602082019050919050565b6000602082019050818103600083015261528f81615253565b9050919050565b7f496e76616c696420666f72636564207261726974790000000000000000000000600082015250565b60006152cc6015836141d1565b91506152d782615296565b602082019050919050565b600060208201905081810360008301526152fb816152bf565b9050919050565b600081905092915050565b6000615318826141c6565b6153228185615302565b93506153328185602086016141e2565b80840191505092915050565b600061534a828461530d565b915081905092915050565b600061536082614281565b91507fffffffffffffffffffffffffffffffffffffffffffffffffffffffffffffffff82141561539357615392614e57565b5b600182019050919050565b7f4552433732313a2061646472657373207a65726f206973206e6f74206120766160008201527f6c6964206f776e65720000000000000000000000000000000000000000000000602082015250565b60006153fa6029836141d1565b91506154058261539e565b604082019050919050565b60006020820190508181036000830152615429816153ed565b9050919050565b7f566f7573206e6520706f73736564657a2070617320636574746520766f69747560008201527f72652e0000000000000000000000000000000000000000000000000000000000602082015250565b600061548c6023836141d1565b915061549782615430565b604082019050919050565b600060208201905081810360008301526154bb8161547f565b9050919050565b7f436574746520766f6974757265206573742064656a6120656e2076656e746500600082015250565b60006154f8601f836141d1565b9150615503826154c2565b602082019050919050565b60006020820190508181036000830152615527816154eb565b9050919050565b600061553982614281565b915061554483614281565b92508282101561555757615556614e57565b5b828203905092915050565b7f4e487b7100000000000000000000000000000000000000000000000000000000600052603160045260246000fd5b600061559d828561530d565b91506155a9828461530d565b91508190509392505050565b7f4f776e61626c653a206e6577206f776e657220697320746865207a65726f206160008201527f6464726573730000000000000000000000000000000000000000000000000000602082015250565b60006156116026836141d1565b915061561c826155b5565b604082019050919050565b6000602082019050818103600083015261564081615604565b9050919050565b7f4552433732313a207472616e736665722066726f6d20696e636f72726563742060008201527f6f776e6572000000000000000000000000000000000000000000000000000000602082015250565b60006156a36025836141d1565b91506156ae82615647565b604082019050919050565b600060208201905081810360008301526156d281615696565b9050919050565b7f4552433732313a207472616e7366657220746f20746865207a65726f2061646460008201527f7265737300000000000000000000000000000000000000000000000000000000602082015250565b60006157356024836141d1565b9150615740826156d9565b604082019050919050565b6000602082019050818103600083015261576481615728565b9050919050565b7f4f776e61626c653a2063616c6c6572206973206e6f7420746865206f776e6572600082015250565b60006157a16020836141d1565b91506157ac8261576b565b602082019050919050565b600060208201905081810360008301526157d081615794565b9050919050565b60006157e282614525565b91506157ed83614525565b925082821015615800576157ff614e57565b5b828203905092915050565b6000819050919050565b61582661582182614281565b61580b565b82525050565b60008160601b9050919050565b60006158448261582c565b9050919050565b600061585682615839565b9050919050565b61586e61586982614304565b61584b565b82525050565b60006158808286615815565b602082019150615890828561585d565b6014820191506158a08284615815565b602082019150819050949350505050565b7f4e487b7100000000000000000000000000000000000000000000000000000000600052601260045260246000fd5b60006158eb82614281565b91506158f683614281565b925082615906576159056158b1565b5b828206905092915050565b7f4552433732313a206d696e7420746f20746865207a65726f2061646472657373600082015250565b60006159476020836141d1565b915061595282615911565b602082019050919050565b600060208201905081810360008301526159768161593a565b9050919050565b7f4552433732313a20746f6b656e20616c7265616479206d696e74656400000000600082015250565b60006159b3601c836141d1565b91506159be8261597d565b602082019050919050565b600060208201905081810360008301526159e2816159a6565b9050919050565b7f2f00000000000000000000000000000000000000000000000000000000000000600082015250565b6000615a1f600183615302565b9150615a2a826159e9565b600182019050919050565b7f2e6a736f6e000000000000000000000000000000000000000000000000000000600082015250565b6000615a6b600583615302565b9150615a7682615a35565b600582019050919050565b6000615a8d828561530d565b9150615a9882615a12565b9150615aa4828461530d565b9150615aaf82615a5e565b91508190509392505050565b7f45524337323155524953746f726167653a2055524920736574206f66206e6f6e60008201527f6578697374656e7420746f6b656e000000000000000000000000000000000000602082015250565b6000615b17602e836141d1565b9150615b2282615abb565b604082019050919050565b60006020820190508181036000830152615b4681615b0a565b9050919050565b7f4552433732313a20617070726f766520746f2063616c6c657200000000000000600082015250565b6000615b836019836141d1565b9150615b8e82615b4d565b602082019050919050565b60006020820190508181036000830152615bb281615b76565b9050919050565b7f4552433732313a207472616e7366657220746f206e6f6e20455243373231526560008201527f63656976657220696d706c656d656e7465720000000000000000000000000000602082015250565b6000615c156032836141d1565b9150615c2082615bb9565b604082019050919050565b60006020820190508181036000830152615c4481615c08565b9050919050565b7f41756374696f6e206e6f7420656e6465642e0000000000000000000000000000600082015250565b6000615c816012836141d1565b9150615c8c82615c4b565b602082019050919050565b60006020820190508181036000830152615cb081615c74565b9050919050565b7f4c27656e636865726520612064656a6120657465207265676c65652e00000000600082015250565b6000615ced601c836141d1565b9150615cf882615cb7565b602082019050919050565b60006020820190508181036000830152615d1c81615ce0565b9050919050565b7f496e73756666696369656e7420746f6b656e2062616c616e6365000000000000600082015250565b6000615d59601a836141d1565b9150615d6482615d23565b602082019050919050565b60006020820190508181036000830152615d8881615d4c565b9050919050565b6000604082019050615da46000830185614316565b615db160208301846145b8565b9392505050565b600081519050919050565b600082825260208201905092915050565b6000615ddf82615db8565b615de98185615dc3565b9350615df98185602086016141e2565b615e0281614215565b840191505092915050565b6000608082019050615e226000830187614316565b615e2f6020830186614316565b615e3c60408301856145b8565b8181036060830152615e4e8184615dd4565b905095945050505050565b600081519050615e6881614137565b92915050565b600060208284031215615e8457615e83614101565b5b6000615e9284828501615e59565b9150509291505056fea2646970667358221220b6266eed45bc63641df654b13ae02c04267a0ef8d91af474d621384bf927848564736f6c63430008090033",
  "linkReferences": {},
  "deployedLinkReferences": {}
}