{
  "_format": "hh-sol-artifact-1",
  "contractName": "Race",
  "sourceName": "contracts/Race.sol",
  "abi": [
    {
      "inputs": [
        {
          "internalType": "address",
          "name": "_nftCarAddress",
          "type": "address"
        },
        {
          "internalType": "address",
          "name": "_fCarTokenAddress",
          "type": "address"
        }
      ],
      "stateMutability": "nonpayable",
      "type": "constructor"
    },
    {
      "anonymous": false,
      "inputs": [
        {
          "indexed": false,
          "internalType": "address",
          "name": "_winner",
          "type": "address"
        }
      ],
      "name": "Win",
      "type": "event"
    },
    {
      "inputs": [
        {
          "internalType": "uint256",
          "name": "",
          "type": "uint256"
        }
      ],
      "name": "bets",
      "outputs": [
        {
          "internalType": "address",
          "name": "bettor",
          "type": "address"
        },
        {
          "internalType": "uint256",
          "name": "amount",
          "type": "uint256"
        },
        {
          "internalType": "uint256",
          "name": "carId",
          "type": "uint256"
        }
      ],
      "stateMutability": "view",
      "type": "function"
    },
    {
      "inputs": [
        {
          "internalType": "uint256",
          "name": "_winningCarId",
          "type": "uint256"
        }
      ],
      "name": "distributeWinnings",
      "outputs": [],
      "stateMutability": "nonpayable",
      "type": "function"
    },
    {
      "inputs": [
        {
          "internalType": "uint256",
          "name": "_tokenId",
          "type": "uint256"
        },
        {
          "internalType": "uint8",
          "name": "_speed",
          "type": "uint8"
        },
        {
          "internalType": "uint8",
          "name": "_acceleration",
          "type": "uint8"
        },
        {
          "internalType": "uint8",
          "name": "_maniability",
          "type": "uint8"
        }
      ],
      "name": "enterRace",
      "outputs": [],
      "stateMutability": "nonpayable",
      "type": "function"
    },
    {
      "inputs": [],
      "name": "getBets",
      "outputs": [
        {
          "components": [
            {
              "internalType": "address",
              "name": "bettor",
              "type": "address"
            },
            {
              "internalType": "uint256",
              "name": "amount",
              "type": "uint256"
            },
            {
              "internalType": "uint256",
              "name": "carId",
              "type": "uint256"
            }
          ],
          "internalType": "struct Race.Bet[]",
          "name": "",
          "type": "tuple[]"
        }
      ],
      "stateMutability": "view",
      "type": "function"
    },
    {
      "inputs": [],
      "name": "getRaceEntries",
      "outputs": [
        {
          "components": [
            {
              "internalType": "uint256",
              "name": "tokenId",
              "type": "uint256"
            },
            {
              "internalType": "address",
              "name": "owner",
              "type": "address"
            },
            {
              "internalType": "uint8",
              "name": "speed",
              "type": "uint8"
            },
            {
              "internalType": "uint8",
              "name": "acceleration",
              "type": "uint8"
            },
            {
              "internalType": "uint8",
              "name": "maniability",
              "type": "uint8"
            }
          ],
          "internalType": "struct Race.RaceEntry[]",
          "name": "",
          "type": "tuple[]"
        }
      ],
      "stateMutability": "view",
      "type": "function"
    },
    {
      "inputs": [
        {
          "internalType": "uint256",
          "name": "_carId",
          "type": "uint256"
        },
        {
          "internalType": "uint256",
          "name": "_amount",
          "type": "uint256"
        }
      ],
      "name": "placeBet",
      "outputs": [],
      "stateMutability": "nonpayable",
      "type": "function"
    },
    {
      "inputs": [
        {
          "internalType": "uint256",
          "name": "",
          "type": "uint256"
        }
      ],
      "name": "raceEntries",
      "outputs": [
        {
          "internalType": "uint256",
          "name": "tokenId",
          "type": "uint256"
        },
        {
          "internalType": "address",
          "name": "owner",
          "type": "address"
        },
        {
          "internalType": "uint8",
          "name": "speed",
          "type": "uint8"
        },
        {
          "internalType": "uint8",
          "name": "acceleration",
          "type": "uint8"
        },
        {
          "internalType": "uint8",
          "name": "maniability",
          "type": "uint8"
        }
      ],
      "stateMutability": "view",
      "type": "function"
    },
    {
      "inputs": [],
      "name": "raceFee",
      "outputs": [
        {
          "internalType": "uint256",
          "name": "",
          "type": "uint256"
        }
      ],
      "stateMutability": "view",
      "type": "function"
    },
    {
      "inputs": [],
      "name": "racePrice",
      "outputs": [
        {
          "internalType": "uint256",
          "name": "",
          "type": "uint256"
        }
      ],
      "stateMutability": "view",
      "type": "function"
    },
    {
      "inputs": [],
      "name": "runRace",
      "outputs": [
        {
          "internalType": "address",
          "name": "",
          "type": "address"
        }
      ],
      "stateMutability": "nonpayable",
      "type": "function"
    }
  ],
  "bytecode": "0x6080604052600a6004553480156200001657600080fd5b5060405162001ffc38038062001ffc83398181016040528101906200003c91906200012f565b816000806101000a81548173ffffffffffffffffffffffffffffffffffffffff021916908373ffffffffffffffffffffffffffffffffffffffff16021790555080600160006101000a81548173ffffffffffffffffffffffffffffffffffffffff021916908373ffffffffffffffffffffffffffffffffffffffff160217905550505062000176565b600080fd5b600073ffffffffffffffffffffffffffffffffffffffff82169050919050565b6000620000f782620000ca565b9050919050565b6200010981620000ea565b81146200011557600080fd5b50565b6000815190506200012981620000fe565b92915050565b60008060408385031215620001495762000148620000c5565b5b6000620001598582860162000118565b92505060206200016c8582860162000118565b9150509250929050565b611e7680620001866000396000f3fe608060405234801561001057600080fd5b506004361061009e5760003560e01c8063b68a4f4611610066578063b68a4f4614610149578063b8a5508314610167578063bb5af5c614610183578063beab0105146101a1578063fa2aad34146101bf5761009e565b8063108806c5146100a357806322af00fa146100c15780634544c48c146100f35780634afe62b51461010f578063a6afd5fd1461012b575b600080fd5b6100ab6101f3565b6040516100b8919061138e565b60405180910390f35b6100db60048036038101906100d691906113e4565b610507565b6040516100ea93929190611420565b60405180910390f35b61010d600480360381019061010891906113e4565b610561565b005b61012960048036038101906101249190611457565b61092f565b005b610133610b04565b60405161014091906115a6565b60405180910390f35b610151610bcd565b60405161015e91906116fb565b60405180910390f35b610181600480360381019061017c9190611749565b610ce3565b005b61018b611132565b60405161019891906117b0565b60405180910390f35b6101a9611138565b6040516101b691906117b0565b60405180910390f35b6101d960048036038101906101d491906113e4565b61113e565b6040516101ea9594939291906117da565b60405180910390f35b6000806002805490501161023c576040517f08c379a0000000000000000000000000000000000000000000000000000000008152600401610233906118b0565b60405180910390fd5b60008060005b60028054905081101561032657600060028281548110610265576102646118d0565b5b906000526020600020906002020160010160169054906101000a900460ff1660028381548110610298576102976118d0565b5b906000526020600020906002020160010160159054906101000a900460ff16600284815481106102cb576102ca6118d0565b5b906000526020600020906002020160010160149054906101000a900460ff166102f4919061192e565b6102fe919061192e565b60ff16905082811115610312578092508193505b50808061031e90611965565b915050610242565b5060006002838154811061033d5761033c6118d0565b5b90600052602060002090600202016000015490506002600061035f9190611235565b61036881610561565b60006003819055507fc94e26bc371c19185b9e577ef339d2a5bca910d48092cbb160550b311ddd8d9860008054906101000a900473ffffffffffffffffffffffffffffffffffffffff1673ffffffffffffffffffffffffffffffffffffffff16636352211e836040518263ffffffff1660e01b81526004016103ea91906117b0565b60206040518083038186803b15801561040257600080fd5b505afa158015610416573d6000803e3d6000fd5b505050506040513d601f19601f8201168201806040525081019061043a91906119da565b604051610447919061138e565b60405180910390a160008060009054906101000a900473ffffffffffffffffffffffffffffffffffffffff1673ffffffffffffffffffffffffffffffffffffffff16636352211e836040518263ffffffff1660e01b81526004016104ab91906117b0565b60206040518083038186803b1580156104c357600080fd5b505afa1580156104d7573d6000803e3d6000fd5b505050506040513d601f19601f820116820180604052508101906104fb91906119da565b90508094505050505090565b6005818154811061051757600080fd5b90600052602060002090600302016000915090508060000160009054906101000a900473ffffffffffffffffffffffffffffffffffffffff16908060010154908060020154905083565b60008060005b60058054905081101561061b578360058281548110610589576105886118d0565b5b90600052602060002090600302016002015414156105d557600581815481106105b5576105b46118d0565b5b906000526020600020906003020160010154836105d29190611a07565b92505b600581815481106105e9576105e86118d0565b5b906000526020600020906003020160010154826106069190611a07565b9150808061061390611965565b915050610567565b5060005b6005805490508110156107a3578360058281548110610641576106406118d0565b5b9060005260206000209060030201600201541415610790576000828460058481548110610671576106706118d0565b5b90600052602060002090600302016001015461068d9190611a8c565b6106979190611abd565b9050600160009054906101000a900473ffffffffffffffffffffffffffffffffffffffff1673ffffffffffffffffffffffffffffffffffffffff1663a9059cbb600584815481106106eb576106ea6118d0565b5b906000526020600020906003020160000160009054906101000a900473ffffffffffffffffffffffffffffffffffffffff16836040518363ffffffff1660e01b815260040161073b929190611b17565b602060405180830381600087803b15801561075557600080fd5b505af1158015610769573d6000803e3d6000fd5b505050506040513d601f19601f8201168201806040525081019061078d9190611b78565b50505b808061079b90611965565b91505061061f565b506000606460556003546107b79190611abd565b6107c19190611a8c565b9050600160009054906101000a900473ffffffffffffffffffffffffffffffffffffffff1673ffffffffffffffffffffffffffffffffffffffff1663a9059cbb60008054906101000a900473ffffffffffffffffffffffffffffffffffffffff1673ffffffffffffffffffffffffffffffffffffffff16636352211e876040518263ffffffff1660e01b815260040161085a91906117b0565b60206040518083038186803b15801561087257600080fd5b505afa158015610886573d6000803e3d6000fd5b505050506040513d601f19601f820116820180604052508101906108aa91906119da565b836040518363ffffffff1660e01b81526004016108c8929190611b17565b602060405180830381600087803b1580156108e257600080fd5b505af11580156108f6573d6000803e3d6000fd5b505050506040513d601f19601f8201168201806040525081019061091a9190611b78565b50600560006109299190611259565b50505050565b610938826111cb565b610977576040517f08c379a000000000000000000000000000000000000000000000000000000000815260040161096e90611c17565b60405180910390fd5b600160009054906101000a900473ffffffffffffffffffffffffffffffffffffffff1673ffffffffffffffffffffffffffffffffffffffff166323b872dd3330846040518463ffffffff1660e01b81526004016109d693929190611c37565b602060405180830381600087803b1580156109f057600080fd5b505af1158015610a04573d6000803e3d6000fd5b505050506040513d601f19601f82011682018060405250810190610a289190611b78565b5060006064605a83610a3a9190611abd565b610a449190611a8c565b9050600560405180606001604052803373ffffffffffffffffffffffffffffffffffffffff16815260200183815260200185815250908060018154018082558091505060019003906000526020600020906003020160009091909190915060008201518160000160006101000a81548173ffffffffffffffffffffffffffffffffffffffff021916908373ffffffffffffffffffffffffffffffffffffffff16021790555060208201518160010155604082015181600201555050505050565b60606005805480602002602001604051908101604052809291908181526020016000905b82821015610bc457838290600052602060002090600302016040518060600160405290816000820160009054906101000a900473ffffffffffffffffffffffffffffffffffffffff1673ffffffffffffffffffffffffffffffffffffffff1673ffffffffffffffffffffffffffffffffffffffff1681526020016001820154815260200160028201548152505081526020019060010190610b28565b50505050905090565b60606002805480602002602001604051908101604052809291908181526020016000905b82821015610cda57838290600052602060002090600202016040518060a0016040529081600082015481526020016001820160009054906101000a900473ffffffffffffffffffffffffffffffffffffffff1673ffffffffffffffffffffffffffffffffffffffff1673ffffffffffffffffffffffffffffffffffffffff1681526020016001820160149054906101000a900460ff1660ff1660ff1681526020016001820160159054906101000a900460ff1660ff1660ff1681526020016001820160169054906101000a900460ff1660ff1660ff168152505081526020019060010190610bf1565b50505050905090565b3373ffffffffffffffffffffffffffffffffffffffff1660008054906101000a900473ffffffffffffffffffffffffffffffffffffffff1673ffffffffffffffffffffffffffffffffffffffff16636352211e866040518263ffffffff1660e01b8152600401610d5391906117b0565b60206040518083038186803b158015610d6b57600080fd5b505afa158015610d7f573d6000803e3d6000fd5b505050506040513d601f19601f82011682018060405250810190610da391906119da565b73ffffffffffffffffffffffffffffffffffffffff1614610df9576040517f08c379a0000000000000000000000000000000000000000000000000000000008152600401610df090611d06565b60405180910390fd5b600454600160009054906101000a900473ffffffffffffffffffffffffffffffffffffffff1673ffffffffffffffffffffffffffffffffffffffff166370a08231336040518263ffffffff1660e01b8152600401610e57919061138e565b60206040518083038186803b158015610e6f57600080fd5b505afa158015610e83573d6000803e3d6000fd5b505050506040513d601f19601f82011682018060405250810190610ea79190611d3b565b11610ee7576040517f08c379a0000000000000000000000000000000000000000000000000000000008152600401610ede90611db4565b60405180910390fd5b60006040518060a001604052808681526020013373ffffffffffffffffffffffffffffffffffffffff1681526020018560ff1681526020018460ff1681526020018360ff168152509050610f3a856111cb565b15610f7a576040517f08c379a0000000000000000000000000000000000000000000000000000000008152600401610f7190611e20565b60405180910390fd5b600160009054906101000a900473ffffffffffffffffffffffffffffffffffffffff1673ffffffffffffffffffffffffffffffffffffffff166323b872dd33306004546040518463ffffffff1660e01b8152600401610fdb93929190611c37565b602060405180830381600087803b158015610ff557600080fd5b505af1158015611009573d6000803e3d6000fd5b505050506040513d601f19601f8201168201806040525081019061102d9190611b78565b50600454600360008282546110429190611a07565b9250508190555060028190806001815401808255809150506001900390600052602060002090600202016000909190919091506000820151816000015560208201518160010160006101000a81548173ffffffffffffffffffffffffffffffffffffffff021916908373ffffffffffffffffffffffffffffffffffffffff16021790555060408201518160010160146101000a81548160ff021916908360ff16021790555060608201518160010160156101000a81548160ff021916908360ff16021790555060808201518160010160166101000a81548160ff021916908360ff16021790555050505050505050565b60035481565b60045481565b6002818154811061114e57600080fd5b90600052602060002090600202016000915090508060000154908060010160009054906101000a900473ffffffffffffffffffffffffffffffffffffffff16908060010160149054906101000a900460ff16908060010160159054906101000a900460ff16908060010160169054906101000a900460ff16905085565b600080600090505b60028054905081101561122a5782600282815481106111f5576111f46118d0565b5b9060005260206000209060020201600001541415611217576001915050611230565b808061122290611965565b9150506111d3565b50600090505b919050565b5080546000825560020290600052602060002090810190611256919061127d565b50565b508054600082556003029060005260206000209081019061127a91906112ff565b50565b5b808211156112fb576000808201600090556001820160006101000a81549073ffffffffffffffffffffffffffffffffffffffff02191690556001820160146101000a81549060ff02191690556001820160156101000a81549060ff02191690556001820160166101000a81549060ff02191690555060020161127e565b5090565b5b8082111561134957600080820160006101000a81549073ffffffffffffffffffffffffffffffffffffffff02191690556001820160009055600282016000905550600301611300565b5090565b600073ffffffffffffffffffffffffffffffffffffffff82169050919050565b60006113788261134d565b9050919050565b6113888161136d565b82525050565b60006020820190506113a3600083018461137f565b92915050565b600080fd5b6000819050919050565b6113c1816113ae565b81146113cc57600080fd5b50565b6000813590506113de816113b8565b92915050565b6000602082840312156113fa576113f96113a9565b5b6000611408848285016113cf565b91505092915050565b61141a816113ae565b82525050565b6000606082019050611435600083018661137f565b6114426020830185611411565b61144f6040830184611411565b949350505050565b6000806040838503121561146e5761146d6113a9565b5b600061147c858286016113cf565b925050602061148d858286016113cf565b9150509250929050565b600081519050919050565b600082825260208201905092915050565b6000819050602082019050919050565b6114cc8161136d565b82525050565b6114db816113ae565b82525050565b6060820160008201516114f760008501826114c3565b50602082015161150a60208501826114d2565b50604082015161151d60408501826114d2565b50505050565b600061152f83836114e1565b60608301905092915050565b6000602082019050919050565b600061155382611497565b61155d81856114a2565b9350611568836114b3565b8060005b838110156115995781516115808882611523565b975061158b8361153b565b92505060018101905061156c565b5085935050505092915050565b600060208201905081810360008301526115c08184611548565b905092915050565b600081519050919050565b600082825260208201905092915050565b6000819050602082019050919050565b600060ff82169050919050565b61160a816115f4565b82525050565b60a08201600082015161162660008501826114d2565b50602082015161163960208501826114c3565b50604082015161164c6040850182611601565b50606082015161165f6060850182611601565b5060808201516116726080850182611601565b50505050565b60006116848383611610565b60a08301905092915050565b6000602082019050919050565b60006116a8826115c8565b6116b281856115d3565b93506116bd836115e4565b8060005b838110156116ee5781516116d58882611678565b97506116e083611690565b9250506001810190506116c1565b5085935050505092915050565b60006020820190508181036000830152611715818461169d565b905092915050565b611726816115f4565b811461173157600080fd5b50565b6000813590506117438161171d565b92915050565b60008060008060808587031215611763576117626113a9565b5b6000611771878288016113cf565b945050602061178287828801611734565b935050604061179387828801611734565b92505060606117a487828801611734565b91505092959194509250565b60006020820190506117c56000830184611411565b92915050565b6117d4816115f4565b82525050565b600060a0820190506117ef6000830188611411565b6117fc602083018761137f565b61180960408301866117cb565b61181660608301856117cb565b61182360808301846117cb565b9695505050505050565b600082825260208201905092915050565b7f496c206e2779206120706173206427656e74726565732064616e73206c61206360008201527f6f75727365000000000000000000000000000000000000000000000000000000602082015250565b600061189a60258361182d565b91506118a58261183e565b604082019050919050565b600060208201905081810360008301526118c98161188d565b9050919050565b7f4e487b7100000000000000000000000000000000000000000000000000000000600052603260045260246000fd5b7f4e487b7100000000000000000000000000000000000000000000000000000000600052601160045260246000fd5b6000611939826115f4565b9150611944836115f4565b92508260ff0382111561195a576119596118ff565b5b828201905092915050565b6000611970826113ae565b91507fffffffffffffffffffffffffffffffffffffffffffffffffffffffffffffffff8214156119a3576119a26118ff565b5b600182019050919050565b6119b78161136d565b81146119c257600080fd5b50565b6000815190506119d4816119ae565b92915050565b6000602082840312156119f0576119ef6113a9565b5b60006119fe848285016119c5565b91505092915050565b6000611a12826113ae565b9150611a1d836113ae565b9250827fffffffffffffffffffffffffffffffffffffffffffffffffffffffffffffffff03821115611a5257611a516118ff565b5b828201905092915050565b7f4e487b7100000000000000000000000000000000000000000000000000000000600052601260045260246000fd5b6000611a97826113ae565b9150611aa2836113ae565b925082611ab257611ab1611a5d565b5b828204905092915050565b6000611ac8826113ae565b9150611ad3836113ae565b9250817fffffffffffffffffffffffffffffffffffffffffffffffffffffffffffffffff0483118215151615611b0c57611b0b6118ff565b5b828202905092915050565b6000604082019050611b2c600083018561137f565b611b396020830184611411565b9392505050565b60008115159050919050565b611b5581611b40565b8114611b6057600080fd5b50565b600081519050611b7281611b4c565b92915050565b600060208284031215611b8e57611b8d6113a9565b5b6000611b9c84828501611b63565b91505092915050565b7f436574746520766f6974757265206e652070617274696369706520706173206160008201527f206c6120636f7572736500000000000000000000000000000000000000000000602082015250565b6000611c01602a8361182d565b9150611c0c82611ba5565b604082019050919050565b60006020820190508181036000830152611c3081611bf4565b9050919050565b6000606082019050611c4c600083018661137f565b611c59602083018561137f565b611c666040830184611411565b949350505050565b7f566f757320646576657a2065747265206c652070726f7072696574616972652060008201527f6475204e465420706f757220656e747265722064616e73206c6120636f75727360208201527f6500000000000000000000000000000000000000000000000000000000000000604082015250565b6000611cf060418361182d565b9150611cfb82611c6e565b606082019050919050565b60006020820190508181036000830152611d1f81611ce3565b9050919050565b600081519050611d35816113b8565b92915050565b600060208284031215611d5157611d506113a9565b5b6000611d5f84828501611d26565b91505092915050565b7f4e6f7420656e6f75676820746f6b656e00000000000000000000000000000000600082015250565b6000611d9e60108361182d565b9150611da982611d68565b602082019050919050565b60006020820190508181036000830152611dcd81611d91565b9050919050565b7f416c726561647920696e20612072616365000000000000000000000000000000600082015250565b6000611e0a60118361182d565b9150611e1582611dd4565b602082019050919050565b60006020820190508181036000830152611e3981611dfd565b905091905056fea2646970667358221220ce8eb9aa420d141a7c256f1559948f64edfe55181562c31b38232fdd5473fe1564736f6c63430008090033",
  "linkReferences": {},
  "deployedLinkReferences": {}
}