{
  "_format": "hh-sol-artifact-1",
  "contractName": "Race",
  "sourceName": "contracts/Race.sol",
  "abi": [
    {
      "inputs": [
        {
          "internalType": "address",
          "name": "_nftCarAddress",
          "type": "address"
        }
      ],
      "stateMutability": "nonpayable",
      "type": "constructor"
    },
    {
      "inputs": [
        {
          "internalType": "uint256",
          "name": "_tokenId",
          "type": "uint256"
        }
      ],
      "name": "enterRace",
      "outputs": [],
      "stateMutability": "nonpayable",
      "type": "function"
    },
    {
      "inputs": [
        {
          "internalType": "uint256",
          "name": "",
          "type": "uint256"
        }
      ],
      "name": "raceEntries",
      "outputs": [
        {
          "internalType": "uint256",
          "name": "tokenId",
          "type": "uint256"
        },
        {
          "internalType": "address",
          "name": "owner",
          "type": "address"
        }
      ],
      "stateMutability": "view",
      "type": "function"
    },
    {
      "inputs": [],
      "name": "runRace",
      "outputs": [
        {
          "internalType": "uint256",
          "name": "",
          "type": "uint256"
        }
      ],
      "stateMutability": "view",
      "type": "function"
    }
  ],
  "bytecode": "0x608060405234801561001057600080fd5b5060405161071a38038061071a833981810160405281019061003291906100db565b806000806101000a81548173ffffffffffffffffffffffffffffffffffffffff021916908373ffffffffffffffffffffffffffffffffffffffff16021790555050610108565b600080fd5b600073ffffffffffffffffffffffffffffffffffffffff82169050919050565b60006100a88261007d565b9050919050565b6100b88161009d565b81146100c357600080fd5b50565b6000815190506100d5816100af565b92915050565b6000602082840312156100f1576100f0610078565b5b60006100ff848285016100c6565b91505092915050565b610603806101176000396000f3fe608060405234801561001057600080fd5b50600436106100415760003560e01c8063108806c5146100465780639ab9cca014610064578063fa2aad3414610080575b600080fd5b61004e6100b1565b60405161005b9190610336565b60405180910390f35b61007e60048036038101906100799190610382565b610101565b005b61009a60048036038101906100959190610382565b6102c9565b6040516100a89291906103f0565b60405180910390f35b600080600180549050116100fa576040517f08c379a00000000000000000000000000000000000000000000000000000000081526004016100f19061049c565b60405180910390fd5b6000905090565b3373ffffffffffffffffffffffffffffffffffffffff1660008054906101000a900473ffffffffffffffffffffffffffffffffffffffff1673ffffffffffffffffffffffffffffffffffffffff16636352211e836040518263ffffffff1660e01b81526004016101719190610336565b60206040518083038186803b15801561018957600080fd5b505afa15801561019d573d6000803e3d6000fd5b505050506040513d601f19601f820116820180604052508101906101c191906104e8565b73ffffffffffffffffffffffffffffffffffffffff1614610217576040517f08c379a000000000000000000000000000000000000000000000000000000000815260040161020e906105ad565b60405180910390fd5b600060405180604001604052808381526020013373ffffffffffffffffffffffffffffffffffffffff16815250905060018190806001815401808255809150506001900390600052602060002090600202016000909190919091506000820151816000015560208201518160010160006101000a81548173ffffffffffffffffffffffffffffffffffffffff021916908373ffffffffffffffffffffffffffffffffffffffff16021790555050505050565b600181815481106102d957600080fd5b90600052602060002090600202016000915090508060000154908060010160009054906101000a900473ffffffffffffffffffffffffffffffffffffffff16905082565b6000819050919050565b6103308161031d565b82525050565b600060208201905061034b6000830184610327565b92915050565b600080fd5b61035f8161031d565b811461036a57600080fd5b50565b60008135905061037c81610356565b92915050565b60006020828403121561039857610397610351565b5b60006103a68482850161036d565b91505092915050565b600073ffffffffffffffffffffffffffffffffffffffff82169050919050565b60006103da826103af565b9050919050565b6103ea816103cf565b82525050565b60006040820190506104056000830185610327565b61041260208301846103e1565b9392505050565b600082825260208201905092915050565b7f496c206e2779206120706173206427656e74726565732064616e73206c61206360008201527f6f75727365000000000000000000000000000000000000000000000000000000602082015250565b6000610486602583610419565b91506104918261042a565b604082019050919050565b600060208201905081810360008301526104b581610479565b9050919050565b6104c5816103cf565b81146104d057600080fd5b50565b6000815190506104e2816104bc565b92915050565b6000602082840312156104fe576104fd610351565b5b600061050c848285016104d3565b91505092915050565b7f566f757320646576657a2065747265206c652070726f7072696574616972652060008201527f6475204e465420706f757220656e747265722064616e73206c6120636f75727360208201527f6500000000000000000000000000000000000000000000000000000000000000604082015250565b6000610597604183610419565b91506105a282610515565b606082019050919050565b600060208201905081810360008301526105c68161058a565b905091905056fea26469706673582212206dd93b785470fb53010b1dfd99d62b76df9dd5f80d0ac2083d4c84553d70f12f64736f6c63430008090033",
  "linkReferences": {},
  "deployedLinkReferences": {}
}