{
  "_format": "hh-sol-artifact-1",
  "contractName": "Race",
  "sourceName": "contracts/Race.sol",
  "abi": [
    {
      "inputs": [
        {
          "internalType": "address",
          "name": "_nftCarAddress",
          "type": "address"
        },
        {
          "internalType": "address",
          "name": "_fCarTokenAddress",
          "type": "address"
        }
      ],
      "stateMutability": "nonpayable",
      "type": "constructor"
    },
    {
      "inputs": [
        {
          "internalType": "uint256",
          "name": "",
          "type": "uint256"
        }
      ],
      "name": "bets",
      "outputs": [
        {
          "internalType": "address",
          "name": "bettor",
          "type": "address"
        },
        {
          "internalType": "uint256",
          "name": "amount",
          "type": "uint256"
        },
        {
          "internalType": "uint256",
          "name": "carId",
          "type": "uint256"
        }
      ],
      "stateMutability": "view",
      "type": "function"
    },
    {
      "inputs": [
        {
          "internalType": "uint256",
          "name": "_winningCarId",
          "type": "uint256"
        },
        {
          "internalType": "uint256",
          "name": "_winnerPrize",
          "type": "uint256"
        }
      ],
      "name": "distributeWinnings",
      "outputs": [],
      "stateMutability": "nonpayable",
      "type": "function"
    },
    {
      "inputs": [
        {
          "internalType": "uint256",
          "name": "_tokenId",
          "type": "uint256"
        },
        {
          "internalType": "uint8",
          "name": "_speed",
          "type": "uint8"
        },
        {
          "internalType": "uint8",
          "name": "_acceleration",
          "type": "uint8"
        },
        {
          "internalType": "uint8",
          "name": "_maniability",
          "type": "uint8"
        }
      ],
      "name": "enterRace",
      "outputs": [],
      "stateMutability": "nonpayable",
      "type": "function"
    },
    {
      "inputs": [],
      "name": "getBets",
      "outputs": [
        {
          "components": [
            {
              "internalType": "address",
              "name": "bettor",
              "type": "address"
            },
            {
              "internalType": "uint256",
              "name": "amount",
              "type": "uint256"
            },
            {
              "internalType": "uint256",
              "name": "carId",
              "type": "uint256"
            }
          ],
          "internalType": "struct Race.Bet[]",
          "name": "",
          "type": "tuple[]"
        }
      ],
      "stateMutability": "view",
      "type": "function"
    },
    {
      "inputs": [],
      "name": "getRaceEntries",
      "outputs": [
        {
          "components": [
            {
              "internalType": "uint256",
              "name": "tokenId",
              "type": "uint256"
            },
            {
              "internalType": "address",
              "name": "owner",
              "type": "address"
            },
            {
              "internalType": "uint8",
              "name": "speed",
              "type": "uint8"
            },
            {
              "internalType": "uint8",
              "name": "acceleration",
              "type": "uint8"
            },
            {
              "internalType": "uint8",
              "name": "maniability",
              "type": "uint8"
            }
          ],
          "internalType": "struct Race.RaceEntry[]",
          "name": "",
          "type": "tuple[]"
        }
      ],
      "stateMutability": "view",
      "type": "function"
    },
    {
      "inputs": [
        {
          "internalType": "uint256",
          "name": "_carId",
          "type": "uint256"
        },
        {
          "internalType": "uint256",
          "name": "_amount",
          "type": "uint256"
        }
      ],
      "name": "placeBet",
      "outputs": [],
      "stateMutability": "nonpayable",
      "type": "function"
    },
    {
      "inputs": [
        {
          "internalType": "uint256",
          "name": "",
          "type": "uint256"
        }
      ],
      "name": "raceEntries",
      "outputs": [
        {
          "internalType": "uint256",
          "name": "tokenId",
          "type": "uint256"
        },
        {
          "internalType": "address",
          "name": "owner",
          "type": "address"
        },
        {
          "internalType": "uint8",
          "name": "speed",
          "type": "uint8"
        },
        {
          "internalType": "uint8",
          "name": "acceleration",
          "type": "uint8"
        },
        {
          "internalType": "uint8",
          "name": "maniability",
          "type": "uint8"
        }
      ],
      "stateMutability": "view",
      "type": "function"
    },
    {
      "inputs": [],
      "name": "raceFee",
      "outputs": [
        {
          "internalType": "uint256",
          "name": "",
          "type": "uint256"
        }
      ],
      "stateMutability": "view",
      "type": "function"
    },
    {
      "inputs": [],
      "name": "racePrice",
      "outputs": [
        {
          "internalType": "uint256",
          "name": "",
          "type": "uint256"
        }
      ],
      "stateMutability": "view",
      "type": "function"
    },
    {
      "inputs": [],
      "name": "runRace",
      "outputs": [
        {
          "internalType": "uint256",
          "name": "",
          "type": "uint256"
        }
      ],
      "stateMutability": "nonpayable",
      "type": "function"
    }
  ],
  "bytecode": "0x6080604052600a6004553480156200001657600080fd5b5060405162001f0c38038062001f0c83398181016040528101906200003c91906200012f565b816000806101000a81548173ffffffffffffffffffffffffffffffffffffffff021916908373ffffffffffffffffffffffffffffffffffffffff16021790555080600160006101000a81548173ffffffffffffffffffffffffffffffffffffffff021916908373ffffffffffffffffffffffffffffffffffffffff160217905550505062000176565b600080fd5b600073ffffffffffffffffffffffffffffffffffffffff82169050919050565b6000620000f782620000ca565b9050919050565b6200010981620000ea565b81146200011557600080fd5b50565b6000815190506200012981620000fe565b92915050565b60008060408385031215620001495762000148620000c5565b5b6000620001598582860162000118565b92505060206200016c8582860162000118565b9150509250929050565b611d8680620001866000396000f3fe608060405234801561001057600080fd5b506004361061009e5760003560e01c8063b68a4f4611610066578063b68a4f4614610149578063b8a5508314610167578063bb5af5c614610183578063beab0105146101a1578063fa2aad34146101bf5761009e565b8063108806c5146100a357806322af00fa146100c15780634afe62b5146100f3578063a6afd5fd1461010f578063a72473a21461012d575b600080fd5b6100ab6101f3565b6040516100b891906112ae565b60405180910390f35b6100db60048036038101906100d691906112fa565b6104e8565b6040516100ea93929190611368565b60405180910390f35b61010d6004803603810190610108919061139f565b610542565b005b6101176106f9565b60405161012491906114ee565b60405180910390f35b6101476004803603810190610142919061139f565b6107c2565b005b610151610b5e565b60405161015e9190611643565b60405180910390f35b610181600480360381019061017c9190611691565b610c74565b005b61018b61107a565b60405161019891906112ae565b60405180910390f35b6101a9611080565b6040516101b691906112ae565b60405180910390f35b6101d960048036038101906101d491906112fa565b611086565b6040516101ea959493929190611707565b60405180910390f35b6000806002805490501161023c576040517f08c379a0000000000000000000000000000000000000000000000000000000008152600401610233906117dd565b60405180910390fd5b60008060005b60028054905081101561032657600060028281548110610265576102646117fd565b5b906000526020600020906002020160010160169054906101000a900460ff1660028381548110610298576102976117fd565b5b906000526020600020906002020160010160159054906101000a900460ff16600284815481106102cb576102ca6117fd565b5b906000526020600020906002020160010160149054906101000a900460ff166102f4919061185b565b6102fe919061185b565b60ff16905082811115610312578092508193505b50808061031e90611892565b915050610242565b5060006002838154811061033d5761033c6117fd565b5b90600052602060002090600202016000015490506002600061035f919061117d565b60006064605560035461037291906118db565b61037c9190611964565b9050600160009054906101000a900473ffffffffffffffffffffffffffffffffffffffff1673ffffffffffffffffffffffffffffffffffffffff1663a9059cbb60008054906101000a900473ffffffffffffffffffffffffffffffffffffffff1673ffffffffffffffffffffffffffffffffffffffff16636352211e856040518263ffffffff1660e01b815260040161041591906112ae565b60206040518083038186803b15801561042d57600080fd5b505afa158015610441573d6000803e3d6000fd5b505050506040513d601f19601f8201168201806040525081019061046591906119c1565b836040518363ffffffff1660e01b81526004016104839291906119ee565b602060405180830381600087803b15801561049d57600080fd5b505af11580156104b1573d6000803e3d6000fd5b505050506040513d601f19601f820116820180604052508101906104d59190611a4f565b5060006003819055508194505050505090565b600581815481106104f857600080fd5b90600052602060002090600302016000915090508060000160009054906101000a900473ffffffffffffffffffffffffffffffffffffffff16908060010154908060020154905083565b61054b82611113565b61058a576040517f08c379a000000000000000000000000000000000000000000000000000000000815260040161058190611aee565b60405180910390fd5b600160009054906101000a900473ffffffffffffffffffffffffffffffffffffffff1673ffffffffffffffffffffffffffffffffffffffff166323b872dd3330846040518463ffffffff1660e01b81526004016105e993929190611b0e565b602060405180830381600087803b15801561060357600080fd5b505af1158015610617573d6000803e3d6000fd5b505050506040513d601f19601f8201168201806040525081019061063b9190611a4f565b50600560405180606001604052803373ffffffffffffffffffffffffffffffffffffffff16815260200183815260200184815250908060018154018082558091505060019003906000526020600020906003020160009091909190915060008201518160000160006101000a81548173ffffffffffffffffffffffffffffffffffffffff021916908373ffffffffffffffffffffffffffffffffffffffff160217905550602082015181600101556040820151816002015550505050565b60606005805480602002602001604051908101604052809291908181526020016000905b828210156107b957838290600052602060002090600302016040518060600160405290816000820160009054906101000a900473ffffffffffffffffffffffffffffffffffffffff1673ffffffffffffffffffffffffffffffffffffffff1673ffffffffffffffffffffffffffffffffffffffff168152602001600182015481526020016002820154815250508152602001906001019061071d565b50505050905090565b6000805b6005805490508110156108475783600582815481106107e8576107e76117fd565b5b90600052602060002090600302016002015414156108345760058181548110610814576108136117fd565b5b906000526020600020906003020160010154826108319190611b45565b91505b808061083f90611892565b9150506107c6565b506000600a476108579190611964565b9050600081476108679190611b9b565b905060005b6005805490508110156109f057856005828154811061088e5761088d6117fd565b5b90600052602060002090600302016002015414156109dd5760008285600584815481106108be576108bd6117fd565b5b9060005260206000209060030201600101546108da9190611964565b6108e491906118db565b9050600160009054906101000a900473ffffffffffffffffffffffffffffffffffffffff1673ffffffffffffffffffffffffffffffffffffffff1663a9059cbb60058481548110610938576109376117fd565b5b906000526020600020906003020160000160009054906101000a900473ffffffffffffffffffffffffffffffffffffffff16836040518363ffffffff1660e01b81526004016109889291906119ee565b602060405180830381600087803b1580156109a257600080fd5b505af11580156109b6573d6000803e3d6000fd5b505050506040513d601f19601f820116820180604052508101906109da9190611a4f565b50505b80806109e890611892565b91505061086c565b50600160009054906101000a900473ffffffffffffffffffffffffffffffffffffffff1673ffffffffffffffffffffffffffffffffffffffff1663a9059cbb60008054906101000a900473ffffffffffffffffffffffffffffffffffffffff1673ffffffffffffffffffffffffffffffffffffffff16636352211e886040518263ffffffff1660e01b8152600401610a8891906112ae565b60206040518083038186803b158015610aa057600080fd5b505afa158015610ab4573d6000803e3d6000fd5b505050506040513d601f19601f82011682018060405250810190610ad891906119c1565b866040518363ffffffff1660e01b8152600401610af69291906119ee565b602060405180830381600087803b158015610b1057600080fd5b505af1158015610b24573d6000803e3d6000fd5b505050506040513d601f19601f82011682018060405250810190610b489190611a4f565b5060056000610b5791906111a1565b5050505050565b60606002805480602002602001604051908101604052809291908181526020016000905b82821015610c6b57838290600052602060002090600202016040518060a0016040529081600082015481526020016001820160009054906101000a900473ffffffffffffffffffffffffffffffffffffffff1673ffffffffffffffffffffffffffffffffffffffff1673ffffffffffffffffffffffffffffffffffffffff1681526020016001820160149054906101000a900460ff1660ff1660ff1681526020016001820160159054906101000a900460ff1660ff1660ff1681526020016001820160169054906101000a900460ff1660ff1660ff168152505081526020019060010190610b82565b50505050905090565b3373ffffffffffffffffffffffffffffffffffffffff1660008054906101000a900473ffffffffffffffffffffffffffffffffffffffff1673ffffffffffffffffffffffffffffffffffffffff16636352211e866040518263ffffffff1660e01b8152600401610ce491906112ae565b60206040518083038186803b158015610cfc57600080fd5b505afa158015610d10573d6000803e3d6000fd5b505050506040513d601f19601f82011682018060405250810190610d3491906119c1565b73ffffffffffffffffffffffffffffffffffffffff1614610d8a576040517f08c379a0000000000000000000000000000000000000000000000000000000008152600401610d8190611c67565b60405180910390fd5b600454600160009054906101000a900473ffffffffffffffffffffffffffffffffffffffff1673ffffffffffffffffffffffffffffffffffffffff166370a08231336040518263ffffffff1660e01b8152600401610de89190611c87565b60206040518083038186803b158015610e0057600080fd5b505afa158015610e14573d6000803e3d6000fd5b505050506040513d601f19601f82011682018060405250810190610e389190611cb7565b11610e78576040517f08c379a0000000000000000000000000000000000000000000000000000000008152600401610e6f90611d30565b60405180910390fd5b600160009054906101000a900473ffffffffffffffffffffffffffffffffffffffff1673ffffffffffffffffffffffffffffffffffffffff166323b872dd33306004546040518463ffffffff1660e01b8152600401610ed993929190611b0e565b602060405180830381600087803b158015610ef357600080fd5b505af1158015610f07573d6000803e3d6000fd5b505050506040513d601f19601f82011682018060405250810190610f2b9190611a4f565b5060045460036000828254610f409190611b45565b9250508190555060006040518060a001604052808681526020013373ffffffffffffffffffffffffffffffffffffffff1681526020018560ff1681526020018460ff1681526020018360ff16815250905060028190806001815401808255809150506001900390600052602060002090600202016000909190919091506000820151816000015560208201518160010160006101000a81548173ffffffffffffffffffffffffffffffffffffffff021916908373ffffffffffffffffffffffffffffffffffffffff16021790555060408201518160010160146101000a81548160ff021916908360ff16021790555060608201518160010160156101000a81548160ff021916908360ff16021790555060808201518160010160166101000a81548160ff021916908360ff16021790555050505050505050565b60035481565b60045481565b6002818154811061109657600080fd5b90600052602060002090600202016000915090508060000154908060010160009054906101000a900473ffffffffffffffffffffffffffffffffffffffff16908060010160149054906101000a900460ff16908060010160159054906101000a900460ff16908060010160169054906101000a900460ff16905085565b600080600090505b60028054905081101561117257826002828154811061113d5761113c6117fd565b5b906000526020600020906002020160000154141561115f576001915050611178565b808061116a90611892565b91505061111b565b50600090505b919050565b508054600082556002029060005260206000209081019061119e91906111c5565b50565b50805460008255600302906000526020600020908101906111c29190611247565b50565b5b80821115611243576000808201600090556001820160006101000a81549073ffffffffffffffffffffffffffffffffffffffff02191690556001820160146101000a81549060ff02191690556001820160156101000a81549060ff02191690556001820160166101000a81549060ff0219169055506002016111c6565b5090565b5b8082111561129157600080820160006101000a81549073ffffffffffffffffffffffffffffffffffffffff02191690556001820160009055600282016000905550600301611248565b5090565b6000819050919050565b6112a881611295565b82525050565b60006020820190506112c3600083018461129f565b92915050565b600080fd5b6112d781611295565b81146112e257600080fd5b50565b6000813590506112f4816112ce565b92915050565b6000602082840312156113105761130f6112c9565b5b600061131e848285016112e5565b91505092915050565b600073ffffffffffffffffffffffffffffffffffffffff82169050919050565b600061135282611327565b9050919050565b61136281611347565b82525050565b600060608201905061137d6000830186611359565b61138a602083018561129f565b611397604083018461129f565b949350505050565b600080604083850312156113b6576113b56112c9565b5b60006113c4858286016112e5565b92505060206113d5858286016112e5565b9150509250929050565b600081519050919050565b600082825260208201905092915050565b6000819050602082019050919050565b61141481611347565b82525050565b61142381611295565b82525050565b60608201600082015161143f600085018261140b565b506020820151611452602085018261141a565b506040820151611465604085018261141a565b50505050565b60006114778383611429565b60608301905092915050565b6000602082019050919050565b600061149b826113df565b6114a581856113ea565b93506114b0836113fb565b8060005b838110156114e15781516114c8888261146b565b97506114d383611483565b9250506001810190506114b4565b5085935050505092915050565b600060208201905081810360008301526115088184611490565b905092915050565b600081519050919050565b600082825260208201905092915050565b6000819050602082019050919050565b600060ff82169050919050565b6115528161153c565b82525050565b60a08201600082015161156e600085018261141a565b506020820151611581602085018261140b565b5060408201516115946040850182611549565b5060608201516115a76060850182611549565b5060808201516115ba6080850182611549565b50505050565b60006115cc8383611558565b60a08301905092915050565b6000602082019050919050565b60006115f082611510565b6115fa818561151b565b93506116058361152c565b8060005b8381101561163657815161161d88826115c0565b9750611628836115d8565b925050600181019050611609565b5085935050505092915050565b6000602082019050818103600083015261165d81846115e5565b905092915050565b61166e8161153c565b811461167957600080fd5b50565b60008135905061168b81611665565b92915050565b600080600080608085870312156116ab576116aa6112c9565b5b60006116b9878288016112e5565b94505060206116ca8782880161167c565b93505060406116db8782880161167c565b92505060606116ec8782880161167c565b91505092959194509250565b6117018161153c565b82525050565b600060a08201905061171c600083018861129f565b6117296020830187611359565b61173660408301866116f8565b61174360608301856116f8565b61175060808301846116f8565b9695505050505050565b600082825260208201905092915050565b7f496c206e2779206120706173206427656e74726565732064616e73206c61206360008201527f6f75727365000000000000000000000000000000000000000000000000000000602082015250565b60006117c760258361175a565b91506117d28261176b565b604082019050919050565b600060208201905081810360008301526117f6816117ba565b9050919050565b7f4e487b7100000000000000000000000000000000000000000000000000000000600052603260045260246000fd5b7f4e487b7100000000000000000000000000000000000000000000000000000000600052601160045260246000fd5b60006118668261153c565b91506118718361153c565b92508260ff038211156118875761188661182c565b5b828201905092915050565b600061189d82611295565b91507fffffffffffffffffffffffffffffffffffffffffffffffffffffffffffffffff8214156118d0576118cf61182c565b5b600182019050919050565b60006118e682611295565b91506118f183611295565b9250817fffffffffffffffffffffffffffffffffffffffffffffffffffffffffffffffff048311821515161561192a5761192961182c565b5b828202905092915050565b7f4e487b7100000000000000000000000000000000000000000000000000000000600052601260045260246000fd5b600061196f82611295565b915061197a83611295565b92508261198a57611989611935565b5b828204905092915050565b61199e81611347565b81146119a957600080fd5b50565b6000815190506119bb81611995565b92915050565b6000602082840312156119d7576119d66112c9565b5b60006119e5848285016119ac565b91505092915050565b6000604082019050611a036000830185611359565b611a10602083018461129f565b9392505050565b60008115159050919050565b611a2c81611a17565b8114611a3757600080fd5b50565b600081519050611a4981611a23565b92915050565b600060208284031215611a6557611a646112c9565b5b6000611a7384828501611a3a565b91505092915050565b7f436574746520766f6974757265206e652070617274696369706520706173206160008201527f206c6120636f7572736500000000000000000000000000000000000000000000602082015250565b6000611ad8602a8361175a565b9150611ae382611a7c565b604082019050919050565b60006020820190508181036000830152611b0781611acb565b9050919050565b6000606082019050611b236000830186611359565b611b306020830185611359565b611b3d604083018461129f565b949350505050565b6000611b5082611295565b9150611b5b83611295565b9250827fffffffffffffffffffffffffffffffffffffffffffffffffffffffffffffffff03821115611b9057611b8f61182c565b5b828201905092915050565b6000611ba682611295565b9150611bb183611295565b925082821015611bc457611bc361182c565b5b828203905092915050565b7f566f757320646576657a2065747265206c652070726f7072696574616972652060008201527f6475204e465420706f757220656e747265722064616e73206c6120636f75727360208201527f6500000000000000000000000000000000000000000000000000000000000000604082015250565b6000611c5160418361175a565b9150611c5c82611bcf565b606082019050919050565b60006020820190508181036000830152611c8081611c44565b9050919050565b6000602082019050611c9c6000830184611359565b92915050565b600081519050611cb1816112ce565b92915050565b600060208284031215611ccd57611ccc6112c9565b5b6000611cdb84828501611ca2565b91505092915050565b7f4e6f7420656e6f75676820746f6b656e00000000000000000000000000000000600082015250565b6000611d1a60108361175a565b9150611d2582611ce4565b602082019050919050565b60006020820190508181036000830152611d4981611d0d565b905091905056fea26469706673582212208f842cdc45da480749eb950919eb725f7aa70c84793588ba1e6de709faa363c964736f6c63430008090033",
  "linkReferences": {},
  "deployedLinkReferences": {}
}