{
  "_format": "hh-sol-artifact-1",
  "contractName": "Race",
  "sourceName": "contracts/Race.sol",
  "abi": [
    {
      "inputs": [
        {
          "internalType": "address",
          "name": "_nftCarAddress",
          "type": "address"
        }
      ],
      "stateMutability": "nonpayable",
      "type": "constructor"
    },
    {
      "inputs": [
        {
          "internalType": "uint256",
          "name": "",
          "type": "uint256"
        }
      ],
      "name": "bets",
      "outputs": [
        {
          "internalType": "address",
          "name": "bettor",
          "type": "address"
        },
        {
          "internalType": "uint256",
          "name": "amount",
          "type": "uint256"
        },
        {
          "internalType": "uint256",
          "name": "carId",
          "type": "uint256"
        }
      ],
      "stateMutability": "view",
      "type": "function"
    },
    {
      "inputs": [
        {
          "internalType": "uint256",
          "name": "_tokenId",
          "type": "uint256"
        },
        {
          "internalType": "uint8",
          "name": "_speed",
          "type": "uint8"
        },
        {
          "internalType": "uint8",
          "name": "_acceleration",
          "type": "uint8"
        },
        {
          "internalType": "uint8",
          "name": "_maniability",
          "type": "uint8"
        }
      ],
      "name": "enterRace",
      "outputs": [],
      "stateMutability": "nonpayable",
      "type": "function"
    },
    {
      "inputs": [
        {
          "internalType": "uint256",
          "name": "_carId",
          "type": "uint256"
        },
        {
          "internalType": "uint256",
          "name": "_amount",
          "type": "uint256"
        }
      ],
      "name": "placeBet",
      "outputs": [],
      "stateMutability": "nonpayable",
      "type": "function"
    },
    {
      "inputs": [
        {
          "internalType": "uint256",
          "name": "",
          "type": "uint256"
        }
      ],
      "name": "raceEntries",
      "outputs": [
        {
          "internalType": "uint256",
          "name": "tokenId",
          "type": "uint256"
        },
        {
          "internalType": "address",
          "name": "owner",
          "type": "address"
        },
        {
          "internalType": "uint8",
          "name": "speed",
          "type": "uint8"
        },
        {
          "internalType": "uint8",
          "name": "acceleration",
          "type": "uint8"
        },
        {
          "internalType": "uint8",
          "name": "maniability",
          "type": "uint8"
        }
      ],
      "stateMutability": "view",
      "type": "function"
    },
    {
      "inputs": [],
      "name": "runRace",
      "outputs": [
        {
          "internalType": "uint256",
          "name": "",
          "type": "uint256"
        }
      ],
      "stateMutability": "nonpayable",
      "type": "function"
    }
  ],
  "bytecode": "0x60806040523480156200001157600080fd5b5060405162001386380380620013868339818101604052810190620000379190620000e8565b806000806101000a81548173ffffffffffffffffffffffffffffffffffffffff021916908373ffffffffffffffffffffffffffffffffffffffff160217905550506200011a565b600080fd5b600073ffffffffffffffffffffffffffffffffffffffff82169050919050565b6000620000b08262000083565b9050919050565b620000c281620000a3565b8114620000ce57600080fd5b50565b600081519050620000e281620000b7565b92915050565b6000602082840312156200010157620001006200007e565b5b60006200011184828501620000d1565b91505092915050565b61125c806200012a6000396000f3fe608060405234801561001057600080fd5b50600436106100575760003560e01c8063108806c51461005c57806322af00fa1461007a5780634afe62b5146100ac578063b8a55083146100c8578063fa2aad34146100e4575b600080fd5b610064610118565b6040516100719190610ac6565b60405180910390f35b610094600480360381019061008f9190610b12565b6102a7565b6040516100a393929190610b80565b60405180910390f35b6100c660048036038101906100c19190610bb7565b610301565b005b6100e260048036038101906100dd9190610c30565b6104b8565b005b6100fe60048036038101906100f99190610b12565b610701565b60405161010f959493929190610ca6565b60405180910390f35b60008060028054905011610161576040517f08c379a000000000000000000000000000000000000000000000000000000000815260040161015890610d7c565b60405180910390fd5b60008060005b60028054905081101561024b5760006002828154811061018a57610189610d9c565b5b906000526020600020906002020160010160169054906101000a900460ff16600283815481106101bd576101bc610d9c565b5b906000526020600020906002020160010160159054906101000a900460ff16600284815481106101f0576101ef610d9c565b5b906000526020600020906002020160010160149054906101000a900460ff166102199190610dfa565b6102239190610dfa565b60ff16905082811115610237578092508193505b50808061024390610e31565b915050610167565b5061027a6002838154811061026357610262610d9c565b5b90600052602060002090600202016000015461078e565b6002828154811061028e5761028d610d9c565b5b9060005260206000209060020201600001549250505090565b600381815481106102b757600080fd5b90600052602060002090600302016000915090508060000160009054906101000a900473ffffffffffffffffffffffffffffffffffffffff16908060010154908060020154905083565b61030a826109d1565b610349576040517f08c379a000000000000000000000000000000000000000000000000000000000815260040161034090610eec565b60405180910390fd5b600160009054906101000a900473ffffffffffffffffffffffffffffffffffffffff1673ffffffffffffffffffffffffffffffffffffffff166323b872dd3330846040518463ffffffff1660e01b81526004016103a893929190610f0c565b602060405180830381600087803b1580156103c257600080fd5b505af11580156103d6573d6000803e3d6000fd5b505050506040513d601f19601f820116820180604052508101906103fa9190610f7b565b50600360405180606001604052803373ffffffffffffffffffffffffffffffffffffffff16815260200183815260200184815250908060018154018082558091505060019003906000526020600020906003020160009091909190915060008201518160000160006101000a81548173ffffffffffffffffffffffffffffffffffffffff021916908373ffffffffffffffffffffffffffffffffffffffff160217905550602082015181600101556040820151816002015550505050565b3373ffffffffffffffffffffffffffffffffffffffff1660008054906101000a900473ffffffffffffffffffffffffffffffffffffffff1673ffffffffffffffffffffffffffffffffffffffff16636352211e866040518263ffffffff1660e01b81526004016105289190610ac6565b60206040518083038186803b15801561054057600080fd5b505afa158015610554573d6000803e3d6000fd5b505050506040513d601f19601f820116820180604052508101906105789190610fd4565b73ffffffffffffffffffffffffffffffffffffffff16146105ce576040517f08c379a00000000000000000000000000000000000000000000000000000000081526004016105c590611099565b60405180910390fd5b60006040518060a001604052808681526020013373ffffffffffffffffffffffffffffffffffffffff1681526020018560ff1681526020018460ff1681526020018360ff16815250905060028190806001815401808255809150506001900390600052602060002090600202016000909190919091506000820151816000015560208201518160010160006101000a81548173ffffffffffffffffffffffffffffffffffffffff021916908373ffffffffffffffffffffffffffffffffffffffff16021790555060408201518160010160146101000a81548160ff021916908360ff16021790555060608201518160010160156101000a81548160ff021916908360ff16021790555060808201518160010160166101000a81548160ff021916908360ff16021790555050505050505050565b6002818154811061071157600080fd5b90600052602060002090600202016000915090508060000154908060010160009054906101000a900473ffffffffffffffffffffffffffffffffffffffff16908060010160149054906101000a900460ff16908060010160159054906101000a900460ff16908060010160169054906101000a900460ff16905085565b6000805b6003805490508110156108135782600382815481106107b4576107b3610d9c565b5b906000526020600020906003020160020154141561080057600381815481106107e0576107df610d9c565b5b906000526020600020906003020160010154826107fd91906110b9565b91505b808061080b90610e31565b915050610792565b506000600a47610823919061113e565b905060008147610833919061116f565b905060005b6003805490508110156109bc57846003828154811061085a57610859610d9c565b5b90600052602060002090600302016002015414156109a957600082856003848154811061088a57610889610d9c565b5b9060005260206000209060030201600101546108a6919061113e565b6108b091906111a3565b9050600160009054906101000a900473ffffffffffffffffffffffffffffffffffffffff1673ffffffffffffffffffffffffffffffffffffffff1663a9059cbb6003848154811061090457610903610d9c565b5b906000526020600020906003020160000160009054906101000a900473ffffffffffffffffffffffffffffffffffffffff16836040518363ffffffff1660e01b81526004016109549291906111fd565b602060405180830381600087803b15801561096e57600080fd5b505af1158015610982573d6000803e3d6000fd5b505050506040513d601f19601f820116820180604052508101906109a69190610f7b565b50505b80806109b490610e31565b915050610838565b50600360006109cb9190610a3b565b50505050565b600080600090505b600280549050811015610a305782600282815481106109fb576109fa610d9c565b5b9060005260206000209060020201600001541415610a1d576001915050610a36565b8080610a2890610e31565b9150506109d9565b50600090505b919050565b5080546000825560030290600052602060002090810190610a5c9190610a5f565b50565b5b80821115610aa957600080820160006101000a81549073ffffffffffffffffffffffffffffffffffffffff02191690556001820160009055600282016000905550600301610a60565b5090565b6000819050919050565b610ac081610aad565b82525050565b6000602082019050610adb6000830184610ab7565b92915050565b600080fd5b610aef81610aad565b8114610afa57600080fd5b50565b600081359050610b0c81610ae6565b92915050565b600060208284031215610b2857610b27610ae1565b5b6000610b3684828501610afd565b91505092915050565b600073ffffffffffffffffffffffffffffffffffffffff82169050919050565b6000610b6a82610b3f565b9050919050565b610b7a81610b5f565b82525050565b6000606082019050610b956000830186610b71565b610ba26020830185610ab7565b610baf6040830184610ab7565b949350505050565b60008060408385031215610bce57610bcd610ae1565b5b6000610bdc85828601610afd565b9250506020610bed85828601610afd565b9150509250929050565b600060ff82169050919050565b610c0d81610bf7565b8114610c1857600080fd5b50565b600081359050610c2a81610c04565b92915050565b60008060008060808587031215610c4a57610c49610ae1565b5b6000610c5887828801610afd565b9450506020610c6987828801610c1b565b9350506040610c7a87828801610c1b565b9250506060610c8b87828801610c1b565b91505092959194509250565b610ca081610bf7565b82525050565b600060a082019050610cbb6000830188610ab7565b610cc86020830187610b71565b610cd56040830186610c97565b610ce26060830185610c97565b610cef6080830184610c97565b9695505050505050565b600082825260208201905092915050565b7f496c206e2779206120706173206427656e74726565732064616e73206c61206360008201527f6f75727365000000000000000000000000000000000000000000000000000000602082015250565b6000610d66602583610cf9565b9150610d7182610d0a565b604082019050919050565b60006020820190508181036000830152610d9581610d59565b9050919050565b7f4e487b7100000000000000000000000000000000000000000000000000000000600052603260045260246000fd5b7f4e487b7100000000000000000000000000000000000000000000000000000000600052601160045260246000fd5b6000610e0582610bf7565b9150610e1083610bf7565b92508260ff03821115610e2657610e25610dcb565b5b828201905092915050565b6000610e3c82610aad565b91507fffffffffffffffffffffffffffffffffffffffffffffffffffffffffffffffff821415610e6f57610e6e610dcb565b5b600182019050919050565b7f436574746520766f6974757265206e652070617274696369706520706173206160008201527f206c6120636f7572736500000000000000000000000000000000000000000000602082015250565b6000610ed6602a83610cf9565b9150610ee182610e7a565b604082019050919050565b60006020820190508181036000830152610f0581610ec9565b9050919050565b6000606082019050610f216000830186610b71565b610f2e6020830185610b71565b610f3b6040830184610ab7565b949350505050565b60008115159050919050565b610f5881610f43565b8114610f6357600080fd5b50565b600081519050610f7581610f4f565b92915050565b600060208284031215610f9157610f90610ae1565b5b6000610f9f84828501610f66565b91505092915050565b610fb181610b5f565b8114610fbc57600080fd5b50565b600081519050610fce81610fa8565b92915050565b600060208284031215610fea57610fe9610ae1565b5b6000610ff884828501610fbf565b91505092915050565b7f566f757320646576657a2065747265206c652070726f7072696574616972652060008201527f6475204e465420706f757220656e747265722064616e73206c6120636f75727360208201527f6500000000000000000000000000000000000000000000000000000000000000604082015250565b6000611083604183610cf9565b915061108e82611001565b606082019050919050565b600060208201905081810360008301526110b281611076565b9050919050565b60006110c482610aad565b91506110cf83610aad565b9250827fffffffffffffffffffffffffffffffffffffffffffffffffffffffffffffffff0382111561110457611103610dcb565b5b828201905092915050565b7f4e487b7100000000000000000000000000000000000000000000000000000000600052601260045260246000fd5b600061114982610aad565b915061115483610aad565b9250826111645761116361110f565b5b828204905092915050565b600061117a82610aad565b915061118583610aad565b92508282101561119857611197610dcb565b5b828203905092915050565b60006111ae82610aad565b91506111b983610aad565b9250817fffffffffffffffffffffffffffffffffffffffffffffffffffffffffffffffff04831182151516156111f2576111f1610dcb565b5b828202905092915050565b60006040820190506112126000830185610b71565b61121f6020830184610ab7565b939250505056fea264697066735822122079462f4075face0d7ab84aa7b8d2a5f44db159795a489bd5e1d99168e450dfb164736f6c63430008090033",
  "linkReferences": {},
  "deployedLinkReferences": {}
}