{
  "_format": "hh-sol-artifact-1",
  "contractName": "Race",
  "sourceName": "contracts/Race.sol",
  "abi": [
    {
      "inputs": [
        {
          "internalType": "address",
          "name": "_nftCarAddress",
          "type": "address"
        }
      ],
      "stateMutability": "nonpayable",
      "type": "constructor"
    },
    {
      "inputs": [
        {
          "internalType": "uint256",
          "name": "",
          "type": "uint256"
        }
      ],
      "name": "bets",
      "outputs": [
        {
          "internalType": "address",
          "name": "bettor",
          "type": "address"
        },
        {
          "internalType": "uint256",
          "name": "amount",
          "type": "uint256"
        },
        {
          "internalType": "uint256",
          "name": "carId",
          "type": "uint256"
        }
      ],
      "stateMutability": "view",
      "type": "function"
    },
    {
      "inputs": [
        {
          "internalType": "uint256",
          "name": "_winningCarId",
          "type": "uint256"
        },
        {
          "internalType": "uint256",
          "name": "_winnerPrize",
          "type": "uint256"
        }
      ],
      "name": "distributeWinnings",
      "outputs": [],
      "stateMutability": "nonpayable",
      "type": "function"
    },
    {
      "inputs": [
        {
          "internalType": "uint256",
          "name": "_tokenId",
          "type": "uint256"
        },
        {
          "internalType": "uint8",
          "name": "_speed",
          "type": "uint8"
        },
        {
          "internalType": "uint8",
          "name": "_acceleration",
          "type": "uint8"
        },
        {
          "internalType": "uint8",
          "name": "_maniability",
          "type": "uint8"
        }
      ],
      "name": "enterRace",
      "outputs": [],
      "stateMutability": "nonpayable",
      "type": "function"
    },
    {
      "inputs": [],
      "name": "getBets",
      "outputs": [
        {
          "components": [
            {
              "internalType": "address",
              "name": "bettor",
              "type": "address"
            },
            {
              "internalType": "uint256",
              "name": "amount",
              "type": "uint256"
            },
            {
              "internalType": "uint256",
              "name": "carId",
              "type": "uint256"
            }
          ],
          "internalType": "struct Race.Bet[]",
          "name": "",
          "type": "tuple[]"
        }
      ],
      "stateMutability": "view",
      "type": "function"
    },
    {
      "inputs": [],
      "name": "getRaceEntries",
      "outputs": [
        {
          "components": [
            {
              "internalType": "uint256",
              "name": "tokenId",
              "type": "uint256"
            },
            {
              "internalType": "address",
              "name": "owner",
              "type": "address"
            },
            {
              "internalType": "uint8",
              "name": "speed",
              "type": "uint8"
            },
            {
              "internalType": "uint8",
              "name": "acceleration",
              "type": "uint8"
            },
            {
              "internalType": "uint8",
              "name": "maniability",
              "type": "uint8"
            }
          ],
          "internalType": "struct Race.RaceEntry[]",
          "name": "",
          "type": "tuple[]"
        }
      ],
      "stateMutability": "view",
      "type": "function"
    },
    {
      "inputs": [
        {
          "internalType": "uint256",
          "name": "_carId",
          "type": "uint256"
        },
        {
          "internalType": "uint256",
          "name": "_amount",
          "type": "uint256"
        }
      ],
      "name": "placeBet",
      "outputs": [],
      "stateMutability": "nonpayable",
      "type": "function"
    },
    {
      "inputs": [
        {
          "internalType": "uint256",
          "name": "",
          "type": "uint256"
        }
      ],
      "name": "raceEntries",
      "outputs": [
        {
          "internalType": "uint256",
          "name": "tokenId",
          "type": "uint256"
        },
        {
          "internalType": "address",
          "name": "owner",
          "type": "address"
        },
        {
          "internalType": "uint8",
          "name": "speed",
          "type": "uint8"
        },
        {
          "internalType": "uint8",
          "name": "acceleration",
          "type": "uint8"
        },
        {
          "internalType": "uint8",
          "name": "maniability",
          "type": "uint8"
        }
      ],
      "stateMutability": "view",
      "type": "function"
    },
    {
      "inputs": [
        {
          "internalType": "uint256",
          "name": "_winnerPrize",
          "type": "uint256"
        }
      ],
      "name": "runRace",
      "outputs": [
        {
          "internalType": "uint256",
          "name": "",
          "type": "uint256"
        }
      ],
      "stateMutability": "nonpayable",
      "type": "function"
    }
  ],
  "bytecode": "0x60806040523480156200001157600080fd5b50604051620019d5380380620019d58339818101604052810190620000379190620000e8565b806000806101000a81548173ffffffffffffffffffffffffffffffffffffffff021916908373ffffffffffffffffffffffffffffffffffffffff160217905550506200011a565b600080fd5b600073ffffffffffffffffffffffffffffffffffffffff82169050919050565b6000620000b08262000083565b9050919050565b620000c281620000a3565b8114620000ce57600080fd5b50565b600081519050620000e281620000b7565b92915050565b6000602082840312156200010157620001006200007e565b5b60006200011184828501620000d1565b91505092915050565b6118ab806200012a6000396000f3fe608060405234801561001057600080fd5b50600436106100885760003560e01c8063a72473a21161005b578063a72473a214610129578063b68a4f4614610145578063b8a5508314610163578063fa2aad341461017f57610088565b806322af00fa1461008d5780634afe62b5146100bf578063a5b72e8b146100db578063a6afd5fd1461010b575b600080fd5b6100a760048036038101906100a29190610ebe565b6101b3565b6040516100b693929190610f3b565b60405180910390f35b6100d960048036038101906100d49190610f72565b61020d565b005b6100f560048036038101906100f09190610ebe565b6103c4565b6040516101029190610fb2565b60405180910390f35b610113610556565b60405161012091906110dc565b60405180910390f35b610143600480360381019061013e9190610f72565b61061f565b005b61014d6109bb565b60405161015a9190611231565b60405180910390f35b61017d6004803603810190610178919061127f565b610ad1565b005b61019960048036038101906101949190610ebe565b610d1a565b6040516101aa9594939291906112f5565b60405180910390f35b600381815481106101c357600080fd5b90600052602060002090600302016000915090508060000160009054906101000a900473ffffffffffffffffffffffffffffffffffffffff16908060010154908060020154905083565b61021682610da7565b610255576040517f08c379a000000000000000000000000000000000000000000000000000000000815260040161024c906113cb565b60405180910390fd5b600160009054906101000a900473ffffffffffffffffffffffffffffffffffffffff1673ffffffffffffffffffffffffffffffffffffffff166323b872dd3330846040518463ffffffff1660e01b81526004016102b4939291906113eb565b602060405180830381600087803b1580156102ce57600080fd5b505af11580156102e2573d6000803e3d6000fd5b505050506040513d601f19601f82011682018060405250810190610306919061145a565b50600360405180606001604052803373ffffffffffffffffffffffffffffffffffffffff16815260200183815260200184815250908060018154018082558091505060019003906000526020600020906003020160009091909190915060008201518160000160006101000a81548173ffffffffffffffffffffffffffffffffffffffff021916908373ffffffffffffffffffffffffffffffffffffffff160217905550602082015181600101556040820151816002015550505050565b6000806002805490501161040d576040517f08c379a0000000000000000000000000000000000000000000000000000000008152600401610404906114f9565b60405180910390fd5b60008060005b6002805490508110156104f75760006002828154811061043657610435611519565b5b906000526020600020906002020160010160169054906101000a900460ff166002838154811061046957610468611519565b5b906000526020600020906002020160010160159054906101000a900460ff166002848154811061049c5761049b611519565b5b906000526020600020906002020160010160149054906101000a900460ff166104c59190611577565b6104cf9190611577565b60ff169050828111156104e3578092508193505b5080806104ef906115ae565b915050610413565b506105276002838154811061050f5761050e611519565b5b9060005260206000209060020201600001548561061f565b6002828154811061053b5761053a611519565b5b90600052602060002090600202016000015492505050919050565b60606003805480602002602001604051908101604052809291908181526020016000905b8282101561061657838290600052602060002090600302016040518060600160405290816000820160009054906101000a900473ffffffffffffffffffffffffffffffffffffffff1673ffffffffffffffffffffffffffffffffffffffff1673ffffffffffffffffffffffffffffffffffffffff168152602001600182015481526020016002820154815250508152602001906001019061057a565b50505050905090565b6000805b6003805490508110156106a457836003828154811061064557610644611519565b5b9060005260206000209060030201600201541415610691576003818154811061067157610670611519565b5b9060005260206000209060030201600101548261068e91906115f7565b91505b808061069c906115ae565b915050610623565b506000600a476106b4919061167c565b9050600081476106c491906116ad565b905060005b60038054905081101561084d5785600382815481106106eb576106ea611519565b5b906000526020600020906003020160020154141561083a57600082856003848154811061071b5761071a611519565b5b906000526020600020906003020160010154610737919061167c565b61074191906116e1565b9050600160009054906101000a900473ffffffffffffffffffffffffffffffffffffffff1673ffffffffffffffffffffffffffffffffffffffff1663a9059cbb6003848154811061079557610794611519565b5b906000526020600020906003020160000160009054906101000a900473ffffffffffffffffffffffffffffffffffffffff16836040518363ffffffff1660e01b81526004016107e592919061173b565b602060405180830381600087803b1580156107ff57600080fd5b505af1158015610813573d6000803e3d6000fd5b505050506040513d601f19601f82011682018060405250810190610837919061145a565b50505b8080610845906115ae565b9150506106c9565b50600160009054906101000a900473ffffffffffffffffffffffffffffffffffffffff1673ffffffffffffffffffffffffffffffffffffffff1663a9059cbb60008054906101000a900473ffffffffffffffffffffffffffffffffffffffff1673ffffffffffffffffffffffffffffffffffffffff16636352211e886040518263ffffffff1660e01b81526004016108e59190610fb2565b60206040518083038186803b1580156108fd57600080fd5b505afa158015610911573d6000803e3d6000fd5b505050506040513d601f19601f820116820180604052508101906109359190611790565b866040518363ffffffff1660e01b815260040161095392919061173b565b602060405180830381600087803b15801561096d57600080fd5b505af1158015610981573d6000803e3d6000fd5b505050506040513d601f19601f820116820180604052508101906109a5919061145a565b50600360006109b49190610e11565b5050505050565b60606002805480602002602001604051908101604052809291908181526020016000905b82821015610ac857838290600052602060002090600202016040518060a0016040529081600082015481526020016001820160009054906101000a900473ffffffffffffffffffffffffffffffffffffffff1673ffffffffffffffffffffffffffffffffffffffff1673ffffffffffffffffffffffffffffffffffffffff1681526020016001820160149054906101000a900460ff1660ff1660ff1681526020016001820160159054906101000a900460ff1660ff1660ff1681526020016001820160169054906101000a900460ff1660ff1660ff1681525050815260200190600101906109df565b50505050905090565b3373ffffffffffffffffffffffffffffffffffffffff1660008054906101000a900473ffffffffffffffffffffffffffffffffffffffff1673ffffffffffffffffffffffffffffffffffffffff16636352211e866040518263ffffffff1660e01b8152600401610b419190610fb2565b60206040518083038186803b158015610b5957600080fd5b505afa158015610b6d573d6000803e3d6000fd5b505050506040513d601f19601f82011682018060405250810190610b919190611790565b73ffffffffffffffffffffffffffffffffffffffff1614610be7576040517f08c379a0000000000000000000000000000000000000000000000000000000008152600401610bde90611855565b60405180910390fd5b60006040518060a001604052808681526020013373ffffffffffffffffffffffffffffffffffffffff1681526020018560ff1681526020018460ff1681526020018360ff16815250905060028190806001815401808255809150506001900390600052602060002090600202016000909190919091506000820151816000015560208201518160010160006101000a81548173ffffffffffffffffffffffffffffffffffffffff021916908373ffffffffffffffffffffffffffffffffffffffff16021790555060408201518160010160146101000a81548160ff021916908360ff16021790555060608201518160010160156101000a81548160ff021916908360ff16021790555060808201518160010160166101000a81548160ff021916908360ff16021790555050505050505050565b60028181548110610d2a57600080fd5b90600052602060002090600202016000915090508060000154908060010160009054906101000a900473ffffffffffffffffffffffffffffffffffffffff16908060010160149054906101000a900460ff16908060010160159054906101000a900460ff16908060010160169054906101000a900460ff16905085565b600080600090505b600280549050811015610e06578260028281548110610dd157610dd0611519565b5b9060005260206000209060020201600001541415610df3576001915050610e0c565b8080610dfe906115ae565b915050610daf565b50600090505b919050565b5080546000825560030290600052602060002090810190610e329190610e35565b50565b5b80821115610e7f57600080820160006101000a81549073ffffffffffffffffffffffffffffffffffffffff02191690556001820160009055600282016000905550600301610e36565b5090565b600080fd5b6000819050919050565b610e9b81610e88565b8114610ea657600080fd5b50565b600081359050610eb881610e92565b92915050565b600060208284031215610ed457610ed3610e83565b5b6000610ee284828501610ea9565b91505092915050565b600073ffffffffffffffffffffffffffffffffffffffff82169050919050565b6000610f1682610eeb565b9050919050565b610f2681610f0b565b82525050565b610f3581610e88565b82525050565b6000606082019050610f506000830186610f1d565b610f5d6020830185610f2c565b610f6a6040830184610f2c565b949350505050565b60008060408385031215610f8957610f88610e83565b5b6000610f9785828601610ea9565b9250506020610fa885828601610ea9565b9150509250929050565b6000602082019050610fc76000830184610f2c565b92915050565b600081519050919050565b600082825260208201905092915050565b6000819050602082019050919050565b61100281610f0b565b82525050565b61101181610e88565b82525050565b60608201600082015161102d6000850182610ff9565b5060208201516110406020850182611008565b5060408201516110536040850182611008565b50505050565b60006110658383611017565b60608301905092915050565b6000602082019050919050565b600061108982610fcd565b6110938185610fd8565b935061109e83610fe9565b8060005b838110156110cf5781516110b68882611059565b97506110c183611071565b9250506001810190506110a2565b5085935050505092915050565b600060208201905081810360008301526110f6818461107e565b905092915050565b600081519050919050565b600082825260208201905092915050565b6000819050602082019050919050565b600060ff82169050919050565b6111408161112a565b82525050565b60a08201600082015161115c6000850182611008565b50602082015161116f6020850182610ff9565b5060408201516111826040850182611137565b5060608201516111956060850182611137565b5060808201516111a86080850182611137565b50505050565b60006111ba8383611146565b60a08301905092915050565b6000602082019050919050565b60006111de826110fe565b6111e88185611109565b93506111f38361111a565b8060005b8381101561122457815161120b88826111ae565b9750611216836111c6565b9250506001810190506111f7565b5085935050505092915050565b6000602082019050818103600083015261124b81846111d3565b905092915050565b61125c8161112a565b811461126757600080fd5b50565b60008135905061127981611253565b92915050565b6000806000806080858703121561129957611298610e83565b5b60006112a787828801610ea9565b94505060206112b88782880161126a565b93505060406112c98782880161126a565b92505060606112da8782880161126a565b91505092959194509250565b6112ef8161112a565b82525050565b600060a08201905061130a6000830188610f2c565b6113176020830187610f1d565b61132460408301866112e6565b61133160608301856112e6565b61133e60808301846112e6565b9695505050505050565b600082825260208201905092915050565b7f436574746520766f6974757265206e652070617274696369706520706173206160008201527f206c6120636f7572736500000000000000000000000000000000000000000000602082015250565b60006113b5602a83611348565b91506113c082611359565b604082019050919050565b600060208201905081810360008301526113e4816113a8565b9050919050565b60006060820190506114006000830186610f1d565b61140d6020830185610f1d565b61141a6040830184610f2c565b949350505050565b60008115159050919050565b61143781611422565b811461144257600080fd5b50565b6000815190506114548161142e565b92915050565b6000602082840312156114705761146f610e83565b5b600061147e84828501611445565b91505092915050565b7f496c206e2779206120706173206427656e74726565732064616e73206c61206360008201527f6f75727365000000000000000000000000000000000000000000000000000000602082015250565b60006114e3602583611348565b91506114ee82611487565b604082019050919050565b60006020820190508181036000830152611512816114d6565b9050919050565b7f4e487b7100000000000000000000000000000000000000000000000000000000600052603260045260246000fd5b7f4e487b7100000000000000000000000000000000000000000000000000000000600052601160045260246000fd5b60006115828261112a565b915061158d8361112a565b92508260ff038211156115a3576115a2611548565b5b828201905092915050565b60006115b982610e88565b91507fffffffffffffffffffffffffffffffffffffffffffffffffffffffffffffffff8214156115ec576115eb611548565b5b600182019050919050565b600061160282610e88565b915061160d83610e88565b9250827fffffffffffffffffffffffffffffffffffffffffffffffffffffffffffffffff0382111561164257611641611548565b5b828201905092915050565b7f4e487b7100000000000000000000000000000000000000000000000000000000600052601260045260246000fd5b600061168782610e88565b915061169283610e88565b9250826116a2576116a161164d565b5b828204905092915050565b60006116b882610e88565b91506116c383610e88565b9250828210156116d6576116d5611548565b5b828203905092915050565b60006116ec82610e88565b91506116f783610e88565b9250817fffffffffffffffffffffffffffffffffffffffffffffffffffffffffffffffff04831182151516156117305761172f611548565b5b828202905092915050565b60006040820190506117506000830185610f1d565b61175d6020830184610f2c565b9392505050565b61176d81610f0b565b811461177857600080fd5b50565b60008151905061178a81611764565b92915050565b6000602082840312156117a6576117a5610e83565b5b60006117b48482850161177b565b91505092915050565b7f566f757320646576657a2065747265206c652070726f7072696574616972652060008201527f6475204e465420706f757220656e747265722064616e73206c6120636f75727360208201527f6500000000000000000000000000000000000000000000000000000000000000604082015250565b600061183f604183611348565b915061184a826117bd565b606082019050919050565b6000602082019050818103600083015261186e81611832565b905091905056fea2646970667358221220091a5172331e259e8d4a87bd9a42707b36dfe9a07a71db4e796ada74903fdcd864736f6c63430008090033",
  "linkReferences": {},
  "deployedLinkReferences": {}
}