{
  "_format": "hh-sol-artifact-1",
  "contractName": "FCar",
  "sourceName": "contracts/FCar.sol",
  "abi": [
    {
      "inputs": [],
      "stateMutability": "nonpayable",
      "type": "constructor"
    },
    {
      "anonymous": false,
      "inputs": [
        {
          "indexed": false,
          "internalType": "uint256",
          "name": "id",
          "type": "uint256"
        },
        {
          "indexed": false,
          "internalType": "string",
          "name": "s_rarity",
          "type": "string"
        },
        {
          "indexed": false,
          "internalType": "uint8",
          "name": "speed",
          "type": "uint8"
        },
        {
          "indexed": false,
          "internalType": "uint8",
          "name": "acceleration",
          "type": "uint8"
        },
        {
          "indexed": false,
          "internalType": "uint8",
          "name": "maniability",
          "type": "uint8"
        },
        {
          "indexed": false,
          "internalType": "uint32",
          "name": "readyTime",
          "type": "uint32"
        }
      ],
      "name": "NewCar",
      "type": "event"
    },
    {
      "anonymous": false,
      "inputs": [
        {
          "indexed": true,
          "internalType": "address",
          "name": "_user",
          "type": "address"
        },
        {
          "indexed": true,
          "internalType": "uint256",
          "name": "_car",
          "type": "uint256"
        }
      ],
      "name": "ResetCooldown",
      "type": "event"
    },
    {
      "inputs": [
        {
          "internalType": "uint256",
          "name": "",
          "type": "uint256"
        }
      ],
      "name": "carToOwner",
      "outputs": [
        {
          "internalType": "address",
          "name": "",
          "type": "address"
        }
      ],
      "stateMutability": "view",
      "type": "function"
    },
    {
      "inputs": [
        {
          "internalType": "uint256",
          "name": "id",
          "type": "uint256"
        }
      ],
      "name": "getCar",
      "outputs": [
        {
          "components": [
            {
              "internalType": "uint256",
              "name": "id",
              "type": "uint256"
            },
            {
              "internalType": "string",
              "name": "rarity",
              "type": "string"
            },
            {
              "internalType": "uint8",
              "name": "speed",
              "type": "uint8"
            },
            {
              "internalType": "uint8",
              "name": "acceleration",
              "type": "uint8"
            },
            {
              "internalType": "uint8",
              "name": "maniability",
              "type": "uint8"
            },
            {
              "internalType": "uint32",
              "name": "readyTime",
              "type": "uint32"
            }
          ],
          "internalType": "struct FCar.Car",
          "name": "",
          "type": "tuple"
        }
      ],
      "stateMutability": "view",
      "type": "function"
    },
    {
      "inputs": [],
      "name": "getUserCars",
      "outputs": [
        {
          "internalType": "uint256[]",
          "name": "",
          "type": "uint256[]"
        }
      ],
      "stateMutability": "view",
      "type": "function"
    },
    {
      "inputs": [],
      "name": "owner",
      "outputs": [
        {
          "internalType": "address",
          "name": "",
          "type": "address"
        }
      ],
      "stateMutability": "view",
      "type": "function"
    }
  ],
  "bytecode": "0x6080604052600060055562015180600660006101000a81548163ffffffff021916908363ffffffff1602179055506040518060a0016040528061271061ffff1681526020016105dc61ffff16815260200160fa61ffff168152602001603261ffff168152602001600a61ffff16815250600790600561007f9291906100d2565b5034801561008c57600080fd5b50336000806101000a81548173ffffffffffffffffffffffffffffffffffffffff021916908373ffffffffffffffffffffffffffffffffffffffff160217905550610199565b82805482825590600052602060002090600f0160109004810192821561016b5791602002820160005b8382111561013b57835183826101000a81548161ffff021916908361ffff16021790555092602001926002016020816001010492830192600103026100fb565b80156101695782816101000a81549061ffff021916905560020160208160010104928301926001030261013b565b505b509050610178919061017c565b5090565b5b8082111561019557600081600090555060010161017d565b5090565b610752806101a86000396000f3fe608060405234801561001057600080fd5b506004361061004c5760003560e01c806333ca504b146100515780635e8be190146100815780638da5cb5b146100b1578063c27a399d146100cf575b600080fd5b61006b600480360381019061006691906103ae565b6100ed565b604051610078919061041c565b60405180910390f35b61009b600480360381019061009691906103ae565b610120565b6040516100a8919061059a565b60405180910390f35b6100b9610275565b6040516100c6919061041c565b60405180910390f35b6100d7610299565b6040516100e4919061066b565b60405180910390f35b60026020528060005260406000206000915054906101000a900473ffffffffffffffffffffffffffffffffffffffff1681565b61012861032e565b6001828154811061013c5761013b61068d565b5b90600052602060002090600302016040518060c00160405290816000820154815260200160018201805461016f906106eb565b80601f016020809104026020016040519081016040528092919081815260200182805461019b906106eb565b80156101e85780601f106101bd576101008083540402835291602001916101e8565b820191906000526020600020905b8154815290600101906020018083116101cb57829003601f168201915b505050505081526020016002820160009054906101000a900460ff1660ff1660ff1681526020016002820160019054906101000a900460ff1660ff1660ff1681526020016002820160029054906101000a900460ff1660ff1660ff1681526020016002820160039054906101000a900463ffffffff1663ffffffff1663ffffffff16815250509050919050565b60008054906101000a900473ffffffffffffffffffffffffffffffffffffffff1681565b6060600460003373ffffffffffffffffffffffffffffffffffffffff1673ffffffffffffffffffffffffffffffffffffffff16815260200190815260200160002080548060200260200160405190810160405280929190818152602001828054801561032457602002820191906000526020600020905b815481526020019060010190808311610310575b5050505050905090565b6040518060c001604052806000815260200160608152602001600060ff168152602001600060ff168152602001600060ff168152602001600063ffffffff1681525090565b600080fd5b6000819050919050565b61038b81610378565b811461039657600080fd5b50565b6000813590506103a881610382565b92915050565b6000602082840312156103c4576103c3610373565b5b60006103d284828501610399565b91505092915050565b600073ffffffffffffffffffffffffffffffffffffffff82169050919050565b6000610406826103db565b9050919050565b610416816103fb565b82525050565b6000602082019050610431600083018461040d565b92915050565b61044081610378565b82525050565b600081519050919050565b600082825260208201905092915050565b60005b83811015610480578082015181840152602081019050610465565b60008484015250505050565b6000601f19601f8301169050919050565b60006104a882610446565b6104b28185610451565b93506104c2818560208601610462565b6104cb8161048c565b840191505092915050565b600060ff82169050919050565b6104ec816104d6565b82525050565b600063ffffffff82169050919050565b61050b816104f2565b82525050565b600060c0830160008301516105296000860182610437565b5060208301518482036020860152610541828261049d565b915050604083015161055660408601826104e3565b50606083015161056960608601826104e3565b50608083015161057c60808601826104e3565b5060a083015161058f60a0860182610502565b508091505092915050565b600060208201905081810360008301526105b48184610511565b905092915050565b600081519050919050565b600082825260208201905092915050565b6000819050602082019050919050565b60006105f48383610437565b60208301905092915050565b6000602082019050919050565b6000610618826105bc565b61062281856105c7565b935061062d836105d8565b8060005b8381101561065e57815161064588826105e8565b975061065083610600565b925050600181019050610631565b5085935050505092915050565b60006020820190508181036000830152610685818461060d565b905092915050565b7f4e487b7100000000000000000000000000000000000000000000000000000000600052603260045260246000fd5b7f4e487b7100000000000000000000000000000000000000000000000000000000600052602260045260246000fd5b6000600282049050600182168061070357607f821691505b602082108103610716576107156106bc565b5b5091905056fea26469706673582212207f2d4bfea4ed04b772c0ad317c9c0de2f60857b79c1cb444cc1333b3b1c12a9764736f6c63430008120033",
  "linkReferences": {},
  "deployedLinkReferences": {}
}